:040000008031C6285D
:100008007E1480312000101E0A280B28C2282700E1
:10001800111C0F2810281228200010122700911CEC
:10002800162817281928200010122700111D1D282E
:100038001E2820282000101220000C1C2428252807
:100048006F280E1E282829283B280E1F2C282D280B
:100058003B282700941E312832283428200010120B
:100068002700941F382839283B2820001012200028
:100078000E1E3F2840284E282700941E4428452855
:100088004728200010122700941F4B284C284E2880
:100098002000101220000E1F522853286128270024
:1000A800941E572858285A28200010122700941FF9
:1000B8005E285F286128200010122700941E6528FA
:1000C80066286828200010122700941F6C286D28C5
:1000D8006F282000101220008C18732874287828A4
:1000E8000C1D77287828C2280E1E7B287C288E288D
:1000F8000E1F7F2880288E282700941E8428852894
:100108008728200010122700941F8B288C288E28FF
:100118002000101220000E1E92289328A1282700E4
:10012800941E972898289A28200010122700941FB8
:100138009E289F28A1282000101220000E1FA52805
:10014800A628B4282700941EAA28AB28AD2820008A
:1001580010122700941FB128B228B42820001012CA
:100168002700941EB828B928BB28200010122700A1
:10017800941FBF28C028C228200010122000101287
:100188007E1009008031C82835308400843085000D
:10019800A030860000308700303085313E25803120
:1001A800F901FA01FB01FC0152308400003085009E
:1001B8000F308531442580317E1020008031E428BD
:1001C800843188248031B8308600003087003A3086
:1001D8008400003085001830F70016001A00F70B6D
:1001E800F128A030860000308700203084000030DD
:1001F80085001830F70016001A00F70BFF280030AA
:10020800F0000130F10085315525803185316025B8
:1002180080312930F8009630F7007F30890B122999
:10022800F70B1229F80B122900002930F800963034
:10023800F7007F30890B1E29F70B1E29F80B1E29A2
:1002480000002930F8009630F7007F30890B2A2902
:10025800F70B2A29F80B2A29000085315D25803102
:10026800FF30F0000030F1008531552580318531AF
:10027800602580312930F8009630F7007F30890BEF
:100288004329F70B4329F80B432900002930F800CC
:100298009630F7007F30890B4F29F70B4F29F80B61
:1002A8004F2900002930F8009630F7007F30890B7D
:1002B8005B29F70B5B29F80B5B29000085315D256D
:1002C8008031C830F0000030F1008531552580318B
:1002D8008531602580312930F8009630F7007F306D
:1002E800890B7429F70B7429F80B7429000029303D
:1002F800F8009630F7007F30890B8029F70B8029AA
:10030800F80B802900002930F8009630F7007F307C
:10031800890B8C29F70B8C29F80B8C290000853167
:100328005D25803120003B08F1003A08F000853156
:10033800552580318531602580312930F800963087
:10034800F7007F30890BA629F70BA629F80BA629F9
:1003580000002930F8009630F7007F30890BB22969
:10036800F70BB229F80BB22900002930F8009630B3
:10037800F7007F30890BBE29F70BBE29F80BBE2981
:10038800000085315D25803120003D08F1003C08E2
:10039800F00085315525803185316025803129303F
:1003A800F8009630F7007F30890BD829F70BD82949
:1003B800F80BD82900002930F8009630F7007F3074
:1003C800890BE429F70BE429F80BE429000029300C
:1003D800F8009630F7007F30890BF029F70BF029E9
:1003E800F80BF029000085315D25803120003F0899
:1003F800F1003E08F00085315525803185316025B2
:1004080080312930F8009630F7007F30890B0A2AAE
:10041800F70B0A2AF80B0A2A00002930F800963050
:10042800F7007F30890B162AF70B162AF80B162AC5
:1004380000002930F8009630F7007F30890B222A17
:10044800F70B222AF80B222A000085315D2580311E
:1004580020004108F1004008F00085315525803121
:100468008531602580312930F8009630F7007F30DB
:10047800890B3C2AF70B3C2AF80B3C2A0000293050
:10048800F8009630F7007F30890B482AF70B482A86
:10049800F80B482A00002930F8009630F7007F3022
:1004A800890B542AF70B542AF80B542A000085317B
:1004B8005D25803120004308F1004208F0008531B5
:1004C800552580318531602580312930F8009630F6
:1004D800F7007F30890B6E2AF70B6E2AF80B6E2A0D
:1004E80000002930F8009630F7007F30890B7A2A0F
:1004F800F70B7A2AF80B7A2A00002930F800963090
:10050800F7007F30890B862AF70B862AF80B862A94
:10051800000085315D25803120004508F100440840
:10052800F0008531552580318531602580312930AD
:10053800F8009630F7007F30890BA02AF70BA02A25
:10054800F80BA02A00002930F8009630F7007F3019
:10055800890BAC2AF70BAC2AF80BAC2A000029301F
:10056800F8009630F7007F30890BB82AF70BB82AC5
:10057800F80BB82A000085315D2580312000470836
:10058800F1004608F0008531552580318531602518
:1005980080312930F8009630F7007F30890BD22A55
:1005A800F70BD22AF80BD22A00002930F80096302F
:1005B800F7007F30890BDE2AF70BDE2AF80BDE2ADC
:1005C80000002930F8009630F7007F30890BEA2ABE
:1005D800F70BEA2AF80BEA2A000085315D258031FD
:1005E80020004908F1004808F00085315525803180
:1005F8008531602580312930F8009630F7007F304A
:10060800890B042BF70B042BF80B042B0000293063
:10061800F8009630F7007F30890B102BF70B102B62
:10062800F80B102B00002930F8009630F7007F30C7
:10063800890B1C2BF70B1C2BF80B1C2B000085318E
:100648005D25803120004B08F1004A08F000853113
:10065800552580318531602580312930F800963064
:10066800F7007F30890B362BF70B362BF80B362B20
:1006780000002930F8009630F7007F30890B422BB4
:10068800F70B422BF80B422B00002930F80096306C
:10069800F7007F30890B4E2BF70B4E2BF80B4E2BA8
:1006A800000085315D25803120004D08F1004C089F
:1006B800F00085315525803185316025803129301C
:1006C800F8009630F7007F30890B682BF70B682B02
:1006D800F80B682B00002930F8009630F7007F30BF
:1006E800890B742BF70B742BF80B742B0000293033
:1006F800F8009630F7007F30890B802BF70B802BA2
:10070800F80B802B000085315D25803120004F08D3
:10071800F1004E08F000853155258031853160257E
:1007280080312930F8009630F7007F30890B9A2BFA
:10073800F70B9A2BF80B9A2B00002930F80096300B
:10074800F7007F30890BA62BF70BA62BF80BA62BEF
:1007580000002930F8009630F7007F30890BB22B63
:10076800F70BB22BF80BB22B000085315D258031D9
:1007780020005108F1005008F000853155258031DE
:100788008531602580312930F8009630F7007F30B8
:10079800890BCC2BF70BCC2BF80BCC2B000029307A
:1007A800F8009630F7007F30890BD82BF70BD82B41
:1007B800F80BD82B00002930F8009630F7007F306E
:1007C800890BE42BF70BE42BF80BE42B00008531A5
:1007D8005D25803103298031C62822008C015030E4
:1007E8008D008E011F3021008C00F0308D00D0303C
:1007F8008E00103023008C008D0128308E002400DC
:100808008C018D018E0125008C018D018E01373000
:1008180026008C00F0308D00FF308E003F3027001E
:100828008C00F0308D00FF308E0002303D00A500B6
:100838000330A3000E303C00A00018303D009E009D
:100848000C303C00A10019303D009C0027009101AC
:1008580092019301940195019601970198019901DC
:100868000800FC340034EE340034E0340034D4346E
:100878000034C8340034BD340034B2340034A834F1
:1008880000349E340034953400348D34003485347B
:100898000034FC340034EE340034E0340034D43412
:1008A8000034C8340034BD340034B2340034A834C1
:1008B80000349E340034953400348D34003485344B
:1008C8000034F6018431EB248431003A031D6D2C89
:1008D8006E2C862C01302000D2007208D4007108DA
:1008E800D300DC017308D5007508D7007408D6005A
:1008F800D801D901DA01DB01DD01853137258431E1
:10090800F601F60A7608080085312D2584318331F1
:10091800F123843184319E24843185311625843134
:1009280085310A2584318431FB2484318431DA24E9
:100938008431080080302400940008309500960126
:1009480097014F3092008531592584310030F000ED
:100958000030F100853122258431240095160800E5
:100968009E340434003400346534043400340034D4
:10097800003400340034003400340034EB340434E0
:100988002234053400340034003400340034003498
:1009980000340034003400340034003400340034AF
:1009A800003400340034003400340034FF302800B0
:1009B800960095012000921007302800970000301B
:1009C800F0000030F10085314A2584310800F0013B
:1009D800F00A20005208031DF22CF32CF92C2400F5
:1009E8009419F72CF82CF92CF00170080800FF3046
:1009F80020009E009D01911007309F000030F000FC
:100A08000030F100853150258431080080302C00F9
:100A18009C007F309B00C0309A001F08F3390838CB
:100A28009F00080080302C0099007F309800C0306B
:100A380097001F08FC3901389F00080070087104EE
:100A48000319272D282D2C2D7108FC007008FB0098
:100A580008006030320099009B019D0107309F001B
:100A68009E019C01080085316325853102302000F4
:100A7800DE000800FE0012001E00FE0B3F2D0034B1
:100A8800640080010131890B452D00347108200074
:100A9800E0007008DF0008007108FA007008F9002B
:100AA8000800700820009E0008002100911511150B
:100AB800080020001F11080020001F15080024004E
:040AC80016140800F8
:020000040001F9
:08000E008F3EF33FFF3FFF3F6F
:02E00000FF001F
:00000001FF
