:040000008031C6285D
:100008007E1480312000101E0A280B28C2282700E1
:10001800111C0F2810281228200010122700911CEC
:10002800162817281928200010122700111D1D282E
:100038001E2820282000101220000C1C2428252807
:100048006F280E1E282829283B280E1F2C282D280B
:100058003B282700941E312832283428200010120B
:100068002700941F382839283B2820001012200028
:100078000E1E3F2840284E282700941E4428452855
:100088004728200010122700941F4B284C284E2880
:100098002000101220000E1F522853286128270024
:1000A800941E572858285A28200010122700941FF9
:1000B8005E285F286128200010122700941E6528FA
:1000C80066286828200010122700941F6C286D28C5
:1000D8006F282000101220008C18732874287828A4
:1000E8000C1D77287828C2280E1E7B287C288E288D
:1000F8000E1F7F2880288E282700941E8428852894
:100108008728200010122700941F8B288C288E28FF
:100118002000101220000E1E92289328A1282700E4
:10012800941E972898289A28200010122700941FB8
:100138009E289F28A1282000101220000E1FA52805
:10014800A628B4282700941EAA28AB28AD2820008A
:1001580010122700941FB128B228B42820001012CA
:100168002700941EB828B928BB28200010122700A1
:10017800941FBF28C028C228200010122000101287
:100188007E1009008031C82836308400863085000A
:10019800A03086000030870030308731C02780319A
:1001A80014308400873085002030860001308700B5
:1001B80018308731C0278031F901FA01FB01FC01B1
:1001C800EA01EB01EC01ED01D0308400003085003C
:1001D8000D308731C62780317E1020008431602C95
:1001E8008731ED2780318030F0000030F100873111
:1001F800DD2780318731F02780310B30F200623003
:10020800890B0429F20B042900328731ED2780314C
:100218006430F0000030F1008731DD27803187310C
:10022800F02780310B30F2006230890B1929F20B6C
:10023800192900328731ED2780315030F000003025
:10024800F1008731DD2780318731F02780310B308D
:10025800F2006230890B2E29F20B2E2900328731E9
:10026800ED2780313230F0000030F1008731DD2792
:1002780080318731F02780310B30F2006230890BF2
:100288004329F20B432900328731ED2780311E3094
:10029800F0000030F1008731DD2780318731F02709
:1002A80080310B30F2006230890B5829F20B582943
:1002B8000032F301F4018731ED2780317408F10031
:1002C8007308F0008731DD2780318731F0278031CE
:1002D8000B30F2006230890B6F29F20B6F29003264
:1002E8000230F3070030F43D7408803AF2008130A0
:1002F8007202031D812900307302031C8429852999
:100308005F298731ED278031FF30F0000030F100A0
:100318008731DD2780318731F02780316830F2005E
:10032800E430890B9529F20B952900328731ED27A6
:10033800803108003F30F7005530890BA129F70BB1
:10034800A12900008731F92781310730F800B3303F
:10035800F7004230890BAE29F70BAE29F80BAE290E
:1003680000328731F927813120003D08F1003C082F
:10037800F0008731E52781318731FC2781318731CA
:10038800F327813120005508F1005408F000873127
:10039800E12781318731F62781318031F42081319D
:1003A8000230F800B530F7005A30890BD929F70B1D
:1003B800D929F80BD9298631B42681310230F800C1
:1003C800B530F7005A30890BE729F70BE729F80B06
:1003D800E7298631B42681310430F8005430F7001B
:1003E800EE30890BF529F70BF529F80BF5290032C2
:1003F8008731F927813120006908F1006808F00089
:100408008731E52781318731FC2781318631B42650
:1004180081310230F800B530F7005A30890B122AC2
:10042800F70B122AF80B122A8631B42681310230D2
:10043800F800B530F7005A30890B202AF70B202A2C
:10044800F80B202A0230F8006C30F700A030890B36
:100458002B2AF70B2B2AF80B2B2A8031F420813119
:100468008331512B0230F800B530F7005A30890B30
:100478003B2AF70B3B2AF80B3B2A8031F4208231C8
:100488000230F800B530F7005A30890B492AF70BCB
:10049800492AF80B492A8631B42682310330F800FC
:1004A800E230F700A630890B572AF70B572AF80BCA
:1004B800572A8731F92782318731F3278231200083
:1004C8006508F1006408F0008731E527823187313B
:1004D800FC27823120005B08F1005A08F0008731C0
:1004E800E12782318731F62782318631B42682317D
:1004F8000230F800B530F7005A30890B812AF70B23
:10050800812AF80B812A8631B42682310230F8001C
:10051800B530F7005A30890B8F2AF70B8F2AF80B62
:100528008F2A8031F42082310230F800B530F7008C
:100538005A30890B9D2AF70B9D2AF80B9D2A863184
:10054800D62682310230F8005730F700D830890BB0
:10055800AB2AF70BAB2AF80BAB2A00328631D6262A
:1005680082310230F8005730F700D830890BBA2AA8
:10057800F70BBA2AF80BBA2A00328631D62682310E
:1005880081319E298631B42682310230F800B53097
:10059800F7005A30890BCE2AF70BCE2AF80BCE2A51
:1005A8008631B42682310230F800B530F7005A306F
:1005B800890BDC2AF70BDC2AF80BDC2A0330F8005D
:1005C800D830F7004230890BE72AF70BE72AF80BF7
:1005D800E72A8031F42082317D30F700AC30890B76
:1005E800F32AF70BF32A8731F927823120004308D1
:1005F800F1004208F0008731E52782318731FC2776
:1006080082318631B42682310230F800B530F700E5
:100618005A30890B0D2BF70B0D2BF80B0D2B863150
:10062800B42682310330F800B930F7001630890B50
:100638001B2BF70B1B2BF80B1B2B00328731F927D1
:10064800823120003D08F1003C08F0008731E527A1
:1006580082318731FC2782318731F32782312000AC
:100668005B08F1005A08F0008731E12782318731B1
:10067800F62782318031F42082310230F800B5301B
:10068800F7005A30890B462BF70B462BF80B462BF5
:100698008031F42082318331DA2B0230F8006C305B
:1006A800F700A030890B562BF70B562BF80B562B5F
:1006B8007D30F700AC30890B5F2BF70B5F2B873150
:1006C800F927833120004308F1004208F000873100
:1006D800E52783318731FC2783318631B42683317E
:1006E8000230F800B530F7005A30890B792BF70B38
:1006F800792BF80B792B8631B42683310530F80035
:10070800C030F7009030890B872BF70B872BF80B3D
:10071800872B00328731F927833120004708F10001
:100728004608F0008731E52783318731FC2783317C
:100738008731F327833120005B08F1005A08F00065
:100748008731E12783318731F62783318031F420DF
:1007580083310230F800B530F7005A30890BB22BDC
:10076800F70BB22BF80BB22B8031F4208331023017
:10077800F800B530F7005A30890BC02BF70BC02BA7
:10078800F80BC02B8631B42683310430F80054307E
:10079800F700EE30890BCE2BF70BCE2BF80BCE2BB8
:1007A80000328731F9278331883105280230F80073
:1007B800B530F7005A30890BDF2BF70BDF2BF80B1E
:1007C800DF2B8631B42683310330F800B930F700C7
:1007D8001630890BED2BF70BED2BF80BED2B0032B8
:1007E8008731F927833120006908F1006808F00093
:1007F8008731E52783318731FC2783318631B42659
:1008080083310230F800B530F7005A30890B0A2CD2
:10081800F70B0A2CF80B0A2C8631B42683310230E8
:10082800F800B530F7005A30890B182CF70B182C44
:10083800F80B182C8031F42083313430F700F23073
:10084800890B242CF70B242C8731F327833187312C
:10085800F927833120006308F1006208F00087312E
:10086800E52783318731FC27833120005B08F100BD
:100878005A08F0008731E12783318731F627833121
:100888008631B42683310430F8008830F700E1302F
:10089800890B4C2CF70B4C2CF80B4C2C0000873197
:1008A800F927833120006508F1006408F0008731DA
:1008B800E52783318431E42C8631F8268431B83039
:1008C80086000030870052308400003085001830E0
:1008D800F70016001A00F70B6D2CA03086000030C8
:1008E80087003A308400003085001830F700160081
:1008F8001A00F70B7B2C203086000130870022304D
:100908008400003085001830F70016001A00F70B35
:10091800892C8731F927843120003D08F1003C08F3
:10092800F0008731E52784318731FC27843187310E
:10093800F327843120005508F1005408F00087316E
:10094800E12784318731F62784318031F4208431DE
:100958000230F800B530F7005A30890BB12CF70B8C
:10096800B12CF80BB12C8631B42684310230F80052
:10097800B530F7005A30890BBF2CF70BBF2CF80B9A
:10098800BF2C8631B42684310430F8005430F70087
:10099800EE30890BCD2CF70BCD2CF80BCD2C00327B
:1009A8008731F927843120006908F1006808F000D0
:1009B8008731E52784318731FC2784318231C62A83
:1009C8008731FC2784318731F32784312000570889
:1009D800F1005608F0008731E12784318731F62786
:1009E80084318631B42684310430F8008830F70029
:1009F800E130890BFD2CF70BFD2CF80BFD2C0000CA
:100A08008731F927843120006908F1006808F0006F
:100A18008731E52784318731FC2784318731F327F3
:100A2800843120005508F1005408F0008731E1278F
:100A380084318731F62784318031F42084310230C3
:100A4800F800B530F7005A30890B282DF70B282D00
:100A5800F80B282D8631B42684310230F800B530E1
:100A6800F7005A30890B362DF70B362DF80B362D3B
:100A78008631B42684310430F8005F30F7005230F4
:100A8800890B442DF70B442DF80B442D8731F9279A
:100A980084318731F327843120006508F100640828
:100AA800F0008731E52784318731FC278431200025
:100AB8005B08F1005A08F0008731E127843187315B
:100AC800F62784318531682D8631B4268531023088
:100AD800F800B530F7005A30890B702DF70B702DE0
:100AE800F80B702D8631B42685310230F800B53008
:100AF800F7005A30890B7E2DF70B7E2DF80B7E2DD3
:100B08008031F42085310430F8005F30F70052302E
:100B1800890B8C2DF70B8C2DF80B8C2D8731F92731
:100B280085318731F327853120004308F1004208D9
:100B3800F0008731E52785318731FC278531200092
:100B48005F08F1005E08F0008731E12785318731C1
:100B5800F62785318631B42685310230F800B53064
:100B6800F7005A30890BB62DF70BB62DF80BB62DBA
:100B78008631B42685310330F800B930F7001630D5
:100B8800890BC42DF70BC42DF80BC42D0032873107
:100B9800F32785318731F927853120006308F10073
:100BA8006208F0008731E52785318731FC278531D8
:100BB80020005F08F1005E08F0008731E1278531E9
:100BC8008731F62785318031F42085318231362A04
:100BD80022008C0150308D008E011F3021008C00C6
:100BE800F0308D00C0308E00103023008C008D0155
:100BF80038308E0024008C018D018E0125008C0177
:100C08008D018E01373026008C00F0308D00FF30CA
:100C18008E003F3027008C00F0308D00FF308E00B2
:100C280002303D00A5000330A3000E303C00A000B8
:100C380018303D009E000C303C00A10019303D00EA
:100C48009C0014303C0094000C303D00A4002700A8
:100C580091019201930194019501960197019801E0
:100C6800990108007E34003476340034703400343E
:100C780069340034633400345E340034583400344A
:100C8800533400344F3400344A340034463400348A
:100C980042340034FC340034EE340034E0340034A0
:100CA800D4340034C8340034BD340034B234003491
:100CB800A83400349E340034953400348D34003424
:100CC800853400348030F3000030F4008731ED279C
:100CD80086317408F1007308F0008731DD2786310A
:100CE8008731F02786310B30F2006230890B7A2E7B
:100CF800F20B7A2E00320430F3070030F43D74080A
:100D0800803AF20081307202031D8C2E013073028A
:100D1800031C8F2E902E6A2E0800F6018731642757
:100D28008631003A031D992E9A2EB22E01302100E9
:100D3800D0007208D2007108D100DA017308D3001C
:100D48007508D5007408D400D601D701D801D90197
:100D5800DB018731B9278631F601F60A76080800E3
:100D6800FF30F3000030F4008731ED278631740836
:100D7800F1007308F0008731DD2786318731F027CD
:100D880086310B30F2006230890BC82EF20BC82E68
:100D98000032FE30F307FF30F43DF41FD42ED52E79
:100DA800B82E08008030F3000030F4008731ED27BA
:100DB80086317408F1007308F0008731DD27863129
:100DC8008731F02786310B30F2006230890BEA2E2A
:100DD800F20BEA2E0032FC30F307FF30F43DF41F2B
:100DE800F62EF72EDA2E08008731A62786318531B0
:100DF800EC25863187312C2786318731B02786311B
:100E080087318F2786318731832786318731742749
:100E1800863187315327863187314227863108004A
:100E28003E3400343A340034383400343434003436
:100E3800313400342E3400342C3400342934003456
:100E4800273400342534003423340034213400346A
:100E580080302400940008309500960197014F30A7
:100E680092008731E92787310030F0000030F10027
:100E780087319B2787312400951608003F302800CA
:100E88009D009C0120009213073028009E0000302E
:100E9800F0000030F1008731CC27873108003F305F
:100EA800280096009501200092100730280097002E
:100EB8000030F0000030F1008731D2278731080078
:100EC800F001F00A21005008031D6B2F6C2F722FC0
:100ED80024009419702F712F722FF00170080800E8
:100EE8003F3020009E009D01911007309F00003088
:100EF800F0000030F1008731D827873108008030B2
:100F08002C009C001F309B00C0309A001F08F3394A
:100F180008389F00080080302C0099001F30980086
:100F2800C03097001F08FC3901389F00080070087E
:100F380071040319A02FA12FA52F7108FC007008B8
:100F4800FB0008006030320099009B019D010730CA
:100F58009F009E019C0108008F302500930092019C
:100F68007F30910003309F040800883102208731C8
:100F780002302100DC000800FE0012001E00FE0BFB
:100F8800C12F0034640080010131890BC72F003460
:100F980071082000EB007008EA00080071082000C2
:100FA800ED007008EC0008007108FA007008F900FC
:100FB8000800700828009D000800700828009600A6
:100FC8000800700820009E000800210091151115E6
:100FD800080028001E11080028001E150800280017
:100FE8001711080028001715080020001F11080015
:060FF80020001F15080097
:1010040024001614080020004308F1004208F000F0
:101014008731E52788318731FC2788318731F327E9
:10102400883120005F08F1005E08F0008731E12775
:1010340088318731F62788318631B42688310230E9
:10104400F800B530F7005A30890B2628F70B26280C
:10105400F80B26288631B42688310330F800B930DD
:10106400F7001630890B3428F70B3428F80B342892
:1010740000328731F927883120004D08F1004C08EF
:10108400F0008731E52788318731FC2788318731A3
:10109400F327883120006908F1006808F0008731DF
:1010A400E12788318731F62788318031F42088316F
:1010B4000230F800E930F7004C30890B5F28F70B59
:1010C4005F28F80B5F2800328731F9278831200028
:1010D4004B08F1004A08F0008731E5278831873151
:1010E400FC2788318631B42688310530F8001A305F
:1010F400F7005430890B7C28F70B7C28F80B7C28EC
:1011040000328731F927883120003D08F1003C087E
:10111400F0008731E52788318731FC278831863113
:10112400B4268831E530F7009130890B9728F70B06
:10113400972800008731F327883120005108F100F7
:101144005008F0008731E12788318731F62788314C
:101154008031F42088310230F800B530F7005A307D
:10116400890BB228F70BB228F80BB2288631B426C3
:1011740088310230F800B530F7005A30890BC028A6
:10118400F70BC028F80BC0288631B4268831043008
:10119400F8005430F700EE30890BCE28F70BCE2838
:1011A400F80BCE2800328731F32788312000250838
:1011B400F1002408F0008731E12788318731F627D0
:1011C40088318631B42688310230F800B530F70012
:1011D4005A30890BEB28F70BEB28F80BEB288631F8
:1011E400B42688310230F800B530F7005A30890B44
:1011F400F928F70BF928F80BF9288031F420883105
:101204000430F8005430F700EE30890B0729F70B4F
:101214000729F80B072900328731F327883120008A
:101224005108F1005008F0008731E12788318731F7
:10123400F62788318631B42688310230F800B5307B
:10124400F7005A30890B2429F70B2429F80B242999
:101254008631B4268831B130F7009E30890B3029AD
:10126400F70B302900328731F32788310530F80035
:101274000F30F700F130890B3D29F70B3D29F80BAE
:101284003D29000020005108F1005008F00087318A
:10129400E12788318731F62788318031F42088317D
:1012A4000230F800B530F7005A30890B5729F70B94
:1012B4005729F80B57298031F42088310230F8007F
:1012C400B530F7005A30890B6529F70B6529F80BFF
:1012D40065298631B42688310330F800E230F700FE
:1012E400A630890B7329F70B7329F80B73298731FF
:1012F400F327883120004F08F1004E08F0008731B1
:10130400E12788318731F62788318631B426883140
:101314000230F800B530F7005A30890B8F29F70BEB
:101324008F29F80B8F298631B4268831D030F70005
:10133400CA30890B9B29F70B9B298631D626883125
:10134400D030F700CA30890BA529F70BA5298631BF
:10135400D62688310730F8009E30F7007B30890BA1
:10136400B129F70BB129F80BB12900008731F32714
:10137400883120004B08F1004A08F0008731E1274A
:1013840088318731F62788318631B4268831D030C8
:10139400F700CA30890BCC29F70BCC298631D62625
:1013A4008831D030F700CA30890BD629F70BD629FB
:1013B4008631D62688310630F8006630F700CC3006
:1013C400890BE229F70BE229F80BE2298731F92787
:1013D400883120002508F1002408F0008731E52732
:1013E40088318731FC2788318731F3278831200001
:1013F4005508F1005408F0008731E127883187311E
:10140400F62788318031F42088310230F800B53075
:10141400F7005A30890B0C2AF70B0C2AF80B0C2A0C
:101424008631B42688310230F800B530F7005A30DE
:10143400890B1A2AF70B1A2AF80B1A2A8631B426B2
:1014440088310430F8005430F700EE30890B282A34
:10145400F70B282AF80B282A00328731F92788311C
:1014640020005108F1005008F0008731E527883149
:101474008731FC2788318631B42688310230F80060
:10148400B530F7005A30890B452AF70B452AF80B7B
:10149400452A8631B42688310230F800B530F70089
:1014A4005A30890B532AF70B532AF80B532A03306B
:1014B400F800D830F7004230890B5E2AF70B5E2A19
:1014C400F80B5E2A8031F42088317D30F700AC308F
:1014D400890B6A2AF70B6A2A8731F9278831200099
:1014E4002B08F1002A08F0008731E527883187317D
:1014F400FC2788318631B42688310230F800B530B3
:10150400F7005A30890B842AF70B842AF80B842AB3
:101514008631B42688310330F800B930F70016302C
:10152400890B922AF70B922AF80B922A0032873100
:10153400F927883120002508F1002408F0008731BC
:10154400E52788318731FC2788318731F3278831B3
:1015540020005B08F1005A08F0008731E127883148
:101564008731F62788318031F42088310230F80041
:10157400B530F7005A30890BBD2AF70BBD2AF80B9A
:10158400BD2A8031F42088310230F800B530F700EC
:101594005A30890BCB2AF70BCB2AF80BCB2A86318E
:1015A400B42688310330F800B930F7001630890BBF
:1015B400D92AF70BD92AF80BD92A00328731F9270F
:1015C400883120005108F1005008F0008731E527E8
:1015D40088318731FC2788318631B426883102303E
:1015E400F800B530F7005A30890BF62AF70BF62AC3
:1015F400F80BF62A8631B42688310230F800B5306B
:10160400F7005A30890B042BF70B042BF80B042B2F
:101614008031F42088313430F700F230890B102BFC
:10162400F70B102B8731F32788318731F92788315D
:1016340020004B08F1004A08F0008731E527883183
:101644008731FC27883120005B08F1005A08F0003C
:101654008731E12788318731F62788318631B426EE
:1016640088310430F8008830F700E130890B382BDA
:10167400F70B382BF80B382B00008731F92788310A
:1016840020004D08F1004C08F0008731E52788312F
:101694008731FC2788318731F327883120005708A8
:1016A400F1005608F0008731E12788318731F627A9
:1016B40088318631B42688310430F8008830F70048
:1016C400E130890B632BF70B632BF80B632B0000C2
:1016D4008731F927883120005108F1005008F000C3
:1016E4008731E52788318731FC2788318731F32713
:1016F400883120005508F1005408F0008731E127B3
:1017040088318731F62788318031F42088310230DE
:10171400F800B530F7005A30890B8E2BF70B8E2B5F
:10172400F80B8E2B8631B42688310230F800B530A0
:10173400F7005A30890B9C2BF70B9C2BF80B9C2B36
:101744008631B42688310430F8005F30F700523017
:10175400890BAA2BF70BAA2BF80BAA2B8731F92795
:1017640088318731F327883120004D08F1004C0877
:10177400F0008731E52788318731FC278831200044
:101784005B08F1005A08F0008731E127883187317E
:10179400F62788318631B42688310230F800B53016
:1017A400F7005A30890BD42BF70BD42BF80BD42B1E
:1017B4008631B42688310230F800B530F7005A304B
:1017C400890BE22BF70BE22BF80BE22B8031F42090
:1017D40088310430F8005F30F7005230890BF02B69
:1017E400F70BF02BF80BF02B8731F9278831873171
:1017F400F327883120002B08F1002A08F0008731F4
:10180400E52788318731FC27883120005F08F10003
:101814005E08F0008731E12788318731F627883167
:101824008631B42688310230F800B530F7005A30DA
:10183400890B1A2CF70B1A2CF80B1A2C8631B426A8
:1018440088310330F800B930F7001630890B282CA2
:10185400F70B282CF80B282C00328731F32788311A
:101864008731F927883120004B08F1004A08F0003D
:101874008731E52788318731FC27883120005F08CC
:10188400F1005E08F0008731E12788318731F627BF
:1018940088318031F42088310230F800B530F70007
:1018A4005A30890B532CF70B532CF80B532C8031E3
:1018B400F42088310230F800B530F7005A30890B33
:1018C400612CF70B612CF80B612C8631B42688311E
:1018D4000330F800E230F700A630890B6F2CF70BC9
:1018E4006F2CF80B6F2C8731F92788318731F32758
:1018F400883120004D08F1004C08F0008731E527BD
:1019040088318731FC27883120005B08F1005A08B0
:10191400F0008731E12788318731F6278831863115
:10192400B42688310230F800B530F7005A30890BFC
:10193400992CF70B992CF80B992C8631B426883105
:101944000230F800B530F7005A30890BA72CF70B9A
:10195400A72CF80BA72C8031F42088310230F80032
:10196400B530F7005A30890BB52CF70BB52CF80BB2
:10197400B52C8631D62688310230F8005730F7006E
:10198400D830890BC32CF70BC32CF80BC32C0032B3
:101994008631D62688310230F8005730F700D83027
:1019A400890BD22CF70BD22CF80BD22C00328631B7
:1019B400D62688313F30F7005530890BDF2CF70BE2
:1019C400DF2C00008731F32788310730F800173007
:1019D400F7006A30890BEC2CF70BEC2CF80BEC2C91
:1019E40000328731F927883120005108F10050086E
:1019F400F0008731E52788318731FC27883187312A
:101A0400F327883120006108F1006008F000873175
:101A1400E12788318731F62788318031F4208831F5
:101A24000230F800B530F7005A30890B172DF70B48
:101A3400172DF80B172D8631B42688310530F800A0
:101A44003930F7008030890B252DF70B252DF80B45
:101A5400252D8731F927883120002508F100240835
:101A6400F0008731E52788318731FC2788318631BA
:101A7400B42688310430F8008830F700E130890B4F
:101A8400412DF70B412DF80B412D00008731F9272B
:101A9400883120002708F1002608F0008731E52767
:101AA40088318731FC2788318631B4268831023069
:101AB400F800B530F7005A30890B5E2DF70B5E2D18
:101AC400F80B5E2D8631B42688310330F800B93026
:101AD400F7001630890B6C2DF70B6C2DF80B6C2D61
:101AE40000328731F927883120002B08F1002A08B9
:101AF400F0008731E52788318731FC278831803130
:101B0400F42088310230F800B530F7005A30890BE0
:101B1400892DF70B892DF80B892D8631B426883150
:101B24000330F8003230F7000630890B972DF70B9D
:101B3400972DF80B972D8731F927883120002F082E
:101B4400F1002E08F0008731E52788318731FC2722
:101B540088318631B42688310230F800E930F70044
:101B64004C30890BB32DF70BB32DF80BB32D00328A
:101B74008731F327883120006908F1006808F000F4
:101B84008731E12788318731F62788318031F42085
:101B940088310230F800B530F7005A30890BD02D67
:101BA400F70BD02DF80BD02D8031F4208831043080
:101BB400F8007E30F7007D30890BDE2DF70BDE2D2B
:101BC400F80BDE2D00008731F327883120003D0813
:101BD400F1003C08F0008731E12788318731F6278E
:101BE40088318631B42688313430F700F230890BDD
:101BF400F92DF70BF92D8731F92788310430F800D6
:101C0400DB30F700FF30890B052EF70B052EF80BA0
:101C1400052E00008731F327883120003F08F100AA
:101C24003E08F0008731E12788318731F627883173
:101C34008631B42688310330F800B930F700163005
:101C4400890B222EF70B222EF80B222E00322000B5
:101C54002F08F1002E08F0008731E52788318731FD
:101C6400FC2788318631B42688310330F800B93036
:101C7400F7001630890B3C2EF70B3C2EF80B3C2E4C
:101C840000328731F327883120004308F1004208ED
:101C9400F0008731E12788318731F6278831803198
:101CA400F4208831C630F7006630890B572EF70BC5
:101CB400572E8731F927883120003908F100380878
:101CC400F0008731E52788318731FC278831863158
:101CD400B42688310330F800B930F7001630890B88
:101CE400712EF70B712EF80B712E00328731F3270A
:101CF400883120004908F1004808F0008731E127C5
:101D040088318731F62788318631B4268831873186
:101D1400F92788310430F800BC30F700D430890B3F
:101D2400912EF70B912EF80B912E20003908F1001B
:101D34003808F0008731E52788318731FC2788315E
:101D44008731F327883120004708F1004608F00066
:101D54008731E12788318731F62788318031F420B3
:101D640088310230F800B530F7005A30890BB82EAC
:101D7400F70BB82EF80BB82E8631B4268831033011
:101D8400F8008530F7002430890BC62EF70BC62ED9
:101D9400F80BC62E8631B42688310330F80085301E
:101DA400F7002430890BD42EF70BD42EF80BD42E45
:101DB4008631B42688310330F8008530F7002430AA
:101DC400890BE22EF70BE22EF80BE22E8631B426B5
:101DD40088310330F8008530F7002430890BF02E69
:101DE400F70BF02EF80BF02E8031F42088310230FE
:101DF400F800AA30F700F630890BFE2EF70BFE2E02
:101E0400F80BFE2E00328731F327883120003D087D
:101E1400F1003C08F0008731E12788318731F6274B
:101E240088318631B42688310230F800B530F700A5
:101E34005A30890B1B2FF70B1B2FF80B1B2F8631E6
:101E4400B42688310530F800C030F7009030890B93
:101E5400292FF70B292FF80B292F00328731F92767
:101E6400883120003708F1003608F0008731E52773
:101E740088318731FC2788318731F3278831200066
:101E84005F08F1005E08F0008731E127883187316F
:101E9400F62788318631B42688310230F800B5300F
:101EA400F7005A30890B542FF70B542FF80B542F8B
:101EB4008031F42088310230F800B530F7005A3010
:101EC400890B622FF70B622FF80B622F8631B42631
:101ED40088310230F800B530F7005A30890B702F82
:101EE400F70B702FF80B702F8031F42088310230FB
:101EF400F800B530F7005A30890B7E2FF70B7E2F90
:101F0400F80B7E2F8631B42688310230F800573022
:101F1400F700D830890B8C2FF70B8C2FF80B8C2FF4
:101F240000328631D62688310230F8005730F70067
:101F3400D830890B9B2FF70B9B2FF80B9B2F00326C
:101F4400863166268831D030F700CA30890BA82F35
:101F5400F70BA82F8631662688310230F800B53099
:101F6400F7005A30890BB42FF70BB42FF80BB42FAA
:101F74008631B42688310230F8005730F700D83063
:101F8400890BC22FF70BC22FF80BC22F00328631F8
:101F9400D62688310230F8005730F700D830890B44
:101FA400D12FF70BD12FF80BD12F00328631D62643
:101FB40088310230F8005730F700D830890BE02F11
:101FC400F70BE02FF80BE02F00328631D62688314C
:101FD4008731F32788318731F92788310530F800B4
:101FE4000F30F700F130890BF52FF70BF52FF80BB5
:101FF400F52F000084318D2C8031C6282C34073411
:102004000034003491340634003400340034003495
:102014000034003400340034643407349B3407340F
:10202400003400340034003400340034003400340C
:1020340000340034003400340034003400340034FC
:102044000034003400340034353402342A3400348B
:020000040001F9
:08000E008F3EF33FFF3FFF3F6F
:02E00000FF001F
:00000001FF
