:100000008031C928683400347E1480312000101EED
:100010000A280B28C5282700111C0F281028122891
:10002000200010122700911C1628172819282000DC
:1000300010122700111D1D281E2820282000101234
:1000400020000C1C2428252872280E1E2828292868
:100050003E280E1F2C282D283E289D31ED2580316D
:100060002700941E34283528372820001012270036
:10007000941F3B283C283E282000101220000E1E12
:100080004228432851282700941E472848284A28F8
:10009000200010122700941F4E284F2851282000BE
:1000A000101220000E1F5528562864282700941E81
:1000B0005A285B285D28200010122700941F612811
:1000C00062286428200010122700941E68286928DE
:1000D0006B28200010122700941F6F2870287228A8
:1000E0002000101220008C18762877287B280C1D01
:1000F0007A287B28C5280E1E7E287F2891280E1F6F
:100100008228832891282700941E872888288A28F7
:10011000200010122700941F8E288F28912820007D
:10012000101220000E1E95289628A4282700941E41
:100130009A289B289D28200010122700941FA12890
:10014000A228A4282000101220000E1FA828A928E9
:10015000B7282700941EAD28AE28B0282000101222
:100160002700941FB428B528B728200010122700B4
:10017000941EBB28BC28BE28200010122700941F04
:10018000C228C328C52820001012200010127E109B
:1001900009008031CB288731FE278031FC00873170
:1001A000FF278031FD00803102208031EC0080315A
:1001B00003208031ED00643084009B3085002030C6
:1001C0008600013087003030883102208031843051
:1001D00084009A308500A0308600013087001830F6
:1001E000883102208031F701F801F901FA01FB01A1
:1001F000E801E901EA01EB0150308400013085009B
:1002000020309931DD2180317E1020009A312C2A56
:100210009931B521813180302100A0000030A1004A
:100220009931D22181319931B22181310B302100B4
:10023000A2006230890B1A29A20B1A2900009931F9
:10024000B521813164302100A0000030A100993136
:10025000D22181319931B22181310B302100A200AC
:100260006230890B3129A20B312900009931B52167
:10027000813150302100A0000030A1009931D221FD
:1002800081319931B22181310B302100A2006230DD
:10029000890B4829A20B482900009931B5218131E9
:1002A00032302100A0000030A1009931D2218131EB
:1002B0009931B22181310B302100A2006230890BCB
:1002C0005F29A20B5F2900009931B52181311E30D1
:1002D0002100A0000030A1009931D2218131993153
:1002E000B22181310B302100A2006230890B7629C6
:1002F000A20B762900002100A301A4019931B521A8
:10030000813121002408A1002308A0009931D221C5
:1003100081319931B22181310B302100A20062304C
:10032000890B9029A20B9029000002302100A3071D
:100330000030A43D2408803AA20081302202031D2F
:10034000A32900302302031CA629A7297E2999315D
:10035000B5218131FF302100A0000030A10099318A
:10036000D22181319931B221813168302100A2003E
:10037000E430890BB929A20BB92900009931B521C4
:10038000813108009931A32181318030F0000030A3
:10039000F1009931C02181319931A02181310B3097
:1003A000F2006230890BD229F20BD2290032993146
:1003B000A32181316430F0000030F1009931C02177
:1003C00081319931A02181310B30F2006230890BEB
:1003D000E729F20BE72900329931A321813150300E
:1003E000F0000030F1009931C02181319931A02114
:1003F00081310B30F2006230890BFC29F20BFC29B1
:1004000000329931A32181313230F0000030F10007
:100410009931C02181319931A02181310B30F20015
:100420006230890B112AF20B112A00329931A32173
:1004300081311E30F0000030F1009931C02181314E
:100440009931A02181310B30F2006230890B262ACC
:10045000F20B262A0032F301F4019931A3218131F4
:100460007408F1007308F0009931C021813199318D
:10047000A02181310B30F2006230890B3D2AF20B52
:100480003D2A00320230F3070030F43D7408803A10
:10049000F20081307202031D4F2A00307302031CE8
:1004A000522A532A2D2A9931A3218131FF30F0009D
:1004B0000030F1009931C02181319931A021813181
:1004C0006830F200E430890B632AF20B632A0032B1
:1004D0009931A321813108003F30F5005530890B57
:1004E0006F2AF50B6F2A000099319721823107306E
:1004F000F600B330F5004230890B7C2AF50B7C2ADC
:10050000F60B7C2A003299319721823120003B087A
:10051000F1003A08F0009931B821823199319421E3
:10052000823199319D21823120005308F100520817
:10053000F0009931BC21823199319A218231813187
:10054000C22182310230F600B530F5005A30890BF5
:10055000A72AF50BA72AF60BA72A90310020823193
:100560000230F600B530F5005A30890BB52AF50B8C
:10057000B52AF60BB52A9031002082310430F600FE
:100580005430F500EE30890BC32AF50BC32AF60B65
:10059000C32A003299319721823120006708F10087
:1005A0006608F0009931B821823199319421823165
:1005B0009031002082310230F600B530F5005A301B
:1005C000890BE02AF50BE02AF60BE02A9031002097
:1005D00082310230F600B530F5005A30890BEE2A30
:1005E000F50BEE2AF60BEE2A0230F6006C30F50021
:1005F000A030890BF92AF50BF92AF60BF92A81317B
:10060000C22182318631492E0230F600B530F50024
:100610005A30890B092BF50B092BF60B092B81316D
:10062000C22183310230F600B530F5005A30890B13
:10063000172BF50B172BF60B172B9031002083315E
:100640000330F600E230F500A630890B252BF50BC0
:10065000252BF60B252B99319721833199319D213B
:10066000833120006308F1006208F0009931B8215D
:10067000833199319421833120005908F1005808C1
:10068000F0009931BC21833199319A218331903125
:10069000002083310230F600B530F5005A30890B66
:1006A0004F2BF50B4F2BF60B4F2B90310020833146
:1006B0000230F600B530F5005A30890B5D2BF50B92
:1006C0005D2BF60B5D2B8131C22183310230F600A8
:1006D000B530F5005A30890B6B2BF50B6B2BF60BF5
:1006E0006B2B9A319C2283310230F6005730F50093
:1006F000D830890B792BF50B792BF60B792B00323F
:100700009A319C2283310230F6005730F500D83000
:10071000890B882BF50B882BF60B882B00329A312E
:100720009C22833182316C2A9931AC2183319A31F8
:10073000E422833104302100A6008830A500E13096
:10074000890BA02BA50BA02BA60BA02B9931A921BF
:10075000833121006A08A1006908A0009931C821ED
:1007600083319931A62183319931AF218331210021
:100770005C08A1005B08A0009931CD21833199313B
:10078000AC2183319A31E422833104302100A60068
:100790008830A500E130890BCB2BA50BCB2BA60B0A
:1007A000CB2B9931A921833121006E08A1006D085E
:1007B000A0009931C82183319931A6218331993123
:1007C000AF21833121005A08A1005908A0009931B6
:1007D000CD2183319931AC2183318131082183319D
:1007E00002302100A600B530A5005930890BF62B48
:1007F000A50BF62BA60BF62B00329A31E42283319F
:1008000002302100A600B530A5005930890B062C16
:10081000A50B062CA60B062C00329A31E42283315C
:1008200004302100A6005F30A5005130890B162C42
:10083000A50B162CA60B162C00329931A921833159
:100840008431222C9931AF21843121006A08A10022
:100850006908A0009931C82184319931A6218431D9
:1008600021006008A1005F08A0009931CD218431EA
:100870009931AC2184319A31E42284310230210053
:10088000A600B530A5005930890B442CA50B442C8B
:10089000A60B442C00329A31E4228431023021002C
:1008A000A600B530A5005930890B542CA50B542C4B
:1008B000A60B542C003281310821843104302100F0
:1008C000A6005F30A5005130890B642CA50B642C69
:1008D000A60B642C00329931A92184319931AF21C2
:1008E000843121004808A1004708A0009931C8219F
:1008F00084319931A621843121006408A100630864
:10090000A0009931CD2184319931AC2184319A31C3
:10091000E422843102302100A600B530A500593010
:10092000890B902CA50B902CA60B902C00329A31A1
:10093000E422843103302100A600B930A50016302E
:10094000890BA02CA50BA02CA60BA02C0000993184
:10095000AF2184318431AC2C9931A921843121001B
:100960006808A1006708A0009931C8218431993135
:10097000A621843121006408A1006308A0009931F8
:10098000CD2184319931AC218431813108218431E8
:1009900002302100A600B530A5005930890BCE2CBD
:1009A000A50BCE2CA60BCE2C003281310821843130
:1009B00002302100A600B530A5005930890BDE2C8D
:1009C000A50BDE2CA60BDE2C00329A31E4228431FA
:1009D00003302100A600E230A500A530890BEE2CE3
:1009E000A50BEE2CA60BEE2C00329931A9218431F7
:1009F0009931AF21843121006A08A1006908A00063
:100A00009931C82184319931A621843121006008AF
:100A1000A1005F08A0009931CD2184319931AC212A
:100A200084319A31E422843102302100A600B530AD
:100A3000A5005930890B1A2DA50B1A2DA60B1A2DBE
:100A400000329A31E422843102302100A600B53010
:100A5000A5005930890B2A2DA50B2A2DA60B2A2D6E
:100A600000328131082184318531C02D05302100CB
:100A7000A600C030A5009030890B3C2DA50B3C2D65
:100A8000A60B3C2D00009931A921853121004C088D
:100A9000A1004B08A0009931C82185319931A621C8
:100AA00085319931AF21853121006008A1005F08AF
:100AB000A0009931CD2185319931AC218531813129
:100AC0000821853102302100A600B530A50059303B
:100AD000890B682DA50B682DA60B682D003281317E
:100AE0000821853102302100A600B530A50059301B
:100AF000890B782DA50B782DA60B782D00329A3115
:100B0000E422853104302100A6005430A500EE30E7
:100B1000890B882DA50B882DA60B882D00009931F7
:100B2000A921853121004808A1004708A00099317A
:100B3000C82185319931A62185319931AF2185317F
:100B400021006408A1006308A0009931CD218531FE
:100B50009931AC2185319A31E4228531023021006E
:100B6000A600B530A5005930890BB42DA50BB42DC6
:100B7000A60BB42D00329A31E42285319B31DE2B55
:100B800002302100A600B530A5005930890BC62DD2
:100B9000A50BC62DA60BC62D00329A31BE2285317B
:100BA00002302100A6005730A500D830890BD62D81
:100BB000A50BD62DA60BD62D00009A31BE2285316D
:100BC00002302100A6005730A500D830890BE62D51
:100BD000A50BE62DA60BE62D00009A31BE2285312D
:100BE0003F302100A5005530890BF42DA50BF42DC5
:100BF0009931A921853107302100A600B330A50025
:100C00004230890B012EA50B012EA60B012E0000F0
:100C10009931A921853121004208A1004108A00095
:100C20009931C82185319931A62185319931AF217A
:100C3000853121005A08A1005908A0009931CD2121
:100C400085319931AC2185318131082185310230DE
:100C50002100A600B530A5005930890B2D2EA50B1B
:100C60002D2EA60B2D2E00329A31E4228531023032
:100C70002100A600B530A5005930890B3D2EA50BEB
:100C80003D2EA60B3D2E00329A31E42285319C3157
:100C9000612C0230F6006C30F500A030890B4E2E2E
:100CA000F50B4E2EF60B4E2E7D30F500AC30890B39
:100CB000572EF50B572E9931972186312000410888
:100CC000F1004008F0009931B82186319931942122
:100CD00086319031002086310230F600B530F500C3
:100CE0005A30890B712EF50B712EF60B712E903147
:100CF000002086310530F600C030F5009030890BB9
:100D00007F2EF50B7F2EF60B7F2E00329931972127
:100D1000863120004508F1004408F0009931B821DF
:100D2000863199319421863199319D218631200077
:100D30005908F1005808F0009931BC2186319931E9
:100D40009A2186318131C22186310230F600B530D8
:100D5000F5005A30890BAA2EF50BAA2EF60BAA2EF7
:100D60008131C22186310230F600B530F5005A30AB
:100D7000890BB82EF50BB82EF60BB82E903100204B
:100D800086310430F6005430F500EE30890BC62E63
:100D9000F50BC62EF60BC62E0032993197218631FF
:100DA000883108280230F600B530F5005A30890B3A
:100DB000D72EF50BD72EF60BD72E9031002086318B
:100DC0000230F600B530F5005A30890BE52EF50BF0
:100DD000E52EF60BE52E0330F600D830F500423054
:100DE000890BF02EF50BF02EF60BF02E8131C2217F
:100DF00086317D30F500AC30890BFC2EF50BFC2ED6
:100E000099319721863120004108F1004008F00017
:100E10009931B82186319931942186319031002061
:100E200086310230F600B530F5005A30890B162FA6
:100E3000F50B162FF60B162F90310020863103305C
:100E4000F600B930F5001630890B242FF50B242F4E
:100E5000F60B242F003299319721863120003B0870
:100E6000F1003A08F0009931B82186319931942186
:100E7000863199319D21863120005908F1005808AA
:100E8000F0009931BC21863199319A218631813126
:100E9000C22186310230F600B530F5005A30890B98
:100EA0004F2FF50B4F2FF60B4F2F8131C22186317B
:100EB0009F317A2F9931AC218731813108218731D7
:100EC00002302100A600B530A5005930890B662FED
:100ED000A50B662FA60B662F0032813108218731C2
:100EE00002302100A600B530A5005930890B762FBD
:100EF000A50B762FA60B762F00329A31E42287318C
:100F000003302100A600B930A5001630890B862FCA
:100F1000A50B862FA60B862F00009931A9218731BA
:100F200021006E08A1006D08A0009931C821873109
:100F30009931A62187319A31E4228731023021008C
:100F4000A600B530A5005930890BA42FA50BA42FFE
:100F5000A60BA42F00329A31E422873102302100FF
:100F6000A600B530A5005930890BB42FA50BB42FBE
:100F7000A60BB42F00328131082187313430210093
:100F8000A500F130890BC22FA50BC22F0032993179
:100F9000AF2187319931A921873121006808A1004B
:100FA0006708A0009931C82187319931A62187317E
:100FB00021006008A1005F08A0009931CD21873190
:100FC0008331942B9931FE2187319B3194238731D2
:100FD0009A316D2287319931E32187319A31142278
:100FE00087319A31202287319A31392287319A31DB
:100FF000492287319A315B2287310800023401345B
:10100400FE0012001E00FE0B0328003420004108DD
:10101400F1004008F0009931B821883199319421C8
:10102400883199319D21883120005D08F1005C08E8
:10103400F0009931BC21883199319A21883190315D
:10104400002088310230F600B530F5005A30890BA3
:101054002928F50B2928F60B2928903100208831FE
:101064000330F600B930F5001630890B3728F50B3C
:101074003728F60B37280032993197218831200020
:101084004B08F1004A08F0009931B82188319931B0
:101094009421883199319D21883120006708F1001D
:1010A4006608F0009931BC21883199319A21883140
:1010B4008131C22188310230F600E930F5004C302C
:1010C400890B6228F50B6228F60B622800329931ED
:1010D4009721883120004908F1004808F00099312F
:1010E400B821883199319421883190310020883198
:1010F4000530F6001A30F5005430890B7F28F50BC3
:101104007F28F60B7F2800329931972188312000FF
:101114003B08F1003A08F0009931B821883199313F
:1011240094218831903100208831E530F5009130E8
:10113400890B9A28F50B9A28000099319D21883152
:1011440020004F08F1004E08F0009931BC2188318D
:1011540099319A2188318131C22188310230F600D7
:10116400B530F5005A30890BB528F50BB528F60BC8
:10117400B5289031002088310230F600B530F500F2
:101184005A30890BC328F50BC328F60BC3289031BA
:10119400002088310430F6005430F500EE30890B1D
:1011A400D128F50BD128F60BD128003299319D2195
:1011B400883120002308F1002208F0009931BC2175
:1011C400883199319A218831903100208831023058
:1011D400F600B530F5005A30890BEE28F50BEE28F1
:1011E400F60BEE289031002088310230F600B5303D
:1011F400F5005A30890BFC28F50BFC28F60BFC286B
:101204008131C22188310430F6005430F500EE30CB
:10121400890B0A29F50B0A29F60B0A2900329931A0
:101224009D21883120004F08F1004E08F0009931CB
:10123400BC21883199319A2188319031002088313C
:101244000230F600B530F5005A30890B2729F50B2A
:101254002729F60B2729903100208831B130F50079
:101264009E30890B3329F50B3329003299319D21A6
:1012740088310530F6000F30F500F130890B402934
:10128400F50B4029F60B4029000020004F08F1001F
:101294004E08F0009931BC21883199319A21883166
:1012A4008131C22188310230F600B530F5005A3060
:1012B400890B5A29F50B5A29F60B5A298131C22177
:1012C40088310230F600B530F5005A30890B6829B0
:1012D400F50B6829F60B682990310020883103301A
:1012E400F600E230F500A630890B7629F50B762955
:1012F400F60B762999319D21883120004D08F100A3
:101304004C08F0009931BC21883199319A218831F7
:101314009031002088310230F600B530F5005A30A3
:10132400890B9229F50B9229F60B92299031002012
:101334008831D030F500CA30890B9E29F50B9E29DF
:101344009A319C228831D030F500CA30890BA82903
:10135400F50BA8299A319C2288310730F6009E307B
:10136400F5007B30890BB429F50BB429F60BB429AD
:10137400000099319D21883120004908F100480876
:10138400F0009931BC21883199319A21883190310A
:1013940000208831D030F500CA30890BCF29F50BF5
:1013A400CF299A319C228831D030F500CA30890B7C
:1013B400D929F50BD9299A319C2288310630F600B7
:1013C4006630F500CC30890BE529F50BE529F60BE1
:1013D400E52999319721883120002308F10022085A
:1013E400F0009931B82188319931942188319931AB
:1013F4009D21883120005308F1005208F0009931F2
:10140400BC21883199319A2188318131C2218831B6
:101414000230F600B530F5005A30890B0F2AF50B6F
:101424000F2AF60B0F2A9031002088310230F60083
:10143400B530F5005A30890B1D2AF50B1D2AF60B21
:101444001D2A9031002088310430F6005430F50014
:10145400EE30890B2B2AF50B2B2AF60B2B2A0032A4
:1014640099319721883120004F08F1004E08F0008F
:101474009931B821883199319421883190310020F3
:1014840088310230F600B530F5005A30890B482A0D
:10149400F50B482AF60B482A903100208831023097
:1014A400F600B530F5005A30890B562AF50B562A4A
:1014B400F60B562A0330F600D830F5004230890B7B
:1014C400612AF50B612AF60B612A8131C221883128
:1014D4007D30F500AC30890B6D2AF50B6D2A9931FE
:1014E4009721883120002908F1002808F00099315B
:1014F400B821883199319421883190310020883184
:101504000230F600B530F5005A30890B872AF50B06
:10151400872AF60B872A9031002088310330F600A1
:10152400B930F5001630890B952AF50B952AF60B80
:10153400952A003299319721883120002308F1003F
:101544002208F0009931B8218831993194218831E9
:1015540099319D21883120005908F1005808F00084
:101564009931BC21883199319A2188318131C22144
:1015740088310230F600B530F5005A30890BC02AA4
:10158400F50BC02AF60BC02A8131C2218831023002
:10159400F600B530F5005A30890BCE2AF50BCE2A69
:1015A400F60BCE2A9031002088310330F600B93092
:1015B400F5001630890BDC2AF50BDC2AF60BDC2A45
:1015C400003299319721883120004F08F1004E08EC
:1015D400F0009931B82188319931942188319031C2
:1015E400002088310230F600B530F5005A30890BFE
:1015F400F92AF50BF92AF60BF92A903100208831E3
:101604000230F600B530F5005A30890B072BF50B84
:10161400072BF60B072B8131C22188313430F500BA
:10162400F230890B132BF50B132B99319D21883143
:1016340099319721883120004908F1004808F000C9
:101644009931B82188319931942188312000590881
:10165400F1005808F0009931BC21883199319A2160
:1016640088319031002088310430F6008830F5004C
:10167400E130890B3B2BF50B3B2BF60B3B2B00008E
:1016840099319721883120004B08F1004A08F00075
:101694009931B821883199319421883199319D212A
:1016A400883120005508F1005408F0009931BC211C
:1016B400883199319A218831903100208831043061
:1016C400F6008830F500E130890B662BF50B662BAC
:1016D400F60B662B000099319721883120004F08C2
:1016E400F1004E08F0009931B821883199319421E4
:1016F400883199319D21883120005308F100520826
:10170400F0009931BC21883199319A218831813195
:10171400C22188310230F600B530F5005A30890B09
:10172400912BF50B912BF60B912B903100208831E6
:101734000230F600B530F5005A30890B9F2BF50BBB
:101744009F2BF60B9F2B9031002088310430F6003C
:101754005F30F5005230890BAD2BF50BAD2BF60B3A
:10176400AD2B99319721883199319D218831200001
:101774004B08F1004A08F0009931B82188319931B9
:101784009421883120005908F1005808F00099315B
:10179400BC21883199319A218831903100208831D7
:1017A4000230F600B530F5005A30890BD72BF50B13
:1017B400D72BF60BD72B9031002088310230F6005E
:1017C400B530F5005A30890BE52BF50BE52BF60BFC
:1017D400E52B8131C22188310430F6005F30F500F9
:1017E4005230890BF32BF50BF32BF60BF32B9931BA
:1017F4009721883199319D21883120002908F100F1
:101804002808F0009931B821883199319421883120
:1018140020005D08F1005C08F0009931BC2188319A
:1018240099319A2188319031002088310230F600B4
:10183400B530F5005A30890B1D2CF50B1D2CF60B19
:101844001D2C9031002088310330F600B930F500AA
:101854001630890B2B2CF50B2B2CF60B2B2C003272
:1018640099319D2188319931972188312000490887
:10187400F1004808F0009931B82188319931942158
:10188400883120005D08F1005C08F0009931BC212A
:10189400883199319A2188318131C22188310230CD
:1018A400F600B530F5005A30890B562CF50B562C42
:1018B400F60B562C8131C22188310230F600B53046
:1018C400F5005A30890B642CF50B642CF60B642C50
:1018D4009031002088310330F600E230F500A63064
:1018E400890B722CF50B722CF60B722C9931972103
:1018F400883199319D21883120004B08F1004A0834
:10190400F0009931B821883199319421883120002F
:101914005908F1005808F0009931BC2188319931F7
:101924009A2188319031002088310230F600B53098
:10193400F5005A30890B9C2CF50B9C2CF60B9C2C37
:101944009031002088310230F600B530F5005A306D
:10195400890BAA2CF50BAA2CF60BAA2C8131C221D7
:1019640088310230F600B530F5005A30890BB82CB6
:10197400F50BB82CF60BB82C9A319C228831023026
:10198400F6005730F500D830890BC62CF50BC62C61
:10199400F60BC62C00329A319C2288310230F600B4
:1019A4005730F500D830890BD52CF50BD52CF60B18
:1019B400D52C00329A319C2288313F30F5005530C5
:1019C400890BE22CF50BE22C000099319D21883122
:1019D4000730F6001730F5006A30890BEF2CF50B51
:1019E400EF2CF60BEF2C003299319721883120002F
:1019F4004F08F1004E08F0009931B821883199312F
:101A04009421883199319D21883120005F08F100AB
:101A14005E08F0009931BC21883199319A218831CE
:101A24008131C22188310230F600B530F5005A30D8
:101A3400890B1A2DF50B1A2DF60B1A2D9031002057
:101A440088310530F6003930F5008030890B282DB7
:101A5400F50B282DF60B282D99319721883120007C
:101A64002308F1002208F0009931B8218831993116
:101A7400942188319031002088310430F600883078
:101A8400F500E130890B442DF50B442DF60B442D64
:101A9400000099319721883120002508F10024089D
:101AA400F0009931B82188319931942188319031ED
:101AB400002088310230F600B530F5005A30890B29
:101AC400612DF50B612DF60B612D903100208831CD
:101AD4000330F600B930F5001630890B6F2DF50B85
:101AE4006F2DF60B6F2D003299319721883120002C
:101AF4002908F1002808F0009931B821883199317A
:101B0400942188318131C22188310230F600B53008
:101B1400F5005A30890B8C2DF50B8C2DF60B8C2D82
:101B24009031002088310330F6003230F500063061
:101B3400890B9A2DF50B9A2DF60B9A2D9931972135
:101B4400883120002D08F1002C08F0009931B821CB
:101B540088319931942188319031002088310230C4
:101B6400F600E930F5004C30890BB62DF50BB62D97
:101B7400F60BB62D003299319D218831200067087B
:101B8400F1006608F0009931BC21883199319A211D
:101B940088318131C22188310230F600B530F50038
:101BA4005A30890BD32DF50BD32DF60BD32D813160
:101BB400C22188310430F6007E30F5007D30890B77
:101BC400E12DF50BE12DF60BE12D000099319D215E
:101BD400883120003B08F1003A08F0009931BC211B
:101BE400883199319A2188319031002088313430FC
:101BF400F500F230890BFC2DF50BFC2D9931972162
:101C040088310430F600DB30F500FF30890B082EF4
:101C1400F50B082EF60B082E000099319D21883112
:101C240020003D08F1003C08F0009931BC218831C6
:101C340099319A2188319031002088310330F6009F
:101C4400B930F5001630890B252EF50B252EF60B31
:101C5400252E003220002D08F1002C08F0009931C7
:101C6400B82188319931942188319031002088310C
:101C74000330F600B930F5001630890B3F2EF50B12
:101C84003F2EF60B3F2E003299319D2188312000E2
:101C94004108F1004008F0009931BC2188319931A4
:101CA4009A2188318131C2218831C630F5006630ED
:101CB400890B5A2EF50B5A2E993197218831200021
:101CC4003708F1003608F0009931B821883199318C
:101CD400942188319031002088310330F600B930E6
:101CE400F5001630890B742EF50B742EF60B742E3A
:101CF400003299319D21883120004708F1004608BF
:101D0400F0009931BC21883199319A218831903180
:101D1400002088319931972188310430F600BC3095
:101D2400F500D430890B942EF50B942EF60B942EDB
:101D340020003708F1003608F0009931B8218831C5
:101D440099319421883199319D21883120004508A9
:101D5400F1004408F0009931BC21883199319A216D
:101D640088318131C22188310230F600B530F50066
:101D74005A30890BBB2EF50BBB2EF60BBB2E9031C4
:101D8400002088310330F6008530F5002430890BBB
:101D9400C92EF50BC92EF60BC92E903100208831BF
:101DA4000330F6008530F5002430890BD72EF50B6F
:101DB400D72EF60BD72E9031002088310330F60051
:101DC4008530F5002430890BE52EF50BE52EF60B56
:101DD400E52E9031002088310330F6008530F5007F
:101DE4002430890BF32EF50BF32EF60BF32E8131F1
:101DF400C22188310230F600AA30F500F630890B92
:101E0400012FF50B012FF60B012F003299319D2183
:101E1400883120003B08F1003A08F0009931BC21D8
:101E2400883199319A2188319031002088310230EB
:101E3400F600B530F5005A30890B1E2FF50B1E2F16
:101E4400F60B1E2F9031002088310530F600C0308B
:101E5400F5009030890B2C2FF50B2C2FF60B2C2F23
:101E6400003299319721883120003508F100340877
:101E7400F0009931B8218831993194218831993110
:101E84009D21883120005D08F1005C08F000993143
:101E9400BC21883199319A218831903100208831D0
:101EA4000230F600B530F5005A30890B572FF50B88
:101EB400572FF60B572F8131C22188310230F6009B
:101EC400B530F5005A30890B652FF50B652FF60BED
:101ED400652F9031002088310230F600B530F500CE
:101EE4005A30890B732FF50B732FF60B732F813137
:101EF400C22188310230F600B530F5005A30890B22
:101F0400812FF50B812FF60B812F90310020883122
:101F14000230F6005730F500D830890B8F2FF50BBF
:101F24008F2FF60B8F2F00329A319C22883102308A
:101F3400F6005730F500D830890B9E2FF50B9E2FF5
:101F4400F60B9E2F00329B310A238831D030F500E6
:101F5400CA30890BAB2FF50BAB2F9B310A23883189
:101F64000230F600B530F5005A30890BB72FF50B67
:101F7400B72FF60BB72F9031002088310230F600CE
:101F84005730F500D830890BC52FF50BC52FF60B4C
:101F9400C52F00329A319C2288310230F600573026
:101FA400F500D830890BD42FF50BD42FF60BD42F92
:101FB40000329A319C2288310230F6005730F50005
:101FC400D830890BE32FF50BE32FF60BE32F003208
:101FD4009A319C22883199319D21883199319721F8
:101FE40088310530F6000F30F500F130890BF82FF9
:101FF400F50BF82FF60BF82F00000800FF30F30064
:102004000030F4009931A32190317408F100730871
:10201400F0009931C02190319931A02190310B30D9
:10202400F2006230890B1428F20B14280032FE30BF
:10203400F307FF30F43DF41F20282128042808006A
:1020440002302100A600B530A5005930890B28289C
:10205400A50B2828A60B282800329A31E4229031B7
:1020640002302100A600B530A5005930890B38286C
:10207400A50B3828A60B382800329A31E422903177
:1020840004302100A6005430A500EE30890B482806
:10209400A50B4828A60B482800009931AF219031A0
:1020A40021002A08A1002908A0009931CD219031EE
:1020B4009931AC2190319A31E422903102302100DF
:1020C400A600B530A5005930890B6628A50B6628F3
:1020D400A60B662800329A31E422903102302100A6
:1020E400A600B530A5005930890B7628A50B7628B3
:1020F400A60B76280032813108219031043021006A
:10210400A6005430A500EE30890B8628A50B86283E
:10211400A60B862800009931AF2190312100560882
:10212400A1005508A0009931CD2190319931AC21FD
:1021340090319A31E422903102302100A600B5306A
:10214400A5005930890BA428A50BA428A60BA42804
:1021540000329A31E4229031B1302100A5009E3042
:10216400890BB228A50BB22800009931AF21903118
:1021740005302100A6000F30A500F130890BC028DE
:10218400A50BC028A60BC02821005608A10055089D
:10219400A0009931CD2190319931AC219031813118
:1021A4000821903102302100A600B530A500593035
:1021B400890BDA28A50BDA28A60BDA28003281313C
:1021C4000821903102302100A600B530A500593015
:1021D400890BEA28A50BEA28A60BEA2800329A31D3
:1021E400E422903103302100A600E230A500A5309E
:1021F400890BFA28A50BFA28A60BFA280032993184
:10220400AF21903121005408A1005308A000993156
:10221400CD2190319931AC2190319A31E422903121
:1022240002302100A600B530A5005930890B1829C9
:10223400A50B1829A60B182900329A31E4229031F3
:10224400D0302100A500C930890B2629A50B2629E9
:1022540000329A31BE229031D0302100A500C9301D
:10226400890B3229A50B322900329A31BE229031D2
:1022740007302100A6009E30A5007B30890B402941
:10228400A50B4029A60B40299931AF21903121009B
:102294005008A1004F08A0009931CD219031993107
:1022A400AC2190319A31E4229031D0302100A50044
:1022B400C930890B5B29A50B5B2900329A31BE22F8
:1022C4009031D0302100A500C930890B6729A50BB6
:1022D400672900329A31BE22903106302100A600CF
:1022E4006630A500CB30890B7529A50B7529A60B83
:1022F400752900329931A921903121002A08A100C1
:102304002908A0009931C82190319931A621903132
:102314009931AF21903121005A08A1005908A00039
:102324009931CD2190319931AC21903181310821FD
:10233400903102302100A600B530A5005930890B38
:10234400A129A50BA129A60BA12900329A31E422C7
:10235400903102302100A600B530A5005930890B18
:10236400B129A50BB129A60BB12900329A31E42277
:10237400903104302100A6005430A500EE30890BC2
:10238400C129A50BC129A60BC12900009931A92196
:10239400903121005608A1005508A0009931C821A8
:1023A40090319931A62190319A31E4229031023052
:1023B4002100A600B530A5005930890BDF29A50BF3
:1023C400DF29A60BDF2900329A31E4229031023052
:1023D4002100A600B530A5005930890BEF29A50BC3
:1023E400EF29A60BEF29003203302100A600D830D4
:1023F400A5004130890BFC29A50BFC29A60BFC295F
:1024040000328131082190317D302100A500AB30AC
:10241400890B0A2AA50B0A2A00329931A921903185
:1024240021003008A1002F08A0009931C821903163
:102434009931A62190319A31E42290310230210061
:10244400A600B530A5005930890B262AA50B262AEB
:10245400A60B262A00329A31E4229031033021005F
:10246400A600B930A5001630890B362AA50B362AEA
:10247400A60B362A00009931A921903121002A089F
:10248400A1002908A0009931C82190319931A621D1
:1024940090319931AF21903121006008A1005F088B
:1024A400A0009931CD2190319931AC219031813105
:1024B4000821903102302100A600B530A500593022
:1024C400890B622AA50B622AA60B622A003281318B
:1024D4000821903102302100A600B530A500593002
:1024E400890B722AA50B722AA60B722A00329A3122
:1024F400E422903103302100A600B930A500163043
:10250400890B822AA50B822AA60B822A0000993104
:10251400A921903121005608A1005508A000993145
:10252400C82190319931A62190319A31E422903119
:1025340002302100A600B530A5005930890BA02A2D
:10254400A50BA02AA60BA02A00329A31E4229031CE
:1025540002302100A600B530A5005930890BB02AFD
:10256400A50BB02AA60BB02A003281310821903184
:1025740034302100A500F130890BBE2AA50BBE2AF8
:1025840000329931AF2190319931A9219031210044
:102594005008A1004F08A0009931C8219031993109
:1025A400A621903121006008A1005F08A0009931A4
:1025B400CD2190319931AC2190319A31E42290317E
:1025C40004302100A6008830A500E130890BE82AF8
:1025D400A50BE82AA60BE82A9931A92190312100FC
:1025E4005208A1005108A0009931C82190319931B5
:1025F400A62190319931AF21903121005C08A100CE
:102604005B08A0009931CD2190319931AC219031F2
:102614009A31E422903104302100A6008830A500CC
:10262400E130890B132BA50B132BA60B132B99311C
:10263400A921903121005608A1005508A000993124
:10264400C82190319931A62190319931AF2190312F
:1026540021005A08A1005908A0009931CD219031D8
:102664009931AC219031813108219031023021001F
:10267400A600B530A5005930890B3E2BA50B3E2B87
:10268400A60B3E2B00329A31E42290310230210015
:10269400A600B530A5005930890B4E2BA50B4E2B47
:1026A400A60B4E2B00329A31E422903104302100E3
:1026B400A6005F30A5005130890B5E2BA50B5E2B65
:1026C400A60B5E2B00329931A92190319931AF21AB
:1026D400903121005208A1005108A0009931C8216D
:1026E40090319931A621903121006008A1005F0842
:1026F400A0009931CD2190319931AC2190319A319A
:10270400E422903102302100A600B530A5005930F2
:10271400890B8A2BA50B8A2BA60B8A2B00329A31A4
:10272400E422903102302100A600B530A5005930D2
:10273400890B9A2BA50B9A2BA60B9A2B003281316D
:102744000821903104302100A6005F30A5005130EB
:10275400890BAA2BA50BAA2BA60BAA2B0032993105
:10276400A92190319931AF21903121003008A10085
:102774002F08A0009931C82190319931A6219031B8
:1027840021006408A1006308A0009931CD21903193
:102794009931AC2190319A31E422903102302100F8
:1027A400A600B530A5005930890BD62BA50BD62B26
:1027B400A60BD62B00329A31E4229031033021004B
:1027C400A600B930A5001630890BE62BA50BE62B25
:1027D400A60BE62B00009931AF2190319931A92144
:1027E400903121005008A1004F08A0009931C82160
:1027F40090319931A621903121006408A100630829
:10280400A0009931CD2190319931AC2190318131A1
:102814000821903102302100A600B530A5005930BE
:10282400890B122CA50B122CA60B122C0032813111
:102834000821903102302100A600B530A50059309E
:10284400890B222CA50B222CA60B222C00329A31A8
:10285400E422903103302100A600E230A500A53027
:10286400890B322CA50B322CA60B322C0032993159
:10287400A92190319931AF21903121005208A10052
:102884005108A0009931C82190319931A621903185
:1028940021006008A1005F08A0009931CD2190318A
:1028A4009931AC2190319A31E422903102302100E7
:1028B400A600B530A5005930890B5E2CA50B5E2C03
:1028C400A60B5E2C00329A31E422903102302100B2
:1028D400A600B530A5005930890B6E2CA50B6E2CC3
:1028E400A60B6E2C00328131082190310230210078
:1028F400A600B530A5005930890B7E2CA50B7E2C83
:10290400A60B7E2C00329A31BE2290310230210077
:10291400A6005730A500D830890B8E2CA50B8E2C21
:10292400A60B8E2C00009A31BE2290310230210079
:10293400A6005730A500D830890B9E2CA50B9E2CE1
:10294400A60B9E2C00009A31BE2290313F3021000C
:10295400A5005530890BAC2CA50BAC2C9931AF21BB
:10296400903107302100A6001730A5006A30890B8A
:10297400B92CA50BB92CA60BB92C00009931A921AF
:10298400903121005608A1005508A0009931C821B2
:1029940090319931A62190319931AF2190312100A4
:1029A4006608A1006508A0009931CD2190319931C4
:1029B400AC21903181310821903102302100A600F0
:1029C400B530A5005930890BE52CA50BE52CA60BD9
:1029D400E52C00329A31E422903105302100A60022
:1029E4003930A5007F30890BF52CA50BF52CA60BEF
:1029F400F52C00329931A921903121002A08A10037
:102A04002908A0009931C82190319931A62190312B
:102A14009A31E422903104302100A6008830A500C8
:102A2400E130890B132DA50B132DA60B132D993112
:102A3400A921903121002C08A1002B08A000993174
:102A4400C82190319931A62190319A31E4229031F4
:102A540002302100A600B530A5005930890B302D75
:102A6400A50B302DA60B302D00329A31E422903183
:102A740003302100A600B930A5001630890B402D83
:102A8400A50B402DA60B402D00009931A9219031B2
:102A940021003008A1002F08A0009931C8219031ED
:102AA4009931A621903181310821903102302100E1
:102AB400A600B530A5005930890B5E2DA50B5E2DFF
:102AC400A60B5E2D00329A31E422903103302100AE
:102AD400A6003230A5000530890B6E2DA50B6E2D96
:102AE400A60B6E2D00329931A921903121003408B2
:102AF400A1003308A0009931C82190319931A62151
:102B040090319A31E422903102302100A600E9305C
:102B1400A5004C30890B8C2DA50B8C2DA60B8C2D70
:102B240000009931AF21903121006E08A1006D0899
:102B3400A0009931CD2190319931AC21903181316E
:102B44000821903102302100A600B530A50059308B
:102B5400890BAA2DA50BAA2DA60BAA2D0032813113
:102B64000821903104302100A6007E30A5007D307C
:102B7400890BBA2DA50BBA2DA60BBA2D9931AF210D
:102B8400903121004208A1004108A0009931CD21D3
:102B940090319931AC2190319A31E4229031343022
:102BA4002100A500F130890BD52DA50BD52D0032C0
:102BB4009931A921903104302100A600DB30A50011
:102BC400FF30890BE32DA50BE32DA60BE32D9931E3
:102BD400AF21903121004408A1004308A00099319D
:102BE400CD2190319931AC2190319A31E422903148
:102BF40003302100A600B930A5001630890B002E41
:102C0400A50B002EA60B002E000021003408A10005
:102C14003308A0009931C82190319931A62190310F
:102C24009A31E422903103302100A600B930A50086
:102C34001630890B1B2EA50B1B2EA60B1B2E00007A
:102C44009931AF21903121004808A1004708A00024
:102C54009931CD2190319931AC21903181310821C4
:102C64009031C6302100A5006530890B372EA50BA5
:102C7400372E00329931A921903121003E08A1005C
:102C84003D08A0009931C82190319931A621903195
:102C94009A31E422903103302100A600B930A50016
:102CA4001630890B532EA50B532EA60B532E000062
:102CB4009931AF21903121004E08A1004D08A000A8
:102CC4009931CD2190319931AC2190319A31E4225E
:102CD40090319931A921903104302100A600BC30F3
:102CE400A500D330890B742EA50B742EA60B742E5D
:102CF400003221003E08A1003D08A0009931C821FE
:102D040090319931A62190319931AF219031210030
:102D14004C08A1004B08A0009931CD219031993184
:102D2400AC21903181310821903102302100A6007C
:102D3400B530A5005930890B9D2EA50B9D2EA60BF1
:102D44009D2E00329A31E422903103302100A600F6
:102D54008530A5002330890BAD2EA50BAD2EA60B17
:102D6400AD2E00329A31E422903103302100A600C6
:102D74008530A5002330890BBD2EA50BBD2EA60BD7
:102D8400BD2E00329A31E422903103302100A60096
:102D94008530A5002330890BCD2EA50BCD2EA60B97
:102DA400CD2E00329A31E422903103302100A60066
:102DB4008530A5002330890BDD2EA50BDD2EA60B57
:102DC400DD2E003281310821903102302100A6002D
:102DD400AA30A500F630890BED2EA50BED2EA60B1F
:102DE400ED2E00009931AF21903121004208A1005D
:102DF4004108A0009931CD2190319931AC21903115
:102E04009A31E422903102302100A600B530A500A9
:102E14005930890B0B2FA50B0B2FA60B0B2F003250
:102E24009A31E422903105302100A600C030A5007B
:102E34009030890B1B2FA50B1B2FA60B1B2F0000FB
:102E44009931A921903121003C08A1003B08A00040
:102E54009931C82190319931A62190319931AF210E
:102E6400903121006408A1006308A0009931CD21AC
:102E740090319931AC2190319A31E4229031023071
:102E84002100A600B530A5005930890B472FA50BAA
:102E9400472FA60B472F0032813108219031023091
:102EA4002100A600B530A5005930890B572FA50B7A
:102EB400572FA60B572F00329A31E422903102305B
:102EC4002100A600B530A5005930890B672FA50B4A
:102ED400672FA60B672F0032813108219031023011
:102EE4002100A600B530A5005930890B772FA50B1A
:102EF400772FA60B772F00329A31E42290310230DB
:102F04002100A6005730A500D830890B872FA50BC8
:102F1400872FA60B872F00009A31BE2290310230F2
:102F24002100A6005730A500D830890B972FA50B98
:102F3400972FA60B972F00009B3135239031D0306B
:102F44002100A500C930890BA52FA50BA52F0032A0
:102F54009B313523903102302100A600B530A50005
:102F64005930890BB32FA50BB32FA60BB32F003207
:102F74009A31E422903102302100A6005730A50096
:102F8400D830890BC32FA50BC32FA60BC32F00006A
:102F94009A31BE22903102302100A6005730A5009C
:102FA400D830890BD32FA50BD32FA60BD32F00001A
:102FB4009A31BE22903102302100A6005730A5007C
:102FC400D830890BE32FA50BE32FA60BE32F0000CA
:102FD4009A31BE2290319931AF2190319931A92192
:102FE400903105302100A6000F30A500F130890B87
:0C2FF400F92FA50BF92FA60BF92F0800F0
:1033280020001F15080020001F110800280017158D
:10333800080028001711080028001E15080028009A
:103348001E11080020001F15080020001F1108008A
:1033580028001715080028001711080028001E1556
:10336800080028001E110800700820009E000800B0
:103378007008280096000800700828009D000800C2
:1033880021009115111508002100200820009E0039
:1033980008002100200828009600080021002008C5
:1033A80028009D00080021002108F8002008F700E7
:1033B8000800640080010131890BDE2900348F3058
:1033C8002500930092017F30910003309F0408008C
:1033D800210021082000EB00210020082000EA003D
:1033E8000800210021082000E90021002008200011
:1033F800E80008006030320099009B019D01073009
:103408009F009E019C010800210020082104031947
:103418000E2A0F2A132A2108FA002008F9000800AA
:1034280080302C0099001F309800C03097001F088A
:10343800FC3901389F00080080302C009C001F30A8
:103448009B00C0309A001F08F33908389F00080015
:103458008731E2279A31210010162000101210102F
:103468009E3171269A318031C9283F3020009E0054
:103478009D01911007309F0000302100A00000300E
:10348800A1009931D7219A3108003F3028009600D1
:103498009501200092100730280097000030210085
:1034A800A0000030A1009931EC219A3108003F308A
:1034B80028009D009C0120009213073028009E00E0
:1034C80000302100A0000030A1009931F5219A3187
:1034D8000800803024009400083095009601970178
:1034E8004F3092009931C4219A3100302100A00058
:1034F8000030A1009A3108229A312400951608005C
:103508003E3400343A34003438340034343400342F
:10351800313400342E3400342C340034293400344F
:103528002734003425340034233400342134003463
:103538008030F3000030F4009931A3219A317408E7
:10354800F1007308F0009931C0219A319931A02116
:103558009A310B30F2006230890BB02AF20BB02A94
:103568000032FC30F307FF30F43DF41FBC2ABD2ABB
:10357800A02A080080302100A3000030A40099315F
:10358800B5219A3121002408A1002308A00099310F
:10359800D2219A319931B2219A310B302100A200FF
:1035A8006230890BD52AA20BD52A0000FC302100F5
:1035B800A307FF30A43DA41FE22AE32AC32A080078
:1035C800FF302100A3000030A4009931B5219A31C1
:1035D80021002408A1002308A0009931D2219A31A2
:1035E8009931B2219A310B302100A2006230890B47
:1035F800FB2AA20BFB2A0000FE302100A307FF30A4
:10360800A43DA41F082B092BE92A08008030F300E9
:103618000030F4009931A3219B317408F10073083C
:10362800F0009931C0219B319931A0219B310B3099
:10363800F2006230890B1E2BF20B1E2B0032043075
:10364800F3070030F43D7408803AF20081307202CA
:10365800031D302B01307302031C332B342B0E2B2C
:10366800080080302100A3000030A4009931B52162
:103678009B3121002408A1002308A0009931D22100
:103688009B319931B2219B310B302100A20062306D
:10369800890B4C2BA20B4C2B000004302100A307F4
:1036A8000030A43D2408803AA20081302202031D84
:1036B8005F2B01302302031C622B632B3A2B08007B
:1036C8007E34003476340034703400346934003485
:1036D800633400345E3400345834003453340034D6
:1036E8004F3400344A340034463400344234003411
:1036F800FC340034EE340034E0340034D434003484
:10370800C8340034BD340034B2340034A834003432
:103718009E340034953400348D34003485340034BC
:1037280022008C0150308D008E011F3021008C004A
:10373800F0308D00C0308E00103023008C008D01D9
:1037480038308E0024008C018D018E0125008C01FB
:103758008D018E01373026008C00F0308D00FF304F
:103768008E003F3027008C00F0308D00FF308E0037
:1037780002303D00A5000330A3000E303C00A0003D
:1037880018303D009E000C303C00A10019303D006F
:103798009C0014303C0094000C303D00A40027002D
:1037A8009101920193019401950196019701980165
:1037B8009901080003302100A600B930A500163091
:1037C800890BE42BA50BE42BA60BE42B0000993105
:1037D800A9219B3121005208A1005108A00099316C
:1037E800C8219B319931A6219B319931AF219B3159
:1037F80021006E08A1006D08A0009931CD219B31F0
:103808009931AC219B31813108219B310230210053
:10381800A600E930A5004C30890B102CA50B102C04
:10382800A60B102C00009931A9219B3121005008CA
:10383800A1004F08A0009931C8219B319931A621D8
:103848009B319A31E4229B3105302100A6001A30C1
:10385800A5005430890B2E2CA50B2E2CA60B2E2C34
:1038680000009931A9219B3121004208A10041089B
:10387800A0009931C8219B319931A6219B319A31F9
:10388800E4229B31E5302100A5009130890B4A2CB8
:10389800A50B4A2C9931AF219B3121005608A10074
:1038A8005508A0009931CD219B319931AC219B312C
:1038B800813108219B319031222804302100A60053
:1038C8005430A500EE30890B672CA50B672CA60B8E
:1038D800672C00009931A9219C3121006E08A100B4
:1038E8006D08A0009931C8219C319931A6219C31DD
:1038F8009A31E4229C3102302100A600B530A5009F
:103908005930890B852CA50B852CA60B852C0032EC
:103918009A31E4229C3102302100A600B530A5007E
:103928005930890B952CA50B952CA60B952C00329C
:1039380002302100A6006C30A5009F30890BA22C14
:10394800A50BA22CA60BA22C0032813108219C3198
:1039580002302100A6006C30A5009F30890BB22CE4
:10396800A50BB22CA60BB22C00327D302100A5008D
:10397800AB30890BBD2CA50BBD2C00329931A92188
:103988009C3121004808A1004708A0009931C821AE
:103998009C319931A6219C319A31E4229C31023024
:1039A8002100A600B530A5005930890BD92CA50BEC
:1039B800D92CA60BD92C00329A31E4229C318531BE
:1039C800362D903100209C310230F600B530F500DC
:1039D8005A30890BED2CF50BED2CF60BED2C9031B4
:1039E80000209C310230F600B530F5005A30890BC2
:1039F800FB2CF50BFB2CF60BFB2C8131C2219C31E7
:103A08000430F6005F30F5005230890B092DF50BB4
:103A1800092DF60B092D993197219C3199319D215A
:103A28009C3120004108F1004008F0009931B8218C
:103A38009C31993194219C3120005D08F1005C088B
:103A4800F0009931BC219C3199319A219C319031F7
:103A580000209C310230F600B530F5005A30890B51
:103A6800332DF50B332DF60B332D903100209C317F
:103A78000330F600B930F5001630890B412DF50BEF
:103A8800412DF60B412D003299319D219C31993100
:103A980097219C3120006108F1006008F0009931FD
:103AA800B8219C31993194219C3120005D08F100A6
:103AB8005C08F0009931BC219C3199319A219C31E4
:103AC8008131C2219C318331042B993194219D315C
:103AD80099319D219D3120005508F1005408F000CE
:103AE8009931BC219D3199319A219D319031002025
:103AF8009D310430F6008830F500E130890B822DC5
:103B0800F50B822DF60B822D0000993197219D31FE
:103B180020006708F1006608F0009931B8219D314E
:103B2800993194219D3199319D219D31200053086F
:103B3800F1005208F0009931BC219D3199319A2148
:103B48009D318131C2219D310230F600B530F5003A
:103B58005A30890BAD2DF50BAD2DF60BAD2D9031EF
:103B680000209D310230F600B530F5005A30890B3F
:103B7800BB2DF50BBB2DF60BBB2D903100209D31D5
:103B88000430F6005F30F5005230890BC92DF50B73
:103B9800C92DF60BC92D993197219D3199319D2158
:103BA8009D3120006308F1006208F0009931B821C6
:103BB8009D31993194219D3120005908F100580810
:103BC800F0009931BC219D3199319A219D319C3168
:103BD800E52C3830860001308700503084000030F2
:103BE80085001830F50016001A00F50BF72D203067
:103BF8008600013087003830840000308500183096
:103C0800F50016001A00F50B052EA03086000130CD
:103C1800870020308400003085001830F500160039
:103C28001A00F50B132E993197219D3120003B087E
:103C3800F1003A08F0009931B8219D319931942169
:103C48009D3199319D219D3120005308F100520882
:103C5800F0009931BC219D3199319A219D318131F2
:103C6800C2219D310230F600B530F5005A30890B7B
:103C78003B2EF50B3B2EF60B3B2E903100209D3151
:103C88000230F600B530F5005A30890B492EF50B95
:103C9800492EF60B492E903100209D310430F60054
:103CA8005430F500EE30890B572EF50B572EF60BD6
:103CB800572E0032993197219D3120006708F10075
:103CC8006608F0009931B8219D31993194219D31D0
:103CD800903100209D318631D22E38308600013057
:103CE8008700D73084000030850018302100A500F7
:103CF80016001A00A50B7C2E2030860001308700A4
:103D0800BF308400003085001830A50016001A0066
:103D1800A50B8A2EA030860001308700A7308400CA
:103D2800003085001830A50016001A00A50B982E43
:103D38009931A9219E3121004208A1004108A00023
:103D48009931C8219E319931A6219E319931AF21EF
:103D58009E3121005A08A1005908A0009931CD21AF
:103D68009E319931AC219E31813108219E3102303A
:103D78002100A600B530A5005930890BC12EA50B2E
:103D8800C12EA60BC12E00329A31E4229E31023098
:103D98002100A600B530A5005930890BD12EA50BFE
:103DA800D12EA60BD12E00329A31E4229E31043056
:103DB8002100A6005430A500EE30890BE12EA50B9A
:103DC800E12EA60BE12E00009931A9219E31210098
:103DD8006E08A1006D08A0009931C8219E319E315E
:103DE800F52E9931A6219E319A31E4229E31023076
:103DF8002100A600B530A5005930890B012FA50B6D
:103E0800012FA60B012F00329A31E4229E31023095
:103E18002100A600B530A5005930890B112FA50B3C
:103E2800112FA60B112F003203302100A600D83025
:103E3800A5004130890B1E2FA50B1E2FA60B1E2F88
:103E48000032813108219E317D302100A500AB3040
:103E5800890B2C2FA50B2C2F00329931A9219E31CB
:103E680021004808A1004708A0009931C8219E31C7
:103E78009931A6219E319A31E4229E3102302100E7
:103E8800A600B530A5005930890B482FA50B482F3F
:103E9800A60B482F00329A31E4229E3103302100CC
:103EA800A600B930A5001630890B582FA50B582F3E
:103EB800A60B582F00009931A9219E3121004208F4
:103EC800A1004108A0009931C8219E319931A6214D
:103ED8009E319931AF219E3121006008A1005F0811
:103EE800A0009931CD219E3187315A2F0230F6003A
:103EF800B530F5005A30890B7F2FF50B7F2FF60B65
:103F08007F2F903100209F310330F600B930F50043
:103F18001630890B8D2FF50B8D2FF60B8D2F003258
:103F2800993197219F3120006708F1006608F00059
:103F38009931B8219F31993194219F3190310020D6
:103F48009F310230F600B530F5005A30890BAA2FA0
:103F5800F50BAA2FF60BAA2F903100209F310230C3
:103F6800F600B530F5005A30890BB82FF50BB82F8D
:103F7800F60BB82F8131C2219F313430F500F23071
:103F8800890BC42FF50BC42F99319D219F3199318D
:103F980097219F3120006108F1006008F0009931F5
:103FA800B8219F31993194219F3120005908F1009F
:103FB8005808F0009931BC219F3199319A219F31DD
:103FC800903100209F310430F6008830F500E13050
:103FD800890BEC2FF50BEC2FF60BEC2F0000993129
:103FE80097219F3120006308F1006208F0009931A1
:103FF800B8219F319D31692D6D341A340034003455
:104008000034003400340034003400340034003408
:10401800003400340034003408341A3400340034D6
:1040280000340034003400340034003400340034E8
:1040380000340034003400340034003400340034D8
:0C40480000340034353402342A340034D3
:020000040001F9
:08000E008F3EF33FFF3FFF3F6F
:02E00000FF001F
:00000001FF
