:040000008031C6285D
:100008007E1480312000101E0A280B28C2282700E1
:10001800111C0F2810281228200010122700911CEC
:10002800162817281928200010122700111D1D282E
:100038001E2820282000101220000C1C2428252807
:100048006F280E1E282829283B280E1F2C282D280B
:100058003B282700941E312832283428200010120B
:100068002700941F382839283B2820001012200028
:100078000E1E3F2840284E282700941E4428452855
:100088004728200010122700941F4B284C284E2880
:100098002000101220000E1F522853286128270024
:1000A800941E572858285A28200010122700941FF9
:1000B8005E285F286128200010122700941E6528FA
:1000C80066286828200010122700941F6C286D28C5
:1000D8006F282000101220008C18732874287828A4
:1000E8000C1D77287828C2280E1E7B287C288E288D
:1000F8000E1F7F2880288E282700941E8428852894
:100108008728200010122700941F8B288C288E28FF
:100118002000101220000E1E92289328A1282700E4
:10012800941E972898289A28200010122700941FB8
:100138009E289F28A1282000101220000E1FA52805
:10014800A628B4282700941EAA28AB28AD2820008A
:1001580010122700941FB128B228B42820001012CA
:100168002700941EB828B928BB28200010122700A1
:10017800941FBF28C028C228200010122000101287
:100188007E1009008031C8287730840083308500CC
:10019800A03086000030870030308431B8248031A8
:1001A800E6308400833085002030860001308700E7
:1001B80018308431B8248031F901FA01FB01FC01BF
:1001C800EA01EB01EC01ED01D0308400003085003C
:1001D8000D308431BE2480317E1020008031F42817
:1001E8008331CA238031B830860000308700203040
:1001F8008400003085001830F70016001A00F70B4D
:100208000129A03086000030870038308400003093
:1002180085001830F70016001A00F70B0F29203058
:100228008600013087005030840000308500183087
:10023800F70016001A00F70B1D298431E1248031DC
:100248008431EA24803120004F08F1004E08F00084
:100258008431D92480318431ED2480318431E424FF
:10026800803120002F08F1002E08F0008431D524B9
:1002780080318431E72480311130F800A430F70050
:10028800B030890B4529F70B4529F80B4529003271
:100298008431EA24803120005308F1005208F0002C
:1002A8008431D92480318431ED2480310930F8003B
:1002B8008630F700CA30890B5F29F70B5F29F80BE6
:1002C8005F298431EA24803120005508F100540860
:1002D800F0008431D92480318431ED2480310F300D
:1002E800F8009D30F7003630890B7829F70B78290C
:1002F800F80B782900328431EA248031200059082B
:10030800F1005808F0008431D92480318431ED247B
:1003180080310F30F8009D30F7003630890B922974
:10032800F70B9229F80B922900328431EA248031A4
:1003380020005D08F1005C08F0008431D924803188
:100348008431ED2480310830F8001B30F700273065
:10035800890BAC29F70BAC29F80BAC2900008431C8
:10036800E424803120003708F1003608F000843199
:10037800D52480318431E72480311130F800703081
:10038800F700BE30890BC629F70BC629F80BC6291A
:100398008431E424803120003B08F1003A08F00061
:1003A8008431D52480318431E72480310530F80048
:1003B8004330F700E430890BDF29F70BDF29F80B0E
:1003C800DF298431EA2480310430F800DB30F7007B
:1003D800FF30890BED29F70BED29F80BED2900000B
:1003E8008431E424803120003D08F1003C08F0000D
:1003F8008431D52480318431E72480310830F800F5
:10040800EA30F700F230890B072AF70B072AF80BB6
:10041800072A003220005D08F1005C08F0008431F2
:10042800D92480318431ED2480310930F8005230EC
:10043800F700D730890B1E2AF70B1E2AF80B1E2A45
:1004480000008431E424803120004108F100400894
:10045800F0008431D52480318431E724803107309D
:10046800F8001730F7006A30890B382AF70B382A5A
:10047800F80B382A00328431EA24803120006708DA
:10048800F1006608F0008431D92480318431ED24EC
:1004980080310930F8008630F700CA30890B522ABB
:1004A800F70B522AF80B522A8431E42480312000B9
:1004B8004708F1004608F0008431D52480318431A2
:1004C800E72480310530F8000F30F700F130890B50
:1004D8006B2AF70B6B2AF80B6B2A00008431EA248D
:1004E80080310530F8000F30F700F130890B7A2A97
:1004F800F70B7A2AF80B7A2A000020006708F10027
:100508006608F0008431D92480318431ED248031AB
:100518000330F8007030F7005C30890B912AF70B34
:10052800912AF80B912A00328431E424803120008A
:100538004508F1004408F0008431D5248031843125
:10054800E72480311430F8007B30F700F430890B51
:10055800AB2AF70BAB2AF80BAB2A00321730F8009E
:10056800BB30F7001D30890BB72AF70BB72AF80BF9
:10057800B72A00008431E424803120003B08F100D0
:100588003A08F0008431D52480318431E724803161
:100598001130F800A430F700B030890BD12AF70BDE
:1005A800D12AF80BD12A00328431EA248031200084
:1005B8006508F1006408F0008431D9248031843161
:1005C800ED2480318431E424803120002D08F100AD
:1005D8002C08F0008431D52480318431E72480311F
:1005E8001730F800BB30F7001D30890BF92AF70BDC
:1005F800F92AF80BF92A00001730F800BB30F70089
:100608001D30890B052BF70B052BF80B052B00006C
:100618000630F8007B30F7009330890B112BF70B6D
:10062800112BF80B112B00008431E4248031843124
:10063800EA2480311730F800BB30F7001D30890BF1
:10064800232BF70B232BF80B232B000021298031B8
:10065800C62822008C0150308D008E011F302100E9
:100668008C00F0308D00C0308E00103023008C00DC
:100678008D0138308E0024008C018D018E012500FB
:100688008C018D018E01373026008C00F0308D00F2
:10069800FF308E003F3027008C00F0308D00FF3097
:1006A8008E0002303D00A5000330A3000E303C0050
:1006B800A00018303D009E000C303C00A10019300D
:1006C8003D009C0014303C0094000C303D00A40018
:1006D80027009101920193019401950196019701D8
:1006E8009801990108007E3400347634003470345F
:1006F800003469340034633400345E3400345834D0
:100708000034533400344F3400344A34003446340F
:10071800003442340034FC340034EE340034E03425
:100728000034D4340034C8340034BD340034B23416
:100738000034A83400349E340034953400348D34A9
:10074800003485340034F60184315C248331003A66
:10075800031DAF2BB02BC82B01302100D00072082D
:10076800D2007108D100DA017308D3007508D500EA
:100778007408D400D601D701D801D901DB0184312E
:10078800B1248331F601F60A7608080084319E24E4
:10079800833183312D2383318331FE2383318431A7
:1007A800A824833184318724833184317B248331A5
:1007B80084316C24833184314B24833184313A244D
:1007C800833108003E3400343A340034383400347D
:1007D80034340034313400342E3400342C340034B2
:1007E80029340034273400342534003423340034C9
:1007F800213400348030240094000830950096019C
:1008080097014F3092008431DD2483310030F000AD
:100818000030F100843193248331240095160800B8
:10082800FE34033400340034A73403340034003475
:100838000034003400340034003400345C340434B0
:100848009334043400340034003400340034003469
:1008580000340034003400340034003400340034F0
:100868000034003400340034003400343F302800B1
:100878009D009C0120009213073028009E00003044
:10088800F0000030F1008431C424843108003F3086
:100898002800960095012000921007302800970044
:1008A8000030F0000030F1008431CA24843108009F
:1008B800F001F00A21005008031D632C642C6A2CF7
:1008C80024009419682C692C6A2CF001700808001F
:1008D8003F3020009E009D01911007309F0000309E
:1008E800F0000030F1008431D024843108008030D9
:1008F8002C009C001F309B00C0309A001F08F33961
:1009080008389F00080080302C0099001F3098009C
:10091800C03097001F08FC3901389F000800700894
:1009280071040319982C992C9D2C7108FC007008EF
:10093800FB0008006030320099009B019D010730E0
:100948009F009E019C0108008F30250093009201B2
:100958007F30910003309F0408008431F0248431F3
:1009680002302100DC000800FE0012001E00FE0B11
:10097800B92C0034640080010131890BBF2C00348C
:1009880071082000EB007008EA00080071082000D8
:10099800ED007008EC0008007108FA007008F90012
:1009A80008007008280096000800700820009E00C3
:1009B8000800210091151115080028001E110800D3
:1009C80028001711080028001715080020001F111B
:1009D800080020001F1508002400161408002A34F7
:0609E8000034303402343B
:020000040001F9
:08000E008F3EF33FFF3FFF3F6F
:02E00000FF001F
:00000001FF
