:040000008031C9285A
:100008007E1480312000101E0A280B28C5282700DE
:10001800111C0F2810281228200010122700911CEC
:10002800162817281928200010122700111D1D282E
:100038001E2820282000101220000C1C2428252807
:1000480072280E1E282829283E280E1F2C282D2805
:100058003E2884315A2480312700941E34283528BC
:100068003728200010122700941F3B283C283E28E0
:100078002000101220000E1E422843285128270075
:10008800941E472848284A28200010122700941F49
:100098004E284F2851282000101220000E1F5528E6
:1000A800562864282700941E5A285B285D282000BB
:1000B80010122700941F612862286428200010125B
:1000C8002700941E682869286B2820001012270032
:1000D800941F6F28702872282000101220008C1896
:1000E800762877287B280C1D7A287B28C5280E1EA1
:1000F8007E287F2891280E1F822883289128270090
:10010800941E872888288A28200010122700941F08
:100118008E288F2891282000101220000E1E952866
:100128009628A4282700941E9A289B289D282000FA
:1001380010122700941FA128A228A428200010121A
:1001480020000E1FA828A928B7282700941EAD282C
:10015800AE28B028200010122700941FB428B52814
:10016800B728200010122700941EBB28BC28BE28E0
:10017800200010122700941FC228C328C528200079
:100188001012200010127E1009008031CB28AF30E9
:10019800840086308500A03086000030870030302B
:1001A8009731C3278031863084008730850020301E
:1001B80086000130870018309731C3278031F70156
:1001C800F801D0308400003085000D309731BD270C
:1001D80080317E1020008531E62D973189278031C6
:1001E8008030F0000030F10097319F27803197313F
:1001F800862780310B30F2006230890B0129F20B1F
:10020800012900329731892780316430F0000030AD
:10021800F10097319F2780319731862780310B3045
:10022800F2006230890B1629F20B16290032973139
:10023800892780315030F0000030F10097319F2736
:1002480080319731862780310B30F2006230890B7C
:100258002B29F20B2B290032973189278031323034
:10026800F0000030F10097319F27803197318627C1
:1002780080310B30F2006230890B4029F20B4029A3
:1002880000329731892780311E30F0000030F100AC
:1002980097319F2780319731862780310B30F200C4
:1002A8006230890B5529F20B55290032F301F4010C
:1002B8009731892780317408F1007308F00097316D
:1002C8009F2780319731862780310B30F2006230CA
:1002D800890B6C29F20B6C2900320230F3070030CD
:1002E800F43D7408803AF20081307202031D7E29C1
:1002F80000307302031C812982295C2997318927E0
:100308008031FF30F0000030F10097319F278031B5
:100318009731862780316830F200E430890B9229C2
:10032800F20B9229003297318927803108003F303B
:10033800F5005530890B9E29F50B9E290000973151
:10034800832781310730F600B330F5004230890B3E
:10035800AB29F50BAB29F60BAB2900329731832774
:10036800813120003B08F1003A08F00097319B27C3
:10037800813197318027813197318F278131200052
:100388005308F1005208F0009731A32781319731C3
:100398008C2781318031F12081310230F600B5306F
:1003A800F5005A30890BD629F50BD629F60BD62934
:1003B80087310A2781310230F600B530F5005A300E
:1003C800890BE429F50BE429F60BE42987310A2780
:1003D80081310430F6005430F500EE30890BF229F3
:1003E800F50BF229F60BF229003297318327813178
:1003F80020006708F1006608F00097319B278131DB
:1004080097318027813187310A2781310230F60000
:10041800B530F5005A30890B0F2AF50B0F2AF60B69
:100428000F2A87310A2781310230F600B530F500EE
:100438005A30890B1D2AF50B1D2AF60B1D2A02308E
:10044800F6006C30F500A030890B282AF50B282A15
:10045800F60B282A8031F12081318231C32A0230FB
:10046800F600B530F5005A30890B382AF50B382AD2
:10047800F60B382A8031F12082310230F600B5308F
:10048800F5005A30890B462AF50B462AF60B462A00
:1004980087310A2782310330F600E230F500A630B2
:1004A800890B542AF50B542AF60B542A97318327C3
:1004B800823197318F27823120006308F10062086A
:1004C800F00097319B2782319731802782312000B5
:1004D8005908F1005808F0009731A3278231973165
:1004E8008C27823187310A2782310230F600B530F5
:1004F800F5005A30890B7E2AF50B7E2AF60B7E2AE8
:1005080087310A2782310230F600B530F5005A30BB
:10051800890B8C2AF50B8C2AF60B8C2A8031F1205A
:1005280082310230F600B530F5005A30890B9A2A2C
:10053800F50B9A2AF60B9A2A87312C27823102303A
:10054800F6005730F500D830890BA82AF50BA82AF1
:10055800F60BA82A003287312C2782310230F600A8
:100568005730F500D830890BB72AF50BB72AF60BA8
:10057800B72A003287312C27823181319B290230FA
:10058800F6006C30F500A030890BC82AF50BC82A94
:10059800F60BC82A7D30F500AC30890BD12AF50B53
:1005A800D12A97318327823120004108F100400881
:1005B800F00097319B27823197318027823187312C
:1005C8000A2782310230F600B530F5005A30890B1F
:1005D800EB2AF50BEB2AF60BEB2A87310A27823137
:1005E8000530F600C030F5009030890BF92AF50B7C
:1005F800F92AF60BF92A0032973183278231200035
:100608004508F1004408F00097319B278231973163
:100618008027823197318F27823120005908F100D5
:100628005808F0009731A327823197318C278231FF
:100638008031F12082310230F600B530F5005A30B1
:10064800890B242BF50B242BF60B242B8031F1205E
:1006580082310230F600B530F5005A30890B322B62
:10066800F50B322BF60B322B87310A2782310430F7
:10067800F6005430F500EE30890B402BF50B402B7B
:10068800F60B402B003297318327823188310828B6
:100698000230F600B530F5005A30890B512BF50BB6
:1006A800512BF60B512B87310A2783310230F60084
:1006B800B530F5005A30890B5F2BF50B5F2BF60B25
:1006C8005F2B0330F600D830F5004230890B6A2BD7
:1006D800F50B6A2BF60B6A2B8031F12083317D30C4
:1006E800F500AC30890B762BF50B762B97318327E9
:1006F800833120004108F1004008F00097319B2722
:10070800833197318027833187310A27833102303B
:10071800F600B530F5005A30890B902BF50B902B6D
:10072800F60B902B87310A2783310330F600B93056
:10073800F5001630890B9E2BF50B9E2BF60B9E2B86
:10074800003297318327833120003B08F1003A08B3
:10075800F00097319B278331973180278331973178
:100768008F27833120005908F1005808F00097318D
:10077800A327833197318C2783318031F12083314E
:100788000230F600B530F5005A30890BC92BF50B4D
:10079800C92BF60BC92B8031F12083318331D42B3F
:1007A8000230F600B530F5005A30890BD92BF50B1D
:1007B800D92BF60BD92B87310A2783310330F60062
:1007C800B930F5001630890BE72BF50BE72BF60B44
:1007D800E72B003297318327833120006708F10027
:1007E8006608F00097319B27833197318027833142
:1007F80087310A2783310230F600B530F5005A30C8
:10080800890B042CF50B042CF60B042C87310A27D2
:1008180083310230F600B530F5005A30890B122CBE
:10082800F50B122CF60B122C8031F1208331343069
:10083800F500F230890B1E2CF50B1E2C97318F27F3
:10084800833197318327833120006108F1006008E4
:10085800F00097319B27833197318027833120001F
:100868005908F1005808F0009731A32783319731D0
:100878008C27833187310A2783310430F60088308A
:10088800F500E130890B462CF50B462CF60B462C6F
:10089800000097318327833120006308F100620844
:1008A800F00097319B2783318431DE2CB8308600E5
:1008B8000030870050308400003085001830F50083
:1008C80016001A00F50B642CA03086000030870053
:1008D80038308400003085001830F50016001A0002
:1008E800F50B722C20308600013087002030840000
:1008F800003085001830F50016001A00F50B802C22
:1009080097318327843120003B08F1003A08F00032
:1009180097319B27843197318027843197318F27EE
:10092800843120005308F1005208F0009731A327C2
:10093800843197318C2784318031F1208431023021
:10094800F600B530F5005A30890BA82CF50BA82C09
:10095800F60BA82C87310A2784310230F600B5300F
:10096800F5005A30890BB62CF50BB62CF60BB62CC5
:1009780087310A2784310430F6005430F500EE3010
:10098800890BC42CF50BC42CF60BC42C0032973100
:100998008327843120006708F1006608F00097314A
:1009A8009B27843197318027843187310A27843106
:1009B80083314C2B97318027843197318F278431AD
:1009C80020005508F1005408F0009731A32784311E
:1009D80097318C27843187310A2784310430F60017
:1009E8008830F500E130890BF72CF50BF72CF60B66
:1009F800F72C000097318327843120006708F10025
:100A08006608F00097319B2784319731802784311D
:100A180097318F27843120005308F1005208F000E5
:100A28009731A327843197318C2784318031F12085
:100A380084310230F600B530F5005A30890B222D8A
:100A4800F50B222DF60B222D87310A27843102302F
:100A5800F600B530F5005A30890B302DF50B302DE6
:100A6800F60B302D87310A2784310430F6005F30C9
:100A7800F5005230890B3E2DF50B3E2DF60B3E2D21
:100A880097318327843197318F2784312000630879
:100A9800F1006208F00097319B2784319731802755
:100AA800843120005908F1005808F0009731A32735
:100AB800843197318C2784318531622D87310A271B
:100AC80085310230F600B530F5005A30890B6A2DB1
:100AD800F50B6A2DF60B6A2D87310A27853102300E
:100AE800F600B530F5005A30890B782DF50B782DC6
:100AF800F60B782D8031F12085310430F6005F3017
:100B0800F5005230890B862DF50B862DF60B862DB8
:100B180097318327853197318F2785312000410808
:100B2800F1004008F00097319B27853197318027E5
:100B3800853120005D08F1005C08F0009731A3279B
:100B4800853197318C27853187310A2785310230E5
:100B5800F600B530F5005A30890BB02DF50BB02DE5
:100B6800F60BB02D87310A2785310330F600B930EE
:100B7800F5001630890BBE2DF50BBE2DF60BBE2DDC
:100B8800003297318F2785319731832785312000AF
:100B98006108F1006008F00097319B278531973193
:100BA8008027853120005D08F1005C08F00097314E
:100BB800A327853197318C2785318031F120853104
:100BC8008231332A87316D27853121000C148C142A
:100BD8000C158D168D170E160E178E1723000C1078
:100BE8008C100C118D128D130E120E138E13210002
:100BF8008C120E108E100E1122008C120E108E10F8
:100C08000E112100101620001012101000302100C3
:100C1800E5009030E6006508840066088500013F1D
:100C28008A00003F0A00863100302100DE00DF0024
:100C3800E730E0000830E1000030E2006608E40038
:100C48006508E30006306307840064080318640A33
:100C58008500013F8A00003F0A00863104302100E8
:100C68006706031D382E392E562E97319827853161
:100C78007F302100DD000030DE008731FB27853121
:100C880097319527853103302100E4000830E300CF
:100C98007730890B4D2EE30B4D2EE40B4D2E9731FB
:100CA8009827853103302100E4000830E3007730CD
:100CB800890B5C2EE30B5C2EE40B5C2E182E803126
:100CC800C92822008C0150308D008E011F30210070
:100CD8008C00F0308D00C0308E00103023008C0066
:100CE8008D0138308E0024008C018D018E01250085
:100CF8008C018D018E01373026008C00F0308D007C
:100D0800FF308E003F3027008C00F0308D00FF3020
:100D18008E0002303D00A5000330A3000E303C00D9
:100D2800A00018303D009E000C303C00A100193096
:100D38003D009C0014303C0094000C303D00A400A1
:100D48002700910192019301940195019601970161
:100D58009801990108007E340034763400347034E8
:100D6800003469340034633400345E340034583459
:100D78000034533400344F3400344A340034463499
:100D8800003442340034FC340034EE340034E034AF
:100D98000034D4340034C8340034BD340034B234A0
:100DA8000034A83400349E340034953400348D3433
:100DB8000034853400348030F3000030F40097317B
:100DC800892786317408F1007308F00097319F274E
:100DD80086319731862786310B30F2006230890BD5
:100DE800F32EF20BF32E00320430F3070030F43DFB
:100DF8007408803AF20081307202031D052F013019
:100E08007302031C082F092FE32E0800FF30F3009C
:100E18000030F4009731892787317408F10073088E
:100E2800F00097319F2787319731862787310B301C
:100E3800F2006230890B1E2FF20B1E2F0032FE309B
:100E4800F307FF30F43DF41F2A2F2B2F0E2F080035
:100E58008030F3000030F400973189278731740817
:100E6800F1007308F00097319F2787319731862763
:100E780087310B30F2006230890B402FF20B402F84
:100E88000032FC30F307FF30F43DF41F4C2F4D2F98
:100E9800302F08008731D9278731003A031D552F95
:100EA800562F6C2F01302100D0005F08D2005E0859
:100EB800D100DA016008D7006208D9006108D800BB
:100EC800D301D401D501D601DB0188310120873156
:100ED80008009731D22787318631652687319731C7
:100EE800C92787319731E82787319731F427873128
:100EF8008731EB2787318731C72787318731B52776
:100F0800873108003E3400343A3400343834003431
:100F180034340034313400342E3400342C3400346A
:100F28002934003427340034253400342334003481
:100F38002134003480302400940008309500960154
:100F48009701133092009731A7278731003021008D
:100F5800DD000030DE009731DC278731240095164C
:100F680008003F3028009D009C01200092130730A4
:100F780028009E0000302100DD000030DE0097319F
:100F8800B727873108003F302800960095012000D8
:100F9800921007302800970000302100DD00003053
:100FA800DE009731B127873108002100DD01DD0A15
:100FB8005008031DE02FE12FE82F24009419E52F96
:100FC800E62FE82F2100DD0121005D0808003F30F1
:100FD80020009E009D01911007309F0000302100E5
:100FE800DD000030DE009731AB2787310800210093
:080FF8005D08280096000800C6
:1010020097319227883101302100DC00080020004E
:101012004108F1004008F00097319B278831973151
:101022008027883197318F27883120005D08F100B1
:101032005C08F0009731A327883197318C278831DB
:1010420087310A2788310230F600B530F5005A3070
:10105200890B2928F50B2928F60B292887310A271D
:1010620088310330F600B930F5001630890B372885
:10107200F50B3728F60B3728003297318327883152
:1010820020004B08F1004A08F00097319B27883175
:1010920097318027883197318F2788312000670860
:1010A200F1006608F0009731A327883197318C2729
:1010B20088318031F12088310230F600E930F500C4
:1010C2004C30890B6228F50B6228F60B622800323D
:1010D20097318327883120004908F1004808F00041
:1010E20097319B27883197318027883187310A27AA
:1010F20088310530F6001A30F5005430890B7F280C
:10110200F50B7F28F60B7F28003297318327883131
:1011120020003B08F1003A08F00097319B27883104
:1011220097318027883187310A278831E530F500E9
:101132009130890B9A28F50B9A28000097318F2756
:10114200883120004F08F1004E08F0009731A327A4
:10115200883197318C2788318031F12088310230F3
:10116200F600B530F5005A30890BB528F50BB528D5
:10117200F60BB52887310A2788310230F600B530E0
:10118200F5005A30890BC328F50BC328F60BC32888
:1011920087310A2788310430F6005430F500EE30EA
:1011A200890BD128F50BD128F60BD12800329731C3
:1011B2008F27883120002308F1002208F0009731A0
:1011C200A327883197318C27883187310A278831C4
:1011D2000230F600B530F5005A30890BEE28F50BD7
:1011E200EE28F60BEE2887310A2788310230F60006
:1011F200B530F5005A30890BFC28F50BFC28F60BAC
:10120200FC288031F12088310430F6005430F5009A
:10121200EE30890B0A29F50B0A29F60B0A2900324E
:1012220097318F27883120004F08F1004E08F000D7
:101232009731A327883197318C27883187310A2744
:1012420088310230F600B530F5005A30890B272973
:10125200F50B2729F60B272987310A278831B13068
:10126200F5009E30890B3329F50B33290032973173
:101272008F2788310530F6000F30F500F130890BE9
:101282004029F50B4029F60B4029000020004F08A9
:10129200F1004E08F0009731A327883197318C274F
:1012A20088318031F12088310230F600B530F50006
:1012B2005A30890B5A29F50B5A29F60B5A298031D3
:1012C200F12088310230F600B530F5005A30890B32
:1012D2006829F50B6829F60B682987310A278831B6
:1012E2000330F600E230F500A630890B7629F50BC3
:1012F2007629F60B762997318F27883120004D0801
:10130200F1004C08F0009731A327883197318C27E0
:10131200883187310A2788310230F600B530F5006E
:101322005A30890B9229F50B9229F60B92298731B3
:101332000A278831D030F500CA30890B9E29F50B77
:101342009E2987312C278831D030F500CA30890B8D
:10135200A829F50BA82987312C2788310730F600F8
:101362009E30F5007B30890BB429F50BB429F60BBE
:10137200B429000097318F27883120004908F100F5
:101382004808F0009731A327883197318C2788319C
:1013920087310A278831D030F500CA30890BCF292E
:1013A200F50BCF2987312C278831D030F500CA3090
:1013B200890BD929F50BD92987312C278831063099
:1013C200F6006630F500CC30890BE529F50BE529EE
:1013D200F60BE52997318327883120002308F10095
:1013E2002208F00097319B27883197318027883176
:1013F20097318F27883120005308F1005208F000FE
:101402009731A327883197318C2788318031F12099
:1014120088310230F600B530F5005A30890B0F2AB8
:10142200F50B0F2AF60B0F2A87310A278831023073
:10143200F600B530F5005A30890B1D2AF50B1D2A2E
:10144200F60B1D2A87310A2788310430F600543002
:10145200F500EE30890B2B2AF50B2B2AF60B2B2AE3
:10146200003297318327883120004F08F1004E085F
:10147200F00097319B278831973180278831873157
:101482000A2788310230F600B530F5005A30890B50
:10149200482AF50B482AF60B482A87310A27883151
:1014A2000230F600B530F5005A30890B562AF50B9A
:1014B200562AF60B562A0330F600D830F500423091
:1014C200890B612AF50B612AF60B612A8031F12022
:1014D20088317D30F500AC30890B6D2AF50B6D2A11
:1014E20097318327883120002908F1002808F0006D
:1014F20097319B27883197318027883187310A2796
:1015020088310230F600B530F5005A30890B872A4F
:10151200F50B872AF60B872A87310A278831033091
:10152200F600B930F5001630890B952AF50B952A8D
:10153200F60B952A00329731832788312000230841
:10154200F1002208F00097319B27883197318027DC
:10155200883197318F27883120005908F1005808C7
:10156200F0009731A327883197318C278831803159
:10157200F12088310230F600B530F5005A30890B7F
:10158200C02AF50BC02AF60BC02A8031F12088311F
:101592000230F600B530F5005A30890BCE2AF50B31
:1015A200CE2AF60BCE2A87310A2788310330F6007D
:1015B200B930F5001630890BDC2AF50BDC2AF60B64
:1015C200DC2A003297318327883120004F08F1004E
:1015D2004E08F00097319B27883197318027883158
:1015E20087310A2788310230F600B530F5005A30CB
:1015F200890BF92AF50BF92AF60BF92A87310A2702
:1016020088310230F600B530F5005A30890B072BCD
:10161200F50B072BF60B072B8031F1208831343084
:10162200F500F230890B132BF50B132B97318F2713
:10163200883197318327883120004908F100480812
:10164200F00097319B27883197318027883120001D
:101652005908F1005808F0009731A32788319731D3
:101662008C27883187310A2788310430F600883088
:10167200F500E130890B3B2BF50B3B2BF60B3B2B9B
:10168200000097318327883120004B08F1004A0877
:10169200F00097319B278831973180278831973125
:1016A2008F27883120005508F1005408F000973147
:1016B200A327883197318C27883187310A278831CF
:1016C2000430F6008830F500E130890B662BF50B0B
:1016D200662BF60B662B000097318327883120009A
:1016E2004F08F1004E08F00097319B27883197315F
:1016F2008027883197318F27883120005308F100E5
:101702005208F0009731A327883197318C2788310E
:101712008031F12088310230F600B530F5005A30C0
:10172200890B912BF50B912BF60B912B87310A2705
:1017320088310230F600B530F5005A30890B9F2B04
:10174200F50B9F2BF60B9F2B87310A27883104302C
:10175200F6005F30F5005230890BAD2BF50BAD2B47
:10176200F60BAD2B97318327883197318F2788313C
:1017720020004B08F1004A08F00097319B2788317E
:1017820097318027883120005908F1005808F0006D
:101792009731A327883197318C27883187310A27DF
:1017A20088310230F600B530F5005A30890BD72B5C
:1017B200F50BD72BF60BD72B87310A27883102304E
:1017C200F600B530F5005A30890BE52BF50BE52B09
:1017D200F60BE52B8031F12088310430F6005F30C2
:1017E200F5005230890BF32BF50BF32BF60BF32B91
:1017F20097318327883197318F2788312000290834
:10180200F1002808F00097319B2788319731802713
:10181200883120005D08F1005C08F0009731A327B1
:10182200883197318C27883187310A2788310230F5
:10183200F600B530F5005A30890B1D2CF50B1D2C26
:10184200F60B1D2C87310A2788310330F600B93098
:10185200F5001630890B2B2CF50B2B2CF60B2B2CB1
:10186200003297318F2788319731832788312000C2
:101872004908F1004808F00097319B2788319731D9
:101882008027883120005D08F1005C08F000973164
:10189200A327883197318C2788318031F120883114
:1018A2000230F600B530F5005A30890B562CF50B94
:1018B200562CF60B562C8031F12088310230F6007E
:1018C200B530F5005A30890B642CF50B642CF60BFD
:1018D200642C87310A2788310330F600E230F500A4
:1018E200A630890B722CF50B722CF60B722C9731E9
:1018F2008327883197318F27883120004B08F100E8
:101902004A08F00097319B27883197318027883128
:1019120020005908F1005808F0009731A3278831B8
:1019220097318C27883187310A2788310230F600B7
:10193200B530F5005A30890B9C2CF50B9C2CF60B1C
:101942009C2C87310A2788310230F600B530F50029
:101952005A30890BAA2CF50BAA2CF60BAA2C803133
:10196200F12088310230F600B530F5005A30890B8B
:10197200B82CF50BB82CF60BB82C87312C278831F4
:101982000230F6005730F500D830890BC62CF50B23
:10199200C62CF60BC62C003287312C278831023038
:1019A200F6005730F500D830890BD52CF50BD52C25
:1019B200F60BD52C003287312C2788313F30F500C9
:1019C2005530890BE22CF50BE22C000097318F2762
:1019D20088310730F6001730F5006A30890BEF2C9A
:1019E200F50BEF2CF60BEF2C003297318327883161
:1019F20020004F08F1004E08F00097319B278831F4
:101A020097318027883197318F27883120005F08EE
:101A1200F1005E08F0009731A327883197318C27B7
:101A220088318031F12088310230F600B530F5007E
:101A32005A30890B1A2DF50B1A2DF60B1A2D8731F8
:101A42000A2788310530F6003930F5008030890BDD
:101A5200282DF50B282DF60B282D97318327883159
:101A620020002308F1002208F00097319B278831DB
:101A720097318027883187310A2788310430F60070
:101A82008830F500E130890B442DF50B442DF60B1F
:101A9200442D000097318327883120002508F1006A
:101AA2002408F00097319B278831973180278831AD
:101AB20087310A2788310230F600B530F5005A30F6
:101AC200890B612DF50B612DF60B612D87310A27EC
:101AD20088310330F600B930F5001630890B6F2DCE
:101AE200F50B6F2DF60B6F2D00329731832788315E
:101AF20020002908F1002808F00097319B2788313F
:101B02009731802788318031F12088310230F60008
:101B1200B530F5005A30890B8C2DF50B8C2DF60B58
:101B22008C2D87310A2788310330F6003230F500D8
:101B32000630890B9A2DF50B9A2DF60B9A2D9731BB
:101B42008327883120002D08F1002C08F0009731FE
:101B52009B27883197318027883187310A2788313E
:101B62000230F600E930F5004C30890BB62DF50B4A
:101B7200B62DF60BB62D003297318F278831200013
:101B82006708F1006608F0009731A3278831973182
:101B92008C2788318031F12088310230F600B5304F
:101BA200F5005A30890BD32DF50BD32DF60BD32D1F
:101BB2008031F12088310430F6007E30F5007D302E
:101BC200890BE12DF50BE12DF60BE12D000097318C
:101BD2008F27883120003B08F1003A08F000973146
:101BE200A327883197318C27883187310A2788319A
:101BF2003430F500F230890BFC2DF50BFC2D9731BA
:101C0200832788310430F600DB30F500FF30890B82
:101C1200082EF50B082EF60B082E000097318F27A1
:101C2200883120003D08F1003C08F0009731A327DD
:101C3200883197318C27883187310A2788310330E0
:101C4200F600B930F5001630890B252EF50B252E3E
:101C5200F60B252E003220002D08F1002C08F00092
:101C620097319B27883197318027883187310A271E
:101C720088310330F600B930F5001630890B3F2E5B
:101C8200F50B3F2EF60B3F2E003297318F2788310E
:101C920020004108F1004008F0009731A327883165
:101CA20097318C2788318031F1208831C630F50098
:101CB2006630890B5A2EF50B5A2E973183278831BD
:101CC20020003708F1003608F00097319B27883151
:101CD20097318027883187310A2788310330F6000F
:101CE200B930F5001630890B742EF50B742EF60BF5
:101CF200742E003297318F27883120004708F10077
:101D02004608F0009731A327883197318C27883114
:101D120087310A2788319731832788310430F600CA
:101D2200BC30F500D430890B942EF50B942EF60BB3
:101D3200942E20003708F1003608F00097319B27D7
:101D4200883197318027883197318F278831200059
:101D52004508F1004408F0009731A32788319731F4
:101D62008C2788318031F12088310230F600B5307D
:101D7200F5005A30890BBB2EF50BBB2EF60BBB2E92
:101D820087310A2788310330F6008530F500243088
:101D9200890BC92EF50BC92EF60BC92E87310A27DE
:101DA20088310330F6008530F5002430890BD72EB8
:101DB200F50BD72EF60BD72E87310A278831033041
:101DC200F6008530F5002430890BE52EF50BE52E63
:101DD200F60BE52E87310A2788310330F60085306D
:101DE200F5002430890BF32EF50BF32EF60BF32EB0
:101DF2008031F12088310230F600AA30F500F63049
:101E0200890B012FF50B012FF60B012F00329731B1
:101E12008F27883120003B08F1003A08F000973103
:101E2200A327883197318C27883187310A27883157
:101E32000230F600B530F5005A30890B1E2FF50B33
:101E42001E2FF60B1E2F87310A2788310530F60028
:101E5200C030F5009030890B2C2FF50B2C2FF60B90
:101E62002C2F003297318327883120003508F1006A
:101E72003408F00097319B278831973180278831C9
:101E820097318F27883120005D08F1005C08F0004F
:101E92009731A327883197318C27883187310A27D8
:101EA20088310230F600B530F5005A30890B572FD1
:101EB200F50B572FF60B572F8031F1208831023066
:101EC200F600B530F5005A30890B652FF50B652FFA
:101ED200F60B652F87310A2788310230F600B530BC
:101EE200F5005A30890B732FF50B732FF60B732FF6
:101EF2008031F12088310230F600B530F5005A30D9
:101F0200890B812FF50B812FF60B812F87310A2741
:101F120088310230F6005730F500D830890B8F2F08
:101F2200F50B8F2FF60B8F2F003287312C2788313C
:101F32000230F6005730F500D830890B9E2FF50B92
:101F42009E2FF60B9E2F00328631DF268831D0304D
:101F5200F500CA30890BAB2FF50BAB2F8631DF268C
:101F620088310230F600B530F5005A30890BB72FB0
:101F7200F50BB72FF60BB72F87310A2788310230BE
:101F8200F6005730F500D830890BC52FF50BC52F59
:101F9200F60BC52F003287312C2788310230F6002C
:101FA2005730F500D830890BD42FF50BD42FF60B10
:101FB200D42F003287312C2788310230F600573077
:101FC200F500D830890BE32FF50BE32FF60BE32F47
:101FD200003287312C27883197318F27883197310A
:101FE200832788310530F6000F30F500F130890B78
:101FF200F82FF50BF82FF60BF82F000008009E348F
:10200200073400340034003400344E3407340034D2
:1020120000340034003400340034D9340734DC3462
:1020220017340034003400340034003400340034F7
:1020320000340034003400340034003400340034FE
:0A2042000034003400340034003490
:102F000020001F15080020001F11080028001E15B2
:102F1000080028001E1108002800171508002800C6
:102F200017110800240016140800280017150800BF
:102F3000280017110800700820009E000800700883
:102F400028009D0008007008280096000800210055
:102F500091151115080021005E08ED005D08EC00D8
:102F6000080021005E08EB005D08EA00080021006F
:102F70005E08E9005D08E800080064008001013196
:102F8000890BBE2F0034FE0012001E00FE0BC42F62
:102F900000348F302500930092017F309100033080
:102FA0009F0408006030320099009B019D010730AA
:102FB0009F009E019C01080021005D085E0403192A
:102FC000E22FE32FE72F5E08F8005D08F700080006
:102FD00080302C0099001F309800C03097001F08E7
:102FE000FC3901389F00080080302C009C001F3005
:102FF0009B00C0309A001F08F33908389F00080072
:08300000353402342A34003497
:020000040001F9
:08000E008F3EF33FFF3FFF3F6F
:02E00000FF001F
:00000001FF
