:100000008031C928023401347E1480312000101E52
:100010000A280B28C5282700111C0F281028122891
:10002000200010122700911C1628172819282000DC
:1000300010122700111D1D281E2820282000101234
:1000400020000C1C2428252872280E1E2828292868
:100050003E280E1F2C282D283E28A0310920803153
:100060002700941E34283528372820001012270036
:10007000941F3B283C283E282000101220000E1E12
:100080004228432851282700941E472848284A28F8
:10009000200010122700941F4E284F2851282000BE
:1000A000101220000E1F5528562864282700941E81
:1000B0005A285B285D28200010122700941F612811
:1000C00062286428200010122700941E68286928DE
:1000D0006B28200010122700941F6F2870287228A8
:1000E0002000101220008C18762877287B280C1D01
:1000F0007A287B28C5280E1E7E287F2891280E1F6F
:100100008228832891282700941E872888288A28F7
:10011000200010122700941F8E288F28912820007D
:10012000101220000E1E95289628A4282700941E41
:100130009A289B289D28200010122700941FA12890
:10014000A228A4282000101220000E1FA828A928E9
:10015000B7282700941EAD28AE28B0282000101222
:100160002700941FB428B528B728200010122700B4
:10017000941EBB28BC28BE28200010122700941F04
:10018000C228C328C52820001012200010127E109B
:1001900009008031CB28803102208031FC00803181
:1001A00003208031FD00883100208031EC0088314F
:1001B00001208031ED0057308400AC308500A03044
:1001C00086000130870030308831022080315F3076
:1001D0008400AD3085002030860002308700483032
:1001E00088310220803117308400AD308500A03086
:1001F0008600023087004830883102208031CF30BD
:100200008400AC3085002030860003308700483001
:1002100088310220803187308400AC308500A030E6
:1002200086000330870048308831022080318130D9
:100230008400AB3085002030860004308700183001
:10024000883102208031F701F801F901FA01FB0140
:10025000E801E901EA01EB01D030840001308500BA
:100260002030AA31E02280317E102000AB31362BC5
:10027000B8308600033087003830840001308500B4
:1002800018302100EC0016001A00EC0B4329A030B6
:10029000860003308700503084000130850018301C
:1002A000EC0016001A00EC0B5129203086000430B7
:1002B000870020308400013085001830EC001600E3
:1002C0001A00EC0B5F299931F8218131D0302100DF
:1002D000EC00C930890B6A29EC0B6A2900329C3189
:1002E000DB248131D0302100EC00C930890B762924
:1002F000EC0B762900329931F8218131D030210080
:10030000EC00C930890B8229EC0B822900329C3128
:10031000DB248131D0302100EC00C930890B8E29DB
:10032000EC0B8E290032A531E1258131AA31AC22B6
:100330008131220067082100A10022006608210007
:10034000A000AA31CB228131AA31A9228131AA3160
:10035000B222813122004F082100A10022004E0864
:100360002100A000AA31D0228131AA31AF228131EF
:1003700018302100ED008A30EC00E730890BBE29EF
:10038000EC0BBE29ED0BBE290032AA31AC22813123
:10039000D0302100EC00C930890BCC29EC0BCC29E2
:1003A0000032220067082100A10022006608210017
:1003B000A000AA31CB228131AA31A92281310C308F
:1003C0002100ED005E30EC000D30890BE529EC0BCF
:1003D000E529ED0BE529AA31AC2281312200630821
:1003E0002100A100220062082100A000AA31CB2236
:1003F0008131AA31A9228131AA31B2228131D03092
:100400002100EC00C930890B032AEC0B032A0032CF
:1004100022004F082100A10022004E082100A00068
:10042000AA31D0228131AA31AF2281310D30210091
:10043000ED002D30EC00D730890B1C2AEC0B1C2A68
:10044000ED0B1C2A0032AA31AC2281312200610856
:100450002100A100220060082100A000AA31CB22C7
:100460008131AA31A9228131AA31B22281312200FF
:1004700059082100A100220058082100A000AA313B
:10048000D0228131AA31AF2281310D302100ED001F
:100490002D30EC00D730890B4B2AEC0B4B2AED0B9F
:1004A0004B2A0032AA31AC2281312200630821009C
:1004B000A100220062082100A000AA31CB228131D4
:1004C000AA31A922813107302100ED001730EC005C
:1004D0006A30890B692AEC0B692AED0B692A000046
:1004E000AA31AC228131220061082100A100220042
:1004F00060082100A000AA31CB228131AA31A922B3
:10050000813107302100ED001730EC006A30890B93
:10051000872AEC0B872AED0B872A0000AA31AC2230
:10052000813122005D082100A10022005C08210029
:10053000A000AA31CB228131AA31A92281310C300D
:100540002100ED005E30EC000D30890BA52AEC0B8C
:10055000A52AED0BA52AAA31AC2281312200590827
:100560002100A100220058082100A000AA31CB22BE
:100570008131AA31A9228131AA31B2228131D03010
:100580002100EC00C930890BC32AEC0BC32A0032CE
:10059000220059082100A100220058082100A000D3
:1005A000AA31D0228131AA31AF2281310D30210010
:1005B000ED002D30EC00D730890BDC2AEC0BDC2A67
:1005C000ED0BDC2A0032AA31AC22813122005D0819
:1005D0002100A10022005C082100A000AA31CB224A
:1005E0008131AA31A9228131AA31B222813122007E
:1005F00045082100A100220044082100A000AA31E2
:10060000D0228131AA31AF22813119302100ED0091
:100610005A30EC00B130890B0B2BEC0B0B2BED0B94
:100620000B2B0032AA31AC2281312200610821005B
:10063000A100220060082100A000AA31CB22813154
:10064000AA31A9228131AA31B2228131220059086E
:100650002100A100220058082100A000AA31D022C8
:100660008131AA31AF22813119302100ED005A3099
:10067000EC00B130890B3A2BEC0B3A2BED0B3A2BFB
:100680000032AA31AC228131220063082100A1008E
:10069000220062082100A000AA31CB228131AA31B8
:1006A000A9228131AA31B2228131220055082100CC
:1006B000A100220054082100A000AA31D0228131DB
:1006C000AA31AF22813112302100ED007430EC00EC
:1006D0007A30890B692BEC0B692BED0B692B000031
:1006E000AA31AC228131AA31B2228131D03021002D
:1006F000EC00C930890B7A2BEC0B7A2B00322200EC
:1007000055082100A100220054082100A000AA31B0
:10071000D0228131AA31AF22813107302100ED0092
:100720001730EC006A30890B932BEC0B932BED0BFD
:10073000932B0000AA31B222813122004F08210000
:10074000A10022004E082100A000AA31D022813150
:10075000AA31AF22813107302100ED001730EC00C3
:100760006A30890BB12BEC0BB12BED0BB12B0000D8
:10077000AA31B222813122004B082100A1002200BF
:100780004A082100A000AA31D0228131AA31AF222B
:10079000813107302100ED001730EC006A30890B01
:1007A000CF2BEC0BCF2BED0BCF2B0000AA31B222BD
:1007B0008131220047082100A100220046082100C3
:1007C000A000AA31D0228131AA31AF228131073075
:1007D0002100ED001730EC006A30890BED2BEC0B9B
:1007E000ED2BED0BED2B0000AA31B222813122005E
:1007F00041082100A100220040082100A000AA31E8
:10080000D0228131AA31AF22813107302100ED00A1
:100810001730EC006A30890B0B2CEC0B0B2CED0B1A
:100820000B2C0000A531E1258131AA31AC228131A8
:10083000220067082100A100220066082100A00014
:10084000AA31CB228131AA31A9228131AA31B22227
:10085000813122004F082100A10022004E08210012
:10086000A000AA31D0228131AA31AF2281311830C3
:100870002100ED008A30EC00E730890B3D2CEC0BB9
:100880003D2CED0B3D2C0032AA31AC228131D03011
:100890002100EC00C930890B4B2CEC0B4B2C0032A7
:1008A000220067082100A100220066082100A000A4
:1008B000AA31CB228131AA31A92281310C30210009
:1008C000ED005E30EC000D30890B642CEC0B642CD9
:1008D000ED0B642CAA31AC228131220023082100C7
:1008E000A100220022082100A000AA31CB228131E0
:1008F000AA31A9228131AA31B2228131D03021001E
:10090000EC00C930890B822CEC0B822C00322200C7
:100910004F082100A10022004E082100A000AA31AA
:10092000D0228131AA31AF2281310D302100ED007A
:100930002D30EC00D730890B9B2CEC0B9B2CED0B56
:100940009B2C0032AA31AC228131220025082100E3
:10095000A100220024082100A000AA31CB2281316D
:10096000AA31A9228131AA31B2228131220049085B
:100970002100A100220048082100A000AA31D022B5
:100980008131AA31AF2281310C302100ED005E307F
:10099000EC000D30890BCA2CEC0BCA2CED0BCA2CC9
:1009A000AA31AC228131D0302100EC00C930890B52
:1009B000D72CEC0BD72C0032220025082100A100F7
:1009C000220024082100A000AA31CB228131AA31C3
:1009D000A922813106302100ED004730EC00A03023
:1009E000890BF02CEC0BF02CED0BF02C0000AA3155
:1009F000AC228131220029082100A1002200280810
:100A00002100A000AA31CB228131AA31A922813153
:100A1000AA31B2228131D0302100EC00C930890BDB
:100A20000F2DEC0B0F2D0032220049082100A100F0
:100A3000220048082100A000AA31D0228131AA3129
:100A4000AF22813107302100ED001730EC006A3011
:100A5000890B282DEC0B282DED0B282D0000AA3139
:100A6000AC228131220025082100A10022002408A7
:100A70002100A000AA31CB228131AA31A9228131E3
:100A8000AA31B222813122004B082100A1002200AC
:100A90004A082100A000AA31D0228131AA31AF2218
:100AA00081310C302100ED005E30EC000D30890BFF
:100AB000572DEC0B572DED0B572DAA31AC22813160
:100AC000220067082100A100220066082100A00082
:100AD000AA31CB228131AA31A9228131AA31B22295
:100AE000813122004F082100A10022004E08210080
:100AF000A000AA31D0228131AA31AF2281310D303C
:100B00002100ED002D30EC00D730890B852DEC0B4A
:100B1000852DED0B852D0032AA31AC2281312200CA
:100B200023082100A100220022082100A000AA31F0
:100B3000CB228131AA31A9228131AA31B22281315D
:100B4000220053082100A100220052082100A00029
:100B5000AA31D0228131AA31AF2281310D3021005A
:100B6000ED002D30EC00D730890BB42DEC0BB42DFB
:100B7000ED0BB42D00320D302100ED002D30EC00D6
:100B8000D730890BC12DEC0BC12DED0BC12D0032DF
:100B9000AA31B222813122004F082100A100220097
:100BA0004E082100A000AA31D0228131AA31AF2203
:100BB00081310D302100ED002D30EC00D730890B54
:100BC000DF2DEC0BDF2DED0BDF2D0032AA31AC2237
:100BD0008131220025082100A100220024082100E3
:100BE000A000AA31CB228131AA31A922813107305C
:100BF0002100ED001730EC006A30890BFD2DEC0B65
:100C0000FD2DED0BFD2D0000AA31AC22813122001B
:100C100023082100A100220022082100A000AA31FF
:100C2000CB228131AA31A922813107302100ED0088
:100C30001730EC006A30890B1B2EEC0B1B2EED0BD2
:100C40001B2E0000AA31AC2281312200670821004E
:100C5000A100220066082100A000AA31CB22813128
:100C6000AA31A9228131AA31B222813122004B0856
:100C70002100A10022004A082100A000AA31D022B0
:100C80008131AA31AF2281310D302100ED002D30AC
:100C9000EC00D730890B4A2EEC0B4A2EED0B4A2E76
:100CA0000032AA31AC228131220063082100A10068
:100CB000220062082100A000AA31CB228131AA3192
:100CC000A92281310D302100ED002D30EC00D7300C
:100CD000890B682EEC0B682EED0B682E0032AA31C2
:100CE000AC228131220061082100A10022006008AD
:100CF0002100A000AA31CB228131AA31A922813161
:100D0000AA31B2228131220049082100A10022002B
:100D100048082100A000AA31D0228131AA31AF2297
:100D200081310D302100ED002D30EC00D730890BE2
:100D3000972EEC0B972EED0B972E0032AA31AC229A
:100D4000813122005B082100A10022005A08210005
:100D5000A000AA31CB228131AA31A92281310D30E4
:100D60002100ED002D30EC00D730890BB52EEC0BB7
:100D7000B52EED0BB52E00320800AA31B82286310F
:100D800080302100A0000030A100AA31D522863198
:100D9000AA31B52286310B302100A2006230890BC6
:100DA000CF2EA20BCF2E0000AA31B822863164309C
:100DB0002100A0000030A100AA31D5228631AA313D
:100DC000B52286310B302100A2006230890BE62E5D
:100DD000A20BE62E0000AA31B82286315030210045
:100DE000A0000030A100AA31D5228631AA31B52257
:100DF00086310B302100A2006230890BFD2EA20B40
:100E0000FD2E0000AA31B822863132302100A00028
:100E10000030A100AA31D5228631AA31B52286310F
:100E20000B302100A2006230890B142FA20B142F6B
:100E30000000AA31B82286311E302100A000003007
:100E4000A100AA31D5228631AA31B52286310B30D4
:100E50002100A2006230890B2B2FA20B2B2F000048
:100E60002100A301A401AA31B8228631210024085F
:100E7000A1002308A000AA31D5228631AA31B522CB
:100E800086310B302100A2006230890B452FA20B66
:100E9000452F000002302100A3070030A43D2408A4
:100EA000803AA20081302202031D582F0030230215
:100EB000031C5B2F5C2F332FAA31B8228631FF3001
:100EC0002100A0000030A100AA31D5228631AA312C
:100ED000B522863168302100A200E430890B6E2FE4
:100EE000A20B6E2F0000AA31B82286310800023012
:100EF0002100A600B530A5005930890B7D2FA50B28
:100F00007D2FA60B7D2F0032AB31D72387310230E6
:100F10002100A6005730A500D830890B8D2FA50BD6
:100F20008D2FA60B8D2F0000AB31D72387310230D8
:100F30002100A6005730A500D830890B9D2FA50BA6
:100F40009D2FA60B9D2F0000AB31D72387313F305B
:100F50002100A5005530890BAB2FA50BAB2FAA3173
:100F6000AC22873107302100A600B330A500423003
:100F7000890BB82FA50BB82FA60BB82F0000AA31EC
:100F8000AC22873121004208A1004108A000AA310B
:100F9000CB228731AA31A9228731AA31B2228731E7
:100FA00021005A08A1005908A000AA31D022873197
:100FB000AA31AF2287318631BD2687310230210028
:100FC000A600B530A5005930890BE42FA50BE42FFE
:100FD000A60BE42F00329831002087310230210027
:100FE000A600B530A5005930890BF42FA50BF42FBE
:100FF000A60BF42F0032983100208731AE31742EC9
:1010000068340034FE0012001E00FE0B032800347A
:1010100020004108F1004008F000AA31BB228831CD
:10102000AA3197228831AA31A022883120005D0898
:10103000F1005C08F000AA31BF228831AA319D225C
:1010400088319031002088310230F600B530F5004B
:101050005A30890B2928F50B2928F60B29289031BD
:10106000002088310330F600B930F5001630890BC6
:101070003728F50B3728F60B37280032AA319A2289
:10108000883120004B08F1004A08F000AA31BB2249
:101090008831AA3197228831AA31A02288312000D4
:1010A0006708F1006608F000AA31BF228831AA3132
:1010B0009D22883199314E2188310230F600E93085
:1010C000F5004C30890B6228F50B6228F60B62287C
:1010D0000032AA319A22883120004908F1004808DC
:1010E000F000AA31BB228831AA3197228831903191
:1010F000002088310530F6001A30F5005430890B95
:101100007F28F50B7F28F60B7F280032AA319A2220
:10111000883120003B08F1003A08F000AA31BB22D8
:101120008831AA3197228831903100208831E5300A
:10113000F5009130890B9A28F50B9A280000AA3106
:10114000A022883120004F08F1004E08F000AA319B
:10115000BF228831AA319D22883199314E218831B0
:101160000230F600B530F5005A30890BB528F50B82
:10117000B528F60BB5289031002088310230F600F2
:10118000B530F5005A30890BC328F50BC328F60B90
:10119000C3289031002088310430F6005430F50027
:1011A000EE30890BD128F50BD128F60BD12800326F
:1011B000AA31A022883120002308F1002208F00083
:1011C000AA31BF228831AA319D2288319031002076
:1011D00088310230F600B530F5005A30890BEE2820
:1011E000F50BEE28F60BEE28903100208831023006
:1011F000F600B530F5005A30890BFC28F50BFC28B9
:10120000F60BFC2899314E2188310430F600543019
:10121000F500EE30890B0A29F50B0A29F60B0A298D
:101220000032AA31A022883120004F08F1004E0878
:10123000F000AA31BF228831AA319D228831903135
:10124000002088310230F600B530F5005A30890BA5
:101250002729F50B2729F60B272990310020883103
:10126000B130F5009E30890B3329F50B332900325C
:10127000AA31A02288310530F6000F30F500F13098
:10128000890B4029F50B4029F60B4029000020006E
:101290004F08F1004E08F000AA31BF228831AA3170
:1012A0009D22883199314E2188310230F600B530C7
:1012B000F5005A30890B5A29F50B5A29F60B5A2991
:1012C00099314E2188310230F600B530F5005A30A0
:1012D000890B6829F50B6829F60B682990310020E5
:1012E00088310330F600E230F500A630890B76290C
:1012F000F50B7629F60B7629AA31A0228831200039
:101300004D08F1004C08F000AA31BF228831AA3103
:101310009D2288319031002088310230F600B530AE
:10132000F5005A30890B9229F50B9229F60B922978
:10133000903100208831D030F500CA30890B9E29C9
:10134000F50B9E29AB31B5238831D030F500CA307A
:10135000890BA829F50BA829AB31B52388310730B3
:10136000F6009E30F5007B30890BB429F50BB429CB
:10137000F60BB4290000AA31A022883120004908C8
:10138000F1004808F000AA31BF228831AA319D221D
:101390008831903100208831D030F500CA30890B77
:1013A000CF29F50BCF29AB31B5238831D030F500EB
:1013B000CA30890BD929F50BD929AB31B52388312E
:1013C0000630F6006630F500CC30890BE529F50BC8
:1013D000E529F60BE529AA319A2288312000230855
:1013E000F1002208F000AA31BB228831AA319722ED
:1013F0008831AA31A022883120005308F100520818
:10140000F000AA31BF228831AA319D22883199315A
:101410004E2188310230F600B530F5005A30890B84
:101420000F2AF50B0F2AF60B0F2A90310020883176
:101430000230F600B530F5005A30890B1D2AF50B45
:101440001D2AF60B1D2A9031002088310430F60049
:101450005430F500EE30890B2B2AF50B2B2AF60BB6
:101460002B2A0032AA319A22883120004F08F1003D
:101470004E08F000AA31BB228831AA319722883168
:101480009031002088310230F600B530F5005A3036
:10149000890B482AF50B482AF60B482A9031002080
:1014A00088310230F600B530F5005A30890B562AE3
:1014B000F50B562AF60B562A0330F600D830F50005
:1014C0004230890B612AF50B612AF60B612A9931AA
:1014D0004E2188317D30F500AC30890B6D2AF50B3B
:1014E0006D2AAA319A22883120002908F1002808A3
:1014F000F000AA31BB228831AA319722883190317D
:10150000002088310230F600B530F5005A30890BE2
:10151000872AF50B872AF60B872A9031002088311D
:101520000330F600B930F5001630890B952AF50B1B
:10153000952AF60B952A0032AA319A22883120008A
:101540002308F1002208F000AA31BB228831AA3119
:1015500097228831AA31A022883120005908F10051
:101560005808F000AA31BF228831AA319D22883163
:1015700099314E2188310230F600B530F5005A30ED
:10158000890BC02AF50BC02AF60BC02A99314E21CF
:1015900088310230F600B530F5005A30890BCE2A7A
:1015A000F50BCE2AF60BCE2A90310020883103307D
:1015B000F600B930F5001630890BDC2AF50BDC2A71
:1015C000F60BDC2A0032AA319A22883120004F081B
:1015D000F1004E08F000AA31BB228831AA319722CF
:1015E00088319031002088310230F600B530F500A6
:1015F0005A30890BF92AF50BF92AF60BF92A9031A2
:10160000002088310230F600B530F5005A30890BE1
:10161000072BF50B072BF60B072B99314E21883141
:101620003430F500F230890B132BF50B132BAA3154
:10163000A0228831AA319A22883120004908F1007D
:101640004808F000AA31BB228831AA31972288319C
:1016500020005908F1005808F000AA31BF22883153
:10166000AA319D2288319031002088310430F60063
:101670008830F500E130890B3B2BF50B3B2BF60B4B
:101680003B2B0000AA319A22883120004B08F10040
:101690004A08F000AA31BB228831AA31972288314A
:1016A000AA31A022883120005508F1005408F0002A
:1016B000AA31BF228831AA319D2288319031002081
:1016C00088310430F6008830F500E130890B662B54
:1016D000F50B662BF60B662B0000AA319A22883197
:1016E00020004F08F1004E08F000AA31BB228831DB
:1016F000AA3197228831AA31A022883120005308CC
:10170000F1005208F000AA31BF228831AA319D228F
:10171000883199314E2188310230F600B530F5001C
:101720005A30890B912BF50B912BF60B912B9031A5
:10173000002088310230F600B530F5005A30890BB0
:101740009F2BF50B9F2BF60B9F2B903100208831A0
:101750000430F6005F30F5005230890BAD2BF50BED
:10176000AD2BF60BAD2BAA319A228831AA31A022DB
:10177000883120004B08F1004A08F000AA31BB2252
:101780008831AA319722883120005908F100580881
:10179000F000AA31BF228831AA319D2288319031D0
:1017A000002088310230F600B530F5005A30890B40
:1017B000D72BF50BD72BF60BD72B90310020883188
:1017C0000230F600B530F5005A30890BE52BF50BE9
:1017D000E52BF60BE52B99314E2188310430F600CC
:1017E0005F30F5005230890BF32BF50BF32BF60B22
:1017F000F32BAA319A228831AA31A0228831200005
:101800002908F1002808F000AA31BB228831AA314A
:101810009722883120005D08F1005C08F000AA31B1
:10182000BF228831AA319D22883190310020883131
:101830000230F600B530F5005A30890B1D2CF50B3F
:101840001D2CF60B1D2C9031002088310330F60042
:10185000B930F5001630890B2B2CF50B2B2CF60B21
:101860002B2C0032AA31A0228831AA319A22883149
:1018700020004908F1004808F000AA31BB22883155
:10188000AA319722883120005D08F1005C08F00041
:10189000AA31BF228831AA319D22883199314E2147
:1018A00088310230F600B530F5005A30890B562CDD
:1018B000F50B562CF60B562C99314E2188310230FF
:1018C000F600B530F5005A30890B642CF50B642C0A
:1018D000F60B642C9031002088310330F600E230A2
:1018E000F500A630890B722CF50B722CF60B722CBE
:1018F000AA319A228831AA31A022883120004B08CF
:10190000F1004A08F000AA31BB228831AA3197229F
:10191000883120005908F1005808F000AA31BF2290
:101920008831AA319D2288319031002088310230DF
:10193000F600B530F5005A30890B9C2CF50B9C2C29
:10194000F60B9C2C9031002088310230F600B53027
:10195000F5005A30890BAA2CF50BAA2CF60BAA2CF1
:1019600099314E2188310230F600B530F5005A30F9
:10197000890BB82CF50BB82CF60BB82CAB31B52372
:1019800088310230F6005730F500D830890BC62C6C
:10199000F50BC62CF60BC62C0032AB31B5238831C3
:1019A0000230F6005730F500D830890BD52CF50BF6
:1019B000D52CF60BD52C0032AB31B52388313F3016
:1019C000F5005530890BE22CF50BE22C0000AA3112
:1019D000A02288310730F6001730F5006A30890BF5
:1019E000EF2CF50BEF2CF60BEF2C0032AA319A22DC
:1019F000883120004F08F1004E08F000AA31BB22C8
:101A00008831AA3197228831AA31A022883120005A
:101A10005F08F1005E08F000AA31BF228831AA31C8
:101A20009D22883199314E2188310230F600B5303F
:101A3000F5005A30890B1A2DF50B1A2DF60B1A2DBD
:101A40009031002088310530F6003930F5008030C3
:101A5000890B282DF50B282DF60B282DAA319A225B
:101A6000883120002308F1002208F000AA31BB22AF
:101A70008831AA3197228831903100208831043092
:101A8000F6008830F500E130890B442DF50B442D2C
:101A9000F60B442D0000AA319A2288312000250837
:101AA000F1002408F000AA31BB228831AA31972224
:101AB00088319031002088310230F600B530F500D1
:101AC0005A30890B612DF50B612DF60B612D90318C
:101AD000002088310330F600B930F5001630890B4C
:101AE0006F2DF50B6F2DF60B6F2D0032AA319A2258
:101AF000883120002908F1002808F000AA31BB2213
:101B00008831AA319722883199314E2188310230AB
:101B1000F600B530F5005A30890B8C2DF50B8C2D65
:101B2000F60B8C2D9031002088310330F6003230D6
:101B3000F5000630890B9A2DF50B9A2DF60B9A2D90
:101B4000AA319A22883120002D08F1002C08F000DB
:101B5000AA31BB228831AA319722883190310020E6
:101B600088310230F600E930F5004C30890BB62D93
:101B7000F50BB62DF60BB62D0032AA31A022883116
:101B800020006708F1006608F000AA31BF22883102
:101B9000AA319D22883199314E2188310230F600D8
:101BA000B530F5005A30890BD32DF50BD32DF60B3C
:101BB000D32D99314E2188310430F6007E30F50066
:101BC0007D30890BE12DF50BE12DF60BE12D0000A9
:101BD000AA31A022883120003B08F1003A08F00029
:101BE000AA31BF228831AA319D228831903100204C
:101BF00088313430F500F230890BFC2DF50BFC2DCB
:101C0000AA319A2288310430F600DB30F500FF302B
:101C1000890B082EF50B082EF60B082E0000AA31B2
:101C2000A022883120003D08F1003C08F000AA31D4
:101C3000BF228831AA319D2288319031002088311D
:101C40000330F600B930F5001630890B252EF50B60
:101C5000252EF60B252E003220002D08F1002C0831
:101C6000F000AA31BB228831AA3197228831903105
:101C7000002088310330F600B930F5001630890BAA
:101C80003F2EF50B3F2EF60B3F2E0032AA31A0223D
:101C9000883120004108F1004008F000AA31BF223D
:101CA0008831AA319D22883199314E218831C63040
:101CB000F5006630890B5A2EF50B5A2EAA319A225E
:101CC000883120003708F1003608F000AA31BB2225
:101CD0008831AA3197228831903100208831033031
:101CE000F600B930F5001630890B742EF50B742E02
:101CF000F60B742E0032AA31A0228831200047084A
:101D0000F1004608F000AA31BF228831AA319D2295
:101D10008831903100208831AA319A2288310430EC
:101D2000F600BC30F500D430890B942EF50B942EC0
:101D3000F60B942E20003708F1003608F000AA3187
:101D4000BB228831AA3197228831AA31A02288315A
:101D500020004508F1004408F000AA31BF22883174
:101D6000AA319D22883199314E2188310230F60006
:101D7000B530F5005A30890BBB2EF50BBB2EF60B98
:101D8000BB2E9031002088310330F6008530F500FD
:101D90002430890BC92EF50BC92EF60BC92E9031B4
:101DA000002088310330F6008530F5002430890B9F
:101DB000D72EF50BD72EF60BD72E90310020883179
:101DC0000330F6008530F5002430890BE52EF50B45
:101DD000E52EF60BE52E9031002088310330F60019
:101DE0008530F5002430890BF32EF50BF32EF60B1E
:101DF000F32E99314E2188310230F600AA30F500D9
:101E0000F630890B012FF50B012FF60B012F003255
:101E1000AA31A022883120003B08F1003A08F000E6
:101E2000AA31BF228831AA319D2288319031002009
:101E300088310230F600B530F5005A30890B1E2F7C
:101E4000F50B1E2FF60B1E2F903100208831053028
:101E5000F600C030F5009030890B2C2FF50B2C2F9D
:101E6000F60B2C2F0032AA319A2288312000350837
:101E7000F1003408F000AA31BB228831AA31972240
:101E80008831AA31A022883120005D08F1005C0869
:101E9000F000AA31BF228831AA319D2288319031C9
:101EA000002088310230F600B530F5005A30890B39
:101EB000572FF50B572FF60B572F99314E2188319D
:101EC0000230F600B530F5005A30890B652FF50B5E
:101ED000652FF60B652F9031002088310230F60017
:101EE000B530F5005A30890B732FF50B732FF60BB5
:101EF000732F99314E2188310230F600B530F5004C
:101F00005A30890B812FF50B812FF60B812F9031E1
:101F1000002088310230F6005730F500D830890BA8
:101F20008F2FF50B8F2FF60B8F2F0032AB31B52390
:101F300088310230F6005730F500D830890B9E2FDB
:101F4000F50B9E2FF60B9E2F0032AB31FD2388310F
:101F5000D030F500CA30890BAB2FF50BAB2FAB316E
:101F6000FD2388310230F600B530F5005A30890B78
:101F7000B72FF50BB72FF60BB72F90310020883114
:101F80000230F6005730F500D830890BC52FF50B1D
:101F9000C52FF60BC52F0032AB31B5238831023087
:101FA000F6005730F500D830890BD42FF50BD42F1D
:101FB000F60BD42F0032AB31B52388310230F60056
:101FC0005730F500D830890BE32FF50BE32FF60BD4
:101FD000E32F0032AB31B5238831AA31A0228831FA
:101FE000AA319A2288310530F6000F30F500F13021
:101FF000890BF82FF50BF82FF60BF82F00000800CF
:10200000FF30F3000030F400AA31A62290317408AA
:10201000F1007308F000AA31C3229031AA31A32243
:1020200090310B30F2006230890B1428F20B142827
:102030000032FE30F307FF30F43DF41F2028212842
:102040000428080002302100A600B530A500593050
:10205000890B2828A50B2828A60B282800329831A0
:102060000020903102302100A600B530A500593083
:10207000890B3828A50B3828A60B38280032983150
:102080000020903104302100A6005430A500EE302D
:10209000890B4828A50B4828A60B48280000AA3120
:1020A000B222903121002A08A1002908A000AA31FB
:1020B000D0229031AA31AF22903198310020903156
:1020C00002302100A600B530A5005930890B6628E2
:1020D000A50B6628A60B66280032983100209031A7
:1020E00002302100A600B530A5005930890B7628B2
:1020F000A50B7628A60B762800328631BD269031B6
:1021000004302100A6005430A500EE30890B86284B
:10211000A50B8628A60B86280000AA31B222903192
:1021200021005608A1005508A000AA31D022903104
:10213000AA31AF2290319831002090310230210035
:10214000A600B530A5005930890BA428A50BA428FA
:10215000A60BA4280032983100209031B130210024
:10216000A5009E30890BB228A50BB2280000AA3129
:10217000B222903105302100A6000F30A500F130C9
:10218000890BC028A50BC028A60BC0282100560823
:10219000A1005508A000AA31D0229031AA31AF2267
:1021A00090318631BD26903102302100A600B53035
:1021B000A5005930890BDA28A50BDA28A60BDA28F6
:1021C00000328631BD26903102302100A600B530A4
:1021D000A5005930890BEA28A50BEA28A60BEA28A6
:1021E000003298310020903103302100A600E23007
:1021F000A500A530890BFA28A50BFA28A60BFA280A
:102200000032AA31B222903121005408A1005308B3
:10221000A000AA31D0229031AA31AF22903198315A
:102220000020903102302100A600B530A5005930C1
:10223000890B1829A50B1829A60B182900329831EB
:1022400000209031D0302100A500C930890B26290B
:10225000A50B26290032AB31D7239031D030210095
:10226000A500C930890B3229A50B32290032AB31C8
:10227000D723903107302100A6009E30A5007B3087
:10228000890B4029A50B4029A60B4029AA31B2226F
:10229000903121005008A1004F08A000AA31D0229F
:1022A0009031AA31AF229031983100209031D03056
:1022B0002100A500C930890B5B29A50B5B290032E1
:1022C000AB31D7239031D0302100A500C930890B24
:1022D0006729A50B67290032AB31D723903106302F
:1022E0002100A6006630A500CB30890B7529A50B0F
:1022F0007529A60B75290032AA31AC229031210034
:102300002A08A1002908A000AA31CB229031AA31C5
:10231000A9229031AA31B222903121005A08A1009D
:102320005908A000AA31D0229031AA31AF229031B1
:102330008631BD26903102302100A600B530A500BF
:102340005930890BA129A50BA129A60BA12900327F
:1023500098310020903102302100A600B530A50050
:102360005930890BB129A50BB129A60BB12900322F
:1023700098310020903104302100A6005430A5008F
:10238000EE30890BC129A50BC129A60BC12900007C
:10239000AA31AC22903121005608A1005508A000B6
:1023A000AA31CB229031AA31A92290319831002054
:1023B000903102302100A600B530A5005930890BBC
:1023C000DF29A50BDF29A60BDF2900329831002079
:1023D000903102302100A600B530A5005930890B9C
:1023E000EF29A50BEF29A60BEF29003203302100BE
:1023F000A600D830A5004130890BFC29A50BFC298B
:10240000A60BFC2900328631BD2690317D3021009B
:10241000A500AB30890B0A2AA50B0A2A0032AA3183
:10242000AC22903121003008A1002F08A000AA3171
:10243000CB229031AA31A9229031983100209031DD
:1024400002302100A600B530A5005930890B262A9C
:10245000A50B262AA60B262A00329831002090319F
:1024600003302100A600B930A5001630890B362AAA
:10247000A50B362AA60B362A0000AA31AC229031D1
:1024800021002A08A1002908A000AA31CB229031FE
:10249000AA31A9229031AA31B222903121006008DC
:1024A000A1005F08A000AA31D0229031AA31AF224A
:1024B00090318631BD26903102302100A600B53022
:1024C000A5005930890B622AA50B622AA60B622A45
:1024D00000328631BD26903102302100A600B53091
:1024E000A5005930890B722AA50B722AA60B722AF5
:1024F000003298310020903103302100A600B9301D
:10250000A5001630890B822AA50B822AA60B822AE7
:102510000000AA31AC22903121005608A1005508D4
:10252000A000AA31CB229031AA31A9229031983152
:102530000020903102302100A600B530A5005930AE
:10254000890BA02AA50BA02AA60BA02A003298313D
:102550000020903102302100A600B530A50059308E
:10256000890BB02AA50BB02AA60BB02A00328631FF
:10257000BD26903134302100A500F130890BBE2AF0
:10258000A50BBE2A0032AA31B2229031AA31AC2268
:10259000903121005008A1004F08A000AA31CB22A1
:1025A0009031AA31A922903121006008A1005F0872
:1025B000A000AA31D0229031AA31AF2290319831B7
:1025C0000020903104302100A6008830A500E130C1
:1025D000890BE82AA50BE82AA60BE82AAA31AC2227
:1025E000903121005208A1005108A000AA31CB224D
:1025F0009031AA31A9229031AA31B2229031210022
:102600005C08A1005B08A000AA31D0229031AA3159
:10261000AF22903198310020903104302100A60083
:102620008830A500E130890B132BA50B132BA60BCB
:10263000132BAA31AC22903121005608A100550875
:10264000A000AA31CB229031AA31A9229031AA311F
:10265000B222903121005A08A1005908A000AA31E5
:10266000D0229031AA31AF2290318631BD269031EF
:1026700002302100A600B530A5005930890B3E2B51
:10268000A50B3E2BA60B3E2B00329831002090313B
:1026900002302100A600B530A5005930890B4E2B21
:1026A000A50B4E2BA60B4E2B0032983100209031FB
:1026B00004302100A6005F30A5005130890B5E2B4D
:1026C000A50B5E2BA60B5E2B0032AA31AC229031FB
:1026D000AA31B222903121005208A1005108A00075
:1026E000AA31CB229031AA31A92290312100600871
:1026F000A1005F08A000AA31D0229031AA31AF22F8
:10270000903198310020903102302100A600B53080
:10271000A5005930890B8A2BA50B8A2BA60B8A2B77
:10272000003298310020903102302100A600B530EF
:10273000A5005930890B9A2BA50B9A2BA60B9A2B27
:1027400000328631BD26903104302100A6005F3072
:10275000A5005130890BAA2BA50BAA2BA60BAA2BDF
:102760000032AA31AC229031AA31B222903121003C
:102770003008A1002F08A000AA31CB229031AA3145
:10278000A922903121006408A1006308A000AA31A9
:10279000D0229031AA31AF2290319831002090316F
:1027A00002302100A600B530A5005930890BD62B88
:1027B000A50BD62BA60BD62B0032983100209031DA
:1027C00003302100A600B930A5001630890BE62B96
:1027D000A50BE62BA60BE62B0000AA31B222903106
:1027E000AA31AC22903121005008A1004F08A0006E
:1027F000AA31CB229031AA31A9229031210064085C
:10280000A1006308A000AA31D0229031AA31AF22E2
:1028100090318631BD26903102302100A600B530BE
:10282000A5005930890B122CA50B122CA60B122CCB
:1028300000328631BD26903102302100A600B5302D
:10284000A5005930890B222CA50B222CA60B222C7B
:10285000003298310020903103302100A600E23090
:10286000A500A530890B322CA50B322CA60B322CDF
:102870000032AA31AC229031AA31B222903121002B
:102880005208A1005108A000AA31CB229031AA31F0
:10289000A922903121006008A1005F08A000AA31A0
:1028A000D0229031AA31AF2290319831002090315E
:1028B00002302100A600B530A5005930890B5E2CEE
:1028C000A50B5E2CA60B5E2C0032983100209031B7
:1028D00002302100A600B530A5005930890B6E2CBE
:1028E000A50B6E2CA60B6E2C00328631BD269031C6
:1028F00002302100A600B530A5005930890B7E2C8E
:10290000A50B7E2CA60B7E2C0032AB31D723903149
:1029100002302100A6005730A500D830890B8E2C3C
:10292000A50B8E2CA60B8E2C0000AB31D72390313B
:1029300002302100A6005730A500D830890B9E2C0C
:10294000A50B9E2CA60B9E2C0000AB31D7239031FB
:102950003F302100A5005530890BAC2CA50BAC2CC9
:10296000AA31B222903107302100A6001730A5000D
:102970006A30890BB92CA50BB92CA60BB92C000019
:10298000AA31AC22903121005608A1005508A000C0
:10299000AA31CB229031AA31A9229031AA31B22298
:1029A000903121006608A1006508A000AA31D0225C
:1029B0009031AA31AF2290318631BD26903102305C
:1029C0002100A600B530A5005930890BE52CA50BD8
:1029D000E52CA60BE52C0032983100209031053013
:1029E0002100A6003930A5007F30890BF52CA50BFE
:1029F000F52CA60BF52C0032AA31AC229031210027
:102A00002A08A1002908A000AA31CB229031AA31BE
:102A1000A922903198310020903104302100A60085
:102A20008830A500E130890B132DA50B132DA60BC3
:102A3000132DAA31AC22903121002C08A1002B08C3
:102A4000A000AA31CB229031AA31A922903198312D
:102A50000020903102302100A600B530A500593089
:102A6000890B302DA50B302DA60B302D003298315F
:102A70000020903103302100A600B930A5001630A7
:102A8000890B402DA50B402DA60B402D0000AA312F
:102A9000AC22903121003008A1002F08A000AA31FB
:102AA000CB229031AA31A92290318631BD269031B6
:102AB00002302100A600B530A5005930890B5E2DEB
:102AC000A50B5E2DA60B5E2D0032983100209031B3
:102AD00003302100A6003230A5000530890B6E2D91
:102AE000A50B6E2DA60B6E2D0032AA31AC229031B3
:102AF00021003408A1003308A000AA31CB22903174
:102B0000AA31A92290319831002090310230210061
:102B1000A600E930A5004C30890B8C2DA50B8C2D1F
:102B2000A60B8C2D0000AA31B222903121006E0834
:102B3000A1006D08A000AA31D0229031AA31AF22A5
:102B400090318631BD26903102302100A600B5308B
:102B5000A5005930890BAA2DA50BAA2DA60BAA2DCD
:102B600000328631BD26903104302100A6007E302F
:102B7000A5007D30890BBA2DA50BBA2DA60BBA2D59
:102B8000AA31B222903121004208A1004108A000E0
:102B9000AA31D0229031AA31AF2290319831002051
:102BA000903134302100A500F130890BD52DA50BD3
:102BB000D52D0032AA31AC22903104302100A6007C
:102BC000DB30A500FF30890BE32DA50BE32DA60B11
:102BD000E32DAA31B222903121004408A10043081C
:102BE000A000AA31D0229031AA31AF229031983181
:102BF0000020903103302100A600B930A500163026
:102C0000890B002EA50B002EA60B002E0000210024
:102C10003408A1003308A000AA31CB229031AA3198
:102C2000A922903198310020903103302100A60074
:102C3000B930A5001630890B1B2EA50B1B2EA60B39
:102C40001B2E0000AA31B222903121004808A100B9
:102C50004708A000AA31D0229031AA31AF2290318A
:102C60008631BD269031C6302100A5006530890B24
:102C7000372EA50B372E0032AA31AC22903121001D
:102C80003E08A1003D08A000AA31CB229031AA3114
:102C9000A922903198310020903103302100A60004
:102CA000B930A5001630890B532EA50B532EA60B59
:102CB000532E0000AA31B222903121004E08A1000B
:102CC0004D08A000AA31D0229031AA31AF22903114
:102CD000983100209031AA31AC229031043021008B
:102CE000A600BC30A500D330890B742EA50B742E22
:102CF000A60B742E003221003E08A1003D08A00062
:102D0000AA31CB229031AA31A9229031AA31B22224
:102D1000903121004C08A1004B08A000AA31D0221C
:102D20009031AA31AF2290318631BD2690310230E8
:102D30002100A600B530A5005930890B9D2EA50BAA
:102D40009D2EA60B9D2E003298310020903103302D
:102D50002100A6008530A5002330890BAD2EA50BE0
:102D6000AD2EA60BAD2E00329831002090310330ED
:102D70002100A6008530A5002330890BBD2EA50BB0
:102D8000BD2EA60BBD2E00329831002090310330AD
:102D90002100A6008530A5002330890BCD2EA50B80
:102DA000CD2EA60BCD2E003298310020903103306D
:102DB0002100A6008530A5002330890BDD2EA50B50
:102DC000DD2EA60BDD2E00328631BD26903102307D
:102DD0002100A600AA30A500F630890BED2EA50B28
:102DE000ED2EA60BED2E0000AA31B222903121006B
:102DF0004208A1004108A000AA31D0229031AA3196
:102E0000AF22903198310020903102302100A6008D
:102E1000B530A5005930890B0B2FA50B0B2FA60B36
:102E20000B2F003298310020903105302100A60090
:102E3000C030A5009030890B1B2FA50B1B2FA60BB4
:102E40001B2F0000AA31AC22903121003C08A100C8
:102E50003B08A000AA31CB229031AA31A92290319F
:102E6000AA31B222903121006408A1006308A000B9
:102E7000AA31D0229031AA31AF229031983100206E
:102E8000903102302100A600B530A5005930890BE1
:102E9000472FA50B472FA60B472F00328631BD26A3
:102EA000903102302100A600B530A5005930890BC1
:102EB000572FA50B572FA60B572F00329831002004
:102EC000903102302100A600B530A5005930890BA1
:102ED000672FA50B672FA60B672F00328631BD2603
:102EE000903102302100A600B530A5005930890B81
:102EF000772FA50B772FA60B772F00329831002064
:102F0000903102302100A6005730A500D830890B3F
:102F1000872FA50B872FA60B872F0000AB31D72358
:102F2000903102302100A6005730A500D830890B1F
:102F3000972FA50B972FA60B972F0000AC312824B5
:102F40009031D0302100A500C930890BA52FA50BE9
:102F5000A52F0032AC312824903102302100A60088
:102F6000B530A5005930890BB32FA50BB32FA60B95
:102F7000B32F003298310020903102302100A6009A
:102F80005730A500D830890BC32FA50BC32FA60B34
:102F9000C32F0000AB31D723903102302100A600AF
:102FA0005730A500D830890BD32FA50BD32FA60BF4
:102FB000D32F0000AB31D723903102302100A6007F
:102FC0005730A500D830890BE32FA50BE32FA60BB4
:102FD000E32F0000AB31D7239031AA31B2229031D8
:102FE000AA31AC22903105302100A6000F30A50097
:102FF000F130890BF92FA50BF92FA60BF92F08003B
:10300000FF302100A3000030A400AA31B82298317B
:1030100021002408A1002308A000AA31D52298315C
:10302000AA31B52298310B302100A2006230890B01
:103030001728A20B17280000FE302100A307FF303D
:10304000A43DA41F24282528052808000230F600E6
:10305000B530F5005A30890B2B28F50B2B28F60BD1
:103060002B2899314E2198310230F600B530F50009
:103070005A30890B3928F50B3928F60B392890314D
:10308000002098310330F600E230F500A630890BBD
:103090004728F50B4728F60B4728AA319A22983182
:1030A000AA31A022983120006308F1006208F000E4
:1030B000AA31BB229831AA319722983120005908B1
:1030C000F1005808F000AA31BF229831AA319D22A0
:1030D00098319031002098310230F600B530F5007B
:1030E0005A30890B7128F50B7128F60B7128903135
:1030F000002098310230F600B530F5005A30890BC7
:103100007F28F50B7F28F60B7F2899314E219831C7
:103110000230F600B530F5005A30890B8D28F50BDA
:103120008D28F60B8D28AB31B52398310230F6008F
:103130005730F500D830890B9B28F50B9B28F60BF0
:103140009B280032AB31B52398310230F60057305E
:10315000F500D830890BAA28F50BAA28F60BAA2867
:103160000032AB31B52398319831B6283F30F500A5
:103170005530890BB928F50BB9280000AA319A22DD
:1031800098310730F600B330F5004230890BC6287D
:10319000F50BC628F60BC6280032AA319A229831C0
:1031A00020003B08F1003A08F000AA31BB22983118
:1031B000AA3197229831AA31A022983120005308D1
:1031C000F1005208F000AA31BF229831AA319D22A5
:1031D000983199314E2198310230F600B530F50022
:1031E0005A30890BF128F50BF128F60BF1289031B4
:1031F000002098310230F600B530F5005A30890BC6
:10320000FF28F50BFF28F60BFF289031002098319E
:103210000430F6005430F500EE30890B0D29F50B23
:103220000D29F60B0D290032AA319A22983120007F
:103230006708F1006608F000AA31BB229831AA3174
:10324000972298319031002098310230F600B53045
:10325000F5005A30890B2A29F50B2A29F60B2A2961
:103260009031002098310230F600B530F5005A3028
:10327000890B3829F50B3829F60B38290230F6006E
:103280006C30F500A030890B4329F50B4329F60B70
:10329000432999314E219831A3312C2BAA31A622F2
:1032A00099318030F0000030F100AA31C322993109
:1032B000AA31A32299310B30F2006230890B5E29CA
:1032C000F20B5E290032AA31A62299316430F00057
:1032D0000030F100AA31C3229931AA31A3229931D9
:1032E0000B30F2006230890B7329F20B7329003224
:1032F000AA31A62299315030F0000030F100AA31F5
:10330000C3229931AA31A32299310B30F2006230E5
:10331000890B8829F20B88290032AA31A62299311B
:103320003230F0000030F100AA31C3229931AA31C5
:10333000A32299310B30F2006230890B9D29F20BE8
:103340009D290032AA31A62299311E30F0000030AA
:10335000F100AA31C3229931AA31A32299310B304D
:10336000F2006230890BB229F20BB2290032F3016C
:10337000F401AA31A62299317408F1007308F00013
:10338000AA31C3229931AA31A32299310B30F2001C
:103390006230890BC929F20BC92900320230F307C8
:1033A0000030F43D7408803AF20081307202031D4F
:1033B000DB2900307302031CDE29DF29B929AA3179
:1033C000A6229931FF30F0000030F100AA31C3226B
:1033D0009931AA31A32299316830F200E430890B87
:1033E000EF29F20BEF290032AA31A6229931080009
:1033F0003830860002308700BC3084000030850001
:1034000018302100A20016001A00A20B032A203057
:10341000860002308700D4308400003085001830E8
:10342000A20016001A00A20B112AD030860002302A
:103430008700A4308400003085001830A2001600F8
:103440001A00A20B1F2AAA31AC229931210061086F
:10345000A1006008A000AA31CB229931AA31A9228B
:103460009931AA31B222993121004908A1004808B6
:10347000A000AA31D0229931AA31AF2299310C3063
:103480002100A3005E30A2000D30890B452AA20B5B
:10349000452AA30B452AAA31AC22993121006B0899
:1034A000A1006A08A000AA31CB229931AA31A92231
:1034B0009931AA31B2229931D0302100A200C9300D
:1034C000890B602AA20B602A003221004908A10062
:1034D0004808A000AA31D0229931AA31AF229931EF
:1034E0000D302100A3002D30A200D730890B762AA1
:1034F000A20B762AA30B762A0032AA31AC2299318C
:1035000021006708A1006608A000AA31CB229931EA
:10351000AA31A9229931AA31B222993121004F084A
:10352000A1004E08A000AA31D0229931AA31AF22C1
:10353000993107302100A3001730A2006A30890BAF
:103540009F2AA20B9F2AA30B9F2A0000AA31AC221C
:10355000993121006508A1006408A000AA31CB229E
:103560009931AA31A922993107302100A3001730DF
:10357000A2006A30890BBA2AA20BBA2AA30BBA2A74
:103580000000AA31AC22993121006108A100600835
:10359000A000AA31CB229931AA31A9229931AA31AE
:1035A000B222993121005708A1005608A000AA3183
:1035B000D0229931AA31AF2299310D302100A300D8
:1035C0002D30A200D730890BE32AA20BE32AA30BEC
:1035D000E32A003221005D08A1005C08A000AA31A6
:1035E000CB229931AA31A9229931AA31B22299313B
:1035F00021004508A1004408A000AA31D022993139
:10360000AA31AF2299310C302100A3005E30A20014
:103610000D30890B092BA20B092BA30B092BAA3107
:10362000AC22993121006108A1006008A000AA31F4
:10363000CB229931AA31A9229931AA31B2229931EA
:10364000D0302100A200C930890B242BA20B242BDF
:10365000003221004508A1004408A000AA31D02270
:103660009931AA31AF2299310D302100A3002D30BC
:10367000A200D730890B3A2BA20B3A2BA30B3A2B83
:103680000032AA31AC22993121006508A1006408FA
:10369000A000AA31CB229931AA31A9229931AA31AD
:1036A000B222993121004D08A1004C08A000AA3196
:1036B000D0229931AA31AF2299310D302100A300D7
:1036C0002D30A200D730890B632BA20B632BA30BE9
:1036D000632B0032AA31AC22993121005D08A10090
:1036E0005C08A000AA31CB229931AA31A9229931D4
:1036F000AA31B222993121005308A1005208A0003A
:10370000AA31D0229931AA31AF2299310D3021004E
:10371000A3002D30A200D730890B8C2BA20B8C2B51
:10372000A30B8C2B0032AA31AC2299312100610805
:10373000A1006008A000AA31CB229931AA31A922A8
:103740009931AA31B222993121004908A1004808D3
:10375000A000AA31D0229931AA31AF2299310C3080
:103760002100A3005E30A2000D30890BB52BA20B07
:10377000B52BA30BB52BAA31AC22993121006B08D4
:10378000A1006A08A000AA31CB229931AA31A9224E
:103790009931AA31B2229931D0302100A200C9302A
:1037A000890BD02BA20BD02B003221004908A1009D
:1037B0004808A000AA31D0229931AA31AF2299310C
:1037C0000D302100A3002D30A200D730890BE62B4D
:1037D000A20BE62BA30BE62B0032AA31AC229931C7
:1037E00021006708A1006608A000AA31CB22993108
:1037F000AA31A9229931AA31B222993121004F0868
:10380000A1004E08A000AA31D0229931AA31AF22DE
:1038100099310D302100A3002D30A200D730890B43
:103820000F2CA20B0F2CA30B0F2C0032AA31AC22B1
:10383000993121006B08A1006A08A000AA31CB22AF
:103840009931AA31A9229931AA31B22299312100A4
:103850005708A1005608A000AA31D0229931AA31F8
:10386000AF2299310D302100A3002D30A200D730B6
:10387000890B382CA20B382CA30B382C0032AA3120
:10388000AC22993121002708A1002608A000AA3106
:10389000CB229931AA31A9229931AA31B222993188
:1038A00021004508A1004408A000AA31D022993186
:1038B000AA31AF2299310D302100A3002D30A20092
:1038C000D730890B612CA20B612CA30B612C003229
:1038D000AA31AC22993121006708A1006608A00036
:1038E000AA31CB229931AA31A9229931AA31B22227
:1038F000993121004F08A1004E08A000AA31D02222
:103900009931AA31AF2299310D302100A3002D3019
:10391000A200D730890B8A2CA20B8A2CA30B8A2CED
:103920000032AA31AC22993121006108A10060085F
:10393000A000AA31CB229931AA31A9229931AA310A
:10394000B222993121005308A1005208A000AA31E7
:10395000D0229931AA31AF2299310D302100A30034
:103960002D30A200D730890BB32CA20BB32CA30BA4
:10397000B32C0032AA31B222993121005D08A10096
:103980005C08A000AA31D0229931AA31AF22993126
:103990000C302100A3005E30A2000D30890BCE2C2C
:1039A000A20BCE2CA30BCE2CAA31AC229931AA317A
:1039B000B22299310800B830860002308700BC304E
:1039C00084000030850018302100A20016001A0083
:1039D000A20BE62CA030860002308700D430840091
:1039E000003085001830A20016001A00A20BF42C3B
:1039F0005030860003308700A430840000308500FA
:103A00001830A20016001A00A20B022DAA31AC2217
:103A10009C3121006108A1006008A000AA31CB22DE
:103A20009C31AA31A9229C31AA31B2229C312100B9
:103A30004908A1004808A000AA31D0229C31AA312F
:103A4000AF229C310C302100A300C530A200F3301E
:103A5000890B282DA20B282DA30B282DAA31AC22CF
:103A60009C3121006B08A1006A08A000AA31CB227A
:103A70009C31AA31A9229C31AA31B2229C316830F2
:103A80002100A200E430890B432DA20B432D00003E
:103A900021004908A1004808A000AA31D0229C3189
:103AA000AA31AF229C310D302100A3002D30A2009D
:103AB000D730890B592DA20B592DA30B592D00324C
:103AC000AA31AC229C3121006708A1006608A00041
:103AD000AA31CB229C31AA31A9229C31AA31B2222F
:103AE0009C3121004F08A1004E08A000AA31D0222D
:103AF0009C31AA31AF229C3107302100A30017303E
:103B0000A2006A30890B822DA20B822DA30B822D7D
:103B10000000AA31AC229C3121006508A100640894
:103B2000A000AA31CB229C31AA31A9229C310730B6
:103B30002100A3001730A2006A30890B9D2DA20B33
:103B40009D2DA30B9D2D0000AA31AC229C3121009C
:103B50006108A1006008A000AA31CB229C31AA31E3
:103B6000A9229C31AA31B2229C3121005708A10020
:103B70005608A000AA31D0229C31AA31AF229C3134
:103B80000D302100A3002D30A200D730890BC62DA7
:103B9000A20BC62DA30BC62D003221005D08A1008B
:103BA0005C08A000AA31CB229C31AA31A9229C3109
:103BB000AA31B2229C3121004508A1004408A0008E
:103BC000AA31D0229C31AA31AF229C310C30210085
:103BD000A300C530A200F330890BEC2DA20BEC2D15
:103BE000A30BEC2DAA31AC229C3121006108A1006D
:103BF0006008A000AA31CB229C31AA31A9229C31B5
:103C0000AA31B2229C3168302100A200E430890B35
:103C1000072EA20B072E000021004508A100440832
:103C2000A000AA31D0229C31AA31AF229C310D30A4
:103C30002100A3002D30A200D730890B1D2EA20B2E
:103C40001D2EA30B1D2E0032AA31AC229C31210067
:103C50006508A1006408A000AA31CB229C31AA31DA
:103C6000A9229C31AA31B2229C3121004D08A10029
:103C70004C08A000AA31D0229C31AA31AF229C313D
:103C80000D302100A3002D30A200D730890B462E25
:103C9000A20B462EA30B462E0032AA31AC229C3139
:103CA00021005D08A1005C08A000AA31CB229C3154
:103CB000AA31A9229C31AA31B2229C312100530899
:103CC000A1005208A000AA31D0229C31AA31AF2213
:103CD0009C310D302100A3002D30A200D730890B7C
:103CE0006F2EA20B6F2EA30B6F2E0032AA31AC22C7
:103CF0009C3121006108A1006008A000AA31CB22FC
:103D00009C31AA31A9229C31AA31B2229C312100D6
:103D10004908A1004808A000AA31D0229C31AA314C
:103D2000AF229C310C302100A3005E30A2000D3088
:103D3000890B982EA20B982EA30B982EAA31AC2299
:103D40009C3121002708A1002608A000AA31CB221F
:103D50009C31AA31A9229C31AA31B2229C31D030A7
:103D60002100A200C930890BB32EA20BB32E003262
:103D700021004908A1004808A000AA31D0229C31A6
:103D8000AA31AF229C310D302100A3002D30A200BA
:103D9000D730890BC92EA20BC92EA30BC92E003216
:103DA000AA31AC229C3121006B08A1006A08A00056
:103DB000AA31CB229C31AA31A9229C31AA31B2224C
:103DC0009C3121004F08A1004E08A000AA31D0224A
:103DD0009C31AA31AF229C3107302100A30017305B
:103DE000A2006A30890BF22EA20BF22EA30BF22E48
:103DF0000000AA31AC229C3121002708A10026082E
:103E0000A000AA31CB229C31AA31A9229C310730D3
:103E10002100A3001730A2006A30890B0D2FA20BDE
:103E20000D2FA30B0D2F0000AA31AC229C312100D5
:103E30006708A1006608A000AA31CB229C31AA31F4
:103E4000A9229C31AA31B2229C3121005708A1003D
:103E50005608A000AA31D0229C31AA31AF229C3151
:103E600007302100A3001730A2006A30890B362FDB
:103E7000A20B362FA30B362F0000AA31AC229C31A7
:103E800021002708A1002608A000AA31CB229C31DE
:103E9000AA31A9229C3107302100A3001730A200CB
:103EA0006A30890B512FA20B512FA30B512F000009
:103EB000AA31AC229C3121006508A1006408A00051
:103EC000AA31CB229C31AA31A9229C31AA31B2223B
:103ED0009C3121005308A1005208A000AA31D02231
:103EE0009C31AA31AF229C3107302100A30017304A
:103EF000A2006A30890B7A2FA20B7A2FA30B7A2F9C
:103F00000000AA31AC229C3121006108A1006008A8
:103F1000A000AA31CB229C31AA31A9229C31AA311E
:103F2000B2229C3121005708A1005608A000AA31F6
:103F3000D0229C31AA31AF229C3107302100A3004E
:103F40001730A2006A30890BA32FA20BA32FA30B5B
:103F5000A32F0000AA31AC229C3121005D08A100F2
:103F60005C08A000AA31CB229C31AA31A9229C3145
:103F7000AA31B2229C3121005908A1005808A000A2
:103F8000AA31D0229C31AA31AF229C310D302100C0
:103F9000A3002D30A200D730890BCC2FA20BCC2F41
:103FA000A30BCC2F0032AA31AC229C312100610836
:103FB000A1006008A000AA31CB229C31AA31A9221D
:103FC0009C31AA31B2229C3121005708A100560829
:103FD000A000AA31D0229C31AA31AF229C311830E6
:103FE0002100A3008A30A200E730890BF52FA20B35
:103FF000F52FA30BF52F0032AA31AC229C3108001B
:10400000210021082000E900210020082000E8000C
:104010000800B8308600013087005030840000303E
:1040200085001830F50016001A00F50B1328A03093
:104030008600013087003830840000308500183059
:10404000F50016001A00F50B2128503086000230CA
:10405000870020308400003085001830F5001600FD
:104060001A00F50B2F28AA319A22A03120003B0814
:10407000F1003A08F000AA31BB22A031AA31972200
:10408000A031AA31A022A03120005308F10052082B
:10409000F000AA31BF22A031AA319D22A03199316E
:1040A0004E21A0310230F600B530F5005A30890BB0
:1040B0005728F50B5728F60B572890310020A031D0
:1040C0000230F600B530F5005A30890B6528F50B43
:1040D0006528F60B652890310020A0310430F600E9
:1040E0005430F500EE30890B7328F50B7328F60B6E
:1040F00073280032AA319A22A03120006708F1000B
:104100006608F000AA31BB22A031AA319722A03163
:1041100090310020A031A231A42AB83086000130AD
:104120008700D73084000030850018302100A500BA
:1041300016001A00A50B9828A030860001308700D1
:10414000BF308400003085001830A50016001A002A
:10415000A50BA6285030860002308700A7308400C7
:10416000003085001830A50016001A00A50BB428F1
:10417000AA31AC22A03121004208A1004108A000D0
:10418000AA31CB22A031AA31A922A031AA31B22270
:10419000A03121005A08A1005908A000AA31D0225C
:1041A000A031AA31AF22A0318631BD26A031023024
:1041B0002100A600B530A5005930890BDD28A50BDC
:1041C000DD28A60BDD28003298310020A031023016
:1041D0002100A600B530A5005930890BED28A50BAC
:1041E000ED28A60BED28003298310020A0310430D4
:1041F0002100A6005430A500EE30890BFD28A50B48
:10420000FD28A60BFD280000AA31AC22A031210018
:104210006E08A1006D08A000AA31CB22A031A13107
:104220001129AA31A922A13198310020A1310230EF
:104230002100A600B530A5005930890B1D29A50B1A
:104240001D29A60B1D29003298310020A131023012
:104250002100A600B530A5005930890B2D29A50BEA
:104260002D29A60B2D29003203302100A600D830BD
:10427000A5004130890B3A29A50B3A29A60B3A290A
:1042800000328631BD26A1317D302100A500AB3042
:10429000890B4829A50B48290032AA31AC22A1314B
:1042A00021004808A1004708A000AA31CB22A13173
:1042B000AA31A922A13198310020A1310230210078
:1042C000A600B530A5005930890B6429A50B6429D7
:1042D000A60B6429003298310020A131033021005F
:1042E000A600B930A5001630890B7429A50B7429D6
:1042F000A60B74290000AA31AC22A131210042088A
:10430000A1004108A000AA31CB22A131AA31A922E3
:10431000A131AA31B222A13121006008A1005F08B9
:10432000A000AA31D022A131A2311C2A0230F6000D
:10433000B530F5005A30890B9B29F50B9B29F60BFC
:104340009B2990310020A1310330F600B930F500EF
:104350001630890BA929F50BA929F60BA9290032DA
:10436000AA319A22A13120006708F1006608F00006
:10437000AA31BB22A131AA319722A131903100206C
:10438000A1310230F600B530F5005A30890BC6294C
:10439000F50BC629F60BC62990310020A131023059
:1043A000F600B530F5005A30890BD429F50BD42925
:1043B000F60BD42999314E21A1313430F500F23079
:1043C000890BE029F50BE029AA31A022A131AA31FD
:1043D0009A22A13120006108F1006008F000AA31A2
:1043E000BB22A131AA319722A13120005908F10046
:1043F0005808F000AA31BF22A131AA319D22A13173
:1044000090310020A1310430F6008830F500E13011
:10441000890B082AF50B082AF60B082A0000AA3196
:104420009A22A13120006308F1006208F000AA314D
:10443000BB22A131AF317C2FAA31AF22A23186310C
:10444000BD26A23102302100A600B530A5005930AA
:10445000890B282AA50B282AA60B282A0032863188
:10446000BD26A23102302100A600B530A50059308A
:10447000890B382AA50B382AA60B382A0032983126
:104480000020A23103302100A600B930A50016306B
:10449000890B482AA50B482AA60B482A0000AA31F6
:1044A000AC22A23121006E08A1006D08A000AA3143
:1044B000CB22A231AA31A922A23198310020A23107
:1044C00002302100A600B530A5005930890B662ABC
:1044D000A50B662AA60B662A003298310020A2316D
:1044E00002302100A600B530A5005930890B762A8C
:1044F000A50B762AA60B762A00328631BD26A2317C
:1045000034302100A500F130890B842AA50B842AC0
:104510000032AA31B222A231AA31AC22A23121004A
:104520006808A1006708A000AA31CB22A231AA31F5
:10453000A922A23121006008A1005F08A000AA31D1
:10454000D022A231A531532D0230F600B530F5004E
:104550005A30890BA92AF50BA92AF60BA92A903102
:104560000020A2310230F600B530F5005A30890B38
:10457000B72AF50BB72AF60BB72A0330F600D83066
:10458000F5004230890BC22AF50BC22AF60BC22A6B
:1045900099314E21A2317D30F500AC30890BCE2A05
:1045A000F50BCE2AAA319A22A23120004108F1004F
:1045B0004008F000AA31BB22A231AA319722A231D1
:1045C00090310020A2310230F600B530F5005A30AB
:1045D000890BE82AF50BE82AF60BE82A903100202F
:1045E000A2310330F600B930F5001630890BF62AF7
:1045F000F50BF62AF60BF62A0032AA319A22A231DE
:1046000020003B08F1003A08F000AA31BB22A23199
:10461000AA319722A231AA31A022A2312000590842
:10462000F1005808F000AA31BF22A231AA319D2220
:10463000A23199314E21A2310230F600B530F50099
:104640005A30890B212BF50B212BF60B212B99319D
:104650004E21A231A13196290230F6006C30F500CE
:10466000A030890B312BF50B312BF60B312B7D3024
:10467000F500AC30890B3A2BF50B3A2BAA319A2274
:10468000A33120004108F1004008F000AA31BB220C
:10469000A331AA319722A33190310020A3310230F7
:1046A000F600B530F5005A30890B542BF50B542B1E
:1046B000F60B542B90310020A3310530F600C030AA
:1046C000F5009030890B622BF50B622BF60B622BF9
:1046D0000032AA319A22A33120004508F100440893
:1046E000F000AA31BB22A331AA319722A331AA310B
:1046F000A022A33120005908F1005808F000AA3187
:10470000BF22A331AA319D22A33199314E21A33179
:104710000230F600B530F5005A30890B8D2BF50BC1
:104720008D2BF60B8D2B99314E21A3310230F600E3
:10473000B530F5005A30890B9B2BF50B9B2BF60BF4
:104740009B2B90310020A3310430F6005430F5004B
:10475000EE30890BA92BF50BA92BF60BA92B0032F8
:10476000AA319A22A3318831082805302100A600F9
:10477000C030A5009030890BBB2BA50BBB2BA60B23
:10478000BB2B0000AA31AC22A33121004C08A100B0
:104790004B08A000AA31CB22A331AA31A922A33110
:1047A000AA31B222A33121006008A1005F08A00055
:1047B000AA31D022A331AA31AF22A3318631BD263E
:1047C000A33102302100A600B530A5005930890B75
:1047D000E72BA50BE72BA60BE72B00328631BD2676
:1047E000A33102302100A600B530A5005930890B55
:1047F000F72BA50BF72BA60BF72B003298310020D7
:10480000A33104302100A6005430A500EE30890BFE
:10481000072CA50B072CA60B072C0000AA31AC22F5
:10482000A33121004808A1004708A000AA31CB22EB
:10483000A331AA31A922A331AA31B222A331210086
:104840006408A1006308A000AA31D022A331AA31D4
:10485000AF22A33198310020A33102302100A600FD
:10486000B530A5005930890B332CA50B332CA60B82
:10487000332C003298310020A331AD31F12DAA3113
:10488000AC22A43121006808A1006708A000AA3169
:10489000CB22A431AA31A922A43121006408A100AD
:1048A0006308A000AA31D022A431AA31AF22A431DA
:1048B0008631BD26A43102302100A600B530A50006
:1048C0005930890B612CA50B612CA60B612C003291
:1048D0008631BD26A43102302100A600B530A500E6
:1048E0005930890B712CA50B712CA60B712C003241
:1048F00098310020A43103302100A600E230A50049
:10490000A530890B812CA50B812CA60B812C0032A4
:10491000AA31AC22A431AA31B222A43121006A0802
:10492000A1006908A000AA31CB22A431AA31A92292
:10493000A43121006008A1005F08A000AA31D022A4
:10494000A431AA31AF22A43198310020A431023021
:104950002100A600B530A5005930890BAD2CA50B60
:10496000AD2CA60BAD2C003298310020A4310230C2
:104970002100A600B530A5005930890BBD2CA50B30
:10498000BD2CA60BBD2C00328631BD26A43187314B
:10499000772FAA31B222A43121006A08A100690848
:1049A000A000AA31CB22A431AA31A922A43121002E
:1049B0006008A1005F08A000AA31D022A431AA316A
:1049C000AF22A43198310020A43102302100A6008A
:1049D000B530A5005930890BEB2CA50BEB2CA60BA1
:1049E000EB2C003298310020A43102302100A600C7
:1049F000B530A5005930890BFB2CA50BFB2CA60B61
:104A0000FB2C00328631BD26A43104302100A600E3
:104A10005F30A5005130890B0B2DA50B0B2DA60B7C
:104A20000B2D0032AA31AC22A431AA31B222A4311A
:104A300021004808A1004708A000AA31CB22A431D8
:104A4000AA31A922A43121006408A1006308A000B2
:104A5000AA31D022A431AA31AF22A431983100204A
:104A6000A43102302100A600B530A5005930890BD1
:104A7000372DA50B372DA60B372D0032983100208E
:104A8000A43103302100A600B930A5001630890BEF
:104A9000472DA50B472DA60B472D0000AA31B222AA
:104AA000A431A4313F2CAA31AF22A5319831002086
:104AB000A53104302100A6008830A500E130890B23
:104AC0005F2DA50B5F2DA60B5F2DAA31AC22A53162
:104AD00021006A08A1006908A000AA31CB22A531F3
:104AE000AA31A922A531AA31B222A53121005C0840
:104AF000A1005B08A000AA31D022A531AA31AF22C3
:104B0000A53198310020A53104302100A60088305D
:104B1000A500E130890B8A2DA50B8A2DA60B8A2DC5
:104B2000AA31AC22A53121006E08A1006D08A000B9
:104B3000AA31CB22A531AA31A922A531AA31B222AC
:104B4000A53121005A08A1005908A000AA31D0229D
:104B5000A531AA31AF22A5318631BD26A53102305B
:104B60002100A600B530A5005930890BB52DA50B45
:104B7000B52DA60BB52D003298310020A53102309D
:104B80002100A600B530A5005930890BC52DA50B15
:104B9000C52DA60BC52D003298310020A53104305B
:104BA0002100A6005F30A5005130890BD52DA50B43
:104BB000D52DA60BD52D0032AA31AC22A531A431BA
:104BC000C92C3830860003308700D4308400003090
:104BD000850018302100A20016001A00A20BEC2D4F
:104BE0002030860003308700BC3084000030850010
:104BF0001830A20016001A00A20BFA2DD030860041
:104C000003308700A4308400003085001830A200F3
:104C100016001A00A20B082EAA31AC22A5312100E1
:104C20005308A1005208A000AA31CB22A531AA3115
:104C3000A922A531AA31B222A53121006B08A10019
:104C40006A08A000AA31D022A531AA31AF22A5312D
:104C500024302100A300B730A200C130890B2E2ED2
:104C6000A20B2E2EA30B2E2E0032AA31B222A5317A
:104C7000D0302100A200C930890B3C2EA20B3C2E63
:104C80000032AA31AC22A53121004F08A1004E0804
:104C9000A000AA31CB22A531AA31A922A531210039
:104CA0006B08A1006A08A000AA31D022A531AA3160
:104CB000AF22A5310D302100A3002D30A200D73046
:104CC000890B602EA20B602EA30B602E0032AA313E
:104CD000AC22A53121004D08A1004C08A000AA314A
:104CE000CB22A531AA31A922A531AA31B222A53100
:104CF00021005D08A1005C08A000AA31D022A531E6
:104D0000AA31AF22A53119302100A3005A30A200E8
:104D1000B130890B892EA20B892EA30B892E00326C
:104D2000AA31AC22A53121004F08A1004E08A000F5
:104D3000AA31CB22A531AA31A922A5310C302100FC
:104D4000A3005E30A2000D30890BA42EA20BA42E6E
:104D5000A30BA42EAA31AC22A53121005308A10037
:104D60005208A000AA31CB22A531AA31A922A5312F
:104D7000AA31B222A531D0302100A200C930890B5E
:104D8000BF2EA20BBF2E003221005D08A1005C08DF
:104D9000A000AA31D022A531AA31AF22A5310D3011
:104DA0002100A3002D30A200D730890BD52EA20BF5
:104DB000D52EA30BD52E0032AA31AC22A53121006D
:104DC0002708A1002608A000AA31CB22A531AA31CC
:104DD000A922A531AA31B222A53121005708A1008C
:104DE0005608A000AA31D022A531AA31AF22A531A0
:104DF00019302100A3005A30A200B130890BFE2ED9
:104E0000A20BFE2EA30BFE2E0032AA31AC22A5313E
:104E100021004D08A1004C08A000AA31CB22A531E9
:104E2000AA31A922A5310C302100A3005E30A200D6
:104E30000D30890B192FA20B192FA30B192FAA3193
:104E4000B222A531D0302100A200C930890B262F13
:104E5000A20B262F003221005708A1005608A000FF
:104E6000AA31D022A531AA31AF22A5310D302100BF
:104E7000A3002D30A200D730890B3C2FA20B3C2F72
:104E8000A30B3C2F0032AA31AC22A53121004908E6
:104E9000A1004808A000AA31CB22A531AA31A9223D
:104EA000A531AA31B222A53121006108A100600814
:104EB000A000AA31D022A531AA31AF22A5311230EB
:104EC0002100A3007430A2007A30890B652FA20B59
:104ED000652FA30B652F0000AA31B222A531D03077
:104EE0002100A200C930890B732FA20B732F00324F
:104EF00021006108A1006008A000AA31D022A531DC
:104F0000AA31AF22A53107302100A3001730A2003B
:104F10006A30890B892FA20B892FA30B892F0000E0
:104F2000AA31B222A53121005D08A1005C08A000D1
:104F3000AA31D022A531AA31AF22A53107302100F4
:104F4000A3001730A2006A30890BA42FA20BA42F54
:104F5000A30BA42F0000AA31B222A53121005908C9
:104F6000A1005808A000AA31D022A531AA31AF2251
:104F7000A53107302100A3001730A2006A30890B49
:104F8000BF2FA20BBF2FA30BBF2F0000AA31B2224D
:104F9000A53121005708A1005608A000AA31D0224F
:104FA000A531AA31AF22A53107302100A300173067
:104FB000A2006A30890BDA2FA20BDA2FA30BDA2FAB
:104FC0000000AA31AC22A531AA31B222A5312100BC
:104FD0006708A1006608A000AA31D022A531AA3135
:104FE000AF22A53107302100A3001730A2006A309C
:104FF000890BF82FA20BF82FA30BF82F0000080045
:10552E0020001F15080020001F1108002800171565
:10553E00080028001711080028001E150800280072
:10554E001E11080020001F15080020001F11080062
:10555E0028001715080028001711080028001E152E
:10556E00080028001E110800700820009E00080088
:10557E007008280096000800700828009D0008009A
:10558E0021009115111508002100200820009E0011
:10559E00080021002008280096000800210020089D
:1055AE0028009D00080021002108F8002008F700BF
:1055BE000800640080010131890BE12A00348F302C
:1055CE002500930092017F30910003309F04080064
:1055DE00210021082000EB00210020082000EA0015
:1055EE0008006030320099009B019D0107309F003A
:1055FE009E019C0108002100200821040319082B9C
:10560E00092B0D2B2108FA002008F9000800803024
:10561E002C0099001F309800C03097001F08FC39ED
:10562E0001389F00080080302C009C001F309B002A
:10563E00C0309A001F08F33908389F0008003F3029
:10564E0020009E009D01911007309F000030210028
:10565E00A0000030A100AA31DA22AB310800AB3134
:10566E009923AB3121001016200010121010813139
:10567E003821AB31A0318D20AB318031C9283F307C
:10568E002800960095012000921007302800970000
:10569E0000302100A0000030A100AA31EF22AB3172
:1056AE0008003F3028009D009C0120009213073017
:1056BE0028009E0000302100A0000030A100A03183
:1056CE000020AB3108008030240094000830950093
:1056DE00960197014F309200AA31C722AB310030AC
:1056EE002100A0000030A100AB310223AB31240019
:1056FE00951608003E3400343A3400343834003401
:10570E0034340034313400342E3400342C3400342C
:10571E002934003427340034253400342334003443
:10572E0021340034AA31F822AB31AD31A725AB318B
:10573E00AB316A23AB31AA31E622AB31AB310E234A
:10574E00AB31AB311A23AB31AB312623AB31AB319D
:10575E004623AB31AB315823AB3108008030F30018
:10576E000030F400AA31A622AB317408F1007308A0
:10577E00F000AA31C322AB31AA31A322AB310B30D8
:10578E00F2006230890BC92BF20BC92B0032FC30B0
:10579E00F307FF30F43DF41FD52BD62BB92B0800A1
:1057AE0080302100A3000030A400AA31B822AB3112
:1057BE0021002408A1002308A000AA31D522AB3174
:1057CE00AA31B522AB310B302100A2006230890B19
:1057DE00EE2BA20BEE2B0000FC302100A307FF30B6
:1057EE00A43DA41FFB2BFC2BDC2B08008030F30008
:1057FE000030F400AA31A622AB317408F100730810
:10580E00F000AA31C322AB31AA31A322AB310B3047
:10581E00F2006230890B112CF20B112C0032043085
:10582E00F3070030F43D7408803AF20081307202C2
:10583E00031D232C01307302031C262C272C012C54
:10584E00080080302100A3000030A400AA31B82245
:10585E00AC3121002408A1002308A000AA31D522D2
:10586E00AC31AA31B522AC310B302100A20062302E
:10587E00890B3F2CA20B3F2C000004302100A30704
:10588E000030A43D2408803AA20081302202031D7C
:10589E00522C01302302031C552C562C2D2C0800A3
:1058AE007E3400347634003470340034693400347D
:1058BE00633400345E3400345834003453340034CE
:1058CE004F3400344A340034463400344234003409
:1058DE00FC340034EE340034E0340034D43400347C
:1058EE00C8340034BD340034B2340034A83400342B
:1058FE009E340034953400348D34003485340034B5
:10590E007E3400347634003470340034693400341C
:10591E00633400345E34003458340034533400346D
:10592E004F3400344A3400344634003442340034A8
:10593E00FC340034EE340034E0340034D43400341B
:10594E00C8340034BD340034B2340034A8340034CA
:10595E009E340034953400348D3400348534003454
:10596E003E3400343A3400343834003434340034A5
:10597E00313400342E3400342C34003429340034C5
:10598E0027340034253400342334003421340034D9
:10599E007E3400347634003470340034693400348C
:1059AE00633400345E3400345834003453340034DD
:1059BE004F3400344A340034463400344234003418
:1059CE00FC340034EE340034E0340034D43400348B
:1059DE00C8340034BD340034B2340034A83400343A
:1059EE009E340034953400348D34003485340034C4
:1059FE003E3400343A340034383400343434003415
:105A0E00313400342E3400342C3400342934003434
:105A1E002734003425340034233400342134003448
:105A2E007E340034763400347034003469340034FB
:105A3E00633400345E34003458340034533400344C
:105A4E004F3400344A340034463400344234003487
:105A5E00FC340034EE340034E0340034D4340034FA
:105A6E00C8340034BD340034B2340034A8340034A9
:105A7E009E340034953400348D3400348534003433
:105A8E003E3400343A340034383400343434003484
:105A9E00313400342E3400342C34003429340034A4
:105AAE0027340034253400342334003421340034B8
:105ABE007E3400347634003470340034693400346B
:105ACE00633400345E3400345834003453340034BC
:105ADE004F3400344A3400344634003442340034F7
:105AEE00FC340034EE340034E0340034D43400346A
:105AFE00C8340034BD340034B2340034A834003419
:105B0E009E340034953400348D34003485340034A2
:105B1E003E3400343A3400343834003434340034F3
:105B2E00313400342E3400342C3400342934003413
:105B3E002734003425340034233400342134003427
:105B4E0022008C0150308D008E011F3021008C0000
:105B5E00F0308D00C0308E00103023008C008D018F
:105B6E0038308E0024008C018D018E0125008C01B1
:105B7E008D018E01373026008C00F0308D00FF3005
:105B8E008E003F3027008C00F0308D00FF308E00ED
:105B9E0002303D00A5000330A3000E303C00A000F3
:105BAE0018303D009E000C303C00A10019303D0025
:105BBE009C0014303C0094000C303D00A4002700E3
:105BCE00910192019301940195019601970198011B
:105BDE009901080003302100A600B930A500163047
:105BEE00890BF72DA50BF72DA60BF72D0000AA316B
:105BFE00AC22AD3121005208A1005108A000AA31FB
:105C0E00CB22AD31AA31A922AD31AA31B222AD31AA
:105C1E0021006E08A1006D08A000AA31D022AD317E
:105C2E00AA31AF22AD318631BD26AD310230210011
:105C3E00A600E930A5004C30890B232EA50B232E90
:105C4E00A60B232E0000AA31AC22AD312100500844
:105C5E00A1004F08A000AA31CB22AD31AA31A92252
:105C6E00AD3198310020AD3105302100A6001A303B
:105C7E00A5005430890B412EA50B412EA60B412EAB
:105C8E000000AA31AC22AD3121004208A10041082A
:105C9E00A000AA31CB22AD31AA31A922AD31983163
:105CAE000020AD31E5302100A5009130890B5D2E2D
:105CBE00A50B5D2EAA31B222AD3121005608A100EE
:105CCE005508A000AA31D022AD31AA31AF22AD3194
:105CDE008631BD26AD319031222804302100A60038
:105CEE005430A500EE30890B7A2EA50B7A2EA60B1A
:105CFE007A2E0000AA31AC22AE3121006E08A1002E
:105D0E006D08A000AA31CB22AE31AA31A922AE3144
:105D1E0098310020AE3102302100A600B530A5002A
:105D2E005930890B982EA50B982EA60B982E003263
:105D3E0098310020AE3102302100A600B530A5000A
:105D4E005930890BA82EA50BA82EA60BA82E003213
:105D5E0002302100A6006C30A5009F30890BB52EB5
:105D6E00A50BB52EA60BB52E00328631BD26AE3153
:105D7E0002302100A6006C30A5009F30890BC52E85
:105D8E00A50BC52EA60BC52E00327D302100A50019
:105D9E00AB30890BD02EA50BD02E0032AA31AC22FF
:105DAE00AE3121004808A1004708A000AA31CB223D
:105DBE00AE31AA31A922AE3198310020AE31023077
:105DCE002100A600B530A5005930890BEC2EA50B8D
:105DDE00EC2EA60BEC2E003298310020AE31A33102
:105DEE00B52B90310020AE310230F600B530F50003
:105DFE005A30890B002FF50B002FF60B002F903128
:105E0E000020AE310230F600B530F5005A30890B65
:105E1E000E2FF50B0E2FF60B0E2F99314E21AE31A4
:105E2E000430F6005F30F5005230890B1C2FF50B55
:105E3E001C2FF60B1C2FAA319A22AE31AA31A022AA
:105E4E00AE3120004108F1004008F000AA31BB221B
:105E5E00AE31AA319722AE3120005D08F1005C0808
:105E6E00F000AA31BF22AE31AA319D22AE3190315F
:105E7E000020AE310230F600B530F5005A30890BF5
:105E8E00462FF50B462FF60B462F90310020AE31E4
:105E9E000330F600B930F5001630890B542FF50B90
:105EAE00542FF60B542F0032AA31A022AE31AA3154
:105EBE009A22AE3120006108F1006008F000AA318C
:105ECE00BB22AE31AA319722AE3120005D08F1001F
:105EDE005C08F000AA31BF22AE31AA319D22AE314C
:105EEE0099314E21AE3198312628AA319722AF3101
:105EFE00AA31A022AF3120005508F1005408F0005D
:105F0E00AA31BF22AF31AA319D22AF31903100208C
:105F1E00AF310430F6008830F500E130890B952F53
:105F2E00F50B952FF60B952F0000AA319A22AF3163
:105F3E0020006708F1006608F000AA31BB22AF31DD
:105F4E00AA319722AF31AA31A022AF3120005308D7
:105F5E00F1005208F000AA31BF22AF31AA319D22C2
:105F6E00AF3199314E21AF310230F600B530F50028
:105F7E005A30890BC02FF50BC02FF60BC02F903166
:105F8E000020AF310230F600B530F5005A30890BE3
:105F9E00CE2FF50BCE2FF60BCE2F90310020AF313A
:105FAE000430F6005F30F5005230890BDC2FF50B14
:105FBE00DC2FF60BDC2FAA319A22AF31AA31A022A8
:105FCE00AF3120006308F1006208F000AA31BB2255
:105FDE00AF31AA319722AF3120005908F10058088D
:105FEE00F000AA31BF22AF31AA319D22AF31AE31BE
:105FFE00F82E6A342B34003400340034003400346C
