:040000008031C6285D
:100008007E1480312000101E0A280B28C2282700E1
:10001800111C0F2810281228200010122700911CEC
:10002800162817281928200010122700111D1D282E
:100038001E2820282000101220000C1C2428252807
:100048006F280E1E282829283B280E1F2C282D280B
:100058003B282700941E312832283428200010120B
:100068002700941F382839283B2820001012200028
:100078000E1E3F2840284E282700941E4428452855
:100088004728200010122700941F4B284C284E2880
:100098002000101220000E1F522853286128270024
:1000A800941E572858285A28200010122700941FF9
:1000B8005E285F286128200010122700941E6528FA
:1000C80066286828200010122700941F6C286D28C5
:1000D8006F282000101220008C18732874287828A4
:1000E8000C1D77287828C2280E1E7B287C288E288D
:1000F8000E1F7F2880288E282700941E8428852894
:100108008728200010122700941F8B288C288E28FF
:100118002000101220000E1E92289328A1282700E4
:10012800941E972898289A28200010122700941FB8
:100138009E289F28A1282000101220000E1FA52805
:10014800A628B4282700941EAA28AB28AD2820008A
:1001580010122700941FB128B228B42820001012CA
:100168002700941EB828B928BB28200010122700A1
:10017800941FBF28C028C228200010122000101287
:100188007E1009008031C828DC3084008130850069
:100198003C3086000030870018308231AA22803136
:1001A800F901FA01FB01FC0154308400003085009C
:1001B8000F308231B02280317E1020008031E42857
:1001C8008131F421803121000C148C140C158D160A
:1001D8008D170E160E178E1723000C108C100C118D
:1001E8008D128D130E120E138E1321008C120E1009
:1001F8008E100E1122008C120E108E100E1121007E
:100208001016200010122030BA008230BB000030D7
:10021800F100F2003830F3000230F4000030F5004D
:100228003B08F8003A08F70004307707840078089C
:100238000318780A8500013F8A00003F0A008131CF
:10024800003A0319282929293F2920003B08F800EA
:100258003A08F7000E307707840078080318780A00
:100268008500013F8A00003F0A008131003A031DE2
:100278003E293F2929293C3086000030870020305C
:100288008400003085001830F70016001A00F70BBC
:100298004929D030F0000730F1008231C122803185
:1002A8008231CC228031CB30F800EC30F70084303A
:1002B800890B5C29F70B5C29F80B5C290032823129
:1002C800C9228031CB30F800EC30F7008430890B3C
:1002D8006B29F70B6B29F80B6B2900324D298031FC
:1002E800C62822008C0150308D008E011F3021005D
:1002F8008C00F0308D00D0308E00103023008C0040
:100308008D0128308E0024008C018D018E0125007E
:100318008C018D018E01373026008C00F0308D0065
:10032800FF308E003F3027008C00F0308D00FF300A
:100338008E0002303D00A5000330A3000E303C00C3
:10034800A00018303D009E000C303C00A100193080
:100358003D009C00270091019201930194019501B1
:1003680096019701980199010800F60182315722F8
:100378008131003A031DC129C229DA290130200040
:10038800D4007208D6007108D500DE017308D700C2
:100398007508D9007408D800DA01DB01DC01DD0139
:1003A800DF018231A3228131F601F60A76080800BE
:1003B800DD340134C2340134A934013491340134B8
:1003C8007A34013465340134513401343E34013413
:1003D8002C3401341B3401340B340134FC34003424
:1003E80082319922813181317521813182310A220C
:1003F800813182318222813182317622813182318A
:100408006722813182314622813108008030240000
:10041800940008309500960197014F309200823180
:10042800C52282310030F0000030F10082318E2286
:1004380082312400951608000A340234003400344E
:10044800B93401340034003400340034003400344A
:1004580000340034573402348E340234003400340B
:1004680000340034003400340034003400340034E4
:1004780000340034003400340034003400340034D4
:10048800003400347F302800960095012000921037
:100498000730280097000030F0000030F10082316A
:1004A800B62282310800F001F00A20005408031D2A
:1004B8005E2A5F2A652A24009419632A642A652A19
:1004C800F00170080800FF3020009E009D01911087
:1004D80007309F000030F0000030F1008231BC226C
:1004E8008231080080302C009C003F309B00C030D7
:1004F8009A001F08F33908389F00080080302C0044
:1005080099007F309800C03097001F08FC390138E7
:100518009F000800700871040319932A942A982AE6
:100528007108FC007008FB00080060303200990078
:100538009B019D0107309F009E019C0108008231AC
:10054800CF22823102302000E0000800FE001200B5
:100558001E00FE0BAB2A0034640080010131890BB8
:10056800B12A003471082000E2007008E100080098
:100578007108FA007008F9000800700820009E0051
:100588000800210091151115080020001F1108000E
:0C05980020001F150800240016140800A5
:020000040001F9
:08000E008F3EF33FFF3FFF3F6F
:02E00000FF001F
:00000001FF
