:040000008031C6285D
:100008007E1480312000101E0A280B28C2282700E1
:10001800111C0F2810281228200010122700911CEC
:10002800162817281928200010122700111D1D282E
:100038001E2820282000101220000C1C2428252807
:100048006F280E1E282829283B280E1F2C282D280B
:100058003B282700941E312832283428200010120B
:100068002700941F382839283B2820001012200028
:100078000E1E3F2840284E282700941E4428452855
:100088004728200010122700941F4B284C284E2880
:100098002000101220000E1F522853286128270024
:1000A800941E572858285A28200010122700941FF9
:1000B8005E285F286128200010122700941E6528FA
:1000C80066286828200010122700941F6C286D28C5
:1000D8006F282000101220008C18732874287828A4
:1000E8000C1D77287828C2280E1E7B287C288E288D
:1000F8000E1F7F2880288E282700941E8428852894
:100108008728200010122700941F8B288C288E28FF
:100118002000101220000E1E92289328A1282700E4
:10012800941E972898289A28200010122700941FB8
:100138009E289F28A1282000101220000E1FA52805
:10014800A628B4282700941EAA28AB28AD2820008A
:1001580010122700941FB128B228B42820001012CA
:100168002700941EB828B928BB28200010122700A1
:10017800941FBF28C028C228200010122000101287
:100188007E1009008031C8287530840084308500CD
:10019800A03086000030870030308531D825803186
:1001A80006308400853085002030860001308700C5
:1001B80018308531D8258031F901FA01FB01FC019D
:1001C800EA01EB01EC01ED01D0308400003085003C
:1001D8000D308531DE2580317E1020008031F428F5
:1001E8008431EA248031B8308600003087005230EC
:1001F8008400003085001830F70016001A00F70B4D
:100208000129A03086000030870038308400003093
:1002180085001830F70016001A00F70B0F29203058
:1002280086000130870020308400003085001830B7
:10023800F70016001A00F70B1D29863111268031A8
:1002480020003B08F1003A08F0008531FD25803197
:1002580086311426803186310B26803120005508DE
:10026800F1005408F0008531F925803186310E26D9
:1002780080318331812380310230F800B530F700B6
:100288005A30890B4529F70B4529F80B4529843144
:10029800C82480310230F800B530F7005A30890B95
:1002A8005329F70B5329F80B53298431C82480317B
:1002B8000430F8002030F700FC30890B6129F70B77
:1002C8006129F80B612986311126803120006908DF
:1002D800F1006808F0008531FD258031863114264B
:1002E80080318431C82480310230F800B530F700FD
:1002F8005A30890B7D29F70B7D29F80B7D2984312C
:10030800C82480310230F800B530F7005A30890B24
:100318008B29F70B8B29F80B8B290330F800D83081
:10032800F7004230890B9629F70B9629F80B962986
:100338008331812380314930F700B930890BA229F4
:10034800F70BA229000086311126803120004108D0
:10035800F1004008F0008531FD25803186311426F2
:1003680080318431C82480310230F800B530F7007C
:100378005A30890BBD29F70BBD29F80BBD298431EB
:10038800C82480310330F8008530F7002430890B09
:10039800CB29F70BCB29F80BCB29863111268031D5
:1003A80020003B08F1003A08F0008531FD25803136
:1003B80086311426803186310B26803120005B0877
:1003C800F1005A08F0008531F925803186310E2672
:1003D80080318331812380310230F800B530F70055
:1003E8005A30890BF529F70BF529F80BF5298331D4
:1003F800812380310230F800B530F7005A30890B7C
:10040800032AF70B032AF80B032A8431C824803106
:100418000330F8008530F7002430890B112AF70BD8
:10042800112AF80B112A863111268031200069081B
:10043800F1006808F0008531FD25803186311426E9
:1004480080318431C82480310230F800B530F7009B
:100458005A30890B2D2AF70B2D2AF80B2D2A8431B7
:10046800C82480310230F800B530F7005A30890BC3
:100478003B2AF70B3B2AF80B3B2A83318123803137
:100488000330F8008530F7002430890B492AF70B30
:10049800492AF80B492A86310B26803186311126E4
:1004A800803120006308F1006208F0008531FD25E5
:1004B800803186311426803120005B08F1005A080B
:1004C800F0008531F925803186310E26803184315E
:1004D800C82480310630F8005C30F7006830890B9A
:1004E800732AF70B732AF80B732A86311126803189
:1004F80020006508F1006408F0008531FD25803191
:1005080086311426803186310B2680312000570829
:10051800F1005608F0008531F925803186310E2624
:1005280080318431C82480310430F8004030F7002D
:100538002630890B9D2AF70B9D2AF80B9D2A00323D
:1005480086311126803120006908F1006808F00022
:100558008531FD25803186311426803186310B2680
:10056800803120005508F1005408F0008531F92544
:10057800803186310E2680311730F800BB30F70005
:100588001D30890BC52AF70BC52AF80BC52A0000B0
:1005980086311126803186310B268031200065088E
:1005A800F1006408F0008531FD258031863114267C
:1005B800803120005B08F1005A08F0008531F925E8
:1005C800803186310E2680311730F800BB30F700B5
:1005D8001D30890BED2AF70BED2AF80BED2A0000E8
:1005E80086311126803186310B2680312000410862
:1005F800F1004008F0008531FD2580318631142650
:10060800803120005F08F1005E08F0008531F9258F
:10061800803186310E2680311730F800BB30F70064
:100628001D30890B152BF70B152BF80B152B00001C
:1006380086310B26803186311126803120006308EF
:10064800F1006208F0008531FD25803186311426DD
:10065800803120005F08F1005E08F0008531F9253F
:10066800803186310E2680311730F800BB30F70014
:100678001D30890B3D2BF70B3D2BF80B3D2B000054
:1006880086311126803186310B268031200065089D
:10069800F1006408F0008531FD258031863114268B
:1006A800803120005B08F1005A08F0008531F925F7
:1006B800803186310E2680311730F800BB30F700C4
:1006C8001D30890B652BF70B652BF80B652B00008C
:1006D80086311126803186310B2680315230F80060
:1006E8002B30F7000030890B772BF70B772BF80BA3
:1006F800772B003221298031C6288631052683319F
:100708008030F0000030F1008531F52583318631E5
:10071800082683310B30F2006230890B912BF20BE3
:10072800912B00328631052683316430F000003089
:10073800F1008531F52583318631082683310B3068
:10074800F2006230890BA62BF20BA62B0032863101
:10075800052683315030F0000030F1008531F52551
:1007680083318631082683310B30F2006230890BE1
:10077800BB2BF20BBB2B003286310526833132307E
:10078800F0000030F1008531F525833186310826E7
:1007980083310B30F2006230890BD02BF20BD02B57
:1007A80000328631052683311E30F0000030F1001A
:1007B8008531F52583318631082683310B30F200E7
:1007C8006230890BE52BF20BE52B0032F301F401C3
:1007D8008631052683317408F1007308F0008531ED
:1007E800F52583318631082683310B30F2006230DB
:1007F800890BFC2BF20BFC2B00320230F307003084
:10080800F43D7408803AF20081307202031D0E2C08
:1008180000307302031C112C122CEC2B8631052698
:100828008331FF30F0000030F1008531F525833148
:100838008631082683316830F200E430890B222C97
:10084800F20B222C00328631052683310800220063
:100858008C0150308D008E011F3021008C00F0304B
:100868008D00C0308E00103023008C008D01383090
:100878008E0024008C018D018E0125008C018D01D4
:100888008E01373026008C00F0308D00FF308E004E
:100898003F3027008C00F0308D00FF308E00023092
:1008A8003D00A5000330A3000E303C00A000183026
:1008B8003D009E000C303C00A10019303D009C001A
:1008C80014303C0094000C303D00A4002700910136
:1008D800920193019401950196019701980199015C
:1008E80008007E34003476340034703400346934BF
:1008F8000034633400345E340034583400345334E4
:1009080000344F3400344A3400344634003442341E
:100918000034FC340034EE340034E0340034D43491
:100928000034C8340034BD340034B2340034A83440
:1009380000349E340034953400348D3400348534CA
:100948000034F60185317C258431003A031DAD2C35
:10095800AE2CC62C01302100D0007208D2007108DC
:10096800D100DA017308D3007508D5007408D400E3
:10097800D601D701D801D901DB018531D1258431D0
:10098800F601F60A76080800FF30F3000030F4009C
:100998008631052684317408F1007308F00085312A
:1009A800F52584318631082684310B30F200623017
:1009B800890BDC2CF20BDC2C0032FE30F307FF3005
:1009C800F43DF41FE82CE92CCC2C08008531BE2519
:1009D800843184312B24843185311E25843185313D
:1009E800C82584318531A725843185319B258431FB
:1009F80085318C25843185316B25843185315A25A3
:100A0800843108003E3400343A3400343834003439
:100A180034340034313400342E3400342C3400346F
:100A28002934003427340034253400342334003486
:100A38002134003480302400940008309500960159
:100A480097014F3092008631012685310030F00041
:100A58000030F1008531B325853124009516080052
:100A68001E34053400340034A53404340034003412
:100A78000034003400340034003400347C3405344D
:100A8800B334053400340034003400340034003406
:100A980000340034003400340034003400340034AE
:100AA8000034003400340034003400343F3028006F
:100AB8009D009C0120009213073028009E00003002
:100AC800F0000030F1008531E425853108003F3021
:100AD8002800960095012000921007302800970002
:100AE8000030F0000030F1008531EA25853108003A
:100AF800F001F00A21005008031D832D842D8A2D52
:100B080024009419882D892D8A2DF0017008080079
:100B18003F3020009E009D01911007309F0000305B
:100B2800F0000030F1008531F02585310800803073
:100B38002C009C001F309B00C0309A001F08F3391E
:100B480008389F00080080302C0099001F3098005A
:100B5800C03097001F08FC3901389F000800700852
:100B680071040319B82DB92DBD2D7108FC0070084A
:100B7800FB0008006030320099009B019D0107309E
:100B88009F009E019C0108008F3025009300920170
:100B98007F30910003309F04080086311726853185
:100BA80002302100DC000800FE0012001E00FE0BCF
:100BB800D92D0034640080010131890BDF2D003408
:100BC80071082000EB007008EA0008007108200096
:100BD800ED007008EC0008007108FA007008F900D0
:100BE8000800700828009D0008007008280096007A
:100BF8000800700820009E000800210091151115BA
:100C0800080028001E11080028001E1508002800EA
:100C18001711080028001715080020001F110800E8
:100C280020001F1508002400161408002A34003478
:040C3800303402341E
:020000040001F9
:08000E008F3EF33FFF3FFF3F6F
:02E00000FF001F
:00000001FF
