:040000008031C6285D
:100008007E1480312000101E0A280B28C2282700E1
:10001800111C0F2810281228200010122700911CEC
:10002800162817281928200010122700111D1D282E
:100038001E2820282000101220000C1C2428252807
:100048006F280E1E282829283B280E1F2C282D280B
:100058003B282700941E312832283428200010120B
:100068002700941F382839283B2820001012200028
:100078000E1E3F2840284E282700941E4428452855
:100088004728200010122700941F4B284C284E2880
:100098002000101220000E1F522853286128270024
:1000A800941E572858285A28200010122700941FF9
:1000B8005E285F286128200010122700941E6528FA
:1000C80066286828200010122700941F6C286D28C5
:1000D8006F282000101220008C18732874287828A4
:1000E8000C1D77287828C2280E1E7B287C288E288D
:1000F8000E1F7F2880288E282700941E8428852894
:100108008728200010122700941F8B288C288E28FF
:100118002000101220000E1E92289328A1282700E4
:10012800941E972898289A28200010122700941FB8
:100138009E289F28A1282000101220000E1FA52805
:10014800A628B4282700941EAA28AB28AD2820008A
:1001580010122700941FB128B228B42820001012CA
:100168002700941EB828B928BB28200010122700A1
:10017800941FBF28C028C228200010122000101287
:100188007E1009008031C8289F30840081308500A6
:10019800A03086000030870030308231C0228031A4
:1001A800F2308400813085002030860001308700DD
:1001B80018308231C0228031F901FA01FB01FC01BB
:1001C800EC01ED01D0308400003085000D30823123
:1001D800C62280317E1020008031F22882310A2226
:1001E8008031B8308600003087002030840000302D
:1001F80085001830F70016001A00F70BFF28A0300A
:1002080086000030870038308400003085001830C0
:10021800F70016001A00F70B0D2920308600013070
:10022800870050308400003085001830F700160031
:100238001A00F70B1B29FF302000EA000030EB0002
:100248008231DF22803120006B08F1006A08F0005B
:100258008231D72280318231E22280310B30F7009F
:100268006230890B3529F70B35290032FF30200021
:10027800EA07FF30EB3D6B08803AF70080307702E1
:10028800031D482901306A0203184B294C292429E7
:100298001530F8004B30F700BE30890B5129F70BA9
:1002A8005129F80B512900321F298031C628220014
:1002B8008C0150308D008E011F3021008C00F030F1
:1002C8008D00D0308E00103023008C008D01283036
:1002D8008E0024008C018D018E0125008C018D017A
:1002E8008E01373026008C00F0308D00FF308E00F4
:1002F8003F3027008C00F0308D00FF308E00023038
:100308003D00A5000330A3000E303C00A0001830CB
:100318003D009E000C303C00A10019303D009C00BF
:10032800270091019201930194019501960197018B
:100338009801990108007E34003476340034703412
:10034800003469340034633400345E340034583483
:100358000034533400344F3400344A3400344634C3
:10036800003442340034FC340034EE340034E034D9
:100378000034D4340034C8340034BD340034B234CA
:100388000034A83400349E340034953400348D345D
:10039800003485340034F60182316D228131003A0F
:1003A800031DD729D829F02901302100D00072086F
:1003B800D2007108D100DA017308D3007508D5009E
:1003C8007408D400D601D701D801D901DB018231E4
:1003D800B9228131F601F60A760808003E34003465
:1003E8003A3400343834003434340034313400348E
:1003F8002E3400342C3400342934003427340034AB
:100408002534003423340034213400348231AF22BF
:10041800823181315B2182318231202282318231E5
:100428009822823182318C22823182317D2282313E
:1004380082315C2282310800803024009400083028
:100448009500960197014F3092008231DB2282316C
:100458000030F0000030F1008231A4228231240003
:10046800951608002034023400340034CF340134A7
:1004780000340034003400340034003400340034D4
:100488006D340234A43402340034003400340034AF
:1004980000340034003400340034003400340034B4
:1004A80000340034003400340034003400340034A4
:1004B8003F30280096009501200092100730280050
:1004C80097000030F0000030F1008231CC228231F8
:1004D8000800F001F00A21005008031D742A752A4B
:1004E8007B2A24009419792A7A2A7B2AF001700839
:1004F80008003F3020009E009D01911007309F00AA
:100508000030F0000030F1008231D2228231080040
:1005180080302C009C001F309B00C0309A001F08C0
:10052800F33908389F00080080302C0099001F30EC
:100538009800C03097001F08FC3901389F00080058
:10054800700871040319A92AAA2AAE2A7108FC00A6
:100558007008FB0008006030320099009B019D0183
:1005680007309F009E019C0108008231E5228231FC
:1005780002302100DC000800FE0012001E00FE0B05
:10058800C12A0034640080010131890BC72A003474
:1005980071082000ED007008EC0008007108FA00EE
:1005A8007008F9000800700820009E00080021006B
:1005B80091151115080020001F11080020001F15B3
:0C05C8000800240016140800F43401346C
:020000040001F9
:08000E008F3EF33FFF3FFF3F6F
:02E00000FF001F
:00000001FF
