:100000008031C928023401347E1480312000101E52
:100010000A280B28C5282700111C0F281028122891
:10002000200010122700911C1628172819282000DC
:1000300010122700111D1D281E2820282000101234
:1000400020000C1C2428252872280E1E2828292868
:100050003E280E1F2C282D283E289A31B7228031A9
:100060002700941E34283528372820001012270036
:10007000941F3B283C283E282000101220000E1E12
:100080004228432851282700941E472848284A28F8
:10009000200010122700941F4E284F2851282000BE
:1000A000101220000E1F5528562864282700941E81
:1000B0005A285B285D28200010122700941F612811
:1000C00062286428200010122700941E68286928DE
:1000D0006B28200010122700941F6F2870287228A8
:1000E0002000101220008C18762877287B280C1D01
:1000F0007A287B28C5280E1E7E287F2891280E1F6F
:100100008228832891282700941E872888288A28F7
:10011000200010122700941F8E288F28912820007D
:10012000101220000E1E95289628A4282700941E41
:100130009A289B289D28200010122700941FA12890
:10014000A228A4282000101220000E1FA828A928E9
:10015000B7282700941EAD28AE28B0282000101222
:100160002700941FB428B528B728200010122700B4
:10017000941EBB28BC28BE28200010122700941F04
:10018000C228C328C52820001012200010127E109B
:1001900009008031CB28803102208031FC00803181
:1001A00003208031FD00883100208031EC0088314F
:1001B00001208031ED00CF30840087308500A030F1
:1001C0008600013087003030883102208031603075
:1001D0008400983085002030860002308700483047
:1001E0008831022080311830840098308500A0309A
:1001F0008600023087004830883102208031B830D4
:100200008400A73085002030860003308700483006
:1002100088310220803170308400A7308500A03002
:10022000860003308700483088310220803100305A
:100230008400983085002030860004308700183014
:10024000883102208031F701F801F901FA01FB0140
:10025000E801E901EA01EB01D030840001308500BA
:100260002030A531E22580317E102000A631412EBC
:10027000B8308600033087002030840001308500CC
:1002800018302100EC0016001A00EC0B4329A030B6
:10029000860003308700503084000130850018301C
:1002A000EC0016001A00EC0B5129203086000430B7
:1002B000870038308400013085001830EC001600CB
:1002C0001A00EC0B5F298231CD228131A531AE2598
:1002D0008131220067082100A10022006608210068
:1002E000A000A531CD258131A531AB258131183054
:1002F0002100ED008A30EC00E730890B7D29EC0B02
:100300007D29ED0B7D290032A531AE258131D0301C
:100310002100EC00C930890B8B29EC0B8B290032B2
:10032000220067082100A100220066082100A00029
:10033000A531CD258131A531AB2581310D3021008D
:10034000ED002D30EC00D730890BA429EC0BA4294B
:10035000ED0BA4290032A531AE25813122006308BE
:100360002100A100220062082100A000A531CD25B6
:100370008131A531AB2581310D302100ED002D30CB
:10038000EC00D730890BC229EC0BC229ED0BC22936
:100390000032A531AE258131220061082100A10083
:1003A000220060082100A000A531CD258131A531B2
:1003B000AB2581310D302100ED002D30EC00D73020
:1003C000890BE029EC0BE029ED0BE0290032A53187
:1003D000AE258131220063082100A10022006208BD
:1003E0002100A000A531CD258131A531AB2581317A
:1003F00007302100ED001730EC006A30890BFE2930
:10040000EC0BFE29ED0BFE290000A531AE25813154
:10041000220061082100A100220060082100A00044
:10042000A531CD258131A531AB25813107302100A2
:10043000ED001730EC006A30890B1C2AEC0B1C2AEB
:10044000ED0B1C2A0000A531AE25813122005D088C
:100450002100A10022005C082100A000A531CD25CB
:100460008131A531AB2581310D302100ED002D30DA
:10047000EC00D730890B3A2AEC0B3A2AED0B3A2ADA
:100480000032A531AE258131220059082100A1009A
:10049000220058082100A000A531CD258131A531C9
:1004A000AB2581310D302100ED002D30EC00D7302F
:1004B000890B582AEC0B582AED0B582A0032A5312B
:1004C000AE25813122005D082100A10022005C08D8
:1004D0002100A000A531CD258131A531AB25813189
:1004E00019302100ED005A30EC00B130890B762A2A
:1004F000EC0B762AED0B762A0032A531AE25813140
:10050000220061082100A100220060082100A00053
:10051000A531CD258131A531AB258131193021009F
:10052000ED005A30EC00B130890B942AEC0B942A80
:10053000ED0B942A0032A531AE25813122006308EB
:100540002100A100220062082100A000A531CD25D4
:100550008131A531AB25813125302100ED00873077
:10056000EC008B30890BB22AEC0BB22AED0BB22ACD
:100570000032A531AE2581310D302100ED002D3046
:10058000EC00D730890BC22AEC0BC22AED0BC22A31
:1005900000328231CD2281310800383086000330AC
:1005A0008700A43084000030850018302100A200AC
:1005B00016001A00A20BD82A2030860003308700CC
:1005C000D4308400003085001830A20016001A00D4
:1005D000A20BE62AD030860003308700BC308400AE
:1005E000003085001830A20016001A00A20BF42A71
:1005F000A531AE25823121006B08A1006A08A00058
:10060000A531CD258231A531AB25823125302100A0
:10061000A3008730A2008B30890B0C2BA20B0C2B74
:10062000A30B0C2B0032A531AE25823121006708C7
:10063000A1006608A000A531CD258231A531AB25EA
:1006400082310D302100A3002D30A200D730890B5C
:10065000272BA20B272BA30B272B0032A531AE256E
:10066000823121006508A1006408A000A531CD25D4
:100670008231A531AB25823119302100A3005A30D7
:10068000A200B130890B422BA20B422BA30B422BB1
:100690000032A531AE25823121006708A10066082D
:1006A000A000A531CD258231A531AB2582310D3099
:1006B0002100A3002D30A200D730890B5D2BA20BA7
:1006C0005D2BA30B5D2B0032A531AE2582312100BD
:1006D0006B08A1006A08A000A531CD258231A531A3
:1006E000AB2582310D302100A3002D30A200D73080
:1006F000890B782BA20B782BA30B782B0032A5311A
:10070000AE25823121003F08A1003E08A000A5319E
:10071000CD258231A531AB25823119302100A300CE
:100720005A30A200B130890B932BA20B932BA30B51
:10073000932B0032A531AE25823121006508A1003E
:100740006408A000A531CD258231A531AB258231C9
:1007500019302100A3005A30A200B130890BAE2B12
:10076000A20BAE2BA30BAE2B0032A531AE258231EE
:1007700021006108A1006008A000A531CD258231CB
:10078000A531AB25823125302100A3008730A2009E
:100790008B30890BC92BA20BC92BA30BC92B0032A1
:1007A000A531AE2582310D302100A3002D30A200ED
:1007B000D730890BD92BA20BD92BA30BD92B003205
:1007C0000800A531BA25833180302100A000003017
:1007D000A100A531D7258331A531B72583310B3051
:1007E0002100A2006230890BF32BA20BF32B000037
:1007F000A531BA25833164302100A0000030A1006A
:10080000A531D7258331A531B72583310B302100A0
:10081000A2006230890B0A2CA20B0A2C0000A53121
:10082000BA25833150302100A0000030A100A5314D
:10083000D7258331A531B72583310B302100A200A4
:100840006230890B212CA20B212C0000A531BA2586
:10085000833132302100A0000030A100A531D7251E
:100860008331A531B72583310B302100A2006230DE
:10087000890B382CA20B382C0000A531BA25833106
:100880001E302100A0000030A100A531D725833102
:10089000A531B72583310B302100A2006230890BCE
:1008A0004F2CA20B4F2C00002100A301A401A53165
:1008B000BA25833121002408A1002308A000A53116
:1008C000D7258331A531B72583310B302100A20014
:1008D0006230890B692CA20B692C000002302100C8
:1008E000A3070030A43D2408803AA20081302202F0
:1008F000031D7C2C00302302031C7F2C802C572CE2
:10090000A531BA258331FF302100A0000030A100BD
:10091000A531D7258331A531B72583316830210032
:10092000A200E430890B922CA20B922C0000A5317E
:10093000BA2583310800A531A82584318030F00024
:100940000030F100A531C5258431A531A5258431BC
:100950000B30F2006230890BAB2CF20BAB2C003267
:10096000A531A82584316430F0000030F100A531B4
:10097000C5258431A531A52584310B30F2006230C4
:10098000890BC02CF20BC02C0032A531A825843174
:100990005030F0000030F100A531C5258431A5317B
:1009A000A52584310B30F2006230890BD52CF20B77
:1009B000D52C0032A531A82584313230F00000302A
:1009C000F100A531C5258431A531A52584310B3031
:1009D000F2006230890BEA2CF20BEA2C0032A531CE
:1009E000A82584311E30F0000030F100A531C52566
:1009F0008431A531A52584310B30F2006230890B9A
:100A0000FF2CF20BFF2C0032F301F401A531A825D5
:100A100084317408F1007308F000A531C5258431D4
:100A2000A531A52584310B30F2006230890B162DDB
:100A3000F20B162D00320230F3070030F43D74083B
:100A4000803AF20081307202031D282D00307302BB
:100A5000031C2B2D2C2D062DA531A8258431FF300C
:100A6000F0000030F100A531C5258431A531A52560
:100A700084316830F200E430890B3C2DF20B3C2DC0
:100A80000032A531A825843108003F30F5005530EB
:100A9000890B482DF50B482D0000A5319C2585318B
:100AA0000730F600B330F5004230890B552DF50BB9
:100AB000552DF60B552D0032A5319C258531200092
:100AC0003B08F1003A08F000A531BD258531A5317C
:100AD00099258531A531A225853120005308F100E3
:100AE0005208F000A531C1258531A5319F258531FA
:100AF00084319B2485310230F600B530F5005A3040
:100B0000890B802DF50B802DF60B802D9031002068
:100B100085310230F600B530F5005A30890B8E2D44
:100B2000F50B8E2DF60B8E2D903100208531043083
:100B3000F6005430F500EE30890B9C2DF50B9C2D02
:100B4000F60B9C2D0032A5319C25853120006708CD
:100B5000F1006608F000A531BD258531A531992544
:100B600085319031002085310230F600B530F50036
:100B70005A30890BB92DF50BB92DF60BB92D9031E3
:100B8000002085310230F600B530F5005A30890B6F
:100B9000C72DF50BC72DF60BC72D0230F6006C30B4
:100BA000F500A030890BD22DF50BD22DF60BD22DEE
:100BB00084319B2485319D31DA2D0230F600B53029
:100BC000F5005A30890BE22DF50BE22DF60BE22DE4
:100BD00084319B2485310230F600B530F5005A305F
:100BE000890BF02DF50BF02DF60BF02D9031002038
:100BF00085310330F600E230F500A630890BFE2D7A
:100C0000F50BFE2DF60BFE2DA5319C258531A5316A
:100C1000A225853120006308F1006208F000A531AB
:100C2000BD258531A5319925853120005908F10070
:100C30005808F000A531C1258531A5319F258531A2
:100C40009031002085310230F600B530F5005A3081
:100C5000890B282EF50B282EF60B282E903100201C
:100C600085310230F600B530F5005A30890B362E4A
:100C7000F50B362EF60B362E84319B24853102304F
:100C8000F600B530F5005A30890B442EF50B442E92
:100C9000F60B442EA631A82685310230F6005730D7
:100CA000F500D830890B522EF50B522EF60B522E32
:100CB0000032A631A82685310230F6005730F50003
:100CC000D830890B612EF50B612EF60B612E0032A8
:100CD000A631A82685318531452DA531B12586312E
:100CE000A631F026863104302100A6008830A50008
:100CF000E130890B792EA50B792EA60B792EA53123
:100D0000AE25863121006A08A1006908A000A5313E
:100D1000CD258631A531AB258631A531B425863167
:100D200021005C08A1005B08A000A531D225863116
:100D3000A531B1258631A631F02686310430210057
:100D4000A6008830A500E130890BA42EA50BA42EA7
:100D5000A60BA42EA531AE25863121006E08A10078
:100D60006D08A000A531CD258631A531AB25863192
:100D7000A531B425863121005A08A1005908A000E8
:100D8000A531D2258631A531B12586318331E123C4
:100D9000863102302100A600B530A5005930890BFC
:100DA000CF2EA50BCF2EA60BCF2E0032A631F026CC
:100DB000863102302100A600B530A5005930890BDC
:100DC000DF2EA50BDF2EA60BDF2E0032A631F0267C
:100DD000863104302100A6005F30A5005130890B18
:100DE000EF2EA50BEF2EA60BEF2E0032A531AE2570
:100DF00086318631FB2EA531B425863121006A0863
:100E0000A1006908A000A531CD258631A531AB250B
:100E1000863121006008A1005F08A000A531D2251D
:100E20008631A531B1258631A631F02686310230D2
:100E30002100A600B530A5005930890B1D2FA50B48
:100E40001D2FA60B1D2F0032A631F0268631023051
:100E50002100A600B530A5005930890B2D2FA50B18
:100E60002D2FA60B2D2F00328331E1238631043044
:100E70002100A6005F30A5005130890B3D2FA50B46
:100E80003D2FA60B3D2F0032A531AE258631A53171
:100E9000B425863121004808A1004708A000A531EB
:100EA000CD258631A531AB25863121006408A1000E
:100EB0006308A000A531D2258631A531B125863140
:100EC000A631F026863102302100A600B530A500FB
:100ED0005930890B692FA50B692FA60B692F00329A
:100EE000A631F026863103302100A600B930A500D6
:100EF0001630890B792FA50B792FA60B792F0000BF
:100F0000A531B42586319F31762F22008C015030D7
:100F10008D008E011F3021008C00F0308D00C0301C
:100F20008E00103023008C008D0138308E0024009C
:100F30008C018D018E0125008C018D018E013730D1
:100F400026008C00F0308D00FF308E003F302700EF
:100F50008C00F0308D00FF308E0002303D00A50087
:100F60000330A3000E303C00A00018303D009E006E
:100F70000C303C00A10019303D009C0014303C00B6
:100F800094000C303D00A4002700910192019301D0
:100F900094019501960197019801990108007E340A
:100FA00000347634003470340034693400346334EF
:100FB00000345E34003458340034533400344F3439
:100FC00000344A3400344634003442340034FC34B3
:100FD0000034EE340034E0340034D4340034C83407
:100FE0000034BD340034B2340034A83400349E34AC
:0E0FF0000034953400348D34003485340034E0
:1010000068340034FE0012001E00FE0B032800347A
:1010100020004108F1004008F000A531BD258831CD
:10102000A53199258831A531A225883120005D0898
:10103000F1005C08F000A531C1258831A5319F255C
:1010400088319031002088310230F600B530F5004B
:101050005A30890B2928F50B2928F60B29289031BD
:10106000002088310330F600B930F5001630890BC6
:101070003728F50B3728F60B37280032A5319C2589
:10108000883120004B08F1004A08F000A531BD2549
:101090008831A53199258831A531A22588312000D4
:1010A0006708F1006608F000A531C1258831A53137
:1010B0009F25883184319B2488310230F600E93045
:1010C000F5004C30890B6228F50B6228F60B62287C
:1010D0000032A5319C25883120004908F1004808DC
:1010E000F000A531BD258831A53199258831903191
:1010F000002088310530F6001A30F5005430890B95
:101100007F28F50B7F28F60B7F280032A5319C2520
:10111000883120003B08F1003A08F000A531BD25D8
:101120008831A53199258831903100208831E5300A
:10113000F5009130890B9A28F50B9A280000A5310B
:10114000A225883120004F08F1004E08F000A5319B
:10115000C1258831A5319F25883184319B24883170
:101160000230F600B530F5005A30890BB528F50B82
:10117000B528F60BB5289031002088310230F600F2
:10118000B530F5005A30890BC328F50BC328F60B90
:10119000C3289031002088310430F6005430F50027
:1011A000EE30890BD128F50BD128F60BD12800326F
:1011B000A531A225883120002308F1002208F00083
:1011C000A531C1258831A5319F2588319031002076
:1011D00088310230F600B530F5005A30890BEE2820
:1011E000F50BEE28F60BEE28903100208831023006
:1011F000F600B530F5005A30890BFC28F50BFC28B9
:10120000F60BFC2884319B2488310430F6005430DE
:10121000F500EE30890B0A29F50B0A29F60B0A298D
:101220000032A531A225883120004F08F1004E0878
:10123000F000A531C1258831A5319F258831903135
:10124000002088310230F600B530F5005A30890BA5
:101250002729F50B2729F60B272990310020883103
:10126000B130F5009E30890B3329F50B332900325C
:10127000A531A22588310530F6000F30F500F13098
:10128000890B4029F50B4029F60B4029000020006E
:101290004F08F1004E08F000A531C1258831A53175
:1012A0009F25883184319B2488310230F600B53087
:1012B000F5005A30890B5A29F50B5A29F60B5A2991
:1012C00084319B2488310230F600B530F5005A3065
:1012D000890B6829F50B6829F60B682990310020E5
:1012E00088310330F600E230F500A630890B76290C
:1012F000F50B7629F60B7629A531A2258831200039
:101300004D08F1004C08F000A531C1258831A53108
:101310009F2588319031002088310230F600B530A9
:10132000F5005A30890B9229F50B9229F60B922978
:10133000903100208831D030F500CA30890B9E29C9
:10134000F50B9E29A631A8268831D030F500CA3089
:10135000890BA829F50BA829A631A82688310730C2
:10136000F6009E30F5007B30890BB429F50BB429CB
:10137000F60BB4290000A531A225883120004908C8
:10138000F1004808F000A531C1258831A5319F251D
:101390008831903100208831D030F500CA30890B77
:1013A000CF29F50BCF29A631A8268831D030F500FA
:1013B000CA30890BD929F50BD929A631A82688313D
:1013C0000630F6006630F500CC30890BE529F50BC8
:1013D000E529F60BE529A5319C2588312000230855
:1013E000F1002208F000A531BD258831A5319925ED
:1013F0008831A531A225883120005308F100520818
:10140000F000A531C1258831A5319F25883184316F
:101410009B2488310230F600B530F5005A30890B34
:101420000F2AF50B0F2AF60B0F2A90310020883176
:101430000230F600B530F5005A30890B1D2AF50B45
:101440001D2AF60B1D2A9031002088310430F60049
:101450005430F500EE30890B2B2AF50B2B2AF60BB6
:101460002B2A0032A5319C25883120004F08F1003D
:101470004E08F000A531BD258831A5319925883168
:101480009031002088310230F600B530F5005A3036
:10149000890B482AF50B482AF60B482A9031002080
:1014A00088310230F600B530F5005A30890B562AE3
:1014B000F50B562AF60B562A0330F600D830F50005
:1014C0004230890B612AF50B612AF60B612A8431BF
:1014D0009B2488317D30F500AC30890B6D2AF50BEB
:1014E0006D2AA5319C25883120002908F1002808A3
:1014F000F000A531BD258831A5319925883190317D
:10150000002088310230F600B530F5005A30890BE2
:10151000872AF50B872AF60B872A9031002088311D
:101520000330F600B930F5001630890B952AF50B1B
:10153000952AF60B952A0032A5319C25883120008A
:101540002308F1002208F000A531BD258831A5311E
:1015500099258831A531A225883120005908F1004C
:101560005808F000A531C1258831A5319F25883163
:1015700084319B2488310230F600B530F5005A30B2
:10158000890BC02AF50BC02AF60BC02A84319B2494
:1015900088310230F600B530F5005A30890BCE2A7A
:1015A000F50BCE2AF60BCE2A90310020883103307D
:1015B000F600B930F5001630890BDC2AF50BDC2A71
:1015C000F60BDC2A0032A5319C25883120004F081B
:1015D000F1004E08F000A531BD258831A5319925CF
:1015E00088319031002088310230F600B530F500A6
:1015F0005A30890BF92AF50BF92AF60BF92A9031A2
:10160000002088310230F600B530F5005A30890BE1
:10161000072BF50B072BF60B072B84319B24883106
:101620003430F500F230890B132BF50B132BA53159
:10163000A2258831A5319C25883120004908F10078
:101640004808F000A531BD258831A531992588319C
:1016500020005908F1005808F000A531C125883153
:10166000A5319F2588319031002088310430F60063
:101670008830F500E130890B3B2BF50B3B2BF60B4B
:101680003B2B0000A5319C25883120004B08F10040
:101690004A08F000A531BD258831A531992588314A
:1016A000A531A225883120005508F1005408F0002A
:1016B000A531C1258831A5319F2588319031002081
:1016C00088310430F6008830F500E130890B662B54
:1016D000F50B662BF60B662B0000A5319C25883197
:1016E00020004F08F1004E08F000A531BD258831DB
:1016F000A53199258831A531A225883120005308CC
:10170000F1005208F000A531C1258831A5319F258F
:10171000883184319B2488310230F600B530F500E1
:101720005A30890B912BF50B912BF60B912B9031A5
:10173000002088310230F600B530F5005A30890BB0
:101740009F2BF50B9F2BF60B9F2B903100208831A0
:101750000430F6005F30F5005230890BAD2BF50BED
:10176000AD2BF60BAD2BA5319C258831A531A225DB
:10177000883120004B08F1004A08F000A531BD2552
:101780008831A5319925883120005908F100580881
:10179000F000A531C1258831A5319F2588319031D0
:1017A000002088310230F600B530F5005A30890B40
:1017B000D72BF50BD72BF60BD72B90310020883188
:1017C0000230F600B530F5005A30890BE52BF50BE9
:1017D000E52BF60BE52B84319B2488310430F60091
:1017E0005F30F5005230890BF32BF50BF32BF60B22
:1017F000F32BA5319C258831A531A2258831200005
:101800002908F1002808F000A531BD258831A5314F
:101810009925883120005D08F1005C08F000A531B1
:10182000C1258831A5319F2588319031002088312C
:101830000230F600B530F5005A30890B1D2CF50B3F
:101840001D2CF60B1D2C9031002088310330F60042
:10185000B930F5001630890B2B2CF50B2B2CF60B21
:101860002B2C0032A531A2258831A5319C25883149
:1018700020004908F1004808F000A531BD25883155
:10188000A5319925883120005D08F1005C08F00041
:10189000A531C1258831A5319F25883184319B240C
:1018A00088310230F600B530F5005A30890B562CDD
:1018B000F50B562CF60B562C84319B2488310230C4
:1018C000F600B530F5005A30890B642CF50B642C0A
:1018D000F60B642C9031002088310330F600E230A2
:1018E000F500A630890B722CF50B722CF60B722CBE
:1018F000A5319C258831A531A225883120004B08CF
:10190000F1004A08F000A531BD258831A53199259F
:10191000883120005908F1005808F000A531C12590
:101920008831A5319F2588319031002088310230DF
:10193000F600B530F5005A30890B9C2CF50B9C2C29
:10194000F60B9C2C9031002088310230F600B53027
:10195000F5005A30890BAA2CF50BAA2CF60BAA2CF1
:1019600084319B2488310230F600B530F5005A30BE
:10197000890BB82CF50BB82CF60BB82CA631A82681
:1019800088310230F6005730F500D830890BC62C6C
:10199000F50BC62CF60BC62C0032A631A8268831D2
:1019A0000230F6005730F500D830890BD52CF50BF6
:1019B000D52CF60BD52C0032A631A82688313F3025
:1019C000F5005530890BE22CF50BE22C0000A53117
:1019D000A22588310730F6001730F5006A30890BF0
:1019E000EF2CF50BEF2CF60BEF2C0032A5319C25DC
:1019F000883120004F08F1004E08F000A531BD25C8
:101A00008831A53199258831A531A225883120005A
:101A10005F08F1005E08F000A531C1258831A531CD
:101A20009F25883184319B2488310230F600B530FF
:101A3000F5005A30890B1A2DF50B1A2DF60B1A2DBD
:101A40009031002088310530F6003930F5008030C3
:101A5000890B282DF50B282DF60B282DA5319C255B
:101A6000883120002308F1002208F000A531BD25AF
:101A70008831A53199258831903100208831043092
:101A8000F6008830F500E130890B442DF50B442D2C
:101A9000F60B442D0000A5319C2588312000250837
:101AA000F1002408F000A531BD258831A531992524
:101AB00088319031002088310230F600B530F500D1
:101AC0005A30890B612DF50B612DF60B612D90318C
:101AD000002088310330F600B930F5001630890B4C
:101AE0006F2DF50B6F2DF60B6F2D0032A5319C2558
:101AF000883120002908F1002808F000A531BD2513
:101B00008831A5319925883184319B248831023070
:101B1000F600B530F5005A30890B8C2DF50B8C2D65
:101B2000F60B8C2D9031002088310330F6003230D6
:101B3000F5000630890B9A2DF50B9A2DF60B9A2D90
:101B4000A5319C25883120002D08F1002C08F000DB
:101B5000A531BD258831A5319925883190310020E6
:101B600088310230F600E930F5004C30890BB62D93
:101B7000F50BB62DF60BB62D0032A531A225883116
:101B800020006708F1006608F000A531C125883102
:101B9000A5319F25883184319B2488310230F6009D
:101BA000B530F5005A30890BD32DF50BD32DF60B3C
:101BB000D32D84319B2488310430F6007E30F5002B
:101BC0007D30890BE12DF50BE12DF60BE12D0000A9
:101BD000A531A225883120003B08F1003A08F00029
:101BE000A531C1258831A5319F258831903100204C
:101BF00088313430F500F230890BFC2DF50BFC2DCB
:101C0000A5319C2588310430F600DB30F500FF302B
:101C1000890B082EF50B082EF60B082E0000A531B7
:101C2000A225883120003D08F1003C08F000A531D4
:101C3000C1258831A5319F25883190310020883118
:101C40000330F600B930F5001630890B252EF50B60
:101C5000252EF60B252E003220002D08F1002C0831
:101C6000F000A531BD258831A53199258831903105
:101C7000002088310330F600B930F5001630890BAA
:101C80003F2EF50B3F2EF60B3F2E0032A531A2253D
:101C9000883120004108F1004008F000A531C1253D
:101CA0008831A5319F25883184319B248831C63005
:101CB000F5006630890B5A2EF50B5A2EA5319C255E
:101CC000883120003708F1003608F000A531BD2525
:101CD0008831A53199258831903100208831033031
:101CE000F600B930F5001630890B742EF50B742E02
:101CF000F60B742E0032A531A2258831200047084A
:101D0000F1004608F000A531C1258831A5319F2595
:101D10008831903100208831A5319C2588310430EC
:101D2000F600BC30F500D430890B942EF50B942EC0
:101D3000F60B942E20003708F1003608F000A5318C
:101D4000BD258831A53199258831A531A225883155
:101D500020004508F1004408F000A531C125883174
:101D6000A5319F25883184319B2488310230F600CB
:101D7000B530F5005A30890BBB2EF50BBB2EF60B98
:101D8000BB2E9031002088310330F6008530F500FD
:101D90002430890BC92EF50BC92EF60BC92E9031B4
:101DA000002088310330F6008530F5002430890B9F
:101DB000D72EF50BD72EF60BD72E90310020883179
:101DC0000330F6008530F5002430890BE52EF50B45
:101DD000E52EF60BE52E9031002088310330F60019
:101DE0008530F5002430890BF32EF50BF32EF60B1E
:101DF000F32E84319B2488310230F600AA30F5009E
:101E0000F630890B012FF50B012FF60B012F003255
:101E1000A531A225883120003B08F1003A08F000E6
:101E2000A531C1258831A5319F2588319031002009
:101E300088310230F600B530F5005A30890B1E2F7C
:101E4000F50B1E2FF60B1E2F903100208831053028
:101E5000F600C030F5009030890B2C2FF50B2C2F9D
:101E6000F60B2C2F0032A5319C2588312000350837
:101E7000F1003408F000A531BD258831A531992540
:101E80008831A531A225883120005D08F1005C0869
:101E9000F000A531C1258831A5319F2588319031C9
:101EA000002088310230F600B530F5005A30890B39
:101EB000572FF50B572FF60B572F84319B24883162
:101EC0000230F600B530F5005A30890B652FF50B5E
:101ED000652FF60B652F9031002088310230F60017
:101EE000B530F5005A30890B732FF50B732FF60BB5
:101EF000732F84319B2488310230F600B530F50011
:101F00005A30890B812FF50B812FF60B812F9031E1
:101F1000002088310230F6005730F500D830890BA8
:101F20008F2FF50B8F2FF60B8F2F0032A631A8269F
:101F300088310230F6005730F500D830890B9E2FDB
:101F4000F50B9E2FF60B9E2F0032A73116278831F6
:101F5000D030F500CA30890BAB2FF50BAB2FA73172
:101F6000162788310230F600B530F5005A30890B5B
:101F7000B72FF50BB72FF60BB72F90310020883114
:101F80000230F6005730F500D830890BC52FF50B1D
:101F9000C52FF60BC52F0032A631A8268831023096
:101FA000F6005730F500D830890BD42FF50BD42F1D
:101FB000F60BD42F0032A631A82688310230F60065
:101FC0005730F500D830890BE32FF50BE32FF60BD4
:101FD000E32F0032A631A8268831A531A225883109
:101FE000A5319C2588310530F6000F30F500F13021
:101FF000890BF82FF50BF82FF60BF82F00000800CF
:10200000FF30F3000030F400A531A82590317408AA
:10201000F1007308F000A531C5259031A531A52543
:1020200090310B30F2006230890B1428F20B142827
:102030000032FE30F307FF30F43DF41F2028212842
:102040000428080002302100A600B530A500593050
:10205000890B2828A50B2828A60B28280032A63192
:10206000F026903102302100A600B530A50059308D
:10207000890B3828A50B3828A60B38280032A63142
:10208000F026903104302100A6005430A500EE3037
:10209000890B4828A50B4828A60B48280000A53125
:1020A000B425903121002A08A1002908A000A531FB
:1020B000D2259031A531B1259031A631F02690314D
:1020C00002302100A600B530A5005930890B6628E2
:1020D000A50B6628A60B66280032A631F0269031A3
:1020E00002302100A600B530A5005930890B7628B2
:1020F000A50B7628A60B762800328331E123903198
:1021000004302100A6005430A500EE30890B86284B
:10211000A50B8628A60B86280000A531B425903192
:1021200021005608A1005508A000A531D225903104
:10213000A531B1259031A631F02690310230210031
:10214000A600B530A5005930890BA428A50BA428FA
:10215000A60BA4280032A631F0269031B130210020
:10216000A5009E30890BB228A50BB2280000A5312E
:10217000B425903105302100A6000F30A500F130C4
:10218000890BC028A50BC028A60BC0282100560823
:10219000A1005508A000A531D2259031A531B12567
:1021A00090318331E123903102302100A600B53017
:1021B000A5005930890BDA28A50BDA28A60BDA28F6
:1021C00000328331E123903102302100A600B53086
:1021D000A5005930890BEA28A50BEA28A60BEA28A6
:1021E0000032A631F026903103302100A600E23003
:1021F000A500A530890BFA28A50BFA28A60BFA280A
:102200000032A531B425903121005408A1005308B3
:10221000A000A531D2259031A531B1259031A6314C
:10222000F026903102302100A600B530A5005930CB
:10223000890B1829A50B1829A60B18290032A631DD
:10224000F0269031D0302100A500C930890B262915
:10225000A50B26290032A631CA269031D0302100A4
:10226000A500C930890B3229A50B32290032A631CD
:10227000CA26903107302100A6009E30A5007B3091
:10228000890B4029A50B4029A60B4029A531B4256F
:10229000903121005008A1004F08A000A531D2259F
:1022A0009031A531B1259031A631F0269031D03052
:1022B0002100A500C930890B5B29A50B5B290032E1
:1022C000A631CA269031D0302100A500C930890B33
:1022D0006729A50B67290032A631CA26903106303E
:1022E0002100A6006630A500CB30890B7529A50B0F
:1022F0007529A60B75290032A531AE259031210034
:102300002A08A1002908A000A531CD259031A531CA
:10231000AB259031A531B425903121005A08A10098
:102320005908A000A531D2259031A531B1259031B1
:102330008331E123903102302100A600B530A500A1
:102340005930890BA129A50BA129A60BA12900327F
:10235000A631F026903102302100A600B530A5004C
:102360005930890BB129A50BB129A60BB12900322F
:10237000A631F026903104302100A6005430A5008B
:10238000EE30890BC129A50BC129A60BC12900007C
:10239000A531AE25903121005608A1005508A000B6
:1023A000A531CD259031A531AB259031A631F02650
:1023B000903102302100A600B530A5005930890BBC
:1023C000DF29A50BDF29A60BDF290032A631F02675
:1023D000903102302100A600B530A5005930890B9C
:1023E000EF29A50BEF29A60BEF29003203302100BE
:1023F000A600D830A5004130890BFC29A50BFC298B
:10240000A60BFC2900328331E12390317D3021007D
:10241000A500AB30890B0A2AA50B0A2A0032A53188
:10242000AE25903121003008A1002F08A000A53171
:10243000CD259031A531AB259031A631F0269031D4
:1024400002302100A600B530A5005930890B262A9C
:10245000A50B262AA60B262A0032A631F02690319B
:1024600003302100A600B930A5001630890B362AAA
:10247000A50B362AA60B362A0000A531AE259031D1
:1024800021002A08A1002908A000A531CD259031FE
:10249000A531AB259031A531B425903121006008DC
:1024A000A1005F08A000A531D2259031A531B1254A
:1024B00090318331E123903102302100A600B53004
:1024C000A5005930890B622AA50B622AA60B622A45
:1024D00000328331E123903102302100A600B53073
:1024E000A5005930890B722AA50B722AA60B722AF5
:1024F0000032A631F026903103302100A600B93019
:10250000A5001630890B822AA50B822AA60B822AE7
:102510000000A531AE25903121005608A1005508D4
:10252000A000A531CD259031A531AB259031A63144
:10253000F026903102302100A600B530A5005930B8
:10254000890BA02AA50BA02AA60BA02A0032A6312F
:10255000F026903102302100A600B530A500593098
:10256000890BB02AA50BB02AA60BB02A0032833102
:10257000E123903134302100A500F130890BBE2ACF
:10258000A50BBE2A0032A531B4259031A531AE2568
:10259000903121005008A1004F08A000A531CD25A1
:1025A0009031A531AB25903121006008A1005F0872
:1025B000A000A531D2259031A531B1259031A631A9
:1025C000F026903104302100A6008830A500E130CB
:1025D000890BE82AA50BE82AA60BE82AA531AE2527
:1025E000903121005208A1005108A000A531CD254D
:1025F0009031A531AB259031A531B4259031210022
:102600005C08A1005B08A000A531D2259031A5315E
:10261000B1259031A631F026903104302100A6007A
:102620008830A500E130890B132BA50B132BA60BCB
:10263000132BA531AE25903121005608A100550875
:10264000A000A531CD259031A531AB259031A53124
:10265000B425903121005A08A1005908A000A531E5
:10266000D2259031A531B12590318331E1239031CC
:1026700002302100A600B530A5005930890B3E2B51
:10268000A50B3E2BA60B3E2B0032A631F026903137
:1026900002302100A600B530A5005930890B4E2B21
:1026A000A50B4E2BA60B4E2B0032A631F0269031F7
:1026B00004302100A6005F30A5005130890B5E2B4D
:1026C000A50B5E2BA60B5E2B0032A531AE259031FB
:1026D000A531B425903121005208A1005108A00075
:1026E000A531CD259031A531AB2590312100600871
:1026F000A1005F08A000A531D2259031A531B125F8
:102700009031A631F026903102302100A600B5307C
:10271000A5005930890B8A2BA50B8A2BA60B8A2B77
:102720000032A631F026903102302100A600B530EB
:10273000A5005930890B9A2BA50B9A2BA60B9A2B27
:1027400000328331E123903104302100A6005F3054
:10275000A5005130890BAA2BA50BAA2BA60BAA2BDF
:102760000032A531AE259031A531B425903121003C
:102770003008A1002F08A000A531CD259031A5314A
:10278000AB25903121006408A1006308A000A531A9
:10279000D2259031A531B1259031A631F026903166
:1027A00002302100A600B530A5005930890BD62B88
:1027B000A50BD62BA60BD62B0032A631F0269031D6
:1027C00003302100A600B930A5001630890BE62B96
:1027D000A50BE62BA60BE62B0000A531B425903106
:1027E000A531AE25903121005008A1004F08A0006E
:1027F000A531CD259031A531AB259031210064085C
:10280000A1006308A000A531D2259031A531B125E2
:1028100090318331E123903102302100A600B530A0
:10282000A5005930890B122CA50B122CA60B122CCB
:1028300000328331E123903102302100A600B5300F
:10284000A5005930890B222CA50B222CA60B222C7B
:102850000032A631F026903103302100A600E2308C
:10286000A500A530890B322CA50B322CA60B322CDF
:102870000032A531AE259031A531B425903121002B
:102880005208A1005108A000A531CD259031A531F5
:10289000AB25903121006008A1005F08A000A531A0
:1028A000D2259031A531B1259031A631F026903155
:1028B00002302100A600B530A5005930890B5E2CEE
:1028C000A50B5E2CA60B5E2C0032A631F0269031B3
:1028D00002302100A600B530A5005930890B6E2CBE
:1028E000A50B6E2CA60B6E2C00328331E1239031A8
:1028F00002302100A600B530A5005930890B7E2C8E
:10290000A50B7E2CA60B7E2C0032A631CA26903158
:1029100002302100A6005730A500D830890B8E2C3C
:10292000A50B8E2CA60B8E2C0000A631CA2690314A
:1029300002302100A6005730A500D830890B9E2C0C
:10294000A50B9E2CA60B9E2C0000A631CA2690310A
:102950003F302100A5005530890BAC2CA50BAC2CC9
:10296000A531B425903107302100A6001730A5000D
:102970006A30890BB92CA50BB92CA60BB92C000019
:10298000A531AE25903121005608A1005508A000C0
:10299000A531CD259031A531AB259031A531B42598
:1029A000903121006608A1006508A000A531D2255C
:1029B0009031A531B12590318331E123903102303E
:1029C0002100A600B530A5005930890BE52CA50BD8
:1029D000E52CA60BE52C0032A631F026903105300F
:1029E0002100A6003930A5007F30890BF52CA50BFE
:1029F000F52CA60BF52C0032A531AE259031210027
:102A00002A08A1002908A000A531CD259031A531C3
:102A1000AB259031A631F026903104302100A6007C
:102A20008830A500E130890B132DA50B132DA60BC3
:102A3000132DA531AE25903121002C08A1002B08C3
:102A4000A000A531CD259031A531AB259031A6311F
:102A5000F026903102302100A600B530A500593093
:102A6000890B302DA50B302DA60B302D0032A63151
:102A7000F026903103302100A600B930A5001630B1
:102A8000890B402DA50B402DA60B402D0000A53134
:102A9000AE25903121003008A1002F08A000A531FB
:102AA000CD259031A531AB2590318331E123903193
:102AB00002302100A600B530A5005930890B5E2DEB
:102AC000A50B5E2DA60B5E2D0032A631F0269031AF
:102AD00003302100A6003230A5000530890B6E2D91
:102AE000A50B6E2DA60B6E2D0032A531AE259031B3
:102AF00021003408A1003308A000A531CD25903174
:102B0000A531AB259031A631F0269031023021005D
:102B1000A600E930A5004C30890B8C2DA50B8C2D1F
:102B2000A60B8C2D0000A531B425903121006E0834
:102B3000A1006D08A000A531D2259031A531B125A5
:102B400090318331E123903102302100A600B5306D
:102B5000A5005930890BAA2DA50BAA2DA60BAA2DCD
:102B600000328331E123903104302100A6007E3011
:102B7000A5007D30890BBA2DA50BBA2DA60BBA2D59
:102B8000A531B425903121004208A1004108A000E0
:102B9000A531D2259031A531B1259031A631F0264D
:102BA000903134302100A500F130890BD52DA50BD3
:102BB000D52D0032A531AE25903104302100A6007C
:102BC000DB30A500FF30890BE32DA50BE32DA60B11
:102BD000E32DA531B425903121004408A10043081C
:102BE000A000A531D2259031A531B1259031A63173
:102BF000F026903103302100A600B930A500163030
:102C0000890B002EA50B002EA60B002E0000210024
:102C10003408A1003308A000A531CD259031A5319D
:102C2000AB259031A631F026903103302100A6006B
:102C3000B930A5001630890B1B2EA50B1B2EA60B39
:102C40001B2E0000A531B425903121004808A100B9
:102C50004708A000A531D2259031A531B12590318A
:102C60008331E1239031C6302100A5006530890B06
:102C7000372EA50B372E0032A531AE25903121001D
:102C80003E08A1003D08A000A531CD259031A53119
:102C9000AB259031A631F026903103302100A600FB
:102CA000B930A5001630890B532EA50B532EA60B59
:102CB000532E0000A531B425903121004E08A1000B
:102CC0004D08A000A531D2259031A531B125903114
:102CD000A631F0269031A531AE2590310430210087
:102CE000A600BC30A500D330890B742EA50B742E22
:102CF000A60B742E003221003E08A1003D08A00062
:102D0000A531CD259031A531AB259031A531B42524
:102D1000903121004C08A1004B08A000A531D2251C
:102D20009031A531B12590318331E12390310230CA
:102D30002100A600B530A5005930890B9D2EA50BAA
:102D40009D2EA60B9D2E0032A631F0269031033029
:102D50002100A6008530A5002330890BAD2EA50BE0
:102D6000AD2EA60BAD2E0032A631F02690310330E9
:102D70002100A6008530A5002330890BBD2EA50BB0
:102D8000BD2EA60BBD2E0032A631F02690310330A9
:102D90002100A6008530A5002330890BCD2EA50B80
:102DA000CD2EA60BCD2E0032A631F0269031033069
:102DB0002100A6008530A5002330890BDD2EA50B50
:102DC000DD2EA60BDD2E00328331E123903102305F
:102DD0002100A600AA30A500F630890BED2EA50B28
:102DE000ED2EA60BED2E0000A531B425903121006B
:102DF0004208A1004108A000A531D2259031A5319B
:102E0000B1259031A631F026903102302100A60084
:102E1000B530A5005930890B0B2FA50B0B2FA60B36
:102E20000B2F0032A631F026903105302100A6008C
:102E3000C030A5009030890B1B2FA50B1B2FA60BB4
:102E40001B2F0000A531AE25903121003C08A100C8
:102E50003B08A000A531CD259031A531AB2590319F
:102E6000A531B425903121006408A1006308A000B9
:102E7000A531D2259031A531B1259031A631F0266A
:102E8000903102302100A600B530A5005930890BE1
:102E9000472FA50B472FA60B472F00328331E12385
:102EA000903102302100A600B530A5005930890BC1
:102EB000572FA50B572FA60B572F0032A631F02600
:102EC000903102302100A600B530A5005930890BA1
:102ED000672FA50B672FA60B672F00328331E123E5
:102EE000903102302100A600B530A5005930890B81
:102EF000772FA50B772FA60B772F0032A631F02660
:102F0000903102302100A6005730A500D830890B3F
:102F1000872FA50B872FA60B872F0000A631CA2667
:102F2000903102302100A6005730A500D830890B1F
:102F3000972FA50B972FA60B972F0000A73141279E
:102F40009031D0302100A500C930890BA52FA50BE9
:102F5000A52F0032A7314127903102302100A60071
:102F6000B530A5005930890BB32FA50BB32FA60B95
:102F7000B32F0032A631F026903102302100A60096
:102F80005730A500D830890BC32FA50BC32FA60B34
:102F9000C32F0000A631CA26903102302100A600BE
:102FA0005730A500D830890BD32FA50BD32FA60BF4
:102FB000D32F0000A631CA26903102302100A6008E
:102FC0005730A500D830890BE32FA50BE32FA60BB4
:102FD000E32F0000A631CA269031A531B4259031E7
:102FE000A531AE25903105302100A6000F30A50097
:102FF000F130890BF92FA50BF92FA60BF92F08003B
:103000003E3400343A34003438340034343400343C
:10301000313400342E3400342C340034293400345C
:103020002734003425340034233400342134003470
:103030007E34003476340034703400346934003423
:10304000633400345E340034583400345334003474
:103050004F3400344A3400344634003442340034AF
:10306000FC340034EE340034E0340034D434003422
:10307000C8340034BD340034B2340034A8340034D1
:103080009E340034953400348D340034853400345B
:103090003E3400343A3400343834003434340034AC
:1030A000313400342E3400342C34003429340034CC
:1030B00027340034253400342334003421340034E0
:1030C0007E34003476340034703400346934003493
:1030D000633400345E3400345834003453340034E4
:1030E0004F3400344A34003446340034423400341F
:1030F000FC340034EE340034E0340034D434003492
:10310000C8340034BD340034B2340034A834003440
:103110009E340034953400348D34003485340034CA
:103120003E3400343A34003438340034343400341B
:10313000313400342E3400342C340034293400343B
:10314000273400342534003423340034213400344F
:1031500003302100A600B930A5001630890BAE2837
:10316000A50BAE28A60BAE280000A531AE259831E0
:1031700021005208A1005108A000A531CD259831A9
:10318000A531AB259831A531B425983121006E08C1
:10319000A1006D08A000A531D2259831A531B12537
:1031A00098318331E123983102302100A600E930C3
:1031B000A5004C30890BDA28A50BDA28A60BDA28F3
:1031C0000000A531AE25983121005008A1004F081C
:1031D000A000A531CD259831A531AB259831A63178
:1031E000F026983105302100A6001A30A500543091
:1031F000890BF828A50BF828A60BF8280000A531A4
:10320000AE25983121004208A1004108A000A53157
:10321000CD259831A531AB259831A631F0269831CE
:10322000E5302100A5009130890B1429A50B142944
:10323000A531B425983121005608A1005508A000F9
:10324000A531D2259831A531B12598318331E123BB
:1032500098319031222804302100A6005430A50076
:10326000EE30890B3129A50B3129A60B312900003D
:10327000A531AE25993121006E08A1006D08A0008E
:10328000A531CD259931A531AB259931A631F0264F
:10329000993102302100A600B530A5005930890BC4
:1032A0004F29A50B4F29A60B4F290032A631F02636
:1032B000993102302100A600B530A5005930890BA4
:1032C0005F29A50B5F29A60B5F2900320230210080
:1032D000A6006C30A5009F30890B6C29A50B6C29CA
:1032E000A60B6C2900328331E12399310230210091
:1032F000A6006C30A5009F30890B7C29A50B7C298A
:10330000A60B7C2900327D302100A500AB30890B53
:103310008729A50B87290032A531AE2599312100D7
:103320004808A1004708A000A531CD259931A53155
:10333000AB259931A631F026993102302100A60043
:10334000B530A5005930890BA329A50BA329A60BDD
:10335000A3290032A631F02699319E31EC2E90310E
:10336000002099310230F600B530F5005A30890B53
:10337000B729F50BB729F60BB72990310020993101
:103380000230F600B530F5005A30890BC529F50B2F
:10339000C529F60BC52984319B2499310430F600E8
:1033A0005F30F5005230890BD329F50BD329F60B8A
:1033B000D329A5319C259931A531A2259931200029
:1033C0004108F1004008F000A531BD259931A53133
:1033D0009925993120005D08F1005C08F000A531C5
:1033E000C1259931A5319F2599319031002099311E
:1033F0000230F600B530F5005A30890BFD29F50B87
:10340000FD29F60BFD299031002099310330F6009B
:10341000B930F5001630890B0B2AF50B0B2AF60B89
:103420000B2A0032A531A2259931A5319C2599316D
:1034300020006108F1006008F000A531BD25993138
:10344000A5319925993120005D08F1005C08F00054
:10345000A531C1259931A5319F25993184319B240E
:1034600099318531DD2DA53199259A31A531A225D6
:103470009A3120005508F1005408F000A531C1250B
:103480009A31A5319F259A31903100209A3104302C
:10349000F6008830F500E130890B4C2AF50B4C2AF8
:1034A000F60B4C2A0000A5319C259A3120006708B4
:1034B000F1006608F000A531BD259A31A5319925A6
:1034C0009A31A531A2259A3120005308F100520803
:1034D000F000A531C1259A31A5319F259A3184315B
:1034E0009B249A310230F600B530F5005A30890B32
:1034F000772AF50B772AF60B772A903100209A313C
:103500000230F600B530F5005A30890B852AF50BEC
:10351000852AF60B852A903100209A310430F60076
:103520005F30F5005230890B932AF50B932AF60B86
:10353000932AA5319C259A31A531A2259A312000E4
:103540006308F1006208F000A531BD259A31A5316C
:1035500099259A3120005908F1005808F000A5314A
:10356000C1259A31A5319F259A319931AF29B830BB
:10357000860001308700503084000030850018300C
:10358000F50016001A00F50BC12AA03086000130A4
:10359000870038308400003085001830F5001600B0
:1035A0001A00F50BCF2A50308600023087002030F9
:1035B0008400003085001830F50016001A00F50B65
:1035C000DD2AA5319C259A3120003B08F1003A08FC
:1035D000F000A531BD259A31A53199259A31A53143
:1035E000A2259A3120005308F1005208F000A531BD
:1035F000C1259A31A5319F259A3184319B249A3176
:103600000230F600B530F5005A30890B052BF50B6A
:10361000052BF60B052B903100209A310230F60075
:10362000B530F5005A30890B132BF50B132BF60B25
:10363000132B903100209A310430F6005430F500FD
:10364000EE30890B212BF50B212BF60B212B0032B1
:10365000A5319C259A3120006708F1006608F0002A
:10366000A531BD259A31A53199259A319031002097
:103670009A319D31522DB830860001308700D73005
:1036800084000030850018302100A50016001A00C3
:10369000A50B462BA030860001308700BF30840088
:1036A000003085001830A50016001A00A50B542B19
:1036B0005030860002308700A7308400003085003B
:1036C0001830A50016001A00A50B622BA531AE25F7
:1036D0009B3121004208A1004108A000A531CD2561
:1036E0009B31A531AB259B31A531B4259B31210000
:1036F0005A08A1005908A000A531D2259B31A53157
:10370000B1259B318331E1239B3102302100A6009A
:10371000B530A5005930890B8B2BA50B8B2BA60B35
:103720008B2B0032A631F0269B3102302100A600FF
:10373000B530A5005930890B9B2BA50B9B2BA60BF5
:103740009B2B0032A631F0269B3104302100A600CD
:103750005430A500EE30890BAB2BA50BAB2BA60B81
:10376000AB2B0000A531AE259B3121006E08A100D6
:103770006D08A000A531CD259B319B31BF2BA53114
:10378000AB259B31A631F0269B3102302100A600EB
:10379000B530A5005930890BCB2BA50BCB2BA60B35
:1037A000CB2B0032A631F0269B3102302100A6003F
:1037B000B530A5005930890BDB2BA50BDB2BA60BF5
:1037C000DB2B003203302100A600D830A5004130A9
:1037D000890BE82BA50BE82BA60BE82B00328331D5
:1037E000E1239B317D302100A500AB30890BF62B06
:1037F000A50BF62B0032A531AE259B3121004808E0
:10380000A1004708A000A531CD259B31A531AB25EE
:103810009B31A631F0269B3102302100A600B53045
:10382000A5005930890B122CA50B122CA60B122CBB
:103830000032A631F0269B3103302100A600B930BA
:10384000A5001630890B222CA50B222CA60B222CAE
:103850000000A531AE259B3121004208A10041089E
:10386000A000A531CD259B31A531AB259B31A531DC
:10387000B4259B3121006008A1005F08A000A5319C
:10388000D2259B319C31CA2C0230F600B530F500B0
:103890005A30890B492CF50B492CF60B492C9031E9
:1038A00000209C310330F600B930F5001630890B4A
:1038B000572CF50B572CF60B572C0032A5319C25B5
:1038C0009C3120006708F1006608F000A531BD2595
:1038D0009C31A53199259C31903100209C310230DA
:1038E000F600B530F5005A30890B742CF50B742CAA
:1038F000F60B742C903100209C310230F600B5306C
:10390000F5005A30890B822CF50B822CF60B822C99
:1039100084319B249C313430F500F230890B8E2C9D
:10392000F50B8E2CA531A2259C31A5319C259C310F
:1039300020006108F1006008F000A531BD259C3130
:10394000A53199259C3120005908F1005808F00054
:10395000A531C1259C31A5319F259C319031002096
:103960009C310430F6008830F500E130890BB62C2C
:10397000F50BB62CF60BB62C0000A5319C259C311E
:1039800020006308F1006208F000A531BD259C31DC
:103990009A31332AA531B1259C318331E1239C3101
:1039A00002302100A600B530A5005930890BD62C75
:1039B000A50BD62CA60BD62C00328331E1239C31EB
:1039C00002302100A600B530A5005930890BE62C45
:1039D000A50BE62CA60BE62C0032A631F0269C3176
:1039E00003302100A600B930A5001630890BF62C53
:1039F000A50BF62CA60BF62C0000A531AE259C31AC
:103A000021006E08A1006D08A000A531CD259C31D4
:103A1000A531AB259C31A631F0269C310230210026
:103A2000A600B530A5005930890B142DA50B142D17
:103A3000A60B142D0032A631F0269C310230210055
:103A4000A600B530A5005930890B242DA50B242DD7
:103A5000A60B242D00328331E1239C313430210028
:103A6000A500F130890B322DA50B322D0032A53186
:103A7000B4259C31A531AE259C3121006808A100F8
:103A80006708A000A531CD259C31A531AB259C311F
:103A900021006008A1005F08A000A531D2259C315B
:103AA00086316D2E0230F600B530F5005A30890BA4
:103AB000572DF50B572DF60B572D903100209D31CA
:103AC0000230F600B530F5005A30890B652DF50B44
:103AD000652DF60B652D0330F600D830F500423029
:103AE000890B702DF50B702DF60B702D84319B24F6
:103AF0009D317D30F500AC30890B7C2DF50B7C2D94
:103B0000A5319C259D3120004108F1004008F000BE
:103B1000A531BD259D31A53199259D3190310020DC
:103B20009D310230F600B530F5005A30890B962DE4
:103B3000F50B962DF60B962D903100209D3103301C
:103B4000F600B930F5001630890BA42DF50BA42D25
:103B5000F60BA42D0032A5319C259D3120003B0899
:103B6000F1003A08F000A531BD259D31A531992518
:103B70009D31A531A2259D3120005908F10058083A
:103B8000F000A531C1259D31A5319F259D3184319E
:103B90009B249D310230F600B530F5005A30890B78
:103BA000CF2DF50BCF2DF60BCF2D84319B249D31DE
:103BB0009C31442C0230F6006C30F500A030890BAB
:103BC000DF2DF50BDF2DF60BDF2D7D30F500AC3052
:103BD000890BE82DF50BE82DA5319C259D312000A2
:103BE0004108F1004008F000A531BD259D31A53107
:103BF00099259D31903100209D310230F600B5307D
:103C0000F5005A30890B022EF50B022EF60B022E10
:103C1000903100209D310530F600C030F500903025
:103C2000890B102EF50B102EF60B102E0032A5313D
:103C30009C259D3120004508F1004408F000A53185
:103C4000BD259D31A53199259D31A531A2259D31F7
:103C500020005908F1005808F000A531C1259D3118
:103C6000A5319F259D3184319B249D310230F60082
:103C7000B530F5005A30890B3B2EF50B3B2EF60B79
:103C80003B2E84319B249D310230F600B530F50087
:103C90005A30890B492EF50B492EF60B492E9031DF
:103CA00000209D310430F6005430F500EE30890BD1
:103CB000572EF50B572EF60B572E0032A5319C25AB
:103CC0009D318831082802302100A600B530A500BA
:103CD0005930890B692EA50B692EA60B692E00326F
:103CE000A631CA269E3102302100A6005730A50019
:103CF000D830890B792EA50B792EA60B792E0000D2
:103D0000A631CA269E3102302100A6005730A500F8
:103D1000D830890B892EA50B892EA60B892E000081
:103D2000A631CA269E313F302100A5005530890BAF
:103D3000972EA50B972EA531AE259E310730210079
:103D4000A600B330A5004230890BA42EA50BA42EEB
:103D5000A60BA42E0000A531AE259E3121004208FD
:103D6000A1004108A000A531CD259E31A531AB258C
:103D70009E31A531B4259E3121005A08A100590871
:103D8000A000A531D2259E31A531B1259E318331C8
:103D9000E1239E3102302100A600B530A500593044
:103DA000890BD02EA50BD02EA60BD02E0032A6311B
:103DB000F0269E3102302100A600B530A500593012
:103DC000890BE02EA50BE02EA60BE02E0032A631CB
:103DD000F0269E3199312B2905302100A600C030F4
:103DE000A5009030890BF22EA50BF22EA60BF22E19
:103DF0000000A531AE259E3121004C08A1004B08E2
:103E0000A000A531CD259E31A531AB259E31A53130
:103E1000B4259E3121006008A1005F08A000A531F3
:103E2000D2259E31A531B1259E318331E1239E31CA
:103E300002302100A600B530A5005930890B1E2F95
:103E4000A50B1E2FA60B1E2F00328331E1239E31BE
:103E500002302100A600B530A5005930890B2E2F65
:103E6000A50B2E2FA60B2E2F0032A631F0269E3149
:103E700004302100A6005430A500EE30890B3E2FFF
:103E8000A50B3E2FA60B3E2F0000A531AE259E317F
:103E900021004808A1004708A000A531CD259E318A
:103EA000A531AB259E31A531B4259E312100640892
:103EB000A1006308A000A531D2259E31A531B1250E
:103EC0009E31A631F0269E3102302100A600B53089
:103ED000A5005930890B6A2FA50B6A2FA60B6A2FF4
:103EE0000032A631F0269E319831A828A531AE25A2
:103EF0009F3121006808A1006708A000A531CD25E9
:103F00009F31A531AB259F3121006408A1006308D2
:103F1000A000A531D2259F31A531B1259F31833134
:103F2000E1239F3102302100A600B530A5005930B1
:103F3000890B982FA50B982FA60B982F0032833151
:103F4000E1239F3102302100A600B530A500593091
:103F5000890BA82FA50BA82FA60BA82F0032A631DE
:103F6000F0269F3103302100A600E230A500A530E5
:103F7000890BB82FA50BB82FA60BB82F0032A5318F
:103F8000AE259F31A531B4259F3121006A08A100DB
:103F90006908A000A531CD259F31A531AB259F3102
:103FA00021006008A1005F08A000A531D2259F3143
:103FB000A531B1259F31A631F0269F310230210075
:103FC000A600B530A5005930890BE42FA50BE42FCE
:103FD000A60BE42F0032A631F0269F3102302100DB
:103FE000A600B530A5005930890BF42FA50BF42F8E
:103FF000A60BF42F00328331E1239F319E31632ED3
:104B320020001F15080020001F110800280017156B
:104B4200080028001711080028001E150800280078
:104B52001E11080020001F15080020001F11080068
:104B620028001715080028001711080028001E1534
:104B7200080028001E110800700820009E0008008E
:104B82007008280096000800700828009D000800A0
:104B920021009115111508002100200820009E0017
:104BA20008002100200828009600080021002008A3
:104BB20028009D00080021002108F8002008F700C5
:104BC2000800640080010131890BE32D00348F302D
:104BD2002500930092017F30910003309F0408006A
:104BE200210021082000EB00210020082000EA001B
:104BF2000800210021082000E900210020082000EF
:104C0200E80008006030320099009B019D010730E6
:104C12009F009E019C010800210020082104031925
:104C2200132E142E182E2108FA002008F90008006D
:104C320080302C0099001F309800C03097001F0868
:104C4200FC3901389F00080080302C009C001F3086
:104C52009B00C0309A001F08F33908389F000800F3
:104C62003F3020009E009D01911007309F000030D0
:104C72002100A0000030A100A531DC25A6310800EA
:104C8200A6318C26A6312100101620001012101019
:104C920081313821A6319B313B23A6318031C9288D
:104CA2003F3028009600950120009210073028001E
:104CB200970000302100A0000030A100A531F125AD
:104CC200A63108003F3028009D009C01200092136D
:104CD200073028009E0000302100A0000030A10013
:104CE200A531FA25A631080080302400940008304E
:104CF2009500960197014F309200A531C925A63142
:104D020000302100A0000030A100A6310D26A631FE
:104D1200240095160800A6310326A631873185277F
:104D2200A631A6317526A631A531E825A631A631D0
:104D32001926A631A6312526A631A6313126A6315D
:104D4200A6315126A631A6316326A631080080304D
:104D5200F3000030F400A531A825A6317408F10053
:104D62007308F000A531C525A631A531A525A631C8
:104D72000B30F2006230890BBC2EF20BBC2E0032DB
:104D8200FC30F307FF30F43DF41FC82EC92EAC2EC1
:104D9200080080302100A3000030A400A531BA250C
:104DA200A63121002408A1002308A000A531D7259F
:104DB200A631A531B725A6310B302100A200623001
:104DC200890BE12EA20BE12E0000FC302100A3078B
:104DD200FF30A43DA41FEE2EEF2ECF2E0800FF3091
:104DE2002100A3000030A400A531BA25A63121007C
:104DF2002408A1002308A000A531D725A631A5319A
:104E0200B725A6310B302100A2006230890B072F93
:104E1200A20B072F0000FE302100A307FF30A43DA4
:104E2200A41F142F152FF52E08008030F300003038
:104E3200F400A531A825A7317408F1007308F00029
:104E4200A531C525A731A531A525A7310B30F20023
:104E52006230890B2A2FF20B2A2F00320430F3071B
:104E62000030F43D7408803AF20081307202031D72
:104E72003C2F01307302031C3F2F402F1A2F0800D2
:104E820080302100A3000030A400A531BA25A7314B
:104E920021002408A1002308A000A531D725A731AD
:104EA200A531B725A7310B302100A2006230890B52
:104EB200582FA20B582F000004302100A307003006
:104EC200A43D2408803AA20081302202031D6B2FE8
:104ED20001302302031C6E2F6F2F462F08007E34F1
:104EE200003476340034703400346934003463346E
:104EF20000345E34003458340034533400344F34B8
:104F020000344A3400344634003442340034FC3431
:104F12000034EE340034E0340034D4340034C83485
:104F22000034BD340034B2340034A83400349E342A
:104F32000034953400348D340034853400343E34EA
:104F420000343A34003438340034343400343134E8
:104F520000342E3400342C34003429340034273405
:104F620000342534003423340034213400347E34B8
:104F720000347634003470340034693400346334DD
:104F820000345E34003458340034533400344F3427
:104F920000344A3400344634003442340034FC34A1
:104FA2000034EE340034E0340034D4340034C834F5
:104FB2000034BD340034B2340034A83400349E349A
:104FC2000034953400348D340034853400343E345A
:104FD20000343A3400343834003434340034313458
:104FE20000342E3400342C34003429340034273475
:104FF2000034253400342334003421340034753431
:1050020026340034003400340034003400340034D8
:1050120000340034003400340034003400340D34E1
:1050220026340034003400340034003400340034B8
:1050320000340034003400340034003400340034CE
:10504200003400340034003400342A3400342A346A
:1050520000342A340034353402342C3401342C34F4
:0E50620001342C3401342C3401342A3400344F
:020000040001F9
:08000E008F3EF33FFF3FFF3F6F
:02E00000FF001F
:00000001FF
