:100000008031C928023401347E1480312000101E52
:100010000A280B28C5282700111C0F281028122891
:10002000200010122700911C1628172819282000DC
:1000300010122700111D1D281E2820282000101234
:1000400020000C1C2428252872280E1E2828292868
:100050003E280E1F2C282D283E28AA31B722803199
:100060002700941E34283528372820001012270036
:10007000941F3B283C283E282000101220000E1E12
:100080004228432851282700941E472848284A28F8
:10009000200010122700941F4E284F2851282000BE
:1000A000101220000E1F5528562864282700941E81
:1000B0005A285B285D28200010122700941F612811
:1000C00062286428200010122700941E68286928DE
:1000D0006B28200010122700941F6F2870287228A8
:1000E0002000101220008C18762877287B280C1D01
:1000F0007A287B28C5280E1E7E287F2891280E1F6F
:100100008228832891282700941E872888288A28F7
:10011000200010122700941F8E288F28912820007D
:10012000101220000E1E95289628A4282700941E41
:100130009A289B289D28200010122700941FA12890
:10014000A228A4282000101220000E1FA828A928E9
:10015000B7282700941EAD28AE28B0282000101222
:100160002700941FB428B528B728200010122700B4
:10017000941EBB28BC28BE28200010122700941F04
:10018000C228C328C52820001012200010127E109B
:1001900009008031CB28803102208031FC00803181
:1001A00003208031FD00883100208031EC0088314F
:1001B00001208031ED00BE308400B6308500A030D3
:1001C00086000130870030308831022080310E30C7
:1001D0008400983085002030860002308700483047
:1001E00088310220803107308400A0308500A030A3
:1001F0008600023087004830883102208031363056
:100200008400B730850020308600033087004830F6
:10021000883102208031EE308400B6308500A03075
:100220008600033087004830883102208031043056
:100230008400B630850020308600043087001830F6
:10024000883102208031F701F801F901FA01FB0140
:10025000E801E901EA01EB01D030840001308500BA
:100260002030A031012080317E102000B531B92D21
:10027000B830860002308700BC3084000030850032
:1002800018302100A20016001A00A20B4329A0304A
:10029000860002308700D43084000030850018309A
:1002A000A20016001A00A20B51295030860003301C
:1002B0008700A4308400003085001830A2001600AA
:1002C0001A00A20B5F29B5313C258131210061085C
:1002D000A1006008A000B53157258131B53139251D
:1002E0008131B5314225813121004908A1004808FA
:1002F000A000B5315C258131B5313F2581310C300D
:100300002100A300C530A200F330890B8529A20B80
:100310008529A30B8529B5313C25813121006B0846
:10032000A1006A08A000B53157258131B5313925C2
:100330008131B5314225813168302100A200E4309D
:10034000890BA029A20BA029000021004908A100C7
:100350004808A000B5315C258131B5313F25813198
:10036000B5314825813121005708A1005608A00069
:10037000B53161258131B531452581310C30210000
:10038000A3005E30A2000D30890BC429A20BC42942
:10039000A30BC429B5313C25813121006708A10098
:1003A0006608A000B53157258131B5313925813135
:1003B000B5314225813121004F08A1004E08A0002F
:1003C000B5315C258131B5313F258131B5314825C5
:1003D0008131D0302100A200C930890BED29A20B58
:1003E000ED29003221005708A1005608A000B531C0
:1003F00061258131B5314525813107302100A300C8
:100400001730A2006A30890B032AA20B032AA30B20
:10041000032A0000B5313C25813121006508A10087
:100420006408A000B53157258131B53139258131B6
:1004300007302100A3001730A2006A30890B1E2A62
:10044000A20B1E2AA30B1E2A0000B5313C258131C8
:1004500021006108A1006008A000B5315725813155
:10046000B53139258131B531422581312100570817
:10047000A1005608A000B5315C258131B5313F257A
:100480008131B531482581310D302100A3002D3057
:10049000A200D730890B4A2AA20B4A2AA30B4A2A68
:1004A000003221005D08A1005C08A000B53157258D
:1004B0008131B53139258131B53142258131210074
:1004C0004508A1004408A000B5315C258131B53153
:1004D0003F2581310C302100A300C530A200F3304C
:1004E000890B702AA20B702AA30B702AB5313C2508
:1004F000813121006108A1006008A000B5315725B5
:100500008131B53139258131B531422581316830AC
:100510002100A200E430890B8B2AA20B8B2A000059
:1005200021004508A1004408A000B5315C258131B7
:10053000B5313F25813121005308A1005208A000A8
:10054000B53161258131B531452581310C3021002E
:10055000A3005E30A2000D30890BAC2AA20BAC2A9E
:10056000A30BAC2AB5313C25813121006508A100DF
:100570006408A000B53157258131B5313925813165
:10058000B5314225813121004D08A1004C08A00061
:10059000B5315C258131B5313F258131B5314825F3
:1005A0008131D0302100A200C930890BD52AA20B9D
:1005B000D52A003221005308A1005208A000B5310D
:1005C00061258131B531452581310D302100A300F0
:1005D0002D30A200D730890BEB2AA20BEB2AA30BFC
:1005E000EB2A0032B5313C25813121005D08A100A4
:1005F0005C08A000B53157258131B53139258131ED
:10060000B5314225813121005308A1005208A000D4
:10061000B5315C258131B5313F258131B531482572
:1006200081310D302100A3002D30A200D730890B7D
:10063000172BA20B172BA30B172B0032B5313C2520
:10064000813121006108A1006008A000B531572563
:100650008131B53139258131B531422581312100D2
:100660004908A1004808A000B5315C258131B531A9
:100670003F2581310C302100A3005E30A2000D30F7
:10068000890B402BA20B402BA30B402BB5313C25F3
:10069000813121002708A1002608A000B531572587
:1006A0008131B53139258131B53142258131D030A3
:1006B0002100A200C930890B5B2BA20B5B2B0032FF
:1006C00021004908A1004808A000B5315C2581310E
:1006D000B5313F25813121005708A1005608A000FF
:1006E000B53161258131B531452581310C3021008D
:1006F000A3005E30A2000D30890B7C2BA20B7C2B5B
:10070000A30B7C2BB5313C25813121006B08A10066
:100710006A08A000B53157258131B53139258131BD
:10072000B5314225813121004F08A1004E08A000BB
:10073000B5315C258131B5313F258131B531482551
:100740008131D0302100A200C930890BA52BA20B2A
:10075000A52B003221005708A1005608A000B53192
:1007600061258131B5314525813107302100A30054
:100770001730A2006A30890BBB2BA20BBB2BA30B3B
:10078000BB2B0000B5313C25813121002708A10099
:100790002608A000B53157258131B5313925813181
:1007A00007302100A3001730A2006A30890BD62B36
:1007B000A20BD62BA30BD62B0000B5313C258131E3
:1007C00021006708A1006608A000B53157258131D6
:1007D000B53139258131B5314225813121005708A4
:1007E000A1005608A000B5315C258131B5313F2507
:1007F0008131B5314825813107302100A300173000
:10080000A2006A30890B022CA20B022CA30B022C33
:100810000000B5313C25813121002708A1002608C0
:10082000A000B53157258131B531392581310730E7
:100830002100A3001730A2006A30890B1D2CA20BE7
:100840001D2CA30B1D2C0000B5313C25813121004E
:100850006508A1006408A000B53157258131B53184
:1008600039258131B5314225813121005308A1005C
:100870005208A000B5315C258131B5313F25813169
:10088000B5314825813121004508A1004408A00068
:10089000B53161258131B5314525813107302100E0
:1008A000A3001730A2006A30890B542CA20B542CE1
:1008B000A30B542C0000B5313C2581312100610887
:1008C000A1006008A000B53157258131B531392527
:1008D0008131B5314225813121005708A1005608E8
:1008E000A000B5315C258131B5313F258131B5316D
:1008F0004825813121004108A1004008A000B53100
:1009000061258131B5314525813107302100A300B2
:100910001730A2006A30890B8B2CA20B8B2CA30BF7
:100920008B2C0000B5313C25813121005D08A100F0
:100930005C08A000B53157258131B53139258131A9
:10094000B5314225813121005908A1005808A00085
:10095000B5315C258131B5313F258131B53148252F
:10096000813121003F08A1003E08A000B53161257A
:100970008131B531452581310D302100A3002D3065
:10098000A200D730890BC22CA20BC22CA30BC22C05
:100990000032B5313C25813121006108A100600899
:1009A000A000B53157258131B53139258131B531B7
:1009B0004225813121005708A1005608A000B53119
:1009C0005C258131B5313F258131B53148258131F3
:1009D00021004908A1004808A000B53161258131F6
:1009E000B5314525813118302100A3008A30A2009D
:1009F000E730890BF92CA20BF92CA30BF92C003250
:100A0000B5313C258131B53142258131B53148259B
:100A100081310800B5314825853180302100A000A2
:100A20000030A100B53161258531B53145258531CD
:100A30000B302100A2006230890B1C2DA20B1C2D53
:100A40000000B5314825853164302100A000003018
:100A5000A100B53161258531B531452585310B3092
:100A60002100A2006230890B332DA20B332D000030
:100A7000B5314825853150302100A0000030A1005B
:100A8000B53161258531B531452585310B302100E2
:100A9000A2006230890B4A2DA20B4A2D0000B5310D
:100AA0004825853132302100A0000030A100B53149
:100AB00061258531B531452585310B302100A200F6
:100AC0006230890B612DA20B612D0000B5314825E4
:100AD00085311E302100A0000030A100B531612514
:100AE0008531B531452585310B302100A2006230BA
:100AF000890B782DA20B782D00002100A301A40101
:100B0000B5314825853121002408A1002308A00023
:100B1000B53161258531B531452585310B30210051
:100B2000A2006230890B922DA20B922D00000230A0
:100B30002100A3070030A43D2408803AA2008130A0
:100B40002202031DA52D00302302031CA82DA92D70
:100B5000802DB53148258531FF302100A0000030BF
:100B6000A100B53161258531B53145258531683024
:100B70002100A200E430890BBB2DA20BBB2D00008D
:100B8000B531482585310800B531362585318030AD
:100B9000F0000030F100B53153258531B5313325F2
:100BA00085310B30F2006230890BD42DF20BD42D3D
:100BB0000032B531362585316430F0000030F10067
:100BC000B53153258531B531332585310B30F200F0
:100BD0006230890BE92DF20BE92D0032B531362553
:100BE00085315030F0000030F100B53153258531AA
:100BF000B531332585310B30F2006230890BFE2D83
:100C0000F20BFE2D0032B531362585313230F00041
:100C10000030F100B53153258531B53133258531AB
:100C20000B30F2006230890B132EF20B132E0032C0
:100C3000B531362585311E30F0000030F100B53178
:100C400053258531B531332585310B30F2006230C3
:100C5000890B282EF20B282E0032F301F401B53156
:100C6000362585317408F1007308F000B53153253D
:100C70008531B531332585310B30F2006230890B77
:100C80003F2EF20B3F2E00320230F3070030F43DCE
:100C90007408803AF20081307202031D512E003038
:100CA0007302031C542E552E2F2EB5313625853157
:100CB000FF30F0000030F100B53153258531B531FA
:100CC000332585316830F200E430890B652EF20B54
:100CD000652E0032B5313625853108003F30F500EC
:100CE0005530890B712EF50B712E0000B5312A2578
:100CF00086310730F600B330F5004230890B7E2E86
:100D0000F50B7E2EF60B7E2E0032B5312A2586316C
:100D100020003B08F1003A08F000B5314B25863140
:100D2000B53127258631B53130258631200053086D
:100D3000F1005208F000B5314F258631B5312D252F
:100D400086318531C42586310230F600B530F50094
:100D50005A30890BA92EF50BA92EF60BA92E90312E
:100D6000002086310230F600B530F5005A30890B8C
:100D7000B72EF50BB72EF60BB72E9031002086312B
:100D80000430F6005430F500EE30890BC52EF50B1B
:100D9000C52EF60BC52E0032B5312A25863120002E
:100DA0006708F1006608F000B5314B258631B53192
:100DB000272586319031002086310230F600B5308B
:100DC000F5005A30890BE22EF50BE22EF60BE22EDF
:100DD0009031002086310230F600B530F5005A30EF
:100DE000890BF02EF50BF02EF60BF02E0230F600EC
:100DF0006C30F500A030890BFB2EF50BFB2EF60BAB
:100E0000FB2E8531C4258631AD31DA2D0230F60056
:100E1000B530F5005A30890B0B2FF50B0B2FF60B65
:100E20000B2F8531C42587310230F600B530F5002F
:100E30005A30890B192FF50B192FF60B192F9031FA
:100E4000002087310330F600E230F500A630890B30
:100E5000272FF50B272FF60B272FB5312A258731A2
:100E6000B5313025873120006308F1006208F000B9
:100E7000B5314B258731B5312725873120005908F9
:100E8000F1005808F000B5314F258731B5312D25D7
:100E900087319031002087310230F600B530F500FF
:100EA0005A30890B512FF50B512FF60B512F9031E2
:100EB000002087310230F600B530F5005A30890B3A
:100EC0005F2FF50B5F2FF60B5F2F8531C425873120
:100ED0000230F600B530F5005A30890B6D2FF50B56
:100EE0006D2FF60B6D2FB6311C2687310230F600C0
:100EF0005730F500D830890B7B2FF50B7B2FF60B85
:100F00007B2F0032B6311C2687310230F600573075
:100F1000F500D830890B8A2FF50B8A2FF60B8A2F14
:100F20000032B6311C26873186316E2E22008C01AC
:100F300050308D008E011F3021008C00F0308D006C
:100F4000C0308E00103023008C008D0138308E00B0
:100F500024008C018D018E0125008C018D018E01F4
:100F6000373026008C00F0308D00FF308E003F308F
:100F700027008C00F0308D00FF308E0002303D00E5
:100F8000A5000330A3000E303C00A00018303D0047
:100F90009E000C303C00A10019303D009C00143034
:100FA0003C0094000C303D00A40027009101920108
:100FB0009301940195019601970198019901080008
:100FC000B53187258731873196278731B531ED25B2
:100FD0008731B5316C258731B5319D258731983101
:100FE00002208731B531A9258731B531C92587312F
:100FF000B531DB2587310800210091151115080056
:1010000068340034FE0012001E00FE0B032800347A
:1010100020004108F1004008F000B5314B2588312F
:10102000B53127258831B5313025883120005D085C
:10103000F1005C08F000B5314F258831B5312D2520
:1010400088319031002088310230F600B530F5004B
:101050005A30890B2928F50B2928F60B29289031BD
:10106000002088310330F600B930F5001630890BC6
:101070003728F50B3728F60B37280032B5312A25EB
:10108000883120004B08F1004A08F000B5314B25AB
:101090008831B53127258831B53130258831200098
:1010A0006708F1006608F000B5314F258831B53189
:1010B0002D2588318531C42588310230F600E9308C
:1010C000F5004C30890B6228F50B6228F60B62287C
:1010D0000032B5312A25883120004908F10048083E
:1010E000F000B5314B258831B53127258831903155
:1010F000002088310530F6001A30F5005430890B95
:101100007F28F50B7F28F60B7F280032B5312A2582
:10111000883120003B08F1003A08F000B5314B253A
:101120008831B53127258831903100208831E5306C
:10113000F5009130890B9A28F50B9A280000B531FB
:101140003025883120004F08F1004E08F000B531FD
:101150004F258831B5312D2588318531C425883119
:101160000230F600B530F5005A30890BB528F50B82
:10117000B528F60BB5289031002088310230F600F2
:10118000B530F5005A30890BC328F50BC328F60B90
:10119000C3289031002088310430F6005430F50027
:1011A000EE30890BD128F50BD128F60BD12800326F
:1011B000B5313025883120002308F1002208F000E5
:1011C000B5314F258831B5312D258831903100203A
:1011D00088310230F600B530F5005A30890BEE2820
:1011E000F50BEE28F60BEE28903100208831023006
:1011F000F600B530F5005A30890BFC28F50BFC28B9
:10120000F60BFC288531C42588310430F6005430B3
:10121000F500EE30890B0A29F50B0A29F60B0A298D
:101220000032B5313025883120004F08F1004E08DA
:10123000F000B5314F258831B5312D2588319031F9
:10124000002088310230F600B530F5005A30890BA5
:101250002729F50B2729F60B272990310020883103
:10126000B130F5009E30890B3329F50B332900325C
:10127000B531302588310530F6000F30F500F130FA
:10128000890B4029F50B4029F60B4029000020006E
:101290004F08F1004E08F000B5314F258831B531C7
:1012A0002D2588318531C42588310230F600B530CE
:1012B000F5005A30890B5A29F50B5A29F60B5A2991
:1012C0008531C42588310230F600B530F5005A303A
:1012D000890B6829F50B6829F60B682990310020E5
:1012E00088310330F600E230F500A630890B76290C
:1012F000F50B7629F60B7629B5313025883120009B
:101300004D08F1004C08F000B5314F258831B5315A
:101310002D2588319031002088310230F600B5301B
:10132000F5005A30890B9229F50B9229F60B922978
:10133000903100208831D030F500CA30890B9E29C9
:10134000F50B9E29B6311C268831D030F500CA3005
:10135000890BA829F50BA829B6311C26883107303E
:10136000F6009E30F5007B30890BB429F50BB429CB
:10137000F60BB4290000B53130258831200049082A
:10138000F1004808F000B5314F258831B5312D25E1
:101390008831903100208831D030F500CA30890B77
:1013A000CF29F50BCF29B6311C268831D030F50076
:1013B000CA30890BD929F50BD929B6311C268831B9
:1013C0000630F6006630F500CC30890BE529F50BC8
:1013D000E529F60BE529B5312A25883120002308B7
:1013E000F1002208F000B5314B258831B5312725B1
:1013F0008831B5313025883120005308F10052087A
:10140000F000B5314F258831B5312D258831853132
:10141000C42588310230F600B530F5005A30890B0A
:101420000F2AF50B0F2AF60B0F2A90310020883176
:101430000230F600B530F5005A30890B1D2AF50B45
:101440001D2AF60B1D2A9031002088310430F60049
:101450005430F500EE30890B2B2AF50B2B2AF60BB6
:101460002B2A0032B5312A25883120004F08F1009F
:101470004E08F000B5314B258831B531272588312C
:101480009031002088310230F600B530F5005A3036
:10149000890B482AF50B482AF60B482A9031002080
:1014A00088310230F600B530F5005A30890B562AE3
:1014B000F50B562AF60B562A0330F600D830F50005
:1014C0004230890B612AF50B612AF60B612A8531BE
:1014D000C42588317D30F500AC30890B6D2AF50BC1
:1014E0006D2AB5312A25883120002908F100280805
:1014F000F000B5314B258831B53127258831903141
:10150000002088310230F600B530F5005A30890BE2
:10151000872AF50B872AF60B872A9031002088311D
:101520000330F600B930F5001630890B952AF50B1B
:10153000952AF60B952A0032B5312A2588312000EC
:101540002308F1002208F000B5314B258831B53170
:1015500027258831B5313025883120005908F10020
:101560005808F000B5314F258831B5312D25883127
:101570008531C42588310230F600B530F5005A3087
:10158000890BC02AF50BC02AF60BC02A8531C42569
:1015900088310230F600B530F5005A30890BCE2A7A
:1015A000F50BCE2AF60BCE2A90310020883103307D
:1015B000F600B930F5001630890BDC2AF50BDC2A71
:1015C000F60BDC2A0032B5312A25883120004F087D
:1015D000F1004E08F000B5314B258831B531272593
:1015E00088319031002088310230F600B530F500A6
:1015F0005A30890BF92AF50BF92AF60BF92A9031A2
:10160000002088310230F600B530F5005A30890BE1
:10161000072BF50B072BF60B072B8531C4258831DB
:101620003430F500F230890B132BF50B132BB53149
:1016300030258831B5312A25883120004908F1004C
:101640004808F000B5314B258831B5312725883160
:1016500020005908F1005808F000B5314F258831B5
:10166000B5312D2588319031002088310430F600C5
:101670008830F500E130890B3B2BF50B3B2BF60B4B
:101680003B2B0000B5312A25883120004B08F100A2
:101690004A08F000B5314B258831B531272588310E
:1016A000B5313025883120005508F1005408F0008C
:1016B000B5314F258831B5312D2588319031002045
:1016C00088310430F6008830F500E130890B662B54
:1016D000F50B662BF60B662B0000B5312A258831F9
:1016E00020004F08F1004E08F000B5314B2588313D
:1016F000B53127258831B531302588312000530890
:10170000F1005208F000B5314F258831B5312D2553
:1017100088318531C42588310230F600B530F500B6
:101720005A30890B912BF50B912BF60B912B9031A5
:10173000002088310230F600B530F5005A30890BB0
:101740009F2BF50B9F2BF60B9F2B903100208831A0
:101750000430F6005F30F5005230890BAD2BF50BED
:10176000AD2BF60BAD2BB5312A258831B53130259F
:10177000883120004B08F1004A08F000B5314B25B4
:101780008831B5312725883120005908F1005808E3
:10179000F000B5314F258831B5312D258831903194
:1017A000002088310230F600B530F5005A30890B40
:1017B000D72BF50BD72BF60BD72B90310020883188
:1017C0000230F600B530F5005A30890BE52BF50BE9
:1017D000E52BF60BE52B8531C42588310430F60066
:1017E0005F30F5005230890BF32BF50BF32BF60B22
:1017F000F32BB5312A258831B531302588312000C9
:101800002908F1002808F000B5314B258831B531A1
:101810002725883120005D08F1005C08F000B53113
:101820004F258831B5312D25883190310020883100
:101830000230F600B530F5005A30890B1D2CF50B3F
:101840001D2CF60B1D2C9031002088310330F60042
:10185000B930F5001630890B2B2CF50B2B2CF60B21
:101860002B2C0032B53130258831B5312A2588310D
:1018700020004908F1004808F000B5314B258831B7
:10188000B5312725883120005D08F1005C08F000A3
:10189000B5314F258831B5312D2588318531C425A5
:1018A00088310230F600B530F5005A30890B562CDD
:1018B000F50B562CF60B562C8531C4258831023099
:1018C000F600B530F5005A30890B642CF50B642C0A
:1018D000F60B642C9031002088310330F600E230A2
:1018E000F500A630890B722CF50B722CF60B722CBE
:1018F000B5312A258831B5313025883120004B0893
:10190000F1004A08F000B5314B258831B531272563
:10191000883120005908F1005808F000B5314F25F2
:101920008831B5312D258831903100208831023041
:10193000F600B530F5005A30890B9C2CF50B9C2C29
:10194000F60B9C2C9031002088310230F600B53027
:10195000F5005A30890BAA2CF50BAA2CF60BAA2CF1
:101960008531C42588310230F600B530F5005A3093
:10197000890BB82CF50BB82CF60BB82CB6311C26FD
:1019800088310230F6005730F500D830890BC62C6C
:10199000F50BC62CF60BC62C0032B6311C2688314E
:1019A0000230F6005730F500D830890BD52CF50BF6
:1019B000D52CF60BD52C0032B6311C2688313F30A1
:1019C000F5005530890BE22CF50BE22C0000B53107
:1019D000302588310730F6001730F5006A30890B62
:1019E000EF2CF50BEF2CF60BEF2C0032B5312A253E
:1019F000883120004F08F1004E08F000B5314B252A
:101A00008831B53127258831B5313025883120001E
:101A10005F08F1005E08F000B5314F258831B5311F
:101A20002D2588318531C42588310230F600B53046
:101A3000F5005A30890B1A2DF50B1A2DF60B1A2DBD
:101A40009031002088310530F6003930F5008030C3
:101A5000890B282DF50B282DF60B282DB5312A25BD
:101A6000883120002308F1002208F000B5314B2511
:101A70008831B531272588319031002088310430F4
:101A8000F6008830F500E130890B442DF50B442D2C
:101A9000F60B442D0000B5312A2588312000250899
:101AA000F1002408F000B5314B258831B5312725E8
:101AB00088319031002088310230F600B530F500D1
:101AC0005A30890B612DF50B612DF60B612D90318C
:101AD000002088310330F600B930F5001630890B4C
:101AE0006F2DF50B6F2DF60B6F2D0032B5312A25BA
:101AF000883120002908F1002808F000B5314B2575
:101B00008831B531272588318531C42588310230A7
:101B1000F600B530F5005A30890B8C2DF50B8C2D65
:101B2000F60B8C2D9031002088310330F6003230D6
:101B3000F5000630890B9A2DF50B9A2DF60B9A2D90
:101B4000B5312A25883120002D08F1002C08F0003D
:101B5000B5314B258831B5312725883190310020AA
:101B600088310230F600E930F5004C30890BB62D93
:101B7000F50BB62DF60BB62D0032B5313025883178
:101B800020006708F1006608F000B5314F25883164
:101B9000B5312D2588318531C42588310230F600D4
:101BA000B530F5005A30890BD32DF50BD32DF60B3C
:101BB000D32D8531C42588310430F6007E30F50000
:101BC0007D30890BE12DF50BE12DF60BE12D0000A9
:101BD000B5313025883120003B08F1003A08F0008B
:101BE000B5314F258831B5312D2588319031002010
:101BF00088313430F500F230890BFC2DF50BFC2DCB
:101C0000B5312A2588310430F600DB30F500FF308D
:101C1000890B082EF50B082EF60B082E0000B531A7
:101C20003025883120003D08F1003C08F000B53136
:101C30004F258831B5312D258831903100208831EC
:101C40000330F600B930F5001630890B252EF50B60
:101C5000252EF60B252E003220002D08F1002C0831
:101C6000F000B5314B258831B531272588319031C9
:101C7000002088310330F600B930F5001630890BAA
:101C80003F2EF50B3F2EF60B3F2E0032B53130259F
:101C9000883120004108F1004008F000B5314F259F
:101CA0008831B5312D2588318531C4258831C6303C
:101CB000F5006630890B5A2EF50B5A2EB5312A25C0
:101CC000883120003708F1003608F000B5314B2587
:101CD0008831B53127258831903100208831033093
:101CE000F600B930F5001630890B742EF50B742E02
:101CF000F60B742E0032B5313025883120004708AC
:101D0000F1004608F000B5314F258831B5312D2559
:101D10008831903100208831B5312A25883104304E
:101D2000F600BC30F500D430890B942EF50B942EC0
:101D3000F60B942E20003708F1003608F000B5317C
:101D40004B258831B53127258831B531302588318B
:101D500020004508F1004408F000B5314F258831D6
:101D6000B5312D2588318531C42588310230F60002
:101D7000B530F5005A30890BBB2EF50BBB2EF60B98
:101D8000BB2E9031002088310330F6008530F500FD
:101D90002430890BC92EF50BC92EF60BC92E9031B4
:101DA000002088310330F6008530F5002430890B9F
:101DB000D72EF50BD72EF60BD72E90310020883179
:101DC0000330F6008530F5002430890BE52EF50B45
:101DD000E52EF60BE52E9031002088310330F60019
:101DE0008530F5002430890BF32EF50BF32EF60B1E
:101DF000F32E8531C42588310230F600AA30F50073
:101E0000F630890B012FF50B012FF60B012F003255
:101E1000B5313025883120003B08F1003A08F00048
:101E2000B5314F258831B5312D25883190310020CD
:101E300088310230F600B530F5005A30890B1E2F7C
:101E4000F50B1E2FF60B1E2F903100208831053028
:101E5000F600C030F5009030890B2C2FF50B2C2F9D
:101E6000F60B2C2F0032B5312A2588312000350899
:101E7000F1003408F000B5314B258831B531272504
:101E80008831B5313025883120005D08F1005C08CB
:101E9000F000B5314F258831B5312D25883190318D
:101EA000002088310230F600B530F5005A30890B39
:101EB000572FF50B572FF60B572F8531C425883137
:101EC0000230F600B530F5005A30890B652FF50B5E
:101ED000652FF60B652F9031002088310230F60017
:101EE000B530F5005A30890B732FF50B732FF60BB5
:101EF000732F8531C42588310230F600B530F500E6
:101F00005A30890B812FF50B812FF60B812F9031E1
:101F1000002088310230F6005730F500D830890BA8
:101F20008F2FF50B8F2FF60B8F2F0032B6311C261B
:101F300088310230F6005730F500D830890B9E2FDB
:101F4000F50B9E2FF60B9E2F0032B631642688319A
:101F5000D030F500CA30890BAB2FF50BAB2FB63163
:101F6000642688310230F600B530F5005A30890B0E
:101F7000B72FF50BB72FF60BB72F90310020883114
:101F80000230F6005730F500D830890BC52FF50B1D
:101F9000C52FF60BC52F0032B6311C268831023012
:101FA000F6005730F500D830890BD42FF50BD42F1D
:101FB000F60BD42F0032B6311C2688310230F600E1
:101FC0005730F500D830890BE32FF50BE32FF60BD4
:101FD000E32F0032B6311C268831B53130258831E7
:101FE000B5312A2588310530F6000F30F500F13083
:101FF000890BF82FF50BF82FF60BF82F00000800CF
:10200000FF30F3000030F400B5313625903174080C
:10201000F1007308F000B53153259031B531332507
:1020200090310B30F2006230890B1428F20B142827
:102030000032FE30F307FF30F43DF41F2028212842
:102040000428080002302100A600B530A500593050
:10205000890B2828A50B2828A60B28280032A83190
:102060000020903102302100A600B530A500593083
:10207000890B3828A50B3828A60B38280032A83140
:102080000020903104302100A6005430A500EE302D
:10209000890B4828A50B4828A60B48280000B53115
:1020A0004225903121002A08A1002908A000B5315D
:1020B0005C259031B5313F259031A8310020903119
:1020C00002302100A600B530A5005930890B6628E2
:1020D000A50B6628A60B66280032A8310020903197
:1020E00002302100A600B530A5005930890B7628B2
:1020F000A50B7628A60B7628003285310A2590316B
:1021000004302100A6005430A500EE30890B86284B
:10211000A50B8628A60B86280000B53142259031F4
:1021200021005608A1005508A000B5315C2590316A
:10213000B5313F259031A831002090310230210087
:10214000A600B530A5005930890BA428A50BA428FA
:10215000A60BA4280032A83100209031B130210014
:10216000A5009E30890BB228A50BB2280000B5311E
:102170004225903105302100A6000F30A500F13036
:10218000890BC028A50BC028A60BC0282100560823
:10219000A1005508A000B5315C259031B5313F252F
:1021A000903185310A25903102302100A600B530EA
:1021B000A5005930890BDA28A50BDA28A60BDA28F6
:1021C000003285310A25903102302100A600B53059
:1021D000A5005930890BEA28A50BEA28A60BEA28A6
:1021E0000032A8310020903103302100A600E230F7
:1021F000A500A530890BFA28A50BFA28A60BFA280A
:102200000032B5314225903121005408A100530815
:10221000A000B5315C259031B5313F259031A83112
:102220000020903102302100A600B530A5005930C1
:10223000890B1829A50B1829A60B18290032A831DB
:1022400000209031D0302100A500C930890B26290B
:10225000A50B26290032B6313E269031D030210020
:10226000A500C930890B3229A50B32290032B631BD
:102270003E26903107302100A6009E30A5007B301D
:10228000890B4029A50B4029A60B4029B5314225D1
:10229000903121005008A1004F08A000B5315C2505
:1022A0009031B5313F259031A83100209031D030A8
:1022B0002100A500C930890B5B29A50B5B290032E1
:1022C000B6313E269031D0302100A500C930890BAF
:1022D0006729A50B67290032B6313E2690310630BA
:1022E0002100A6006630A500CB30890B7529A50B0F
:1022F0007529A60B75290032B5313C259031210096
:102300002A08A1002908A000B53157259031B53120
:1023100039259031B5314225903121005A08A1006C
:102320005908A000B5315C259031B5313F25903179
:1023300085310A25903102302100A600B530A50074
:102340005930890BA129A50BA129A60BA12900327F
:10235000A8310020903102302100A600B530A50040
:102360005930890BB129A50BB129A60BB12900322F
:10237000A8310020903104302100A6005430A5007F
:10238000EE30890BC129A50BC129A60BC12900007C
:10239000B5313C25903121005608A1005508A00018
:1023A000B53157259031B53139259031A83100200C
:1023B000903102302100A600B530A5005930890BBC
:1023C000DF29A50BDF29A60BDF290032A831002069
:1023D000903102302100A600B530A5005930890B9C
:1023E000EF29A50BEF29A60BEF29003203302100BE
:1023F000A600D830A5004130890BFC29A50BFC298B
:10240000A60BFC29003285310A2590317D30210050
:10241000A500AB30890B0A2AA50B0A2A0032B53178
:102420003C25903121003008A1002F08A000B531D3
:1024300057259031B53139259031A83100209031A0
:1024400002302100A600B530A5005930890B262A9C
:10245000A50B262AA60B262A0032A831002090318F
:1024600003302100A600B930A5001630890B362AAA
:10247000A50B362AA60B362A0000B5313C25903133
:1024800021002A08A1002908A000B5315725903164
:10249000B53139259031B5314225903121006008A0
:1024A000A1005F08A000B5315C259031B5313F2512
:1024B000903185310A25903102302100A600B530D7
:1024C000A5005930890B622AA50B622AA60B622A45
:1024D000003285310A25903102302100A600B53046
:1024E000A5005930890B722AA50B722AA60B722AF5
:1024F0000032A8310020903103302100A600B9300D
:10250000A5001630890B822AA50B822AA60B822AE7
:102510000000B5313C25903121005608A100550836
:10252000A000B53157259031B53139259031A8310A
:102530000020903102302100A600B530A5005930AE
:10254000890BA02AA50BA02AA60BA02A0032A8312D
:102550000020903102302100A600B530A50059308E
:10256000890BB02AA50BB02AA60BB02A0032853100
:102570000A25903134302100A500F130890BBE2AA4
:10258000A50BBE2A0032B53142259031B5313C252C
:10259000903121005008A1004F08A000B531572507
:1025A0009031B5313925903121006008A1005F08D4
:1025B000A000B5315C259031B5313F259031A8316F
:1025C0000020903104302100A6008830A500E130C1
:1025D000890BE82AA50BE82AA60BE82AB5313C2589
:1025E000903121005208A1005108A000B5315725B3
:1025F0009031B53139259031B531422590312100E6
:102600005C08A1005B08A000B5315C259031B531B4
:102610003F259031A8310020903104302100A600E0
:102620008830A500E130890B132BA50B132BA60BCB
:10263000132BB5313C25903121005608A1005508D7
:10264000A000B53157259031B53139259031B531DC
:102650004225903121005A08A1005908A000B53147
:102660005C259031B5313F25903185310A25903177
:1026700002302100A600B530A5005930890B3E2B51
:10268000A50B3E2BA60B3E2B0032A831002090312B
:1026900002302100A600B530A5005930890B4E2B21
:1026A000A50B4E2BA60B4E2B0032A83100209031EB
:1026B00004302100A6005F30A5005130890B5E2B4D
:1026C000A50B5E2BA60B5E2B0032B5313C2590315D
:1026D000B5314225903121005208A1005108A000D7
:1026E000B53157259031B531392590312100600839
:1026F000A1005F08A000B5315C259031B5313F25C0
:102700009031A8310020903102302100A600B53070
:10271000A5005930890B8A2BA50B8A2BA60B8A2B77
:102720000032A8310020903102302100A600B530DF
:10273000A5005930890B9A2BA50B9A2BA60B9A2B27
:10274000003285310A25903104302100A6005F3027
:10275000A5005130890BAA2BA50BAA2BA60BAA2BDF
:102760000032B5313C259031B53142259031210000
:102770003008A1002F08A000B53157259031B531A0
:102780003925903121006408A1006308A000B5310B
:102790005C259031B5313F259031A8310020903132
:1027A00002302100A600B530A5005930890BD62B88
:1027B000A50BD62BA60BD62B0032A83100209031CA
:1027C00003302100A600B930A5001630890BE62B96
:1027D000A50BE62BA60BE62B0000B5314225903168
:1027E000B5313C25903121005008A1004F08A000D0
:1027F000B53157259031B531392590312100640824
:10280000A1006308A000B5315C259031B5313F25AA
:10281000903185310A25903102302100A600B53073
:10282000A5005930890B122CA50B122CA60B122CCB
:10283000003285310A25903102302100A600B530E2
:10284000A5005930890B222CA50B222CA60B222C7B
:102850000032A8310020903103302100A600E23080
:10286000A500A530890B322CA50B322CA60B322CDF
:102870000032B5313C259031B531422590312100EF
:102880005208A1005108A000B53157259031B5314B
:102890003925903121006008A1005F08A000B53102
:1028A0005C259031B5313F259031A8310020903121
:1028B00002302100A600B530A5005930890B5E2CEE
:1028C000A50B5E2CA60B5E2C0032A83100209031A7
:1028D00002302100A600B530A5005930890B6E2CBE
:1028E000A50B6E2CA60B6E2C003285310A2590317B
:1028F00002302100A600B530A5005930890B7E2C8E
:10290000A50B7E2CA60B7E2C0032B6313E269031D4
:1029100002302100A6005730A500D830890B8E2C3C
:10292000A50B8E2CA60B8E2C0000B6313E269031C6
:1029300002302100A6005730A500D830890B9E2C0C
:10294000A50B9E2CA60B9E2C0000B6313E26903186
:102950003F302100A5005530890BAC2CA50BAC2CC9
:10296000B5314225903107302100A6001730A5006F
:102970006A30890BB92CA50BB92CA60BB92C000019
:10298000B5313C25903121005608A1005508A00022
:10299000B53157259031B53139259031B5314225C2
:1029A000903121006608A1006508A000B5315C25C2
:1029B0009031B5313F25903185310A259031023073
:1029C0002100A600B530A5005930890BE52CA50BD8
:1029D000E52CA60BE52C0032A83100209031053003
:1029E0002100A6003930A5007F30890BF52CA50BFE
:1029F000F52CA60BF52C0032B5313C259031210089
:102A00002A08A1002908A000B53157259031B53119
:102A100039259031A8310020903104302100A600E2
:102A20008830A500E130890B132DA50B132DA60BC3
:102A3000132DB5313C25903121002C08A1002B0825
:102A4000A000B53157259031B53139259031A831E5
:102A50000020903102302100A600B530A500593089
:102A6000890B302DA50B302DA60B302D0032A8314F
:102A70000020903103302100A600B930A5001630A7
:102A8000890B402DA50B402DA60B402D0000B53124
:102A90003C25903121003008A1002F08A000B5315D
:102AA00057259031B5313925903185310A2590313E
:102AB00002302100A600B530A5005930890B5E2DEB
:102AC000A50B5E2DA60B5E2D0032A83100209031A3
:102AD00003302100A6003230A5000530890B6E2D91
:102AE000A50B6E2DA60B6E2D0032B5313C25903115
:102AF00021003408A1003308A000B53157259031DA
:102B0000B53139259031A8310020903102302100B3
:102B1000A600E930A5004C30890B8C2DA50B8C2D1F
:102B2000A60B8C2D0000B5314225903121006E0896
:102B3000A1006D08A000B5315C259031B5313F256D
:102B4000903185310A25903102302100A600B53040
:102B5000A5005930890BAA2DA50BAA2DA60BAA2DCD
:102B6000003285310A25903104302100A6007E30E4
:102B7000A5007D30890BBA2DA50BBA2DA60BBA2D59
:102B8000B5314225903121004208A1004108A00042
:102B9000B5315C259031B5313F259031A831002009
:102BA000903134302100A500F130890BD52DA50BD3
:102BB000D52D0032B5313C25903104302100A600DE
:102BC000DB30A500FF30890BE32DA50BE32DA60B11
:102BD000E32DB5314225903121004408A10043087E
:102BE000A000B5315C259031B5313F259031A83139
:102BF0000020903103302100A600B930A500163026
:102C0000890B002EA50B002EA60B002E0000210024
:102C10003408A1003308A000B53157259031B531F3
:102C200039259031A8310020903103302100A600D1
:102C3000B930A5001630890B1B2EA50B1B2EA60B39
:102C40001B2E0000B5314225903121004808A1001B
:102C50004708A000B5315C259031B5313F25903152
:102C600085310A259031C6302100A5006530890BD9
:102C7000372EA50B372E0032B5313C25903121007F
:102C80003E08A1003D08A000B53157259031B5316F
:102C900039259031A8310020903103302100A60061
:102CA000B930A5001630890B532EA50B532EA60B59
:102CB000532E0000B5314225903121004E08A1006D
:102CC0004D08A000B5315C259031B5313F259031DC
:102CD000A83100209031B5313C25903104302100DD
:102CE000A600BC30A500D330890B742EA50B742E22
:102CF000A60B742E003221003E08A1003D08A00062
:102D0000B53157259031B53139259031B53142254E
:102D1000903121004C08A1004B08A000B5315C2582
:102D20009031B5313F25903185310A2590310230FF
:102D30002100A600B530A5005930890B9D2EA50BAA
:102D40009D2EA60B9D2E0032A8310020903103301D
:102D50002100A6008530A5002330890BAD2EA50BE0
:102D6000AD2EA60BAD2E0032A831002090310330DD
:102D70002100A6008530A5002330890BBD2EA50BB0
:102D8000BD2EA60BBD2E0032A8310020903103309D
:102D90002100A6008530A5002330890BCD2EA50B80
:102DA000CD2EA60BCD2E0032A8310020903103305D
:102DB0002100A6008530A5002330890BDD2EA50B50
:102DC000DD2EA60BDD2E003285310A259031023032
:102DD0002100A600AA30A500F630890BED2EA50B28
:102DE000ED2EA60BED2E0000B531422590312100CD
:102DF0004208A1004108A000B5315C259031B531F1
:102E00003F259031A8310020903102302100A600EA
:102E1000B530A5005930890B0B2FA50B0B2FA60B36
:102E20000B2F0032A8310020903105302100A60080
:102E3000C030A5009030890B1B2FA50B1B2FA60BB4
:102E40001B2F0000B5313C25903121003C08A1002A
:102E50003B08A000B53157259031B5313925903167
:102E6000B5314225903121006408A1006308A0001B
:102E7000B5315C259031B5313F259031A831002026
:102E8000903102302100A600B530A5005930890BE1
:102E9000472FA50B472FA60B472F003285310A2558
:102EA000903102302100A600B530A5005930890BC1
:102EB000572FA50B572FA60B572F0032A8310020F4
:102EC000903102302100A600B530A5005930890BA1
:102ED000672FA50B672FA60B672F003285310A25B8
:102EE000903102302100A600B530A5005930890B81
:102EF000772FA50B772FA60B772F0032A831002054
:102F0000903102302100A6005730A500D830890B3F
:102F1000872FA50B872FA60B872F0000B6313E26E3
:102F2000903102302100A6005730A500D830890B1F
:102F3000972FA50B972FA60B972F0000B6318F2642
:102F40009031D0302100A500C930890BA52FA50BE9
:102F5000A52F0032B6318F26903102302100A60015
:102F6000B530A5005930890BB32FA50BB32FA60B95
:102F7000B32F0032A8310020903102302100A6008A
:102F80005730A500D830890BC32FA50BC32FA60B34
:102F9000C32F0000B6313E26903102302100A6003A
:102FA0005730A500D830890BD32FA50BD32FA60BF4
:102FB000D32F0000B6313E26903102302100A6000A
:102FC0005730A500D830890BE32FA50BE32FA60BB4
:102FD000E32F0000B6313E269031B53142259031C5
:102FE000B5313C25903105302100A6000F30A500F9
:102FF000F130890BF92FA50BF92FA60BF92F08003B
:1030040080302C009C001F309B00C0309A001F08A9
:10301400F33908389F0008007E34003476340034D5
:103024007034003469340034633400345E34003462
:1030340058340034533400344F3400344A340034A8
:103044004634003442340034FC340034EE3400346A
:10305400E0340034D4340034C8340034BD34003493
:10306400B2340034A83400349E340034953400342F
:103074008D340034853400343E3400343A34003422
:103084003834003434340034313400342E340034D1
:103094002C340034293400342734003425340034EB
:1030A400233400342134003407302100ED0017307C
:1030B400EC006A30890B5C28EC0B5C28ED0B5C2877
:1030C4000000B53148259831220055082100A1009F
:1030D400220054082100A000B53161259831B53192
:1030E4004525983107302100ED001730EC006A3097
:1030F400890B7A28EC0B7A28ED0B7A280000B5317D
:103104003C259831220061082100A10022006008BA
:103114002100A000B53157259831B53139259831B2
:10312400B53142259831220059082100A10022001E
:1031340058082100A000B5315C259831B5313F25F0
:103144009831B53148259831220059082100A10051
:10315400220058082100A000B53161259831B5310D
:10316400452598310D302100ED002D30EC00D7308D
:10317400890BBA28EC0BBA28ED0BBA280032B5310A
:103184003C259831220063082100A1002200620836
:103194002100A000B53157259831B5313925983132
:1031A40007302100ED001730EC006A30890BD82875
:1031B400EC0BD828ED0BD8280000B5313C2598310C
:1031C400220061082100A100220060082100A00063
:1031D400B53157259831B53139259831073021005B
:1031E400ED001730EC006A30890BF628EC0BF6285A
:1031F400ED0BF6280000B5313C25983122005D081E
:103204002100A10022005C082100A000B53157254F
:103214009831B53139259831B53148259831220096
:103224004F082100A10022004E082100A000B53162
:1032340061259831B531452598310C302100ED00D8
:103244005E30EC000D30890B2529EC0B2529ED0BA4
:103254002529B5313C259831220059082100A100C7
:10326400220058082100A000B53157259831B53106
:1032740039259831B53142259831D0302100EC0000
:10328400C930890B4329EC0B432900322200590829
:103294002100A100220058082100A000B5315C25BE
:1032A4009831B5313F2598310D302100ED002D3096
:1032B400EC00D730890B5C29EC0B5C29ED0B5C2905
:1032C4000032B5313C25983122005D082100A1006F
:1032D40022005C082100A000B53157259831B53192
:1032E40039259831B531422598312200450821000D
:1032F400A100220044082100A000B5315C259831CA
:10330400B5313F259831B5314825983122006308FD
:103314002100A100220062082100A000B53161252E
:103324009831B5314525983107302100ED0017302B
:10333400EC006A30890B9C29EC0B9C29ED0B9C2931
:103344000000B53148259831220053082100A1001E
:10335400220052082100A000B53161259831B53111
:103364004525983107302100ED001730EC006A3014
:10337400890BBA29EC0BBA29ED0BBA290000B53137
:103384004825983122005D082100A10022005C0834
:103394002100A000B53161259831B531452598311A
:1033A40007302100ED001730EC006A30890BD82972
:1033B400EC0BD829ED0BD8290000B53148259831FC
:1033C400220063082100A100220062082100A0005D
:1033D400B53161259831B531452598310730210043
:1033E400ED001730EC006A30890BF629EC0BF62956
:1033F400ED0BF6290000B5313C2598312200610817
:103404002100A100220060082100A000B531572549
:103414009831B53139259831B5314225983122009A
:1034240059082100A100220058082100A000B5314C
:103434005C259831B5313F259831B531482598310F
:10344400220061082100A100220060082100A000E0
:10345400B53161259831B5314525983107302100C2
:10346400ED001730EC006A30890B362AEC0B362A53
:10347400ED0B362A0000B5314825983122004F085B
:103484002100A10022004E082100A000B5316125D1
:103494009831B5314525983107302100ED001730BA
:1034A400EC006A30890B542AEC0B542AED0B542A95
:1034B4000000B53148259831220059082100A100A7
:1034C400220058082100A000B53161259831B5319A
:1034D4004525983107302100ED001730EC006A30A3
:1034E400890B722AEC0B722AED0B722A0000B5319B
:1034F40048259831220061082100A10022006008BB
:103504002100A000B53161259831B53145259831A8
:1035140007302100ED001730EC006A30890B902A47
:10352400EC0B902AED0B902A0000B5313C25983124
:10353400220063082100A100220062082100A000EB
:10354400B53157259831B53139259831B5314225F2
:103554009831220055082100A100220054082100BE
:10356400A000B5315C259831B5313F259831B5318E
:1035740048259831220063082100A1002200620836
:103584002100A000B53161259831B5314525983128
:1035940007302100ED001730EC006A30890BD02A87
:1035A400EC0BD02AED0BD02A0000B5314825983118
:1035B400220053082100A100220052082100A0008B
:1035C400B53161259831B531452598310730210051
:1035D400ED001730EC006A30890BEE2AEC0BEE2A72
:1035E400ED0BEE2A0000B5314825983122005D0824
:1035F4002100A10022005C082100A000B531612552
:103604009831B5314525983106302100ED00473019
:10361400EC00A030890B0C2BEC0B0C2BED0B0C2BC2
:103624000000B5313C259831B53142259831D03070
:103634002100EC00C930890B1D2BEC0B1D2B003233
:10364400220055082100A100220054082100A000F6
:10365400B5315C259831B5313F259831B5314825D0
:103664009831220063082100A10022006208210091
:10367400A000B53161259831B53145259831073021
:103684002100ED001730EC006A30890B472BEC0B5E
:10369400472BED0B472B0000B53142259831220012
:1036A4004B082100A10022004A082100A000B531E6
:1036B4005C259831B5313F259831B531482598318D
:1036C400220067082100A100220066082100A00052
:1036D400B53161259831B531452598310730210040
:1036E400ED001730EC006A30890B762BEC0B762B4F
:1036F400ED0B762B0000B531482598312200530894
:103704002100A100220052082100A000B53161254A
:103714009831B5314525983106302100ED00473008
:10372400EC00A030890B942BEC0B942BED0B942B19
:103734000000B53142259831D0302100EC00C93069
:10374400890BA22BEC0BA22B003222004B08210088
:10375400A10022004A082100A000B5315C2598315F
:10376400B5313F259831B53148259831220061089B
:103774002100A100220060082100A000B5316125CC
:103784009831B5314525983107302100ED001730C7
:10379400EC006A30890BCC2BEC0BCC2BED0BCC2B37
:1037A4000000B53148259831220067082100A100A6
:1037B400220066082100A000B53161259831B53199
:1037C4004525983107302100ED001730EC006A30B0
:1037D400890BEA2BEC0BEA2BED0BEA2B0000A13151
:1037E40067219831B5313C259831220067082100C2
:1037F400A100220066082100A000B53157259831A8
:10380400B53139259831B5314225983122004F0818
:103814002100A10022004E082100A000B5315C2542
:103824009831B5313F259831B5314825983122007A
:103834005D082100A10022005C082100A000B53130
:1038440061259831B5314525983118302100ED00B6
:103854008A30EC00E730890B2D2CEC0B2D2CED0B72
:103864002D2C0032B5313C259831B531482598319D
:10387400D0302100EC00C930890B3E2CEC0B3E2CDF
:103884000032220067082100A100220066082100FE
:10389400A000B53157259831B5313925983122002A
:1038A4005D082100A10022005C082100A000B531C0
:1038B40061259831B531452598310C302100ED0052
:1038C4005E30EC000D30890B652CEC0B652CED0B98
:1038D400652CB5313C259831220023082100A10034
:1038E400220022082100A000B53157259831B531B6
:1038F40039259831B53142259831D0302100EC007A
:10390400C930890B832CEC0B832C003222004F0826
:103914002100A10022004E082100A000B5315C2541
:103924009831B5313F259831B53148259831220079
:1039340061082100A100220060082100A000B53127
:1039440061259831B531452598310D302100ED00C0
:103954002D30EC00D730890BAD2CEC0BAD2CED0BDE
:10396400AD2C0032B5313C259831220025082100C8
:10397400A100220024082100A000B5315725983168
:10398400B53139259831B53142259831220049089D
:103994002100A100220048082100A000B5315C25C7
:1039A4009831B5313F259831B531482598312200F9
:1039B40063082100A100220062082100A000B531A3
:1039C40061259831B5314525983107302100ED0046
:1039D4001730EC006A30890BED2CEC0BED2CED0B61
:1039E400ED2C0000B53148259831220067082100EC
:1039F400A100220066082100A000B531612598319C
:103A0400B5314525983106302100ED004730EC00F2
:103A1400A030890B0B2DEC0B0B2DED0B0B2D0000A7
:103A2400B5313C259831D0302100EC00C930890BE8
:103A3400192DEC0B192D0032220025082100A100BC
:103A4400220024082100A000B53157259831B53152
:103A540039259831B5314825983122005D08210077
:103A6400A10022005C082100A000B5316125983135
:103A7400B5314525983106302100ED004730EC0082
:103A8400A030890B432DEC0B432DED0B432D00008F
:103A9400B5313C259831220029082100A1002200DB
:103AA40028082100A000B53157259831B5313925B2
:103AB4009831B53142259831D0302100EC00C9301D
:103AC400890B622DEC0B622D003222004908210083
:103AD400A100220048082100A000B5315C259831DE
:103AE400B5313F259831B531482598312200610818
:103AF4002100A100220060082100A000B531612549
:103B04009831B5314525983107302100ED00173043
:103B1400EC006A30890B8C2DEC0B8C2DED0B8C2D6D
:103B24000000B5313C259831220025082100A10070
:103B3400220024082100A000B53157259831B53161
:103B440039259831B5314225983122004B0821009E
:103B5400A10022004A082100A000B5315C2598315B
:103B6400B5313F259831B5314825983122005508A3
:103B74002100A100220054082100A000B5316125D4
:103B84009831B5314525983107302100ED001730C3
:103B9400EC006A30890BCC2DEC0BCC2DED0BCC2D2D
:103BA4000000B5314825983122005D082100A100AC
:103BB40022005C082100A000B53161259831B5319F
:103BC4004525983106302100ED004730EC00A03047
:103BD400890BEA2DEC0BEA2DED0BEA2D0000B53133
:103BE4003C259831220067082100A10022006608C4
:103BF4002100A000B53157259831B53139259831C8
:103C0400B5314225983122004F082100A10022003D
:103C14004E082100A000B5315C259831B5313F250F
:103C24009831B5314825983122004F082100A10070
:103C340022004E082100A000B53161259831B5312C
:103C44004525983107302100ED001730EC006A302B
:103C5400890B2A2EEC0B2A2EED0B2A2E0000B531EF
:103C640048259831220055082100A100220054085B
:103C74002100A000B53161259831B5314525983131
:103C840007302100ED001730EC006A30890B482E14
:103C9400EC0B482EED0B482E0000B5313C25983135
:103CA400220023082100A100220022082100A000F4
:103CB400B53157259831B53139259831B53142257B
:103CC4009831220053082100A1002200520821004B
:103CD400A000B5315C259831B5313F259831B53117
:103CE4004825983122005D082100A10022005C08CB
:103CF4002100A000B53161259831B53145259831B1
:103D040019302100ED005A30EC00B130890B882EB7
:103D1400EC0B882EED0B882E0032B53142259831FC
:103D240022004F082100A10022004E082100A0001B
:103D3400B5315C259831B5313F2598310D302100DE
:103D4400ED002D30EC00D730890BA62EEC0BA62EFF
:103D5400ED0BA62E0032B5313C2598312200250802
:103D64002100A100220024082100A000B53157251C
:103D74009831B53139259831B5314825983122002B
:103D840061082100A100220060082100A000B531D3
:103D940061259831B5314525983107302100ED0072
:103DA4001730EC006A30890BD52EEC0BD52EED0BB9
:103DB400D52E0000B5313C2598312200230821007E
:103DC400A100220022082100A000B5315725983116
:103DD400B53139259831B5314825983122005D082F
:103DE4002100A10022005C082100A000B53161255A
:103DF4009831B5314525983106302100ED00473022
:103E0400EC00A030890B042FEC0B042FED0B042FD6
:103E14000000B5313C259831220067082100A1003B
:103E2400220066082100A000B53157259831B5312C
:103E340039259831B5314225983122004B082100AB
:103E4400A10022004A082100A000B5315C25983168
:103E5400B5313F259831B53148259831D03021000E
:103E6400EC00C930890B342FEC0B342F00322200C4
:103E74005D082100A10022005C082100A000B531EA
:103E840061259831B531452598310D302100ED007B
:103E94002D30EC00D730890B4D2FEC0B4D2FED0B53
:103EA4004D2F0032B5313C259831220063082100A2
:103EB400A100220062082100A000B53157259831E5
:103EC400B53139259831B5314825983122005B0840
:103ED4002100A10022005A082100A000B53161256B
:103EE4009831B5314525983107302100ED00173060
:103EF400EC006A30890B7C2FEC0B7C2FED0B7C2FB4
:103F04000000B53148259831220057082100A1004E
:103F1400220056082100A000B53161259831B53141
:103F24004525983107302100ED001730EC006A3048
:103F3400890B9A2FEC0B9A2FED0B9A2F0000B531B9
:103F44003C259831220061082100A100220060086C
:103F54002100A000B53157259831B5313925983164
:103F6400B53142259831220049082100A1002200E0
:103F740048082100A000B5315C259831B5313F25B2
:103F84009831B5314825983122005B082100A10001
:103F940022005A082100A000B53161259831B531BD
:103FA400452598310D302100ED002D30EC00D7303F
:103FB400890BDA2FEC0BDA2FED0BDA2F0032B53147
:103FC4003C25983122005B082100A10022005A08F8
:103FD4002100A000B53157259831B53139259831E4
:103FE4000D302100ED002D30EC00D730890BF82F77
:0C3FF400EC0BF82FED0BF82F003208004A
:10400200640080010131890B022800347E340034BF
:10401200763400347034003469340034633400344C
:104022005E34003458340034533400344F34003496
:104032004A3400344634003442340034FC34003410
:10404200EE340034E0340034D4340034C834003464
:10405200BD340034B2340034A83400349E34003409
:10406200953400348D340034853400343E340034C9
:104072003A340034383400343434003431340034C7
:104082002E3400342C3400342934003427340034E4
:10409200253400342334003421340034B531422530
:1040A200A03121006A08A1006908A000B531572596
:1040B200A031B5313925A03121006008A1005F0887
:1040C200A000B5315C25A031B5313F25A031A83122
:1040D2000020A03102302100A600B530A5005930E1
:1040E200890B7128A50B7128A60B71280032A83103
:1040F2000020A03102302100A600B530A5005930C1
:10410200890B8128A50B8128A60B812800328531D5
:104112000A25A03104302100A6005F30A5005130ED
:10412200890B9128A50B9128A60B91280032B53155
:104132003C25A031B5314225A03121004808A1001B
:104142004708A000B5315725A031B5313925A03136
:1041520021006408A1006308A000B5315C25A031EC
:10416200B5313F25A031A8310020A0310230210015
:10417200A600B530A5005930890BBD28A50BBD2876
:10418200A60BBD280032A8310020A0310330210047
:10419200A600B930A5001630890BCD28A50BCD2875
:1041A200A60BCD280000B5314225A031AF31762FC4
:1041B200B5313F25A031A8310020A03104302100C3
:1041C200A6008830A500E130890BE528A50BE5287B
:1041D200A60BE528B5313C25A03121006A08A100D3
:1041E2006908A000B5315725A031B5313925A03174
:1041F200B5314225A03121005C08A1005B08A00076
:10420200B5315C25A031B5313F25A031A831002060
:10421200A03104302100A6008830A500E130890BCE
:104222001029A50B1029A60B1029B5313C25A03168
:1042320021006E08A1006D08A000B5315725A031FC
:10424200B5313925A031B5314225A03121005A08B6
:10425200A1005908A000B5315C25A031B5313F2538
:10426200A03185310A25A03102302100A600B530E7
:10427200A5005930890B3B29A50B3B29A60B3B29ED
:104282000032A8310020A03102302100A600B53052
:10429200A5005930890B4B29A50B4B29A60B4B299D
:1042A2000032A8310020A03104302100A6005F3086
:1042B200A5005130890B5B29A50B5B29A60B5B2955
:1042C2000032B5313C25A031A0314F28383086006C
:1042D20003308700BC308400003085001830210094
:1042E200A20016001A00A20B7229203086000330A9
:1042F2008700D4308400003085001830A2001600F8
:104302001A00A20B8029D030860003308700A43027
:104312008400003085001830A20016001A00A20B9B
:104322008E29B5313C25A13121006B08A1006A0814
:10433200A000B5315725A131B5313925A131B531AB
:104342004225A13121005308A1005208A000B53135
:104352005C25A131B5313F25A131B5314825A131C7
:1043620021005308A1005208A000B5316125A131F6
:10437200B5314525A1310D302100A3002D30A20019
:10438200D730890BC229A20BC229A30BC229003242
:104392000D302100A3002D30A200D730890BCF2988
:1043A200A20BCF29A30BCF290032B5314825A13169
:1043B20021006108A1006008A000B5316125A1318A
:1043C200B5314525A1310C302100A3005E30A20099
:1043D2000D30890BEA29A20BEA29A30BEA29B53190
:1043E2004225A131D0302100A200C930890BF72922
:1043F200A20BF7290032B5313C25A1312100670813
:10440200A1006608A000B5315725A131B531392583
:10441200A13121005308A1005208A000B5315C254A
:10442200A131B5313F25A1310D302100A3002D303E
:10443200A200D730890B1B2AA20B1B2AA30B1B2A13
:104442000032B5313C25A13121006508A100640884
:10445200A000B5315725A131B5313925A131B5318A
:104462004225A13121004508A1004408A000B53130
:104472005C25A131B5313F25A131B5314825A131A6
:1044820021005D08A1005C08A000B5316125A131C1
:10449200B5314525A13119302100A3005A30A200BF
:1044A200B130890B522AA20B522AA30B522A003294
:1044B200B5313C25A13121006708A1006608A000A2
:1044C200B5315725A131B5313925A1310C30210043
:1044D200A3005E30A2000D30890B6D2AA20B6D2A5B
:1044E200A30B6D2AB5313C25A13121006B08A10037
:1044F2006A08A000B5315725A131B5313925A1315E
:10450200B5314225A131D0302100A200C930890B3A
:10451200882AA20B882A003221004508A1004408FB
:10452200A000B5315C25A131B5313F25A131B531AE
:104532004825A13121006708A1006608A000B53115
:104542006125A131B5314525A13107302100A300F4
:104552001730A2006A30890BAC2AA20BAC2AA30B3B
:10456200AC2A0000B5314825A13121006B08A10019
:104572006A08A000B5316125A131B5314525A131C7
:1045820007302100A3001730A2006A30890BC72A26
:10459200A20BC72AA30BC72A0000B5313C25A131C3
:1045A20021002708A1002608A000B5315725A13116
:1045B200B5313925A131B5314225A13121003F085C
:1045C200A1003E08A000B5315C25A131B5313F25DF
:1045D200A131B5314825A13121005708A100560863
:1045E200A000B5316125A131B5314525A1310D308C
:1045F2002100A3002D30A200D730890BFE2AA20B86
:10460200FE2AA30BFE2A003207302100A300173036
:10461200A2006A30890B0B2BA20B0B2BA30B0B2BCB
:104622000000B5314825A13121005D08A1005C08D8
:10463200A000B5316125A131B5314525A131073041
:104642002100A3001730A2006A30890B262BA20B8F
:10465200262BA30B262B0000B5313C25A1312100CE
:104662006508A1006408A000B5315725A131B53114
:104672003925A1310C302100A3005E30A2000D309B
:10468200890B412BA20B412BA30B412BB5314225A8
:10469200A131D0302100A200C930890B4E2BA20BD0
:1046A2004E2B003221003F08A1003E08A000B53188
:1046B2005C25A131B5313F25A131B5314825A13164
:1046C20021006508A1006408A000B5316125A1316F
:1046D200B5314525A1310D302100A3002D30A200B6
:1046E200D730890B722BA20B722BA30B722B0032C9
:1046F200B5313C25A13121006108A1006008A0006C
:10470200B5315725A131B5313925A131B531422510
:10471200A13121004908A1004808A000B5315C255B
:10472200A131B5313F25A131B5314825A131210053
:104732006708A1006608A000B5316125A131B53135
:104742004525A1310D302100A3002D30A200D73024
:10475200890BA92BA20BA92BA30BA92B0032B531D4
:104762004825A13121006508A1006408A000B531E7
:104772006125A131B5314525A13106302100A300C3
:104782004730A200A030890BC42BA20BC42BA30B71
:10479200C42B0000B5314225A131D0302100A20046
:1047A200C930890BD22BA20BD22B0032210049082F
:1047B200A1004808A000B5315C25A131B5313F25E3
:1047C200A13107302100A3001730A2006A30890B03
:1047D200E82BA20BE82BA30BE82B0000B5314225F6
:1047E200A13121004508A1004408A000B5315C2593
:1047F200A131B5313F25A131B5314825A131210083
:104802005D08A1005C08A000B5316125A131B53178
:104812004525A13107302100A3001730A2006A30DC
:10482200890B112CA20B112CA30B112C0000B531FA
:104832004225A13121004108A1004008A000B53164
:104842005C25A131B5313F25A13107302100A300FC
:104852001730A2006A30890B2C2CA20B2C2CA30B34
:104862002C2C0000B5314225A13121003F08A100C6
:104872003E08A000B5315C25A131B5313F25A131FB
:10488200B5314825A13121006508A1006408A000C6
:10489200B5316125A131B5314525A131073021005E
:1048A200A3001730A2006A30890B552CA20B552C9D
:1048B200A30B552C0000B5313C25A131B531422561
:1048C200A13121004F08A1004E08A000B5315C259E
:1048D200A131B5313F25A13107302100A3001730A6
:1048E200A2006A30890B732CA20B732CA30B732CBE
:1048F2000000B5314825A131080038308600023069
:104902008700BC3084000030850018302100A200EE
:1049120016001A00A20B892C203086000230870074
:10492200D4308400003085001830A20016001A002E
:10493200A20B972CD030860002308700A43084006E
:10494200003085001830A20016001A00A20BA52C18
:10495200B5314825A431B5313C25A4312100610887
:10496200A1006008A000B5315725A431B531392521
:10497200A431B5314225A43121004908A1004808DB
:10498200A000B5315C25A431B5313F25A4310C30EE
:104992002100A3005E30A2000D30890BCE2CA20BA9
:1049A200CE2CA30BCE2CB5313C25A43121006B08B3
:1049B200A1006A08A000B5315725A431B5313925C7
:1049C200A431B5314225A431D0302100A200C93032
:1049D200890BE92CA20BE92C003221004908A10025
:1049E2004808A000B5315C25A431B5313F25A4317A
:1049F20021005708A1005608A000B5316125A43155
:104A0200B5314525A4310C302100A3005E30A2004F
:104A12000D30890B0A2DA20B0A2DA30B0A2DB531DD
:104A22003C25A43121006708A1006608A000B53129
:104A32005725A431B5313925A431B5314225A431E8
:104A420021004F08A1004E08A000B5315C25A43119
:104A5200B5313F25A431B5314825A431D0302100EC
:104A6200A200C930890B332DA20B332D0032210055
:104A72005708A1005608A000B5316125A431B5310F
:104A82004525A43107302100A3001730A2006A3067
:104A9200890B492DA20B492DA30B492D0000B531DD
:104AA2003C25A43121006508A1006408A000B531AD
:104AB2005725A431B5313925A43107302100A3008F
:104AC2001730A2006A30890B642DA20B642DA30B50
:104AD200642D0000B5314825A431B5313C25A431FF
:104AE20021006108A1006008A000B5315725A4315A
:104AF200B5313925A431B5314225A43121005708F9
:104B0200A1005608A000B5315C25A431B5313F257E
:104B1200A4310D302100A3002D30A200D730890B23
:104B2200902DA20B902DA30B902D003221005D0839
:104B3200A1005C08A000B5315725A431B531392553
:104B4200A431B5314225A43121004508A100440811
:104B5200A000B5315C25A431B5313F25A4310C301C
:104B62002100A3005E30A2000D30890BB62DA20BEE
:104B7200B62DA30BB62DB5313C25A4312100610819
:104B8200A1006008A000B5315725A431B5313925FF
:104B9200A431B5314225A431D0302100A200C93060
:104BA200890BD12DA20BD12D003221004508A10085
:104BB2004408A000B5315C25A431B5313F25A431AC
:104BC200B5314825A43121005308A1005208A000A4
:104BD200B5316125A431B5314525A4310C30210010
:104BE200A3005E30A2000D30890BF52DA20BF52D2E
:104BF200A30BF52DB5313C25A43121006508A10098
:104C02006408A000B5315725A431B5313925A43146
:104C1200B5314225A43121004D08A1004C08A00065
:104C2200B5315C25A431B5313F25A431B5314825D4
:104C3200A431D0302100A200C930890B1E2EA20B54
:104C42001E2E003221005308A1005208A000B531E7
:104C52006125A431B5314525A4310D302100A300D1
:104C62002D30A200D730890B342EA20B342EA30B89
:104C7200342E0032B5314825A431B5313C25A4315A
:104C820021005D08A1005C08A000B5315725A431C0
:104C9200B5313925A431B5314225A431210053085B
:104CA200A1005208A000B5315C25A431B5313F25E1
:104CB200A4310D302100A3002D30A200D730890B82
:104CC200602EA20B602EA30B602E0032B5313C2564
:104CD200A43121006108A1006008A000B531572568
:104CE200A431B5313925A431B5314225A431210091
:104CF2004908A1004808A000B5315C25A431B531AE
:104D02003F25A4310C302100A3005E30A2000D30FB
:104D1200890B892EA20B892EA30B892EB5313C2536
:104D2200A43121006B08A1006A08A000B531572503
:104D3200A431B5313925A431B5314225A431D03061
:104D42002100A200C930890BA42EA20BA42E00328E
:104D520021004908A1004808A000B5315C25A43112
:104D6200B5313F25A43121005708A1005608A00003
:104D7200B5316125A431B5314525A4310C3021006E
:104D8200A3005E30A2000D30890BC52EA20BC52EEA
:104D9200A30BC52EB5313C25A43121006708A10023
:104DA2006608A000B5315725A431B5313925A431A3
:104DB200B5314225A43121004F08A1004E08A000C0
:104DC200B5315C25A431B5313F25A431B531482533
:104DD200A431D0302100A200C930890BEE2EA20BE3
:104DE200EE2E003221005708A1005608A000B5316E
:104DF2006125A431B5314525A4310D302100A30030
:104E02002D30A200D730890B042FA20B042FA30B45
:104E1200042F0032B5314825A431B5313C25A431E7
:104E220021006B08A1006A08A000B5315725A43102
:104E3200B5313925A431B5314225A43121005708B5
:104E4200A1005608A000B5315C25A431B5313F253B
:104E5200A4310D302100A3002D30A200D730890BE0
:104E6200302FA20B302FA30B302F0032B5313C254F
:104E7200A43121002708A1002608A000B53157253A
:104E8200A431B5313925A431B5314225A4312100EF
:104E92004508A1004408A000B5315C25A431B53114
:104EA2003F25A4310D302100A3002D30A200D730C0
:104EB200890B592FA20B592FA30B592F0032B53151
:104EC2003C25A43121006708A1006608A000B53185
:104ED2005725A431B5313925A431B5314225A43144
:104EE20021004F08A1004E08A000B5315C25A43175
:104EF200B5313F25A431B5314825A43121005308ED
:104F0200A1005208A000B5316125A431B531452573
:104F1200A4310D302100A3002D30A200D730890B1F
:104F2200902FA20B902FA30B902F0032B5313C256E
:104F3200A43121006108A1006008A000B531572505
:104F4200A431B5313925A431B5314225A43121002E
:104F52005308A1005208A000B5315C25A431B53137
:104F62003F25A431B5314825A43121005D08A100B7
:104F72005C08A000B5316125A431B5314525A431C5
:104F82000D302100A3002D30A200D730890BC72F8E
:104F9200A20BC72FA30BC72F0032B5314225A43174
:104FA20021005D08A1005C08A000B5315C25A43198
:104FB200B5313F25A431B5314825A4312100590826
:104FC200A1005808A000B5316125A431B5314525AD
:104FD200A4310C302100A3005E30A2000D30890BF9
:104FE200F02FA20BF02FA30BF02FB5313C25A431EB
:104FF200B5314225A431B5314825A4310800FF302E
:105002002100A3000030A400B5314825A8312100B9
:105012002408A1002308A000B5316125A831B531CB
:105022004525A8310B302100A2006230890B1728D8
:10503200A20B17280000FE302100A307FF30A43D79
:10504200A41F2428252805280800B830860003302C
:105052008700383084000130850018302100EC00D0
:1050620016001A00EC0B3128A030860003308700AE
:1050720050308400013085001830EC0016001A0010
:10508200EC0B3F282030860004308700203084005B
:10509200013085001830EC0016001A00EC0B4D2888
:1050A200A4317E24A831D0302100EC00C930890B14
:1050B2005828EC0B5828003281313821A831D030E1
:1050C2002100EC00C930890B6428EC0B6428003203
:1050D200A4317E24A831D0302100EC00C930890BE4
:1050E2007028EC0B7028003281313821A831D03081
:1050F2002100EC00C930890B7C28EC0B7C280032A3
:10510200A1316721A831B5313C25A83122006708B9
:105112002100A100220066082100A000B531572518
:10512200A831B5313925A831B5314225A83122003F
:105132004F082100A10022004E082100A000B53135
:105142005C25A831B5313F25A831B7317E2F033018
:105152002100A600B930A5001630890BAE28A50B98
:10516200AE28A60BAE280000B5313C25A83121009F
:105172005208A1005108A000B5315725A831B53118
:105182003925A831B5314225A83121006E08A10088
:105192006D08A000B5315C25A831B5313F25A83195
:1051A20085310A25A83102302100A600E930A50088
:1051B2004C30890BDA28A50BDA28A60BDA28000076
:1051C200B5313C25A83121005008A1004F08A000AC
:1051D200B5315725A831B5313925A831A83100207C
:1051E200A83105302100A6001A30A5005430890BE1
:1051F200F828A50BF828A60BF8280000B5313C25A5
:10520200A83121004208A1004108A000B53157256C
:10521200A831B5313925A831A8310020A831E530AF
:105222002100A5009130890B1429A50B1429B53151
:105232004225A83121005608A1005508A000B53129
:105242005C25A831B5313F25A83185310A25A83121
:105252009031222804302100A6005430A500EE30FF
:10526200890B3129A50B3129A60B31290000B53153
:105272003C25A93121006E08A1006D08A000B531BE
:105282005725A931B5313925A931A8310020A931D5
:1052920002302100A600B530A5005930890B4F29F4
:1052A200A50B4F29A60B4F290032A8310020A931A6
:1052B20002302100A600B530A5005930890B5F29C4
:1052C200A50B5F29A60B5F29003202302100A60040
:1052D2006C30A5009F30890B6C29A50B6C29A60B9D
:1052E2006C29003285310A25A93102302100A6003D
:1052F2006C30A5009F30890B7C29A50B7C29A60B5D
:105302007C2900327D302100A500AB30890B872932
:10531200A50B87290032B5313C25A9312100480867
:10532200A1004708A000B5315725A931B53139256B
:10533200A931A8310020A93102302100A600B530E0
:10534200A5005930890BA329A50BA329A60BA329D4
:105352000032A8310020A931AE31EC2E903100206C
:10536200A9310230F600B530F5005A30890BB72961
:10537200F50BB729F60BB72990310020A93102307D
:10538200F600B530F5005A30890BC529F50BC52951
:10539200F60BC5298531C425A9310430F6005F30EA
:1053A200F5005230890BD329F50BD329F60BD329FB
:1053B200B5312A25A931B5313025A931200041085E
:1053C200F1004008F000B5314B25A931B531272550
:1053D200A93120005D08F1005C08F000B5314F25CD
:1053E200A931B5312D25A93190310020A9310230E2
:1053F200F600B530F5005A30890BFD29F50BFD2971
:10540200F60BFD2990310020A9310330F600B930A6
:10541200F5001630890B0B2AF50B0B2AF60B0B2A1B
:105422000032B5313025A931B5312A25A931200004
:105432006108F1006008F000B5314B25A931B531A2
:105442002725A93120005D08F1005C08F000B53184
:105452004F25A931B5312D25A9318531C425A93171
:105462008731062FB5312725AA31B5313025AA312A
:1054720020005508F1005408F000B5314F25AA313B
:10548200B5312D25AA3190310020AA310430F60021
:105492008830F500E130890B4C2AF50B4C2AF60BCB
:1054A2004C2A0000B5312A25AA3120006708F100F4
:1054B2006608F000B5314B25AA31B5312725AA314E
:1054C200B5313025AA3120005308F1005208F0000E
:1054D200B5314F25AA31B5312D25AA318531C425E3
:1054E200AA310230F600B530F5005A30890B772A1E
:1054F200F50B772AF60B772A90310020AA31023079
:10550200F600B530F5005A30890B852AF50B852A4D
:10551200F60B852A90310020AA310430F6005F3064
:10552200F5005230890B932AF50B932AF60B932A36
:10553200B5312A25AA31B5313025AA3120006308B8
:10554200F1006208F000B5314B25AA31B5312725AB
:10555200AA3120005908F1005808F000B5314F2552
:10556200AA31B5312D25AA31A931AF29B83086002B
:105572000130870050308400003085001830F5007B
:1055820016001A00F50BC12AA030860001308700F0
:1055920038308400003085001830F50016001A00FB
:1055A200F50BCF2A5030860002308700203084006D
:1055B200003085001830F50016001A00F50BDD2AC0
:1055C200B5312A25AA3120003B08F1003A08F00043
:1055D200B5314B25AA31B5312725AA31B531302550
:1055E200AA3120005308F1005208F000B5314F25CE
:1055F200AA31B5312D25AA318531C425AA3102300F
:10560200F600B530F5005A30890B052BF50B052B4A
:10561200F60B052B90310020AA310230F600B5308E
:10562200F5005A30890B132BF50B132BF60B132BAA
:1056320090310020AA310430F6005430F500EE30EB
:10564200890B212BF50B212BF60B212B0032B531C7
:105652002A25AA3120006708F1006608F000B5315A
:105662004B25AA31B5312725AA3190310020AA3124
:10567200AD31522DB830860001308700D73084001A
:105682000030850018302100A50016001A00A50B75
:10569200462BA030860001308700BF3084000030E6
:1056A20085001830A50016001A00A50B542B5030A7
:1056B200860002308700A730840000308500183051
:1056C200A50016001A00A50B622BB5313C25AB31A3
:1056D20021004208A1004108A000B5315725AB3195
:1056E200B5313925AB31B5314225AB3121005A08EC
:1056F200A1005908A000B5315C25AB31B5313F2579
:10570200AB3185310A25AB3102302100A600B5301C
:10571200A5005930890B8B2BA50B8B2BA60B8B2B42
:105722000032A8310020AB3102302100A600B53092
:10573200A5005930890B9B2BA50B9B2BA60B9B2BF2
:105742000032A8310020AB3104302100A6005430D1
:10575200A500EE30890BAB2BA50BAB2BA60BAB2B0D
:105762000000B5313C25AB3121006E08A1006D0867
:10577200A000B5315725AB31AB31BF2BB53139253F
:10578200AB31A8310020AB3102302100A600B53088
:10579200A5005930890BCB2BA50BCB2BA60BCB2B02
:1057A2000032A8310020AB3102302100A600B53012
:1057B200A5005930890BDB2BA50BDB2BA60BDB2BB2
:1057C200003203302100A600D830A5004130890BF9
:1057D200E82BA50BE82BA60BE82B003285310A2516
:1057E200AB317D302100A500AB30890BF62BA50B28
:1057F200F62B0032B5313C25AB3121004808A1001F
:105802004708A000B5315725AB31B5313925AB3149
:10581200A8310020AB3102302100A600B530A5002E
:105822005930890B122CA50B122CA60B122C00320C
:10583200A8310020AB3103302100A600B930A50009
:105842001630890B222CA50B222CA60B222C000031
:10585200B5313C25AB3121004208A1004108A0002E
:10586200B5315725AB31B5313925AB31B53142258B
:10587200AB3121006008A1005F08A000B5315C25B2
:10588200AB31AC31CA2C0230F600B530F5005A30DB
:10589200890B492CF50B492CF60B492C9031002031
:1058A200AC310330F600B930F5001630890B572CB5
:1058B200F50B572CF60B572C0032B5312A25AC319B
:1058C20020006708F1006608F000B5314B25AC31C5
:1058D200B5312725AC3190310020AC310230F600D1
:1058E200B530F5005A30890B742CF50B742CF60B7D
:1058F200742C90310020AC310230F600B530F50046
:105902005A30890B822CF50B822CF60B822C8531B6
:10591200C425AC313430F500F230890B8E2CF50BF6
:105922008E2CB5313025AC31B5312A25AC31200071
:105932006108F1006008F000B5314B25AC31B5319A
:105942002725AC3120005908F1005808F000B53184
:105952004F25AC31B5312D25AC3190310020AC3121
:105962000430F6008830F500E130890BB62CF50BD7
:10597200B62CF60BB62C0000B5312A25AC3120002E
:105982006308F1006208F000B5314B25AC31AA3151
:10599200332AB5313F25AC3185310A25AC3102308D
:1059A2002100A600B530A5005930890BD62CA50BD5
:1059B200D62CA60BD62C003285310A25AC3102300A
:1059C2002100A600B530A5005930890BE62CA50BA5
:1059D200E62CA60BE62C0032A8310020AC310330B5
:1059E2002100A600B930A5001630890BF62CA50BB4
:1059F200F62CA60BF62C0000B5313C25AC3121006B
:105A02006E08A1006D08A000B5315725AC31B53143
:105A12003925AC31A8310020AC3102302100A6007A
:105A2200B530A5005930890B142DA50B142DA60BEA
:105A3200142D0032A8310020AC3102302100A60022
:105A4200B530A5005930890B242DA50B242DA60BAA
:105A5200242D003285310A25AC3134302100A500D5
:105A6200F130890B322DA50B322D0032B531422592
:105A7200AC31B5313C25AC3121006808A100670882
:105A8200A000B5315725AC31B5313925AC312100F3
:105A92006008A1005F08A000B5315C25AC31A031DF
:105AA200D9280230F600B530F5005A30890B572D4F
:105AB200F50B572DF60B572D90310020AD310230EA
:105AC200F600B530F5005A30890B652DF50B652DC2
:105AD200F60B652D0330F600D830F5004230890B05
