:040000008031C6285D
:100008007E1480312000101E0A280B28C2282700E1
:10001800111C0F2810281228200010122700911CEC
:10002800162817281928200010122700111D1D282E
:100038001E2820282000101220000C1C2428252807
:100048006F280E1E282829283B280E1F2C282D280B
:100058003B282700941E312832283428200010120B
:100068002700941F382839283B2820001012200028
:100078000E1E3F2840284E282700941E4428452855
:100088004728200010122700941F4B284C284E2880
:100098002000101220000E1F522853286128270024
:1000A800941E572858285A28200010122700941FF9
:1000B8005E285F286128200010122700941E6528FA
:1000C80066286828200010122700941F6C286D28C5
:1000D8006F282000101220008C18732874287828A4
:1000E8000C1D77287828C2280E1E7B287C288E288D
:1000F8000E1F7F2880288E282700941E8428852894
:100108008728200010122700941F8B288C288E28FF
:100118002000101220000E1E92289328A1282700E4
:10012800941E972898289A28200010122700941FB8
:100138009E289F28A1282000101220000E1FA52805
:10014800A628B4282700941EAA28AB28AD2820008A
:1001580010122700941FB128B228B42820001012CA
:100168002700941EB828B928BB28200010122700A1
:10017800941FBF28C028C228200010122000101287
:100188007E1009008031C8287230840084308500D0
:10019800A03086000030870030308531D525803189
:1001A80003308400853085002030860001308700C8
:1001B80018308531D5258031F901FA01FB01FC01A0
:1001C800EA01EB01EC01ED01D0308400003085003C
:1001D8000D308531DB2580317E1020008031F428F8
:1001E8008431E7248031B8308600003087005230EF
:1001F8008400003085001830F70016001A00F70B4D
:100208000129A03086000030870038308400003093
:1002180085001830F70016001A00F70B0F29203058
:1002280086000130870020308400003085001830B7
:10023800F70016001A00F70B1D2986310E268031AB
:1002480020003B08F1003A08F0008531FA2580319A
:1002580086311126803186310826803120005508E4
:10026800F1005408F0008531F625803186310B26DF
:10027800803183317E2380310230F800B530F700B9
:100288005A30890B4529F70B4529F80B4529843144
:10029800C52480310230F800B530F7005A30890B98
:1002A8005329F70B5329F80B53298431C52480317E
:1002B8000430F8002030F700FC30890B6129F70B77
:1002C8006129F80B612986310E26803120006908E2
:1002D800F1006808F0008531FA2580318631112651
:1002E80080318431C52480310230F800B530F70000
:1002F8005A30890B7D29F70B7D29F80B7D2984312C
:10030800C52480310230F800B530F7005A30890B27
:100318008B29F70B8B29F80B8B290330F800D83081
:10032800F7004230890B9629F70B9629F80B962986
:1003380083317E2380314930F700B930890BA229F7
:10034800F70BA229000086310E26803120004108D3
:10035800F1004008F0008531FA25803186311126F8
:1003680080318431C52480310230F800B530F7007F
:100378005A30890BBD29F70BBD29F80BBD298431EB
:10038800C52480310330F8008530F7002430890B0C
:10039800CB29F70BCB29F80BCB2986310E268031D8
:1003A80020003B08F1003A08F0008531FA25803139
:1003B80086311126803186310826803120005B087D
:1003C800F1005A08F0008531F625803186310B2678
:1003D800803183317E2380310230F800B530F70058
:1003E8005A30890BF529F70BF529F80BF5298331D4
:1003F8007E2380310230F800B530F7005A30890B7F
:10040800032AF70B032AF80B032A8431C524803109
:100418000330F8008530F7002430890B112AF70BD8
:10042800112AF80B112A86310E268031200069081E
:10043800F1006808F0008531FA25803186311126EF
:1004480080318431C52480310230F800B530F7009E
:100458005A30890B2D2AF70B2D2AF80B2D2A8431B7
:10046800C52480310230F800B530F7005A30890BC6
:100478003B2AF70B3B2AF80B3B2A83317E2380313A
:10048800D030F700CA30890B472AF70B472A863144
:100498000826803186310E26803120006308F1005D
:1004A8006208F0008531FA258031863111268031C5
:1004B80020005B08F1005A08F0008531F6258031EC
:1004C80086310B2680318431C52480310430F80010
:1004D8005430F700EE30890B6F2AF70B6F2AF80BB0
:1004E8006F2A003286310E26803120006508F1001F
:1004F8006408F0008531FA25803186311126803173
:1005080086310826803120005708F1005608F0008F
:100518008531F625803186310B2680318431C5241A
:1005280080310430F8005430F700EE30890B9A2AF5
:10053800F70B9A2AF80B9A2A003286310E26803158
:1005480020006908F1006808F0008531FA2580313B
:1005580086311126803186310826803120005508E1
:10056800F1005408F0008531F625803186310B26DC
:1005780080311730F800BB30F7001D30890BC22AD4
:10058800F70BC22AF80BC22A000086310E268031EA
:1005980086310826803120006508F1006408F000E3
:1005A8008531FA25803186311126803120005B089B
:1005B800F1005A08F0008531F625803186310B2686
:1005C80080311730F800BB30F7001D30890BEA2A5C
:1005D800F70BEA2AF80BEA2A000086310E2680314A
:1005E80086310826803120004108F1004008F000DB
:1005F8008531FA25803186311126803120005F0847
:10060800F1005E08F0008531F625803186310B2631
:1006180080310F30F8009D30F7003630890B122BEF
:10062800F70B122BF80B122B00328631082680317B
:1006380086310E26803120006308F1006208F00040
:100648008531FA25803186311126803120005F08F6
:10065800F1005E08F0008531F625803186310B26E1
:1006680080311730F800BB30F7001D30890B3A2B6A
:10067800F70B3A2BF80B3A2B000086310E26803107
:1006880086310826803120006508F1006408F000F2
:100698008531FA25803186311126803120005B08AA
:1006A800F1005A08F0008531F625803186310B2695
:1006B80080311730F800BB30F7001D30890B622BF2
:1006C800F70B622BF80B622B000086310E26803167
:1006D8008631082680315230F8002B30F700003080
:1006E800890B742BF70B742BF80B742B0032212910
:1006F8008031C6288631022683318030F0000030F0
:10070800F1008531F22583318631052683310B309E
:10071800F2006230890B8E2BF20B8E2B0032863161
:10072800022683316430F0000030F1008531F22573
:1007380083318631052683310B30F2006230890B14
:10074800A32BF20BA32B00328631022683315030C3
:10075800F0000030F1008531F2258331863105261D
:1007680083310B30F2006230890BB82BF20BB82BB7
:1007780000328631022683313230F0000030F10039
:100788008531F22583318631052683310B30F2001D
:100798006230890BCD2BF20BCD2B0032863102262D
:1007A80083311E30F0000030F1008531F2258331AD
:1007B8008631052683310B30F2006230890BE22B3B
:1007C800F20BE22B0032F301F40186310226833169
:1007D8007408F1007308F0008531F2258331863101
:1007E800052683310B30F2006230890BF92BF20BAE
:1007F800F92B00320230F3070030F43D7408803AD8
:10080800F20081307202031D0B2C00307302031CAE
:100818000E2C0F2CE92B863102268331FF30F00095
:100828000030F1008531F225833186310526833188
:100838006830F200E430890B1F2CF20B1F2C0032B9
:10084800863102268331080022008C0150308D0049
:100858008E011F3021008C00F0308D00C0308E00DA
:10086800103023008C008D0138308E0024008C015C
:100878008D018E0125008C018D018E0137302600F7
:100888008C00F0308D00FF308E003F3027008C0048
:10089800F0308D00FF308E0002303D00A50003309F
:1008A800A3000E303C00A00018303D009E000C3024
:1008B8003C00A10019303D009C0014303C0094001D
:1008C8000C303D00A400270091019201930194018E
:1008D8009501960197019801990108007E3400342A
:1008E80076340034703400346934003463340034AE
:1008F8005E34003458340034533400344F340034F8
:100908004A3400344634003442340034FC34003471
:10091800EE340034E0340034D4340034C8340034C5
:10092800BD340034B2340034A83400349E3400346A
:10093800953400348D34003485340034F601853123
:1009480079258431003A031DAA2CAB2CC32C013025
:100958002100D0007208D2007108D100DA017308B2
:10096800D3007508D5007408D400D601D701D80182
:10097800D901DB018531CE258431F601F60A7608E6
:100988000800FF30F3000030F4008631022684317D
:100998007408F1007308F0008531F225843186313E
:1009A800052684310B30F2006230890BD92CF20B0A
:1009B800D92C0032FE30F307FF30F43DF41FE52C4C
:1009C800E62CC92C08008531BB25843184312824C4
:1009D800843185311B2584318531C52584318531A4
:1009E800A425843185319825843185318925843140
:1009F80085316825843185315725843108003E3496
:100A080000343A3400343834003434340034313467
:100A180000342E3400342C34003429340034273484
:100A28000034253400342334003421340034803039
:100A38002400940008309500960197014F309200E9
:100A48008531FE2585310030F0000030F100853118
:100A5800B02585312400951608001B340534003470
:100A68000034A23404340034003400340034003438
:100A780000340034003479340534B034053400349B
:100A880000340034003400340034003400340034BE
:100A980000340034003400340034003400340034AE
:100AA8000034003400343F3028009D009C012000B1
:100AB8009213073028009E000030F0000030F1004B
:100AC8008531E125853108003F30280096009501E1
:100AD800200092100730280097000030F000003006
:100AE800F1008531E72585310800F001F00A210081
:100AF8005008031D802D812D872D24009419852DE4
:100B0800862D872DF001700808003F3020009E00D8
:100B18009D01911007309F000030F0000030F10077
:100B28008531ED258531080080302C009C001F3070
:100B38009B00C0309A001F08F33908389F0008004E
:100B480080302C0099001F309800C03097001F0893
:100B5800FC3901389F000800700871040319B52D8D
:100B6800B62DBA2D7108FC007008FB000800603033
:100B7800320099009B019D0107309F009E019C0156
:100B880008008F302500930092017F3091000330D8
:100B98009F04080086311426853102302100DC00CC
:100BA8000800FE0012001E00FE0BD62D0034640063
:100BB80080010131890BDC2D003471082000EB0025
:100BC8007008EA00080071082000ED007008EC00C9
:100BD80008007108FA007008F90008007008280079
:100BE8009D00080070082800960008007008200082
:100BF8009E000800210091151115080028001E11FB
:100C0800080028001E1508002800171108002800F1
:100C18001715080020001F11080020001F150800E4
:0E0C28002400161408002A340034303402343C
:020000040001F9
:08000E008F3EF33FFF3FFF3F6F
:02E00000FF001F
:00000001FF
