:040000008031C6285D
:100008007E1480312000101E0A280B28C2282700E1
:10001800111C0F2810281228200010122700911CEC
:10002800162817281928200010122700111D1D282E
:100038001E2820282000101220000C1C2428252807
:100048006F280E1E282829283B280E1F2C282D280B
:100058003B282700941E312832283428200010120B
:100068002700941F382839283B2820001012200028
:100078000E1E3F2840284E282700941E4428452855
:100088004728200010122700941F4B284C284E2880
:100098002000101220000E1F522853286128270024
:1000A800941E572858285A28200010122700941FF9
:1000B8005E285F286128200010122700941E6528FA
:1000C80066286828200010122700941F6C286D28C5
:1000D8006F282000101220008C18732874287828A4
:1000E8000C1D77287828C2280E1E7B287C288E288D
:1000F8000E1F7F2880288E282700941E8428852894
:100108008728200010122700941F8B288C288E28FF
:100118002000101220000E1E92289328A1282700E4
:10012800941E972898289A28200010122700941FB8
:100138009E289F28A1282000101220000E1FA52805
:10014800A628B4282700941EAA28AB28AD2820008A
:1001580010122700941FB128B228B42820001012CA
:100168002700941EB828B928BB28200010122700A1
:10017800941FBF28C028C228200010122000101287
:100188007E1009008031C828D03084008F30850067
:10019800A03086000030870030308E31A6268031AE
:1001A800353084008F30850020308600013087008C
:1001B80018308E31A6268031F901FA01FB01FC01C5
:1001C800EA01EB01EC01ED01D0308400003085003C
:1001D8000D308E31A02680317E1020008031F42829
:1001E8008F314D278031B8308600003087003A3093
:1001F8008400003085001830F70016001A00F70B4D
:100208000129A03086000030870052308400003079
:1002180085001830F70016001A00F70B0F29203058
:1002280086000130870020308400003085001830B7
:10023800F70016001A00F70B1D298E317026803141
:1002480020005508F1005408F0008E3183268031D3
:100258008E316D2680318E317626803120003D0822
:10026800F1003C08F0008E31872680318E317326EC
:1002780080318731012780310230F800B530F7002E
:100288005A30890B4529F70B4529F80B45298F3139
:100298008B2780310230F800B530F7005A30890BCF
:1002A8005329F70B5329F80B53298F318B278031AA
:1002B8000430F8002030F700FC30890B6129F70B77
:1002C8006129F80B61298E31702680312000510890
:1002D800F1005008F0008E31832680318E316D2672
:1002E80080318F318B2780310230F800B530F7002C
:1002F8005A30890B7D29F70B7D29F80B7D298F3121
:100308008B2780310230F800B530F7005A30890B5E
:100318008B29F70B8B29F80B8B290230F8006C30EE
:10032800F700A030890B9629F70B9629F80B962928
:100338008731012780310230F8006C30F700A03097
:10034800890BA429F70BA429F80BA4294930F70035
:10035800B930890BAD29F70BAD2900008E31702615
:10036800803120005B08F1005A08F0008E318326A6
:1003780080318E316D2680318F318B27803102306C
:10038800F800B530F7005A30890BC829F70BC8298F
:10039800F80BC8298F318B2780310530F8008C3055
:1003A800F7009E30890BD629F70BD629F80BD629EA
:1003B8008E317026803120005F08F1005E08F00061
:1003C8008E31832680318E316D2680318E317626AE
:1003D800803120004308F1004208F0008E31872662
:1003E80080318E3173268031873101278031023088
:1003F800F800B530F7005A30890B002AF70B002AAD
:10040800F80B002A8731012780310230F800B53017
:10041800F7005A30890B0E2AF70B0E2AF80B0E2A12
:100428008F318B2780310430F8002030F700FC3002
:10043800890B1C2AF70B1C2AF80B1C2A8E317026F4
:10044800803120005B08F1005A08F0008E318326C5
:1004580080318E316D2680318E31762680312000B4
:100468004708F1004608F0008E31872680318E312A
:10047800732680318F318B2780310230F800B530F8
:10048800F7005A30890B462AF70B462AF80B462AFA
:100498008F318B2780310330F8008530F700243006
:1004A800890B542AF70B542AF80B542A8E317026DC
:1004B800803120006508F1006408F0008E31832641
:1004C80080318E316D2680318E3176268031200044
:1004D8005108F1005008F0008E31872680318E31A6
:1004E800732680318731012780310230F800B5301A
:1004F800F7005A30890B7E2AF70B7E2AF80B7E2AE2
:100508008E317026803120006308F1006208F00007
:100518008E31832680318E316D2680318F318B2745
:1005280080310230F8004D30F7007430890B9A2A78
:10053800F70B9A2AF80B9A2A00328E3170268031EE
:1005480020005508F1005408F0008E3183268031D0
:100558008E316D2680318F318B278031E530F70061
:100568009130890BB52AF70BB52A00008E31762613
:10057800803120006908F1006808F0008E31872674
:1005880080318E31732680318731012780310230E6
:10059800F800B530F7005A30890BD02AF70BD02A6B
:1005A800F80BD02A8F318B2780310230F800B53014
:1005B800F7005A30890BDE2AF70BDE2AF80BDE2A01
:1005C8008F318B2780310430F8002030F700FC3061
:1005D800890BEC2AF70BEC2AF80BEC2A8E317626DD
:1005E800803120002308F1002208F0008E31872690
:1005F80080318E31732680318F318B2780310230E4
:10060800F800B530F7005A30890B082BF70B082B88
:10061800F80B082B8F318B2780310230F800B5306A
:10062800F7005A30890B162BF70B162BF80B162BE5
:100638008731012780310430F8002030F700FC3082
:10064800890B242BF70B242BF80B242B8E317626C1
:10065800803120006908F1006808F0008E31872693
:1006680080318E31732680318F318B278031023073
:10067800F800B530F7005A30890B402BF70B402BA8
:10068800F80B402B8F318B2780317D30F700AC3051
:10069800890B4C2BF70B4C2B8E317626803105308D
:1006A800F8000F30F700F130890B582BF70B582B57
:1006B800F80B582B000020006908F1006808F000CA
:1006C8008E31872680318E3173268031873101271C
:1006D80080310230F800B530F7005A30890B722BA0
:1006E800F70B722BF80B722B8F318B27803102306E
:1006F800F800B530F7005A30890B802BF70B802BA8
:10070800F80B802B8F318B2780310430F80035307F
:10071800F700C330890B8E2BF70B8E2BF80B8E2B23
:1007280000008E317626803120006708F1006608C7
:10073800F0008E31872680318E31732680318F31DB
:100748008B278031D030F700CA30890BA92BF70BE3
:10075800A92B8F3169278031D030F700CA30890B37
:10076800B32BF70BB32B8F31692780310A30F80090
:100778006B30F7005B30890BBF2BF70BBF2BF80BE7
:10078800BF2B00008E317626803120006308F100EF
:100798006208F0008E31872680318E3173268031D1
:1007A8008F318B278031D030F700CA30890BDA2B94
:1007B800F70BDA2B8F3169278031D030F700CA3038
:1007C800890BE42BF70BE42B8F316927803102303A
:1007D800F8004D30F7007430890BF02BF70BF02B35
:1007E800F80BF02B00328E31702680312000230860
:1007F800F1002208F0008E31832680318E316D267B
:1008080080318E317626803120003D08F1003C0889
:10081800F0008E31872680318E3173268031873102
:10082800012780310230F800B530F7005A30890BC3
:100838001B2CF70B1B2CF80B1B2C8F318B278031B3
:100848000230F800B530F7005A30890B292CF70B25
:10085800292CF80B292C8F318B2780310430F80094
:100868002030F700FC30890B372CF70B372CF80BAE
:10087800372C8E317026803120006908F100680815
:10088800F0008E31832680318E316D2680318F3194
:100898008B2780310230F800B530F7005A30890BC9
:1008A800532CF70B532CF80B532C8F318B2780319B
:1008B8000230F800B530F7005A30890B612CF70B7D
:1008C800612CF80B612C0330F800D830F700423067
:1008D800890B6C2CF70B6C2CF80B6C2C87310127CF
:1008E80080314930F700B930890B782CF70B782C18
:1008F80000008E317026803120002908F100280878
:10090800F0008E31832680318E316D2680318F3113
:100918008B2780310230F800B530F7005A30890B48
:10092800932CF70B932CF80B932C8F318B2780315A
:100938000330F8008530F7002430890BA12CF70B21
:10094800A12CF80BA12C8E317026803120002308B1
:10095800F1002208F0008E31832680318E316D2619
:1009680080318E317626803120004308F10042081C
:10097800F0008E31872680318E31732680318731A1
:10098800012780310230F800B530F7005A30890B62
:10099800CB2CF70BCB2CF80BCB2C873101278031D4
:1009A8000230F800B530F7005A30890BD92CF70B14
:1009B800D92CF80BD92C8F318B2780310330F800D4
:1009C8008530F7002430890BE72CF70BE72CF80B60
:1009D800E72C8E317026803120006908F100680804
:1009E800F0008E31832680318E316D2680318F3133
:1009F8008B2780310230F800B530F7005A30890B68
:100A0800032DF70B032DF80B032D8F318B27803126
:100A18000230F800B530F7005A30890B112DF70B6A
:100A2800112DF80B112D8731012780318E31762653
:100A380080318E317026803120006308F100620811
:100A4800F0008E31832680318E316D268031200072
:100A58004308F1004208F0008E31872680318E313C
:100A6800732680318F318B2780310430F800543061
:100A7800F700EE30890B3E2DF70B3E2DF80B3E2D7F
:100A880000328E317026803120006508F10064083C
:100A9800F0008E31832680318E316D2680318E3183
:100AA8007626803120003F08F1003E08F0008E31A4
:100AB800872680318E31732680318F318B278031A4
:100AC8000430F8005430F700EE30890B692DF70B2D
:100AD800692DF80B692D00328E3170268031200087
:100AE8006908F1006808F0008E31832680318E3164
:100AF8006D2680318E317626803120003D08F10048
:100B08003C08F0008E31872680318E317326803183
:100B18008731012780310230F800B530F7005A30AC
:100B2800890B942DF70B942DF80B942D8F318B276F
:100B380080310230F800B530F7005A30890BA22D09
:100B4800F70BA22DF80BA22D8F318B2780310430A3
:100B5800F8002B30F7005F30890BB02DF70BB02D64
:100B6800F80BB02D00008E31702680318E3176263C
:100B7800803120006508F1006408F0008E3183267A
:100B880080318E316D26803120004308F100420803
:100B9800F0008E31872680318E31732680318F3177
:100BA8008B2780310230F800B530F7005A30890BB6
:100BB800DB2DF70BDB2DF80BDB2D8F318B278031ED
:100BC8000230F800B530F7005A30890BE92DF70BE1
:100BD800E92DF80BE92D8731012780310430F80021
:100BE8002B30F7005F30890BF72DF70BF72DF80B3B
:100BF800F72D00008E31702680318E3176268031B7
:100C080020002908F1002808F0008E318326803161
:100C18008E316D26803120004708F1004608F0002B
:100C28008E31872680318E31732680318F318B2724
:100C380080310230F800B530F7005A30890B222E87
:100C4800F70B222EF80B222E8F318B2780310330A1
:100C5800F8008530F7002430890B302EF70B302E42
:100C6800F80B302E8E31762680318E317026803109
:100C780020006308F1006208F0008E31832680317D
:100C88008E316D26803120004708F1004608F000BB
:100C98008E31872680318E31732680318731012746
:100CA80080310230F800B530F7005A30890B5A2EDF
:100CB800F70B5A2EF80B5A2E873101278031023054
:100CC800F800B530F7005A30890B682EF70B682EFC
:100CD800F80B682E8F318B2780310330F800AE3047
:100CE800F700B330890B762EF70B762EF80B762E9D
:100CF80000008E31702680318E31762680312000BA
:100D08006508F1006408F0008E31832680318E3149
:100D18006D26803120004308F1004208F0008E3132
:100D2800872680318E31732680318F318B27803131
:100D38000230F800B530F7005A30890BA12EF70BB6
:100D4800A12EF80BA12E8F318B2780310230F800AD
:100D5800B530F7005A30890BAF2EF70BAF2EF80BD2
:100D6800AF2E8731012780310230F800B530F70007
:100D78005A30890BBD2EF70BBD2EF80BBD2E8F31C7
:100D8800692780310230F8005730F700D830890BD6
:100D9800CB2EF70BCB2EF80BCB2E00328F316927D9
:100DA80080310230F8005730F700D830890BDA2E3E
:100DB800F70BDA2EF80BDA2E00328F3169278031E3
:100DC8000B30F7006230890BE72EF70BE72E003265
:100DD8008E31702680318E31762680315230F8007F
:100DE8002B30F7000030890BF72EF70BF72EF80B96
:100DF800F72E003221298031C6288E317C26873192
:100E08008030F0000030F1008E318B2687318E3132
:100E1800792687310B30F2006230890B112FF20BE3
:100E2800112F00328E317C2687316430F00000307B
:100E3800F1008E318B2687318E31792687310B3040
:100E4800F2006230890B262FF20B262F00328E31EA
:100E58007C2687315030F0000030F1008E318B262F
:100E680087318E31792687310B30F2006230890B59
:100E78003B2FF20B3B2F00328E317C2687313230EC
:100E8800F0000030F1008E318B2687318E317926C3
:100E980087310B30F2006230890B502FF20B502F44
:100EA80000328E317C2687311E30F0000030F10090
:100EB8008E318B2687318E31792687310B30F200BF
:100EC8006230890B652FF20B652F0032F301F401B4
:100ED8008E317C2687317408F1007308F0008E315A
:100EE8008B2687318E31792687310B30F2006230BC
:100EF800890B7C2FF20B7C2F00320230F307003075
:100F0800F43D7408803AF20081307202031D8E2F7E
:100F180000307302031C912F922F6C2F8E317C2688
:100F28008731FF30F0000030F1008E318B26873199
:100F38008E31792687316830F200E430890BA22F90
:100F4800F20BA22F00328E317C2687310800220056
:100F58008C0150308D008E011F3021008C00F03044
:100F68008D00C0308E00103023008C008D01383089
:100F78008E0024008C018D018E0125008C018D01CD
:100F88008E01373026008C00F0308D00FF308E0047
:100F98003F3027008C00F0308D00FF308E0002308B
:100FA8003D00A5000330A3000E303C00A00018301F
:100FB8003D009E000C303C00A10019303D009C0013
:100FC80014303C0094000C303D00A400270091012F
:100FD8009201930194019501960197019801990155
:100FE8000800700871040319FA2FFB2FFF2F7108EE
:080FF800FC007008FB0008007A
:101CD40024001614080020001F15080020001F11FE
:101CE400080028001715080028001711080028000C
:101CF4001E15080028001E11080021009115111559
:101D04000800700820009E00080070082800960053
:101D14000800700828009D0008007108FA00700887
:101D2400F900080071082000ED007008EC000800BC
:101D340071082000EB007008EA00080064008001CC
:101D44000131890BA12E0034FE0012001E00FE0B8F
:101D5400A72E00348E316A268E3102302100DC0039
:101D640008008F302500930092017F3091000330EA
:101D74009F0408006030320099009B019D010730E8
:101D84009F009E019C01080080302C0099001F30A8
:101D94009800C03097001F08FC3901389F000800E4
:101DA40080302C009C001F309B00C0309A001F081C
:101DB400F33908389F0008003F3020009E009D0141
:101DC400911007309F000030F0000030F1008E3198
:101DD4008F268E310800F001F00A21005008031DFF
:101DE400F42EF52EFB2E24009419F92EFA2EFB2E38
:101DF400F001700808003F3028009600950120008B
:101E040092100730280097000030F0000030F100F5
:101E14008E3194268E3108003F3028009D009C01AD
:101E240020009213073028009E000030F00000309C
:101E3400F1008E319A268F310800803024009400FE
:101E440008309500960197014F3092008E317F261D
:101E54008F310030F0000030F1008731F5278F31E9
:101E64002400951608003E3400343A3400343834E3
:101E7400003434340034313400342E3400342C34FF
:101E84000034293400342734003425340034233416
:101E94000034213400348E31BC268F318731AB2796
:101EA4008F318F311F278F318E31B3268F318E3191
:101EB400C6268F318E31D2268F318E31DE268F3178
:101EC4008E31FD268F318F310E278F310800FF3080
:101ED400F3000030F4008E317C268F317408F10059
:101EE4007308F0008E318B268F318E3179268F3135
:101EF4000B30F2006230890B7D2FF20B7D2F003204
:101F0400F830F307FF30F43DF41F892F8A2F6D2F2B
:101F14000800FF30F3000030F4008E317C268F314E
:101F24007408F1007308F0008E318B268F318E31E6
:101F340079268F310B30F2006230890B9F2FF20B20
:101F44009F2F0032FE30F307FF30F43DF41FAB2F18
:101F5400AC2F8F2F0800F6018E31ED268F31003A19
:101F6400031DB52FB62FCE2F01302100D0007208EB
:101F7400D2007108D100DA017308D3007508D500C6
:101F84007408D400D601D701D801D901DB018E3100
:101F9400AC268F31F601F60A760808007E34003448
:101FA40076340034703400346934003463340034DB
:101FB4005E34003458340034533400344F34003425
:101FC4004A3400344634003442340034FC3400349F
:101FD400EE340034E0340034D4340034C8340034F3
:101FE400BD340034B2340034A83400349E34003498
:101FF400953400348D340034853400341F340F3468
:1020040000340034AD340F34003400340034003470
:102014000034003400340034ED340E34F534073425
:10202400003400340034003400340034003400340C
:1020340000340034003400340034003400340034FC
:102044000034003400340034303402342A34003490
:020000040001F9
:08000E008F3EF33FFF3FFF3F6F
:02E00000FF001F
:00000001FF
