:040000008031C6285D
:100008007E1480312000101E0A280B28C2282700E1
:10001800111C0F2810281228200010122700911CEC
:10002800162817281928200010122700111D1D282E
:100038001E2820282000101220000C1C2428252807
:100048006F280E1E282829283B280E1F2C282D280B
:100058003B282700941E312832283428200010120B
:100068002700941F382839283B2820001012200028
:100078000E1E3F2840284E282700941E4428452855
:100088004728200010122700941F4B284C284E2880
:100098002000101220000E1F522853286128270024
:1000A800941E572858285A28200010122700941FF9
:1000B8005E285F286128200010122700941E6528FA
:1000C80066286828200010122700941F6C286D28C5
:1000D8006F282000101220008C18732874287828A4
:1000E8000C1D77287828C2280E1E7B287C288E288D
:1000F8000E1F7F2880288E282700941E8428852894
:100108008728200010122700941F8B288C288E28FF
:100118002000101220000E1E92289328A1282700E4
:10012800941E972898289A28200010122700941FB8
:100138009E289F28A1282000101220000E1FA52805
:10014800A628B4282700941EAA28AB28AD2820008A
:1001580010122700941FB128B228B42820001012CA
:100168002700941EB828B928BB28200010122700A1
:10017800941FBF28C028C228200010122000101287
:100188007E1009008031C8288430840083308500BF
:10019800A03086000030870030308431C52480319B
:1001A800F3308400833085002030860001308700DA
:1001B80018308431C5248031F901FA01FB01FC01B2
:1001C800EA01EB01EC01ED01D0308400003085003C
:1001D8000D308431CB2480317E1020008031F4280A
:1001E8008331D7238031B830860000308700203033
:1001F8008400003085001830F70016001A00F70B4D
:100208000129A03086000030870038308400003093
:1002180085001830F70016001A00F70B0F29203058
:100228008600013087005030840000308500183087
:10023800F70016001A00F70B1D298431EE248031CF
:100248008431F724803120004F08F1004E08F00077
:100258008431E62480318431FA2480318431F124D8
:10026800803120002F08F1002E08F0008431E224AC
:1002780080318431F42480311130F800A430F70043
:10028800B030890B4529F70B4529F80B4529003271
:100298008431F724803120005308F1005208F0001F
:1002A8008431E62480318431FA2480310930F80021
:1002B8008630F700CA30890B5F29F70B5F29F80BE6
:1002C8005F298431F724803120005508F100540853
:1002D800F0008431E62480318431FA2480310F30F3
:1002E800F8009D30F7003630890B7829F70B78290C
:1002F800F80B782900328431F7248031200059081E
:10030800F1005808F0008431E62480318431FA2461
:1003180080310F30F8009D30F7003630890B922974
:10032800F70B9229F80B922900328431F724803197
:1003380020005D08F1005C08F0008431E62480317B
:100348008431FA2480310930F8001E30F700E43097
:10035800890BAC29F70BAC29F80BAC290032843196
:10036800F124803120003708F1003608F00084318C
:10037800E22480318431F42480311130F800A43033
:10038800F700B030890BC629F70BC629F80BC62928
:1003980000328431F124803120003B08F1003A0812
:1003A800F0008431E22480318431F4248031053036
:1003B800F8007730F700D630890BE029F70BE029F1
:1003C800F80BE02900328431F72480310530F80039
:1003D8000F30F700F130890BEF29F70BEF29F80BF5
:1003E800EF2900008431F124803120003D08F1001C
:1003F8003C08F0008431E22480318431F4248031D7
:100408000930F8001E30F700E430890B092AF70B91
:10041800092AF80B092A003220005D08F1005C085F
:10042800F0008431E62480318431FA2480310930A7
:10043800F8008630F700CA30890B202AF70B202AEB
:10044800F80B202A8431F124803120004108F10082
:100458004008F0008431E22480318431F424803172
:100468000930F8001E30F700E430890B392AF70B01
:10047800392AF80B392A00328431F72480312000D8
:100488006708F1006608F0008431E6248031843181
:10049800FA2480310930F8008630F700CA30890B19
:1004A800532AF70B532AF80B532A8431F12480314D
:1004B80020004708F1004608F0008431E22480312A
:1004C8008431F42480310530F8000F30F700F13022
:1004D800890B6C2AF70B6C2AF80B6C2A0000843104
:1004E800F72480310530F8000F30F700F130890B20
:1004F8007B2AF70B7B2AF80B7B2A00002000670871
:10050800F1006608F0008431E62480318431FA2451
:1005180080310530F8007730F700D630890B922A01
:10052800F70B922AF80B922A00328431F124803199
:1005380020004508F1004408F0008431E2248031AD
:100548008431F42480310630F8007B30F700933092
:10055800890BAC2AF70BAC2AF80BAC2A0000173031
:10056800F800BB30F7001D30890BB82AF70BB82A02
:10057800F80BB82A00001730F800BB30F7001D3020
:10058800890BC42AF70BC42AF80BC42A000084314B
:10059800F124803120003B08F1003A08F000843152
:1005A800E22480318431F42480310B30F8008E301D
:1005B800F7004330890BDE2AF70BDE2AF80BDE2A18
:1005C80000008431F724803120006508F1006408B8
:1005D800F0008431E62480318431FA24803184317A
:1005E800F124803120002D08F1002C08F00084311E
:1005F800E22480318431F42480311730F800BB3094
:10060800F7001D30890B062BF70B062BF80B062B72
:1006180000001730F800BB30F7001D30890B122B93
:10062800F70B122BF80B122B00000630F8007B306A
:10063800F7009330890B1E2BF70B1E2BF80B1E2B84
:1006480000008431F12480318431F724803117305F
:10065800F800BB30F7001D30890B302BF70B302B1F
:10066800F80B302B000021298031C62822008C018C
:1006780050308D008E011F3021008C00F0308D002D
:10068800C0308E00103023008C008D0138308E0071
:1006980024008C018D018E0125008C018D018E01B5
:1006A800373026008C00F0308D00FF308E003F3050
:1006B80027008C00F0308D00FF308E0002303D00A6
:1006C800A5000330A3000E303C00A00018303D0008
:1006D8009E000C303C00A10019303D009C001430F5
:1006E8003C0094000C303D00A400270091019201C9
:1006F80093019401950196019701980199010800C9
:100708007E34003476340034703400346934003474
:10071800633400345E3400345834003453340034C5
:100728004F3400344A340034463400344234003400
:10073800FC340034EE340034E0340034D434003473
:10074800C8340034BD340034B2340034A834003422
:100758009E340034953400348D34003485340034AC
:10076800F601843169248331003A031DBC2BBD2B6B
:10077800D52B01302100D0007208D2007108D100B9
:10078800DA017308D3007508D5007408D400D601BF
:10079800D701D801D901DB018431BE248331F601A8
:1007A800F60A760808008431AB24833183313A2372
:1007B800833184310B2483318431B52483318431EE
:1007C800942483318431882483318431792483319A
:1007D80084315824833184314724833108003E34DE
:1007E80000343A340034383400343434003431348A
:1007F80000342E3400342C340034293400342734A7
:10080800003425340034233400342134003480305B
:100818002400940008309500960197014F3092000B
:100828008431EA2484310030F0000030F100843152
:10083800A02484312400951608000B3404340034B5
:100848000034B43403340034003400340034003449
:1008580000340034003469340434A03404340034DF
:1008680000340034003400340034003400340034E0
:1008780000340034003400340034003400340034D0
:100888000034003400343F3028009D009C012000D3
:100898009213073028009E000030F0000030F1006D
:1008A8008431D124843108003F3028009600950116
:1008B800200092100730280097000030F000003028
:1008C800F1008431D72484310800F001F00A2100B6
:1008D8005008031D702C712C772C24009419752C4A
:1008E800762C772CF001700808003F3020009E001D
:1008F8009D01911007309F000030F0000030F1009A
:100908008431DD248431080080302C009C001F30A5
:100918009B00C0309A001F08F33908389F00080070
:1009280080302C0099001F309800C03097001F08B5
:10093800FC3901389F000800700871040319A52CC0
:10094800A62CAA2C7108FC007008FB000800603077
:10095800320099009B019D0107309F009E019C0178
:1009680008008F302500930092017F3091000330FA
:100978009F0408008431FD24843102302100DC000A
:100988000800FE0012001E00FE0BC62C0034640096
:1009980080010131890BCC2C003471082000EB0058
:1009A8007008EA00080071082000ED007008EC00EB
:1009B80008007108FA007008F9000800700828009B
:1009C80096000800700820009E000800210091157C
:1009D8001115080028001E1108002800171108002A
:1009E80028001715080020001F11080020001F15F7
:1009F80008002400161408002A3400343034023465
:020000040001F9
:08000E008F3EF33FFF3FFF3F6F
:02E00000FF001F
:00000001FF
