:040000008031C6285D
:100008007E1480312000101E0A280B28C2282700E1
:10001800111C0F2810281228200010122700911CEC
:10002800162817281928200010122700111D1D282E
:100038001E2820282000101220000C1C2428252807
:100048006F280E1E282829283B280E1F2C282D280B
:100058003B282700941E312832283428200010120B
:100068002700941F382839283B2820001012200028
:100078000E1E3F2840284E282700941E4428452855
:100088004728200010122700941F4B284C284E2880
:100098002000101220000E1F522853286128270024
:1000A800941E572858285A28200010122700941FF9
:1000B8005E285F286128200010122700941E6528FA
:1000C80066286828200010122700941F6C286D28C5
:1000D8006F282000101220008C18732874287828A4
:1000E8000C1D77287828C2280E1E7B287C288E288D
:1000F8000E1F7F2880288E282700941E8428852894
:100108008728200010122700941F8B288C288E28FF
:100118002000101220000E1E92289328A1282700E4
:10012800941E972898289A28200010122700941FB8
:100138009E289F28A1282000101220000E1FA52805
:10014800A628B4282700941EAA28AB28AD2820008A
:1001580010122700941FB128B228B42820001012CA
:100168002700941EB828B928BB28200010122700A1
:10017800941FBF28C028C228200010122000101287
:100188007E1009008031C8289F30840084308500A3
:10019800A03086000030870030308631022680315A
:1001A800303084008530850020308600013087009B
:1001B8001830863102268031F901FA01FB01FC0171
:1001C800EA01EB01EC01ED01D0308400003085003C
:1001D8000D308631082680317E1020008031F428C9
:1001E800853114258031B8308600003087002030F2
:1001F8008400003085001830F70016001A00F70B4D
:100208000129A03086000030870038308400003093
:1002180085001830F70016001A00F70B0F29203058
:100228008600013087005030840000308500183087
:10023800F70016001A00F70B1D2986312F2680318A
:1002480086313B26803120004F08F1004E08F0002F
:1002580086312726803186313E2680318631352603
:10026800803120002F08F1002E08F0008631232667
:1002780080318631382680318331AB23803102309A
:10028800F800B530F7005A30890B4829F70B482990
:10029800F80B48298431F22480310530F800053004
:1002A800F7008D30890B5629F70B5629F80B56297C
:1002B800000086313B26803120005308F1005208A7
:1002C800F00086312726803186313E268031843100
:1002D800F22480310430F8005430F700EE30890BF6
:1002E8007329F70B7329F80B7329003286313B26E3
:1002F800803120005508F1005408F0008631272687
:10030800803186313E2680318431F22480310230BA
:10031800F800B530F7005A30890B9029F70B90296F
:10032800F80B90298431F22480310330F8008530AD
:10033800F7002430890B9E29F70B9E29F80B9E297C
:1003480086313B26803120005908F1005808F0001A
:1003580086312726803186313E2680318331AB2392
:1003680080310230F800B530F7005A30890BBA29CD
:10037800F70BBA29F80BBA298431F22480310230FC
:10038800F800FE30F7001430890BC829F70BC8298C
:10039800F80BC82986313B26803120005D08F10022
:1003A8005C08F00086312726803186313E26803170
:1003B8008431F22480310230F800E930F7004C3003
:1003C800890BE429F70BE429F80BE429003286317C
:1003D8003526803120003708F1003608F0008631D4
:1003E800232680318631382680318331AB23803112
:1003F8000230F800B530F7005A30890B012AF70BA4
:10040800012AF80B012A8331AB2380310430F8002C
:100418004A30F7008A30890B0F2AF70B0F2AF80B9E
:100428000F2A003286313526803120003B08F10042
:100438003A08F0008631232680318631382680310B
:100448008431F224803186313B2680310430F80033
:10045800DB30F700FF30890B2F2AF70B2F2AF80B18
:100468002F2A000086313526803120003D08F10012
:100478003C08F000863123268031863138268031C9
:100488008431F22480310330F800B930F700163097
:10049800890B4C2AF70B4C2AF80B4C2A0032200007
:1004A8005D08F1005C08F00086312726803186312E
:1004B8003E2680318431F22480310330F8008530C3
:1004C800F7002430890B662AF70B662AF80B662A90
:1004D80086313526803120004108F1004008F000BF
:1004E8008631232680318631382680318331AB230B
:1004F8008031C630F7006630890B802AF70B802AD6
:1005080086313B26803120006708F1006608F0003C
:1005180086312726803186313E2680318431F22487
:1005280080310330F8008530F7002430890B9A2A8F
:10053800F70B9A2AF80B9A2A863135268031200043
:100548004708F1004608F0008631232680318631BD
:10055800382680318431F224803186313B2680313F
:100568000430F800BC30F700D430890BB92AF70BF7
:10057800B92AF80BB92A20006708F1006608F000CC
:1005880086312726803186313E26803186313526D0
:10059800803120004508F1004408F0008631232608
:1005A80080318631382680318331AB238031023067
:1005B800F800B530F7005A30890BE02AF70BE02A2B
:1005C800F80BE02A8431F22480310330F8008530BA
:1005D800F7002430890BEE2AF70BEE2AF80BEE2AE7
:1005E8008431F22480310330F8008530F70024305C
:1005F800890BFC2AF70BFC2AF80BFC2A8431F2241D
:1006080080310330F8008530F7002430890B0A2B3D
:10061800F70B0A2BF80B0A2B8431F22480310330B4
:10062800F8008530F7002430890B182BF70B182BAE
:10063800F80B182B8331AB2380310230F800773068
:10064800F7000330890B262BF70B262BF80B262BEC
:10065800000086313526803120003B08F1003A0839
:10066800F000863123268031863138268031843166
:10067800F22480310230F800B530F7005A30890B87
:10068800432BF70B432BF80B432B8431F224803197
:100698000530F8008C30F7009E30890B512BF70B92
:1006A800512BF80B512B86313B26803120006508F1
:1006B800F1006408F00086312726803186313E2615
:1006C800803186313526803120002D08F1002C0834
:1006D800F000863123268031863138268031123069
:1006E800F8008930F7004230890B782BF70B782B0C
:1006F800F80B782B1730F800BB30F7001D30890B4A
:10070800832BF70B832BF80B832B00000630F800A4
:100718007B30F7009330890B8F2BF70B8F2BF80B5F
:100728008F2B000086313526803186313B2680317B
:100738001730F800BB30F7001D30890BA12BF70BE1
:10074800A12BF80BA12B000021298031C628863166
:100758002F2683318030F0000030F10086311F26CB
:1007680083318631322683310B30F2006230890BB7
:10077800BB2BF20BBB2B003286312F268331643022
:10078800F0000030F10086311F2683318631322691
:1007980083310B30F2006230890BD02BF20BD02B57
:1007A800003286312F2683315030F0000030F100BE
:1007B80086311F2683318631322683310B30F20091
:1007C8006230890BE52BF20BE52B003286312F26A0
:1007D80083313230F0000030F10086311F2683313A
:1007E8008631322683310B30F2006230890BFA2BC6
:1007F800F20BFA2B003286312F2683311E30F0009F
:100808000030F10086311F2683318631322683314C
:100818000B30F2006230890B0F2CF20B0F2C0032D8
:10082800F301F40186312F2683317408F10073082F
:10083800F00086311F2683318631322683310B3012
:10084800F2006230890B262CF20B262C0032023083
:10085800F3070030F43D7408803AF20081307202E8
:10086800031D382C00307302031C3B2C3C2C162C27
:1008780086312F268331FF30F0000030F1008631B9
:100888001F2683318631322683316830F200E43006
:10089800890B4C2CF20B4C2C003286312F268331DD
:1008A800080022008C0150308D008E011F3021007D
:1008B8008C00F0308D00C0308E00103023008C008A
:1008C8008D0138308E0024008C018D018E012500A9
:1008D8008C018D018E01373026008C00F0308D00A0
:1008E800FF308E003F3027008C00F0308D00FF3045
:1008F8008E0002303D00A5000330A3000E303C00FE
:10090800A00018303D009E000C303C00A1001930BA
:100918003D009C0014303C0094000C303D00A400C5
:100928002700910192019301940195019601970185
:100938009801990108007E3400347634003470340C
:10094800003469340034633400345E34003458347D
:100958000034533400344F3400344A3400344634BD
:10096800003442340034FC340034EE340034E034D3
:100978000034D4340034C8340034BD340034B234C4
:100988000034A83400349E340034953400348D3457
:10099800003485340034F6018531A6258431003AC7
:1009A800031DD72CD82CF02C01302100D000720860
:1009B800D2007108D100DA017308D3007508D50098
:1009C8007408D400D601D701D801D901DB018531DB
:1009D800FB258431F601F60A76080800FF30F3009B
:1009E8000030F40086312F2684317408F100730832
:1009F800F00086311F2684318631322684310B304F
:100A0800F2006230890B062DF20B062D0032FE3003
:100A1800F307FF30F43DF41F122D132DF62C0800B8
:100A28008531E8258531843155248531853148253E
:100A380085318531F22585318531D125853185315D
:100A4800C52585318531B625853185319525853191
:100A580085318425853108003E3400343A34003429
:100A68003834003434340034313400342E34003413
:100A78002C3400342934003427340034253400342D
:100A880023340034213400348030240094000830AA
:100A98009500960197014F30920086312B268531BB
:100AA8000030F0000030F1008531DD25853124006B
:100AB800951608004834053400340034CF34043423
:100AC800003400340034003400340034003400347E
:100AD800A6340534DD3405340034003400340034E1
:100AE800003400340034003400340034003400345E
:100AF800003400340034003400340034003400344E
:100B08003F3028009D009C012000921307302800E8
:100B18009E000030F0000030F10086310E2685314D
:100B280008003F30280096009501200092100730F9
:100B3800280097000030F0000030F10086311426BC
:100B480085310800F001F00A21005008031DAD2D81
:100B5800AE2DB42D24009419B22DB32DB42DF0016F
:100B6800700808003F3020009E009D01911007305A
:100B78009F000030F0000030F10086311A268531E0
:100B8800080080302C009C001F309B00C0309A0069
:100B98001F08F33908389F00080080302C0099009E
:100BA8001F309800C03097001F08FC3901389F009B
:100BB8000800700871040319E22DE32DE72D710870
:100BC800FC007008FB0008006030320099009B01AF
:100BD8009D0107309F009E019C0108008F30250071
:100BE800930092017F30910003309F040800863102
:100BF8004126853102302100DC000800FE00120089
:100C08001E00FE0B032E0034640080010131890BA5
:100C1800092E003471082000EB007008EA00080073
:100C280071082000ED007008EC0008007108FA0057
:100C38007008F9000800700828009D000800700876
:100C4800280096000800700820009E000800210077
:100C580091151115080028001E11080028001E15FE
:100C680008002800171108002800171508002000A0
:100C78001F11080020001F15080024001614080082
:080C88002A3400343034023438
:020000040001F9
:08000E008F3EF33FFF3FFF3F6F
:02E00000FF001F
:00000001FF
