:040000008031C6285D
:100008007E1480312000101E0A280B28C2282700E1
:10001800111C0F2810281228200010122700911CEC
:10002800162817281928200010122700111D1D282E
:100038001E2820282000101220000C1C2428252807
:100048006F280E1E282829283B280E1F2C282D280B
:100058003B282700941E312832283428200010120B
:100068002700941F382839283B2820001012200028
:100078000E1E3F2840284E282700941E4428452855
:100088004728200010122700941F4B284C284E2880
:100098002000101220000E1F522853286128270024
:1000A800941E572858285A28200010122700941FF9
:1000B8005E285F286128200010122700941E6528FA
:1000C80066286828200010122700941F6C286D28C5
:1000D8006F282000101220008C18732874287828A4
:1000E8000C1D77287828C2280E1E7B287C288E288D
:1000F8000E1F7F2880288E282700941E8428852894
:100108008728200010122700941F8B288C288E28FF
:100118002000101220000E1E92289328A1282700E4
:10012800941E972898289A28200010122700941FB8
:100138009E289F28A1282000101220000E1FA52805
:10014800A628B4282700941EAA28AB28AD2820008A
:1001580010122700941FB128B228B42820001012CA
:100168002700941EB828B928BB28200010122700A1
:10017800941FBF28C028C228200010122000101287
:100188007E1009008031C8284730840083308500FC
:10019800A0308600003087003030843168248031F8
:1001A8009A30840083308500203086000130870033
:1001B8001830843168248031F901FA01FB01FC010F
:1001C800EA01EB01D0308400003085000D30843125
:1001D8006E2480317E1020008031F2288331B223D2
:1001E8008031B830860000308700523084000030FB
:1001F80085001830F70016001A00F70BFF28A0300A
:1002080086000030870038308400003085001830C0
:10021800F70016001A00F70B0D2920308600013070
:10022800870020308400003085001830F700160061
:100238001A00F70B1B2984319124803120003B08D8
:10024800F1003A08F0008431832480318431942409
:10025800803184318B24803120005508F100540806
:10026800F00084317F24803184318E24803119302C
:10027800F800C230F7009730890B4029F70B402966
:10028800F80B40290000843191248031200069084E
:10029800F1006808F000843183248031843194248B
:1002A80080311930F800C230F7009730890B5A298D
:1002B800F70B5A29F80B5A29000084319124803110
:1002C80020004108F1004008F00084318324803187
:1002D8008431942480310D30F8006130F700CA3041
:1002E800890B7429F70B7429F80B742900328431AF
:1002F8009124803120003B08F1003A08F000843155
:100308008324803184319424803184318B2480315A
:1003180020005B08F1005A08F00084317F24803106
:1003280084318E2480311930F800C230F7009730BC
:10033800890B9C29F70B9C29F80B9C290000843118
:100348009124803120006908F1006808F0008431A8
:10035800832480318431942480311730F800BB30F5
:10036800F7001D30890BB629F70BB629F80BB6290B
:10037800000084318B2480310330F8000830F70006
:100388007730890BC529F70BC529F80BC52900005B
:1003980084319124803120006308F1006208F00064
:1003A80084318324803184319424803184318B24B6
:1003B800803120005B08F1005A08F00084317F2466
:1003C800803184318E2480310730F8002C30F700DA
:1003D8003230890BED29F70BED29F80BED29843123
:1003E8009124803120006508F1006408F000843110
:1003F8008324803184319424803184318B2480316A
:1004080020005708F1005608F00084317F2480311D
:1004180084318E2480310730F8002C30F7003230D8
:10042800890B142AF70B142AF80B142A8431912407
:10043800803120006908F1006808F00084318324C5
:10044800803184319424803184318B2480312000A0
:100458005508F1005408F00084317F24803184313C
:100468008E2480311930F800C230F7009730890B9C
:100478003B2AF70B3B2AF80B3B2A000084319124D6
:10048800803184318B24803120006508F1006408B4
:10049800F000843183248031843194248031200019
:1004A8005B08F1005A08F00084317F2480318431E0
:1004B8008E2480311930F800C230F7009730890B4C
:1004C800632AF70B632AF80B632A0000843191240E
:1004D800803184318B24803120004108F1004008AC
:1004E800F0008431832480318431942480312000C9
:1004F8005F08F1005E08F00084317F248031843188
:100508008E2480310B30F8005A30F7005030890BB8
:100518008B2AF70B8B2AF80B8B2A003284318B2419
:1005280080310330F8000830F7007730890B9A2AB9
:10053800F70B9A2AF80B9A2A00008431912480310B
:1005480020006308F1006208F000843183248031C0
:1005580084319424803120005F08F1005E08F000A7
:1005680084317F24803184318E2480311930F80021
:10057800C230F7009730890BBF2AF70BBF2AF80B58
:10058800BF2A000084319124803184318B2480314A
:1005980020006508F1006408F0008431832480316C
:1005A80084319424803120005B08F1005A08F0005F
:1005B80084317F24803184318E2480311930F800D1
:1005C800C230F7009730890BE72AF70BE72AF80BB8
:1005D800E72A000084319124803184318B248031D2
:1005E8005230F8002B30F7000030890BF92AF70B4E
:1005F800F92AF80BF92A00321F298031C62822006F
:100608008C0150308D008E011F3021008C00F0309D
:100618008D00D0308E00103023008C008D012830E2
:100628008E0024008C018D018E0125008C018D0126
:100638008E01373026008C00F0308D00FF308E00A0
:100648003F3027008C00F0308D00FF308E000230E4
:100658003D00A5000330A3000E303C00A000183078
:100668003D009E000C303C00A10019303D009C006C
:100678002700910192019301940195019601970138
:100688009801990108007E340034763400347034BF
:10069800003469340034633400345E340034583430
:1006A8000034533400344F3400344A340034463470
:1006B800003442340034FC340034EE340034E03486
:1006C8000034D4340034C8340034BD340034B23477
:1006D8000034A83400349E340034953400348D340A
:1006E800003485340034F601843115248331003A0E
:1006F800031D7F2B802B982B01302100D00072081E
:10070800D2007108D100DA017308D3007508D5004A
:100718007408D400D601D701D801D901DB0184318E
:1007280061248331F601F60A760808003E34003465
:100738003A3400343834003434340034313400343A
:100748002E3400342C340034293400342734003457
:1007580025340034233400342134003484315724C0
:1007680083318331032383318331C8238331843137
:1007780040248331843134248331843125248331E6
:100788008431042483310800803024009400083028
:100798009500960197014F30920084318724833168
:1007A8000030F0000030F10084314C248331240003
:1007B80095160800C8340334003400347734033401
:1007C8000034003400340034003400340034003481
:1007D800153404344C340434003400340034003408
:1007E8000034003400340034003400340034003461
:1007F8000034003400340034003400340034003451
:100808003F302800960095012000921007302800FC
:1008180097000030F0000030F100843174248431F6
:100828000800F001F00A21005008031D1C2C1D2CA3
:10083800232C24009419212C222C232CF00170083D
:1008480008003F3020009E009D01911007309F0056
:100858000030F0000030F10084317A24843108003F
:1008680080302C009C001F309B00C0309A001F086D
:10087800F33908389F00080080302C0099001F3099
:100888009800C03097001F08FC3901389F00080005
:10089800700871040319512C522C562C7108FC0055
:1008A8007008FB0008006030320099009B019D0130
:1008B80007309F009E019C010800843197248431F1
:1008C80002302100DC000800FE0012001E00FE0BB2
:1008D800692C0034640080010131890B6F2C0034CD
:1008E80071082000EB007008EA0008007108FA009F
:1008F8007008F900080070082800960008007008C1
:1009080020009E00080021009115111508002800FC
:100918001711080028001715080020001F110800EB
:1009280020001F15080024001614080003340034A2
:0409380062340234EF
:020000040001F9
:08000E008F3EF33FFF3FFF3F6F
:02E00000FF001F
:00000001FF
