:040000008031C6285D
:100008007E1480312000101E0A280B28C2282700E1
:10001800111C0F2810281228200010122700911CEC
:10002800162817281928200010122700111D1D282E
:100038001E2820282000101220000C1C2428252807
:100048006F280E1E282829283B280E1F2C282D280B
:100058003B282700941E312832283428200010120B
:100068002700941F382839283B2820001012200028
:100078000E1E3F2840284E282700941E4428452855
:100088004728200010122700941F4B284C284E2880
:100098002000101220000E1F522853286128270024
:1000A800941E572858285A28200010122700941FF9
:1000B8005E285F286128200010122700941E6528FA
:1000C80066286828200010122700941F6C286D28C5
:1000D8006F282000101220008C18732874287828A4
:1000E8000C1D77287828C2280E1E7B287C288E288D
:1000F8000E1F7F2880288E282700941E8428852894
:100108008728200010122700941F8B288C288E28FF
:100118002000101220000E1E92289328A1282700E4
:10012800941E972898289A28200010122700941FB8
:100138009E289F28A1282000101220000E1FA52805
:10014800A628B4282700941EAA28AB28AD2820008A
:1001580010122700941FB128B228B42820001012CA
:100168002700941EB828B928BB28200010122700A1
:10017800941FBF28C028C228200010122000101287
:100188007E1009008031C8281F3084008530850022
:10019800A03086000030870030308631A4268031B8
:1001A800D2308400853085002030860001308700F9
:1001B80018308631A4268031F901FA01FB01FC01CF
:1001C800EA01EB01EC01ED01D0308400003085003C
:1001D8000D308631AA2680317E1020008031F42827
:1001E8008531B6258031B83086000030870052301E
:1001F8008400003085001830F70016001A00F70B4D
:100208000129A03086000030870038308400003093
:1002180085001830F70016001A00F70B0F29203058
:1002280086000130870020308400003085001830B7
:10023800F70016001A00F70B1D298631DD268031DC
:1002480020003B08F1003A08F0008631C9268031C9
:100258008631E02680318631D72680312000550846
:10026800F1005408F0008631C52680318631DA263F
:10027800803184312B2480310230F800B530F7000A
:100288005A30890B4529F70B4529F80B4529853143
:10029800722580310230F800B530F7005A30890BEA
:1002A8005329F70B5329F80B5329853172258031CF
:1002B8000430F8002030F700FC30890B6129F70B77
:1002C8006129F80B61298631DD2680312000690813
:1002D800F1006808F0008631C92680318631E026B1
:1002E80080318531722580310230F800B530F70051
:1002F8005A30890B7D29F70B7D29F80B7D2985312B
:10030800722580310230F800B530F7005A30890B79
:100318008B29F70B8B29F80B8B290330F800D83081
:10032800F7004230890B9629F70B9629F80B962986
:1003380084312B2480314930F700B930890BA22948
:10034800F70BA22900008631DD2680312000410804
:10035800F1004008F0008631C92680318631E02658
:1003680080318531722580310230F800B530F700D0
:100378005A30890BBD29F70BBD29F80BBD298531EA
:10038800722580310330F8008530F7002430890B5E
:10039800CB29F70BCB29F80BCB298631DD26803109
:1003A80020003B08F1003A08F0008631C926803168
:1003B8008631E02680318631D726803120005B08DF
:1003C800F1005A08F0008631C52680318631DA26D8
:1003D800803184312B2480310230F800B530F700A9
:1003E8005A30890BF529F70BF529F80BF5298431D3
:1003F8002B2480310230F800B530F7005A30890BD1
:10040800032AF70B032AF80B032A8531722580315A
:100418000330F8008530F7002430890B112AF70BD8
:10042800112AF80B112A8631DD268031200069084F
:10043800F1006808F0008631C92680318631E0264F
:1004480080318531722580310230F800B530F700EF
:100458005A30890B2D2AF70B2D2AF80B2D2A8531B6
:10046800722580310230F800B530F7005A30890B18
:100478003B2AF70B3B2AF80B3B2A84312B2480318B
:100488008631D72680318631DD2680312000630809
:10049800F1006208F0008631C92680318631E026F5
:1004A800803120005B08F1005A08F0008631C5262B
:1004B80080318631DA2680318531722580310430E9
:1004C800F8005430F700EE30890B682AF70B682AD9
:1004D800F80B682A00328631DD2680312000650855
:1004E800F1006408F0008631C92680318631E026A3
:1004F80080318631D726803120005708F100560810
:10050800F0008631C52680318631DA268031853182
:10051800722580310430F8005430F700EE30890B32
:10052800932AF70B932AF80B932A00328631DD269B
:10053800803120006908F1006808F0008631C9267A
:1005480080318631E02680318631D72680312000FF
:100558005508F1005408F0008631C52680318631EF
:10056800DA26803184312B2480310230F800B5300E
:10057800F7005A30890BBE2AF70BBE2AF80BBE2AA1
:100588008531722580310230F800B530F7005A30D5
:10059800890BCC2AF70BCC2AF80BCC2A853172258B
:1005A80080310430F8002B30F7005F30890BDA2AED
:1005B800F70BDA2AF80BDA2A00008631DD268031BB
:1005C8008631D726803120006508F1006408F000E4
:1005D8008631C92680318631E026803120005B08CB
:1005E800F1005A08F0008631C52680318631DA26B6
:1005F80080318531722580310230F800B530F7003E
:100608005A30890B052BF70B052BF80B052B853179
:10061800722580310230F800B530F7005A30890B66
:10062800132BF70B132BF80B132B84312B2480314E
:100638000430F8002B30F7005F30890B212BF70BC3
:10064800212BF80B212B00008631DD2680318631E5
:10065800D726803120004108F1004008F00086319B
:10066800C92680318631E026803120005F08F100FC
:100678005E08F0008631C52680318631DA26803161
:100688008531722580310230F800B530F7005A30D4
:10069800890B4C2BF70B4C2BF80B4C2B8531722507
:1006A80080310330F8008530F7002430890B5A2B4D
:1006B800F70B5A2BF80B5A2B8631D7268031863107
:1006C800DD26803120006308F1006208F0008631E1
:1006D800C92680318631E026803120005F08F1008C
:1006E8005E08F0008631C52680318631DA268031F1
:1006F80084312B2480310230F800B530F7005A30AD
:10070800890B842BF70B842BF80B842B84312B2437
:1007180080310230F800B530F7005A30890B922B3F
:10072800F70B922BF80B922B853172258031033011
:10073800F800AE30F700B330890BA02BF70BA02BD5
:10074800F80BA02B00008631DD2680318631D726B4
:10075800803120006508F1006408F0008631C92660
:1007680080318631E026803120005B08F1005A088C
:10077800F0008631C52680318631DA268031853110
:10078800722580310230F800B530F7005A30890BF5
:10079800CB2BF70BCB2BF80BCB2B8531722580316C
:1007A8000230F800B530F7005A30890BD92BF70B17
:1007B800D92BF80BD92B84312B2480310230F80047
:1007C800B530F7005A30890BE72BF70BE72BF80BFE
:1007D800E72B8531942580310230F8005730F70037
:1007E800D830890BF52BF70BF52BF80BF52B0032CE
:1007F8008531942580310230F8005730F700D83021
:10080800890B042CF70B042CF80B042C00328531CF
:10081800942580310B30F7006230890B112CF70BCF
:10082800112C00328631DD2680318631D726803181
:100838005230F8002B30F7000030890B212CF70BD1
:10084800212CF80B212C003221298031C628863131
:10085800D12684318030F0000030F1008631C12685
:1008680084318631D42684310B30F2006230890B12
:100878003B2CF20B3B2C00328631D126843164307C
:10088800F0000030F1008631C12684318631D4264B
:1008980084310B30F2006230890B502CF20B502C53
:1008A80000328631D12684315030F0000030F1001A
:1008B8008631C12684318631D42684310B30F2004A
:1008C8006230890B652CF20B652C00328631D126FB
:1008D80084313230F0000030F1008631C126843195
:1008E8008631D42684310B30F2006230890B7A2CA1
:1008F800F20B7A2C00328631D12684311E30F0007A
:100908000030F1008631C12684318631D426843105
:100918000B30F2006230890B8F2CF20B8F2C0032D7
:10092800F301F4018631D12684317408F10073088B
:10093800F0008631C12684318631D42684310B30CB
:10094800F2006230890BA62CF20BA62C0032023082
:10095800F3070030F43D7408803AF20081307202E7
:10096800031DB82C00307302031CBB2CBC2C962C26
:100978008631D1268431FF30F0000030F100863115
:10098800C12684318631D42684316830F200E430BF
:10099800890BCC2CF20BCC2C00328631D126843139
:1009A800080022008C0150308D008E011F3021007C
:1009B8008C00F0308D00C0308E00103023008C0089
:1009C8008D0138308E0024008C018D018E012500A8
:1009D8008C018D018E01373026008C00F0308D009F
:1009E800FF308E003F3027008C00F0308D00FF3044
:1009F8008E0002303D00A5000330A3000E303C00FD
:100A0800A00018303D009E000C303C00A1001930B9
:100A18003D009C0014303C0094000C303D00A400C4
:100A28002700910192019301940195019601970184
:100A38009801990108007E3400347634003470340B
:100A4800003469340034633400345E34003458347C
:100A58000034533400344F3400344A3400344634BC
:100A6800003442340034FC340034EE340034E034D2
:100A78000034D4340034C8340034BD340034B234C3
:100A88000034A83400349E340034953400348D3456
:100A9800003485340034F601863148268531003A21
:100AA800031D572D582D702D01302100D0007208DC
:100AB800D2007108D100DA017308D3007508D50097
:100AC8007408D400D601D701D801D901DB018631D9
:100AD8009D268531F601F60A76080800FF30F300F6
:100AE8000030F4008631D12685317408F10073088E
:100AF800F0008631C12685318631D42685310B3008
:100B0800F2006230890B862DF20B862D0032FE3002
:100B1800F307FF30F43DF41F922D932D762D080036
:100B2800FF30F3000030F4008631D1268531740897
:100B3800F1007308F0008631C12685318631D4264C
:100B480085310B30F2006230890BA82DF20BA82DED
:100B58000032F830F307FF30F43DF41FB42DB52D03
:100B6800982D080086318A2685318431D52485312F
:100B78008531EA258531863194268531863173267B
:100B8800853186316726853186315826853186310B
:100B98003726853186312626853108003E340034D3
:100BA8003A340034383400343434003431340034C6
:100BB8002E3400342C3400342934003427340034E3
:100BC80025340034233400342134003480302400A8
:100BD800940008309500960197014F3092008631B5
:100BE800CD2685310030F0000030F10086317F26B7
:100BF8008531240095160800EA34053400340034A1
:100C08004F340534003400340034003400340034E8
:100C180000340034483406347F3406340034003459
:100C2800003400340034003400340034003400341C
:100C3800003400340034003400340034003400340C
:100C4800003400343F3028009D009C01200092139E
:100C5800073028009E000030F0000030F100863197
:100C6800B026863108003F30280096009501200004
:100C780092100730280097000030F0000030F10093
:100C88008631B62686310800F001F00A21005008A6
:100C9800031D4F2E502E562E24009419542E552ED7
:100CA800562EF001700808003F3020009E009D017C
:100CB800911007309F000030F0000030F1008631BD
:100CC800BC268631080080302C009C001F309B0019
:100CD800C0309A001F08F33908389F000800803098
:100CE8002C0099001F309800C03097001F08FC396D
:100CF80001389F000800700871040319842E852E9E
:100D0800892E7108FC007008FB0008006030320072
:100D180099009B019D0107309F009E019C010800DE
:100D28008F302500930092017F30910003309F049B
:100D380008008631E326863102302100DC000800F5
:100D4800FE0012001E00FE0BA52E00346400800178
:100D58000131890BAB2E003471082000EB007008BC
:100D6800EA00080071082000ED007008EC00080097
:100D78007108FA007008F9000800700828009D0042
:100D880008007008280096000800700820009E00DF
:100D98000800210091151115080028001E110800EF
:100DA80028001E150800280017110800280017152C
:100DB800080020001F11080020001F15080024004B
:0C0DC80016140800303402342A340034C1
:020000040001F9
:08000E008F3EF33FFF3FFF3F6F
:02E00000FF001F
:00000001FF
