:040000008031C9285A
:100008007E1480312000101E0A280B28C5282700DE
:10001800111C0F2810281228200010122700911CEC
:10002800162817281928200010122700111D1D282E
:100038001E2820282000101220000C1C2428252807
:1000480072280E1E282829283E280E1F2C282D2805
:100058003E288531142580312700941E3428352800
:100068003728200010122700941F3B283C283E28E0
:100078002000101220000E1E422843285128270075
:10008800941E472848284A28200010122700941F49
:100098004E284F2851282000101220000E1F5528E6
:1000A800562864282700941E5A285B285D282000BB
:1000B80010122700941F612862286428200010125B
:1000C8002700941E682869286B2820001012270032
:1000D800941F6F28702872282000101220008C1896
:1000E800762877287B280C1D7A287B28C5280E1EA1
:1000F8007E287F2891280E1F822883289128270090
:10010800941E872888288A28200010122700941F08
:100118008E288F2891282000101220000E1E952866
:100128009628A4282700941E9A289B289D282000FA
:1001380010122700941FA128A228A428200010121A
:1001480020000E1FA828A928B7282700941EAD282C
:10015800AE28B028200010122700941FB428B52814
:10016800B728200010122700941EBB28BC28BE28E0
:10017800200010122700941FC228C328C528200079
:100188001012200010127E1009008031CB28AD30EB
:10019800840097308500A030860000308700183032
:1001A80097311F27803153308400873085002030F5
:1001B800860001308700303097311F278031F701E2
:1001C800F801B830840000308500133097311927C2
:1001D80080317E1020008631A02E9631EF268031A6
:1001E80080302100CB000030CC00973102278031CD
:1001F8009631EC2680310B302100CD006230890B1E
:100208000329CD0B032900009631EF268031643095
:100218002100CB000030CC00973102278031963185
:10022800EC2680310B302100CD006230890B1A2971
:10023800CD0B1A2900009631EF268031503021006D
:10024800CB000030CC009731022780319631EC2664
:1002580080310B302100CD006230890B3129CD0B64
:10026800312900009631EF26803132302100CB0051
:100278000030CC009731022780319631EC2680314E
:100288000B302100CD006230890B4829CD0B48295D
:1002980000009631EF2680311E302100CB0000305F
:1002A800CC009731022780319631EC2680310B3013
:1002B8002100CD006230890B5F29CD0B5F2900003A
:1002C8002100CE01CF019631EF26803121004F0861
:1002D800CC004E08CB009731022780319631EC26AE
:1002E80080310B302100CD006230890B7929CD0B8C
:1002F8007929000002302100CE070030CF3D4F0899
:10030800803ACD0081304D02031D8C2900304E0209
:10031800031C8F29902967299631EF268031FF30F9
:100328002100CB000030CC00973102278031963174
:10033800EC26803168302100CD00E430890BA229F9
:10034800CD0BA22900009631EF26803108009631A6
:10035800DA2681318030F0000030F1009631FA263B
:1003680081319631D72681310B30F2006230890B0A
:10037800BB29F20BBB2900329631DA268131643071
:10038800F0000030F1009631FA2681319631D726F7
:1003980081310B30F2006230890BD029F20BD02961
:1003A80000329631DA2681315030F0000030F10009
:1003B8009631FA2681319631D72681310B30F200F9
:1003C8006230890BE529F20BE52900329631DA26ED
:1003D80081313230F0000030F1009631FA26813157
:1003E8009631D72681310B30F2006230890BFA2919
:1003F800F20BFA2900329631DA2681311E30F000EC
:100408000030F1009631FA2681319631D7268131B4
:100418000B30F2006230890B0F2AF20B0F2A0032E0
:10042800F301F4019631DA2681317408F10073087A
:10043800F0009631FA2681319631D72681310B307A
:10044800F2006230890B262AF20B262A003202308B
:10045800F3070030F43D7408803AF20081307202EC
:10046800031D382A00307302031C3B2A3C2A162A33
:100478009631DA268131FF30F0000030F1009631F4
:10048800FA2681319631D72681316830F200E4307E
:10049800890B4C2AF20B4C2A00329631DA2681312C
:1004A80008003F30F5005530890B582AF50B582ABB
:1004B80000009631DD2682310730F600B330F500B2
:1004C8004230890B652AF50B652AF60B652A00323E
:1004D8009631DD26823120003B08F1003A08F00011
:1004E8009631F22682319631D12682319631E02634
:1004F800823120005308F1005208F0009631F626A8
:1005080082319631D42682318131AB218231023059
:10051800F600B530F5005A30890B902AF50B902A71
:10052800F60B902A8731AE2782310230F600B530BB
:10053800F5005A30890B9E2AF50B9E2AF60B9E2A47
:100548008731AE2782310430F6005430F500EE30A2
:10055800890BAC2AF50BAC2AF60BAC2A0032963183
:10056800DD26823120006708F1006608F000963128
:10057800F22682319631D12682318731AE278231F7
:100588000230F600B530F5005A30890BC92AF50B50
:10059800C92AF60BC92A8731AE2782310230F60004
:1005A800B530F5005A30890BD72AF50BD72AF60B48
:1005B800D72A0230F6006C30F500A030890BE22A09
:1005C800F50BE22AF60BE22A8131AB218231833125
:1005D8007D2B0230F600B530F5005A30890BF22A2F
:1005E800F50BF22AF60BF22A8131AB218231023067
:1005F800F600B530F5005A30890B002BF50B002BAF
:10060800F60B002B8731AE2782310330F600E2303B
:10061800F500A630890B0E2BF50B0E2BF60B0E2BC7
:100628009631DD2682319631E0268231200063083A
:10063800F1006208F0009631F22682319631D12617
:10064800823120005908F1005808F0009631F6264A
:1006580082319631D42682318731AE2782310230F9
:10066800F600B530F5005A30890B382BF50B382BCE
:10067800F60B382B8731AE2782310230F600B530C1
:10068800F5005A30890B462BF50B462BF60B462BFB
:100698008131AB2182310230F600B530F5005A3095
:1006A800890B542BF50B542BF60B542B8731D02781
:1006B80082310230F6005730F500D830890B622BB2
:1006C800F50B622BF60B622B00328731D027823173
:1006D8000230F6005730F500D830890B712BF50B36
:1006E800712BF60B712B00328731D0278231823182
:1006F800552A0230F6006C30F500A030890B822BA9
:10070800F50B822BF60B822B7D30F500AC30890B74
:100718008B2BF50B8B2B9631DD268331200041087E
:10072800F1004008F0009631F22683319631D12647
:1007380083318731AE2783310230F600B530F500BA
:100748005A30890BA52BF50BA52BF60BA52B87315A
:10075800AE2783310530F600C030F5009030890BA4
:10076800B32BF50BB32BF60BB32B00329631DD26EA
:10077800833120004508F1004408F0009631F22644
:1007880083319631D12683319631E026833120009A
:100798005908F1005808F0009631F6268331963151
:1007A800D42683318131AB2183310230F600B53054
:1007B800F5005A30890BDE2BF50BDE2BF60BDE2B02
:1007C8008131AB2183310230F600B530F5005A3063
:1007D800890BEC2BF50BEC2BF60BEC2B8731AE27AA
:1007E80083310430F6005430F500EE30890BFA2BD3
:1007F800F50BFA2BF60BFA2B00329631DD268331F6
:10080800883108280230F600B530F5005A30890BD7
:100818000B2CF50B0B2CF60B0B2C8731AE278431E8
:100828000230F600B530F5005A30890B192CF50B5B
:10083800192CF60B192C0330F600D830F50042308D
:10084800890B242CF50B242CF60B242C8131AB219D
:1008580084317D30F500AC30890B302CF50B302C11
:100868009631DD26843120004108F1004008F0006F
:100878009631F22684319631D12684318731AE27DC
:1008880084310230F600B530F5005A30890B4A2C15
:10089800F50B4A2CF60B4A2C8731AE2784310330EE
:1008A800F600B930F5001630890B582CF50B582C8A
:1008B800F60B582C00329631DD26843120003B0897
:1008C800F1003A08F0009631F22684319631D126AB
:1008D80084319631E026843120005908F100580807
:1008E800F0009631F62684319631D4268431813150
:1008F800AB2184310230F600B530F5005A30890B4F
:10090800832CF50B832CF60B832C8131AB2184319E
:1009180084318E2C0230F600B530F5005A30890B40
:10092800932CF50B932CF60B932C8731AE2784313F
:100938000330F600B930F5001630890BA12CF50B01
:10094800A12CF60BA12C00329631DD268431200033
:100958006708F1006608F0009631F2268431963176
:10096800D12684318731AE2784310230F600B53084
:10097800F5005A30890BBE2CF50BBE2CF60BBE2C9D
:100988008731AE2784310230F600B530F5005A3091
:10099800890BCC2CF50BCC2CF60BCC2C8131AB2154
:1009A80084313430F500F230890BD82CF50BD82C73
:1009B8009631E02684319631DD26843120006108A5
:1009C800F1006008F0009631F22684319631D12684
:1009D800843120005908F1005808F0009631F626B5
:1009E80084319631D42684318731AE27843104305E
:1009F800F6008830F500E130890B002DF50B002D4D
:100A0800F60B002D00009631DD26843120006308A6
:100A1800F1006208F0009631F22684318531982D74
:100A2800A0308600003087005030840000308500F8
:100A38001830F50016001A00F50B1E2D3830860008
:100A48000130870038308400003085001830F50008
:100A580016001A00F50B2C2D203086000130870077
:100A680020308400003085001830F50016001A0088
:100A7800F50B3A2D9631DD26853120003B08F10033
:100A88003A08F0009631F22685319631D126853123
:100A98009631E026853120005308F1005208F00015
:100AA8009631F62685319631D42685318131AB21B0
:100AB80085310230F600B530F5005A30890B622DC9
:100AC800F50B622DF60B622D8731AE27853102308A
:100AD800F600B530F5005A30890B702DF50B702DE6
:100AE800F60B702D8731AE2785310430F60054306F
:100AF800F500EE30890B7E2DF50B7E2DF60B7E2D45
:100B080000329631DD26853120006708F10066083D
:100B1800F0009631F22685319631D126853187311C
:100B2800AE2785318431062C9631D1268531963110
:100B3800E026853120005508F1005408F000963170
:100B4800F62685319631D42685318731AE27853111
:100B58000430F6008830F500E130890BB12DF50B33
:100B6800B12DF60BB12D00009631DD268531200020
:100B78006708F1006608F0009631F2268531963153
:100B8800D12685319631E026853120005308F100C1
:100B98005208F0009631F62685319631D4268531F3
:100BA8008131AB2185310230F600B530F5005A307D
:100BB800890BDC2DF50BDC2DF60BDC2D8731AE27F0
:100BC80085310230F600B530F5005A30890BEA2D30
:100BD800F50BEA2DF60BEA2D8731AE278531043067
:100BE800F6005F30F5005230890BF82DF50BF82D23
:100BF800F60BF82D9631DD2685319631E0268531C4
:100C080020006308F1006208F0009631F226853171
:100C18009631D126853120005908F1005808F00096
:100C28009631F62685319631D426853186311C2EAB
:100C38008731AE2786310230F600B530F5005A30DC
:100C4800890B242EF50B242EF60B242E8731AE2784
:100C580086310230F600B530F5005A30890B322E55
:100C6800F50B322EF60B322E8131AB218631043052
:100C7800F6005F30F5005230890B402EF50B402E00
:100C8800F60B402E9631DD2686319631E0268631E8
:100C980020004108F1004008F0009631F226863124
:100CA8009631D126863120005D08F1005C08F000FD
:100CB8009631F62686319631D42686318731AE278D
:100CC80086310230F600B530F5005A30890B6A2EAD
:100CD800F50B6A2EF60B6A2E8731AE278631033064
:100CE800F600B930F5001630890B782EF50B782E02
:100CF800F60B782E00329631E02686319631DD26C5
:100D0800863120006108F1006008F0009631F22673
:100D180086319631D126863120005D08F1005C08C5
:100D2800F0009631F62686319631D4268631813107
:100D3800AB2186318231ED2A9731C52786312100D2
:100D48000C148C140C158D168D170E160E178E1785
:100D580023000C108C100C118D128D130E120E1313
:100D68008E1321008C120E108E100E1122008C1280
:100D78000E108E100E1121001016200010120030D7
:100D88002100D7009830D8009631EF268631963169
:100D9800E92686319631E626863100302100CC00DE
:100DA800CD00D330CE000830CF000030D000580836
:100DB800D2005708D10006305107840052080318A2
:100DC800520A8500013F8A00003F0A008631103030
:100DD8002100D1000030D20000305206031DF62E4B
:100DE800D3305106031DF92EFA2ED12E8031F12071
:100DF80086319631EF2686319631E926863196314D
:100E0800E6268631D12E8031C92822008C01503047
:100E18008D008E011F3021008C00F0308D00C03015
:100E28008E00103023008C008D0138308E00240095
:100E38008C018D018E0125008C018D018E013730CA
:100E480026008C00F0308D00FF308E003F302700E8
:100E58008C00F0308D00FF308E0002303D00A50080
:100E68000330A3000E303C00A00018303D009E0067
:100E78000C303C00A10019303D009C0014303C00AF
:100E880094000C303D00A4002700910192019301C9
:100E980094019501960197019801990108003E3443
:100EA80000343A34003438340034343400343134C3
:100EB80000342E3400342C340034293400342734E0
:100EC80000342534003423340034213400347E3493
:100ED80000347634003470340034693400346334B8
:100EE80000345E34003458340034533400344F3402
:100EF80000344A34003446340034423400348030FC
:100F0800F3000030F4009631DA2687317408F100D6
:100F18007308F0009631FA2687319631D726873143
:100F28000B30F2006230890B972FF20B972F0032AB
:100F38000430F3070030F43D7408803AF200813041
:100F48007202031DA92F01307302031CAC2FAD2FB1
:100F5800872F0800FF30F3000030F4009631DA26BE
:100F680087317408F1007308F0009631FA2687314A
:100F78009631D72687310B30F2006230890BC22FA9
:100F8800F20BC22F0032FE30F307FF30F43DF41F9E
:100F9800CE2FCF2FB22F08008030F3000030F4009E
:100FA8009631DA2687317408F1007308F00096311B
:100FB800FA2687319631D72687310B30F200623016
:100FC800890BE42FF20BE42F0032FC30F307FF30DB
:100FD800F43DF41FF02FF12FD42F080080302C009F
:100FE8009C001F309B00C0309A001F08F339083856
:040FF8009F0008004E
:101002009631E326883101302100C4000800200017
:101012004108F1004008F0009631F22688319631FD
:10102200D12688319631E026883120005D08F10012
:101032005C08F0009631F62688319631D426883144
:101042008731AE2788310230F600B530F5005A30CC
:10105200890B2928F50B2928F60B29288731AE2779
:1010620088310330F600B930F5001630890B372885
:10107200F50B3728F60B372800329631DD268831FA
:1010820020004B08F1004A08F0009631F226883120
:101092009631D12688319631E026883120006708C2
:1010A200F1006608F0009631F62688319631D42692
:1010B20088318131AB2188310230F600E930F50008
:1010C2004C30890B6228F50B6228F60B622800323D
:1010D2009631DD26883120004908F1004808F000E9
:1010E2009631F22688319631D12688318731AE2762
:1010F20088310530F6001A30F5005430890B7F280C
:10110200F50B7F28F60B7F2800329631DD268831D9
:1011120020003B08F1003A08F0009631F2268831AF
:101122009631D12688318731AE278831E530F500F6
:101132009130890B9A28F50B9A2800009631E02607
:10114200883120004F08F1004E08F0009631F62653
:1011520088319631D42688318131AB2188310230F1
:10116200F600B530F5005A30890BB528F50BB528D5
:10117200F60BB5288731AE2788310230F600B5303C
:10118200F5005A30890BC328F50BC328F60BC32888
:101192008731AE2788310430F6005430F500EE3046
:1011A200890BD128F50BD128F60BD12800329631C4
:1011B200E026883120002308F1002208F000963151
:1011C200F62688319631D42688318731AE27883188
:1011D2000230F600B530F5005A30890BEE28F50BD7
:1011E200EE28F60BEE288731AE2788310230F60062
:1011F200B530F5005A30890BFC28F50BFC28F60BAC
:10120200FC288131AB2188310430F6005430F500DE
:10121200EE30890B0A29F50B0A29F60B0A2900324E
:101222009631E026883120004F08F1004E08F00088
:101232009631F62688319631D42688318731AE2709
:1012420088310230F600B530F5005A30890B272973
:10125200F50B2729F60B27298731AE278831B130C4
:10126200F5009E30890B3329F50B33290032963174
:10127200E02688310530F6000F30F500F130890B99
:101282004029F50B4029F60B4029000020004F08A9
:10129200F1004E08F0009631F62688319631D426B8
:1012A20088318131AB2188310230F600B530F5004A
:1012B2005A30890B5A29F50B5A29F60B5A298131D2
:1012C200AB2188310230F600B530F5005A30890B77
:1012D2006829F50B6829F60B68298731AE27883112
:1012E2000330F600E230F500A630890B7629F50BC3
:1012F2007629F60B76299631E026883120004D08B2
:10130200F1004C08F0009631F62688319631D42649
:1013120088318731AE2788310230F600B530F500CA
:101322005A30890B9229F50B9229F60B92298731B3
:10133200AE278831D030F500CA30890B9E29F50BD3
:101342009E298731D0278831D030F500CA30890BE9
:10135200A829F50BA8298731D02788310730F60054
:101362009E30F5007B30890BB429F50BB429F60BBE
:10137200B42900009631E026883120004908F100A6
:101382004808F0009631F62688319631D426883105
:101392008731AE278831D030F500CA30890BCF298A
:1013A200F50BCF298731D0278831D030F500CA30EC
:1013B200890BD929F50BD9298731D02788310630F5
:1013C200F6006630F500CC30890BE529F50BE529EE
:1013D200F60BE5299631DD26883120002308F1003D
:1013E2002208F0009631F22688319631D1268831D2
:1013F2009631E026883120005308F1005208F000AF
:101402009631F62688319631D42688318131AB2146
:1014120088310230F600B530F5005A30890B0F2AB8
:10142200F50B0F2AF60B0F2A8731AE2788310230CF
:10143200F600B530F5005A30890B1D2AF50B1D2A2E
:10144200F60B1D2A8731AE2788310430F60054305E
:10145200F500EE30890B2B2AF50B2B2AF60B2B2AE3
:1014620000329631DD26883120004F08F1004E0807
:10147200F0009631F22688319631D12688318731B3
:10148200AE2788310230F600B530F5005A30890BAC
:10149200482AF50B482AF60B482A8731AE278831AD
:1014A2000230F600B530F5005A30890B562AF50B9A
:1014B200562AF60B562A0330F600D830F500423091
:1014C200890B612AF50B612AF60B612A8131AB2166
:1014D20088317D30F500AC30890B6D2AF50B6D2A11
:1014E2009631DD26883120002908F1002808F00015
:1014F2009631F22688319631D12688318731AE274E
:1015020088310230F600B530F5005A30890B872A4F
:10151200F50B872AF60B872A8731AE2788310330ED
:10152200F600B930F5001630890B952AF50B952A8D
:10153200F60B952A00329631DD26883120002308E9
:10154200F1002208F0009631F22688319631D12638
:1015520088319631E026883120005908F100580878
:10156200F0009631F62688319631D42688318131C1
:10157200AB2188310230F600B530F5005A30890BC4
:10158200C02AF50BC02AF60BC02A8131AB21883163
:101592000230F600B530F5005A30890BCE2AF50B31
:1015A200CE2AF60BCE2A8731AE2788310330F600D9
:1015B200B930F5001630890BDC2AF50BDC2AF60B64
:1015C200DC2A00329631DD26883120004F08F100F6
:1015D2004E08F0009631F22688319631D1268831B4
:1015E2008731AE2788310230F600B530F5005A3027
:1015F200890BF92AF50BF92AF60BF92A8731AE275E
:1016020088310230F600B530F5005A30890B072BCD
:10161200F50B072BF60B072B8131AB2188313430C8
:10162200F500F230890B132BF50B132B9631E026C4
:1016320088319631DD26883120004908F1004808BA
:10164200F0009631F22688319631D1268831200079
:101652005908F1005808F0009631F6268831963183
:10166200D42688318731AE2788310430F60088309D
:10167200F500E130890B3B2BF50B3B2BF60B3B2B9B
:1016820000009631DD26883120004B08F1004A081F
:10169200F0009631F22688319631D1268831963182
:1016A200E026883120005508F1005408F0009631F8
:1016B200F62688319631D42688318731AE27883193
:1016C2000430F6008830F500E130890B662BF50B0B
:1016D200662BF60B662B00009631DD268831200042
:1016E2004F08F1004E08F0009631F226883196310B
:1016F200D12688319631E026883120005308F10046
:101702005208F0009631F62688319631D426883177
:101712008131AB2188310230F600B530F5005A3004
:10172200890B912BF50B912BF60B912B8731AE2761
:1017320088310230F600B530F5005A30890B9F2B04
:10174200F50B9F2BF60B9F2B8731AE278831043088
:10175200F6005F30F5005230890BAD2BF50BAD2B47
:10176200F60BAD2B9631DD2688319631E026883195
:1017720020004B08F1004A08F0009631F226883129
:101782009631D126883120005908F1005808F0001E
:101792009631F62688319631D42688318731AE27A4
:1017A20088310230F600B530F5005A30890BD72B5C
:1017B200F50BD72BF60BD72B8731AE2788310230AA
:1017C200F600B530F5005A30890BE52BF50BE52B09
:1017D200F60BE52B8131AB2188310430F6005F3006
:1017E200F5005230890BF32BF50BF32BF60BF32B91
:1017F2009631DD2688319631E0268831200029088D
:10180200F1002808F0009631F22688319631D1266F
:10181200883120005D08F1005C08F0009631F62660
:1018220088319631D42688318731AE27883102300B
:10183200F600B530F5005A30890B1D2CF50B1D2C26
:10184200F60B1D2C8731AE2788310330F600B930F4
:10185200F5001630890B2B2CF50B2B2CF60B2B2CB1
:1018620000329631E02688319631DD26883120001B
:101872004908F1004808F0009631F2268831963185
:10188200D126883120005D08F1005C08F000963115
:10189200F62688319631D42688318131AB218831C0
:1018A2000230F600B530F5005A30890B562CF50B94
:1018B200562CF60B562C8131AB2188310230F600C2
:1018C200B530F5005A30890B642CF50B642CF60BFD
:1018D200642C8731AE2788310330F600E230F50000
:1018E200A630890B722CF50B722CF60B722C9631EA
:1018F200DD2688319631E026883120004B08F10040
:101902004A08F0009631F22688319631D126883184
:1019120020005908F1005808F0009631F626883167
:101922009631D42688318731AE2788310230F600CD
:10193200B530F5005A30890B9C2CF50B9C2CF60B1C
:101942009C2C8731AE2788310230F600B530F50085
:101952005A30890BAA2CF50BAA2CF60BAA2C813132
:10196200AB2188310230F600B530F5005A30890BD0
:10197200B82CF50BB82CF60BB82C8731D027883150
:101982000230F6005730F500D830890BC62CF50B23
:10199200C62CF60BC62C00328731D0278831023094
:1019A200F6005730F500D830890BD52CF50BD52C25
:1019B200F60BD52C00328731D02788313F30F50025
:1019C2005530890BE22CF50BE22C00009631E02613
:1019D20088310730F6001730F5006A30890BEF2C9A
:1019E200F50BEF2CF60BEF2C00329631DD26883109
:1019F20020004F08F1004E08F0009631F22688319F
:101A02009631D12688319631E026883120005F0850
:101A1200F1005E08F0009631F62688319631D42620
:101A220088318131AB2188310230F600B530F500C2
:101A32005A30890B1A2DF50B1A2DF60B1A2D8731F8
:101A4200AE2788310530F6003930F5008030890B39
:101A5200282DF50B282DF60B282D9631DD26883101
:101A620020002308F1002208F0009631F226883186
:101A72009631D12688318731AE2788310430F6007D
:101A82008830F500E130890B442DF50B442DF60B1F
:101A9200442D00009631DD26883120002508F10012
:101AA2002408F0009631F22688319631D126883109
:101AB2008731AE2788310230F600B530F5005A3052
:101AC200890B612DF50B612DF60B612D8731AE2748
:101AD20088310330F600B930F5001630890B6F2DCE
:101AE200F50B6F2DF60B6F2D00329631DD26883106
:101AF20020002908F1002808F0009631F2268831EA
:101B02009631D12688318131AB2188310230F600FD
:101B1200B530F5005A30890B8C2DF50B8C2DF60B58
:101B22008C2D8731AE2788310330F6003230F50034
:101B32000630890B9A2DF50B9A2DF60B9A2D9631BC
:101B4200DD26883120002D08F1002C08F0009631A6
:101B5200F22688319631D12688318731AE278831F5
:101B62000230F600E930F5004C30890BB62DF50B4A
:101B7200B62DF60BB62D00329631E02688312000C4
:101B82006708F1006608F0009631F6268831963132
:101B9200D42688318131AB2188310230F600B5304C
:101BA200F5005A30890BD32DF50BD32DF60BD32D1F
:101BB2008131AB2188310430F6007E30F5007D3072
:101BC200890BE12DF50BE12DF60BE12D000096318D
:101BD200E026883120003B08F1003A08F0009631F7
:101BE200F62688319631D42688318731AE2788315E
:101BF2003430F500F230890BFC2DF50BFC2D9631BB
:101C0200DD2688310430F600DB30F500FF30890B29
:101C1200082EF50B082EF60B082E00009631E02652
:101C2200883120003D08F1003C08F0009631F6268C
:101C320088319631D42688318731AE2788310330F6
:101C4200F600B930F5001630890B252EF50B252E3E
:101C5200F60B252E003220002D08F1002C08F00092
:101C62009631F22688319631D12688318731AE27D6
:101C720088310330F600B930F5001630890B3F2E5B
:101C8200F50B3F2EF60B3F2E00329631E0268831BF
:101C920020004108F1004008F0009631F626883114
:101CA2009631D42688318131AB218831C630F50096
:101CB2006630890B5A2EF50B5A2E9631DD26883165
:101CC20020003708F1003608F0009631F2268831FC
:101CD2009631D12688318731AE2788310330F6001C
:101CE200B930F5001630890B742EF50B742EF60BF5
:101CF200742E00329631E026883120004708F10028
:101D02004608F0009631F62688319631D42688317D
:101D12008731AE2788319631DD2688310430F600CE
:101D2200BC30F500D430890B942EF50B942EF60BB3
:101D3200942E20003708F1003608F0009631F22682
:101D420088319631D12688319631E02688312000BB
:101D52004508F1004408F0009631F62688319631A4
:101D6200D42688318131AB2188310230F600B5307A
:101D7200F5005A30890BBB2EF50BBB2EF60BBB2E92
:101D82008731AE2788310330F6008530F5002430E4
:101D9200890BC92EF50BC92EF60BC92E8731AE273A
:101DA20088310330F6008530F5002430890BD72EB8
:101DB200F50BD72EF60BD72E8731AE27883103309D
:101DC200F6008530F5002430890BE52EF50BE52E63
:101DD200F60BE52E8731AE2788310330F6008530C9
:101DE200F5002430890BF32EF50BF32EF60BF32EB0
:101DF2008131AB2188310230F600AA30F500F6308D
:101E0200890B012FF50B012FF60B012F00329631B2
:101E1200E026883120003B08F1003A08F0009631B4
:101E2200F62688319631D42688318731AE2788311B
:101E32000230F600B530F5005A30890B1E2FF50B33
:101E42001E2FF60B1E2F8731AE2788310530F60084
:101E5200C030F5009030890B2C2FF50B2C2FF60B90
:101E62002C2F00329631DD26883120003508F10012
:101E72003408F0009631F22688319631D126883125
:101E82009631E026883120005D08F1005C08F00000
:101E92009631F62688319631D42688318731AE279D
:101EA20088310230F600B530F5005A30890B572FD1
:101EB200F50B572FF60B572F8131AB2188310230AA
:101EC200F600B530F5005A30890B652FF50B652FFA
:101ED200F60B652F8731AE2788310230F600B53018
:101EE200F5005A30890B732FF50B732FF60B732FF6
:101EF2008131AB2188310230F600B530F5005A301D
:101F0200890B812FF50B812FF60B812F8731AE279D
:101F120088310230F6005730F500D830890B8F2F08
:101F2200F50B8F2FF60B8F2F00328731D027883198
:101F32000230F6005730F500D830890B9E2FF50B92
:101F42009E2FF60B9E2F0032873183278831D030A7
:101F5200F500CA30890BAB2FF50BAB2F87318327E6
:101F620088310230F600B530F5005A30890BB72FB0
:101F7200F50BB72FF60BB72F8731AE27883102301A
:101F8200F6005730F500D830890BC52FF50BC52F59
:101F9200F60BC52F00328731D02788310230F60088
:101FA2005730F500D830890BD42FF50BD42FF60B10
:101FB200D42F00328731D02788310230F6005730D3
:101FC200F500D830890BE32FF50BE32FF60BE32F47
:101FD20000328731D02788319631E0268831963118
:101FE200DD2688310530F6000F30F500F130890B1F
:0E1FF200F82FF50BF82FF60BF82F0000080063
:102DA20020001F15080028001715080028001E150E
:102DB200080028001E11080020001F11080028002A
:102DC2001711080024001614080020001F11080023
:102DD20028001711080028001E15080028001E11DF
:102DE2000800700820009E00080070082800960065
:102DF2000800700828009D00080021009115111597
:102E0200080021004B0828009D00080021004C0802
:102E1200CA004B08C900080021004C08C8004B0832
:102E2200C700080021004C08C6004B08C500080076
:102E3200640080010131890B1A2F0034FE00120058
:102E42001E00FE0B202F00348F30250093009201CC
:102E52007F30910003309F040800603032009900F7
:102E62009B019D0107309F009E019C0108002100EB
:102E72004B084C0403193E2F3F2F432F4C08F800F8
:102E82004B08F700080080302C0099001F30980092
:102E9200C03097001F08FC3901389F0008003F30FE
:102EA20020009E009D01911007309F0000302100FC
:102EB200CB000030CC009731072797310800210062
:102EC200CB01CB0A3808031D672F682F6F2F240010
:102ED20094196C2F6D2F6F2F2100CB0121004B080D
:102EE20008003F302800960095012000921007301C
:102EF2002800970000302100CB000030CC00973131
:102F02000D27973108003F3028009D009C012000CA
:102F12009213073028009E0000302100CB000030C1
:102F2200CC00973113279731080080302400940099
:102F320008309500960197014F3092009631FE2697
:102F4200973100302100CB000030CC009731382778
:102F52009731240095160800FC340034EE34003416
:102F6200E0340034D4340034C8340034BD34003486
:102F7200B2340034A83400349E3400349534003422
:102F82008D3400348534003497312E2797318731C0
:102F9200092797319731962797319731252797310E
:102FA2009731442797318731F2279731973150274C
:102FB20097319731722797319731842797310800DB
:102FC200973160279731003A031DE82FE92FFF2F31
:102FD20001302100B8004D08BA004C08B900C20106
:102FE2004E08BF005008C1004F08C000BB01BC0121
:102FF200BD01BE01C301883101209731080096341A
:1030020017340034003400340034E134173400340F
:10301200003400340034003400346034173438345F
:1030220017340034003400340034003400340034E7
:1030320000340034003400340034003400340034EE
:1030420000340034003400340034353402342A347D
:02305200003448
:020000040001F9
:08000E008F3EF33FFF3FFF3F6F
:02E00000FF001F
:00000001FF
