:040000008031C6285D
:100008007E1480312000101E0A280B28C2282700E1
:10001800111C0F2810281228200010122700911CEC
:10002800162817281928200010122700111D1D282E
:100038001E2820282000101220000C1C2428252807
:100048006F280E1E282829283B280E1F2C282D280B
:100058003B282700941E312832283428200010120B
:100068002700941F382839283B2820001012200028
:100078000E1E3F2840284E282700941E4428452855
:100088004728200010122700941F4B284C284E2880
:100098002000101220000E1F522853286128270024
:1000A800941E572858285A28200010122700941FF9
:1000B8005E285F286128200010122700941E6528FA
:1000C80066286828200010122700941F6C286D28C5
:1000D8006F282000101220008C18732874287828A4
:1000E8000C1D77287828C2280E1E7B287C288E288D
:1000F8000E1F7F2880288E282700941E8428852894
:100108008728200010122700941F8B288C288E28FF
:100118002000101220000E1E92289328A1282700E4
:10012800941E972898289A28200010122700941FB8
:100138009E289F28A1282000101220000E1FA52805
:10014800A628B4282700941EAA28AB28AD2820008A
:1001580010122700941FB128B228B42820001012CA
:100168002700941EB828B928BB28200010122700A1
:10017800941FBF28C028C228200010122000101287
:100188007E1009008031C828303084008430850012
:10019800A0308600003087003030853193258031CB
:1001A800C13084008430850020308600013087000B
:1001B8001830853193258031F901FA01FB01FC01E2
:1001C800EA01EB01EC01ED01D0308400003085003C
:1001D8000D308531992580317E1020008031F4283A
:1001E8008431A5248031B830860000308700523031
:1001F8008400003085001830F70016001A00F70B4D
:100208000129A03086000030870038308400003093
:1002180085001830F70016001A00F70B0F29203058
:1002280086000130870020308400003085001830B7
:10023800F70016001A00F70B1D298531CC258031EF
:1002480020003B08F1003A08F0008531B8258031DC
:100258008531CF2580318531C6258031200055086C
:10026800F1005408F0008531B42580318531C92565
:10027800803183313C2380310230F800A030F70010
:100288009230890B4529F70B4529F80B452900328F
:100298008431832480310230F800A030F700923096
:1002A800890B5429F70B5429F80B5429003284314F
:1002B800832480310630F8000930F7004A30890B72
:1002C8006329F70B6329F80B63298531CC25803125
:1002D80020006908F1006808F0008531B8258031F0
:1002E8008531CF2580318431832480310230F80074
:1002F800A030F7009230890B7F29F70B7F29F80B84
:100308007F29003283313C2380310C30F800DA3009
:10031800F700BA30890B8E29F70B8E29F80B8E2936
:1003280000328531CC25803120004108F100400899
:10033800F0008531B82580318531CF258031843171
:10034800832480310830F8002F30F700EF30890B14
:10035800AB29F70BAB29F80BAB2900008531CC256D
:10036800803120003B08F1003A08F0008531B825BB
:1003780080318531CF2580318431832480318531A6
:10038800C625803120005B08F1005A08F00085314D
:10039800B42580318531C92580311430F80090307A
:1003A800F700BC30890BD629F70BD629F80BD629CC
:1003B8008531CC25803120006908F1006808F000FB
:1003C8008531B82580318531CF2580311730F80047
:1003D800BB30F7001D30890BEF29F70BEF29F80B1D
:1003E800EF2900008531C62580310330F800083038
:1003F800F7007730890BFE29F70BFE29F80BFE2949
:1004080000008531CC25803120006308F1006208A6
:10041800F0008531B82580318531CF258031843190
:10042800832480318531C625803120005B08F100A6
:100438005A08F0008531B42580318531C9258031CD
:10044800FA30F7005830890B272AF70B272A003291
:100458008531CC25803120006508F1006408F00062
:100468008531B82580318531CF2580318531C62544
:10047800803120005708F1005608F0008531B42576
:1004880080318531C92580310730F8002C30F700DC
:100498003230890B4D2AF70B4D2AF80B4D2A85313E
:1004A800CC25803120006908F1006808F00085310A
:1004B800B82580318531CF2580318531C6258031F9
:1004C80020005508F1005408F0008531B42580312A
:1004D8008531C92580311930F800C230F7009730CE
:1004E800890B742AF70B742AF80B742A00008531DB
:1004F800CC2580318531C625803120006508F10082
:100508006408F0008531B82580318531CF258031E8
:1005180020005B08F1005A08F0008531B4258031CD
:100528008531C92580311930F800C230F70097307D
:10053800890B9C2AF70B9C2AF80B9C2A0000853112
:10054800CC2580318531C625803120004108F10055
:100558004008F0008531B82580318531CF258031BC
:1005680020005F08F1005E08F0008531B425803175
:100578008531C92580310B30F8005A30F7005030EA
:10058800890BC42AF70BC42AF80BC42A0032853118
:10059800C62580310330F8000830F7007730890B22
:1005A800D32AF70BD32AF80BD32A00008531CC25A0
:1005B800803120006308F1006208F0008531B82519
:1005C80080318531CF25803120005F08F1005E0839
:1005D800F0008531B42580318531C9258031193045
:1005E800F800C230F7009730890BF82AF70BF82A81
:1005F800F80BF82A00008531CC2580318531C625D5
:10060800803120006508F1006408F0008531B825C4
:1006180080318531CF25803120005B08F1005A08F0
:10062800F0008531B42580318531C92580311930F4
:10063800F800C230F7009730890B202BF70B202BDE
:10064800F80B202B00008531CC2580318531C6255B
:1006580080315230F8002B30F7000030890B322BF4
:10066800F70B322BF80B322B003221298031C628A8
:100678008531C02583318030F0000030F1008531AC
:10068800B02583318531C32583310B30F2006230C8
:10069800890B4C2BF20B4C2B00328531C025833152
:1006A8006430F0000030F1008531B02583318531A8
:1006B800C32583310B30F2006230890B612BF20BBA
:1006C800612B00328531C02583315030F000003075
:1006D800F1008531B02583318531C32583310B3055
:1006E800F2006230890B762BF20B762B00328531C3
:1006F800C02583313230F0000030F1008531B0255B
:1007080083318531C32583310B30F2006230890B88
:100718008B2BF20B8B2B00328531C02583311E3099
:10072800F0000030F1008531B02583318531C325D3
:1007380083310B30F2006230890BA02BF20BA02B17
:100748000032F301F4018531C02583317408F100CA
:100758007308F0008531B02583318531C325833195
:100768000B30F2006230890BB72BF20BB72B00323B
:100778000130F3070030F43D7408803AF20081300C
:100788007202031DC92B00307302031CCC2BCD2B26
:10079800A72B8531C0258331FF30F0000030F100F0
:1007A8008531B02583318531C3258331E530F200A9
:1007B8009130890BDD2BF20BDD2B00008531C02534
:1007C8008331080022008C0150308D008E011F30CB
:1007D80021008C00F0308D00C0308E0010302300D6
:1007E8008C008D0138308E0024008C018D018E0123
:1007F80025008C018D018E01373026008C00F030E9
:100808008D00FF308E003F3027008C00F0308D00C7
:10081800FF308E0002303D00A5000330A3000E30EB
:100828003C00A00018303D009E000C303C00A100A8
:1008380019303D009C0014303C0094000C303D0001
:10084800A40027009101920193019401950196015A
:1008580097019801990108007E34003476340034F9
:100868007034003469340034633400345E34003446
:1008780058340034533400344F3400344A3400348C
:100888004634003442340034FC340034EE3400344E
:10089800E0340034D4340034C8340034BD34003477
:1008A800B2340034A83400349E3400349534003413
:1008B8008D34003485340034F60185313725843190
:1008C800003A031D682C692C812C01302100D000CE
:1008D8007208D2007108D100DA017308D3007508D4
:1008E800D5007408D400D601D701D801D901DB019D
:1008F80085318C258431F601F60A76080800FF3028
:10090800F3000030F4008531C02584317408F1000B
:100918007308F0008531B02584318531C3258431D1
:100928000B30F2006230890B972CF20B972C0032B7
:10093800FE30F307FF30F43DF41FA32CA42C872CC2
:1009480008008531792584318331E6238431843167
:10095800D9248431853183258431853162258431D8
:1009680085315625843185314725843185312625C1
:10097800843185311525843108003E3400343A34F9
:1009880000343834003434340034313400342E34F4
:1009980000342C340034293400342734003425340E
:1009A800003423340034213400348030240094008F
:1009B80008309500960197014F3092008531BC258B
:1009C80084310030F0000030F10085316E2584312B
:1009D800240095160800D9340434003400346034F7
:1009E800043400340034003400340034003400345B
:1009F8000034373405346E340534003400340034A0
:100A0800003400340034003400340034003400343E
:100A1800003400340034003400340034003400342E
:100A280000343F3028009D009C01200092130730BD
:100A380028009E000030F0000030F10085319F252D
:100A4800853108003F30280096009501200092105B
:100A58000730280097000030F0000030F1008531A1
:100A6800A52585310800F001F00A21005008031D72
:100A78003E2D3F2D452D24009419432D442D452D01
:100A8800F001700808003F3020009E009D01911081
:100A980007309F000030F0000030F1008531AB25B1
:100AA8008531080080302C009C001F309B00C0302E
:100AB8009A001F08F33908389F00080080302C007E
:100AC80099001F309800C03097001F08FC39013882
:100AD8009F000800700871040319732D742D782D78
:100AE8007108FC007008FB000800603032009900B3
:100AF8009B019D0107309F009E019C0108008F30DB
:100B08002500930092017F30910003309F04080074
:100B18008531D225853102302100DC000800FE0035
:100B280012001E00FE0B942D003464008001013178
:100B3800890B9A2D003471082000EB007008EA0038
:100B4800080071082000ED007008EC00080071082A
:100B5800FA007008F9000800700828009D000800D5
:100B68007008280096000800700820009E00080001
:100B7800210091151115080028001E1108002800F1
:100B88001E1508002800171108002800171508006E
:100B980020001F11080020001F150800240016144B
:0A0BA80008002834003462340234DF
:020000040001F9
:08000E008F3EF33FFF3FFF3F6F
:02E00000FF001F
:00000001FF
